:020000040800F2
:100000000000032081440008A5430008B343000812
:10001000B9430008BF430008C543000800000000C2
:10002000000000000000000000000000CB430008BA
:10003000D943000800000000E7430008F54300082A
:10004000D1440008D1440008D1440008D14400083C
:10005000D1440008D1440008D1440008D14400082C
:10006000D1440008D1440008D1440008D14400081C
:10007000D1440008D1440008D1440008D14400080C
:10008000D1440008D1440008D1440008D1440008FC
:10009000D1440008D1440008D1440008D1440008EC
:1000A000D1440008D1440008D1440008D1440008DC
:1000B000D1440008D1440008D1440008D1440008CC
:1000C000D1440008D1440008D1440008D1440008BC
:1000D000D1440008D1440008D1440008D1440008AC
:1000E000D1440008D1440008D1440008D14400089C
:1000F000D1440008D1440008D1440008D14400088C
:10010000D1440008D1440008D1440008D14400087B
:10011000D1440008D1440008D1440008D14400086B
:10012000D1440008D1440008D1440008D14400085B
:10013000D1440008D1440008D1440008D14400084B
:10014000D1440008D1440008D1440008D14400083B
:10015000D1440008D1440008D1440008D14400082B
:10016000D1440008D1440008D1440008D14400081B
:10017000D1440008D1440008D14400080000000028
:10018000D1440008D1440008D1440008D1440008FB
:10019000D1440008D1440008D1440008D1440008EB
:0C01A000D1440008D144000801440008CC
:1001AC0010B5054C237833B9044B13B10448AFF3A5
:1001BC0000800123237010BD2800002000000000E7
:1001CC002C45000808B5034B1BB103490348AFF39A
:1001DC00008008BD000000002C0000202C45000809
:1001EC0053B94AB9002908BF00281CBF4FF0FF3192
:1001FC004FF0FF3000F07AB9ADF1080C6DE904CE88
:10020C0000F006F8DDF804E0DDE9022304B07047E5
:10021C002DE9F0478C460D460446089E002B51D123
:10022C008A4217466DD9B2FA82FEBEF1000F0BD08E
:10023C00CEF1200C01FA0EF520FA0CFC02FA0EF7A6
:10024C004CEA050C00FA0EF44FEA174A250CBCFBDD
:10025C00FAF81FFA87F90AFB18CC45EA0C4508FB9B
:10026C0009F3AB420AD9ED1908F1FF3280F0238172
:10027C00AB4240F22081A8F102083D44ED1AA4B231
:10028C00B5FBFAF00AFB105544EA054400FB09F9EA
:10029C00A14509D9E41900F1FF3380F00A81A14589
:1002AC0040F2078102383C44A4EB090440EA0840C0
:1002BC000021002E61D024FA0EF400233460736008
:1002CC00BDE8F0878B4207D9002E54D0002186E878
:1002DC0021000846BDE8F087B3FA83F1002940F00D
:1002EC008E80AB4202D3824200F2FA80841A65EB14
:1002FC0003050120AC46002E3FD086E81010BDE867
:10030C00F08712B90127B7FBF2F7B7FA87FEBEF1F7
:10031C00000F34D1EB1B3A0C1FFA87FC0121B3FB05
:10032C00F2F8250C02FB183345EA03450CFB08F3E5
:10033C00AB4207D9ED1908F1FF3002D2AB4200F203
:10034C00D1808046ED1AA3B2B5FBF2F002FB10553A
:10035C0043EA05440CFB00FCA44507D9E41900F161
:10036C00FF3302D2A44500F2B8801846A4EB0C046B
:10037C0040EA08409DE731463046BDE8F087CEF1B3
:10038C00200405FA0EF307FA0EF720FA04F83A0CDB
:10039C0025FA04F448EA0308B4FBF2F14FEA1845D5
:1003AC0002FB11441FFA87FC45EA044501FB0CF3E0
:1003BC00AB4200FA0EF409D9ED1901F1FF3080F0CF
:1003CC008A80AB4240F2878002393D44EB1A1FFA17
:1003DC0088F5B3FBF2F002FB103345EA034500FB52
:1003EC000CF3AB4207D9ED1900F1FF386FD2AB42D9
:1003FC006DD902383D44EB1A40EA01418FE7C1F157
:10040C00200722FA07F88B4005FA01F448EA0303A7
:10041C0020FA07FE4FEA134CFD404EEA040EB5FBE2
:10042C00FCF94FEA1E440CFB19551FFA83F844EAF9
:10043C00054509FB08F4AC4202FA01F200FA01FA94
:10044C0008D9ED1809F1FF3043D2AC4241D9A9F1DA
:10045C0002091D442D1B1FFA8EFEB5FBFCF00CFB94
:10046C0010554EEA054400FB08F8A04507D9E418DE
:10047C0000F1FF3529D2A04527D902381C4440EAA7
:10048C000940A4EB0804A0FB02894C45C6464D4626
:10049C0015D312D056B1BAEB0E0364EB050404FA73
:1004AC0007F7CB401F43CC40376074600021BDE898
:1004BC00F0871846F8E69046E0E6C245EAD2B8EB7B
:1004CC00020E69EB03050138E4E72846D7E74046FE
:1004DC0091E78146BEE7014678E702383C4445E7A0
:1004EC00084608E7A8F102083D442BE7704700BF17
:1004FC0080B500AF0E4A0E4B1B6843F400731360BB
:10050C000B4A0B4B1B6843F480631360084A084B7F
:10051C001B6843F480731360032000F047F900203C
:10052C0000F008F803F092FC0023184680BD00BFD1
:10053C00003C024080B582B000AF7860124B1A6864
:10054C00124B1B7819464FF47A73B3FBF1F3B2FBE1
:10055C00F3F3184600F05FF90346002B01D001239A
:10056C000EE07B680F2B0AD8002279684FF0FF3021
:10057C0000F027F9064A7B681360002300E0012392
:10058C0018460837BD4680BD24000020040000201A
:10059C000000002080B400AF064B1B781A46064BB7
:1005AC001B681344044A136000BFBD465DF8047B0E
:1005BC00704700BF040000204800002080B400AF4A
:1005CC00034B1B681846BD465DF8047B704700BFA3
:1005DC004800002080B584B000AF7860FFF7EEFFD4
:1005EC00B8607B68FB60FB68B3F1FF3F05D0094B3B
:1005FC001B781A46FB681344FB6000BFFFF7DEFF55
:10060C000246BB68D21AFB689A42F7D300BF103778
:10061C00BD4680BD0400002080B485B000AF78607A
:10062C007B6803F00703FB600C4BDB68BB60BA68AC
:10063C004FF6FF031340BB60FB681A02BB68134301
:10064C0043F0BF6343F40033BB60044ABB68D36020
:10065C0000BF1437BD465DF8047B704700ED00E029
:10066C0080B400AF044BDB681B0A03F00703184689
:10067C00BD465DF8047B704700ED00E080B483B0AC
:10068C0000AF0346FB71094997F907305B09FA790A
:10069C0002F01F02012000FA02F241F8232000BFF1
:1006AC000C37BD465DF8047B704700BF00E100E0ED
:1006BC0080B483B000AF03463960FB7197F9073003
:1006CC00002B0BDA0D49FB7903F00F03043B3A685E
:1006DC00D2B21201D2B20B441A7609E0084997F94A
:1006EC0007303A68D2B21201D2B20B4483F800231D
:1006FC0000BF0C37BD465DF8047B704700ED00E091
:10070C0000E100E080B489B000AFF860B9607A60B5
:10071C00FB6803F00703FB61FB69C3F10703042BC0
:10072C0028BF0423BB61FB690433062B02D9FB6988
:10073C00033B00E000237B610122BB6902FA03F357
:10074C005A1EBB681A407B699A4001217B6901FAE9
:10075C0003F3591E7B680B40134318462437BD46E0
:10076C005DF8047B7047000080B582B000AF786004
:10077C007B68013BB3F1807F01D301230FE00A4A70
:10078C007B68013B53600F214FF0FF30FFF790FF68
:10079C00054B00229A60044B07221A60002318466E
:1007AC000837BD4680BD00BF10E000E080B582B0C8
:1007BC0000AF78607868FFF72FFF00BF0837BD46A1
:1007CC0080BD80B586B000AF0346B9607A60FB731C
:1007DC0000237B61FFF744FF78617A68B968786918
:1007EC00FFF790FF024697F90F3011461846FFF7B6
:1007FC005FFF00BF1837BD4680BD80B582B000AF2B
:10080C000346FB7197F907301846FFF737FF00BF17
:10081C000837BD4680BD80B582B000AF786078687F
:10082C00FFF7A2FF034618460837BD4680BD80B5CA
:10083C0082B000AF78607B68002B01D101233BE0D4
:10084C007B6893F83930DBB2002B06D17B68002231
:10085C0083F83820786803F021FB7B68022283F848
:10086C0039207B681B687A681268126822F4403160
:10087C007A6852680A431A607B681B687A68126847
:10088C00526B22F007017A6892680A435A637B68BC
:10089C001A687B681B681B6C23F47F5323F03F039F
:1008AC007968C9680B4313647B680022DA637B6840
:1008BC00012283F83920002318460837BD4680BD35
:1008CC0080B586B002AFF860B9607A603B60FB68B7
:1008DC0093F83830012B01D1022318E0FB68012278
:1008EC0083F83820FB68022283F83920BB69009317
:1008FC003B687A68B968F86800F098FAFB681B687E
:10090C00FA681268126842F001021A600023184655
:10091C001037BD4680BD80B584B000AF78603960BB
:10092C000023FB600023BB607B681B681B6803F023
:10093C000103002B56D0FFF741FEF8604BE07B68BB
:10094C001B685B68BB60BB6803F02103002B23D0E2
:10095C00BB6803F02003002B05D07B68DB6B43F0F6
:10096C0002027B68DA63BB6803F00103002B05D03D
:10097C007B68DB6B43F001027B68DA637B681B6886
:10098C0021229A607B68042283F839207B6800223C
:10099C0083F838200123A2E03B68B3F1FF3F1AD063
:1009AC003B68002B07D0FFF709FE0246FB68D21A02
:1009BC003B689A420FD97B68DB6B43F020027B6863
:1009CC00DA637B68032283F839207B68002283F882
:1009DC003820032383E07B681B685B6803F0020309
:1009EC00002BACD07B681B68DB6903F02003002B69
:1009FC0006D17B681B685B6A03F02003002B61D077
:100A0C00FFF7DCFDF86056E07B681B685B68BB6039
:100A1C00BB6803F02903002B2ED0BB6803F008033E
:100A2C00002B05D07B68DB6B43F004027B68DA6338
:100A3C00BB6803F02003002B05D07B68DB6B43F015
:100A4C0002027B68DA63BB6803F00103002B05D05C
:100A5C007B68DB6B43F001027B68DA637B681B68A5
:100A6C0029229A607B68042283F839207B68002253
:100A7C0083F83820012332E03B68B3F1FF3F1AD0F2
:100A8C003B68002B07D0FFF799FD0246FB68D21A92
:100A9C003B689A420FD97B68DB6B43F020027B6882
:100AAC00DA637B68032283F839207B68002283F8A1
:100ABC003820032313E07B681B685B6803F010038A
:100ACC00002BA1D07B681B6812229A607B680122E4
:100ADC0083F839207B68002283F8382000231846DD
:100AEC001037BD4680BD80B584B000AF78607B68A0
:100AFC001B685B68FB607B681B681B68BB60FB68E2
:100B0C0003F00103002B26D0BB6803F48073002B89
:100B1C0021D07B681B687A681268126822F4807294
:100B2C001A607B68DB6B43F001027B68DA637B68DD
:100B3C001B6801229A607B68042283F839207B6849
:100B4C00002283F838207B685B69002B03D07B681C
:100B5C005B6978689847FB6803F02003002B26D06C
:100B6C00BB6803F40053002B21D07B681B687A68A8
:100B7C001268126822F400521A607B681B682022EB
:100B8C009A607B68DB6B43F002027B68DA637B68FC
:100B9C00042283F839207B68002283F838207B6894
:100BAC005B69002B03D07B685B6978689847FB68AE
:100BBC0003F00803002B26D0BB6803F40063002B62
:100BCC0021D07B681B687A681268126822F4006274
:100BDC001A607B681B6808229A607B68DB6B43F0A9
:100BEC0004027B68DA637B68042283F839207B6813
:100BFC00002283F838207B685B69002B03D07B686C
:100C0C005B6978689847FB6803F00403002B13D0EA
:100C1C00BB6803F48063002B0ED07B681B687A687A
:100C2C001268126822F480621A607B681B680422C6
:100C3C009A60786800F053F8FB6803F00203002B0D
:100C4C0024D0BB6803F40073002B1FD07B681B6897
:100C5C007A681268126822F400721A607B681B684A
:100C6C0002229A607B68DA6B7B68DA637B6801220C
:100C7C0083F839207B68002283F838207B681B6955
:100C8C00002B03D07B681B6978689847FB6803F0DE
:100C9C001003002B1FD0BB6803F48053002B1AD019
:100CAC007B681B687A681268126822F480521A609A
:100CBC007B681B6810229A607B68DA6B7B68DA634E
:100CCC007B68012283F839207B68002283F8382066
:100CDC00786800F00EF800BF1037BD4680BD80B4B8
:100CEC0083B000AF786000BF0C37BD465DF8047B65
:100CFC00704780B483B000AF786000BF0C37BD463E
:100D0C005DF8047B7047000080B485B000AF78605C
:100D1C0039603B681B0118337A681344BB600023AD
:100D2C00FB607B685B68B3F5403F7B6893F83830B9
:100D3C00012B01D1022370E07B68012283F838205B
:100D4C007B68022283F83920BB685B680A2B03D0CE
:100D5C00BB685B68092B0CD1BB685A68BB689B6885
:100D6C001B041A43BB68DB6803F07F431343FB602F
:100D7C000AE0BB685A68BB689B681B041A43BB68D3
:100D8C00DB681B061343FB603B68002B1ED17B68A2
:100D9C001A687B681B68596A234B0B40F9680B4334
:100DAC0053627B681B68BA6812689A61BB685B689F
:100DBC000A2B03D0BB685B68092B25D17B681B68A9
:100DCC00BA68D26822F07F429A621DE07B681A688A
:100DDC007B681B68D969144B0B40F9680B43D361D2
:100DEC007B681B68BA6812681A61BB685B680A2B5F
:100DFC0003D0BB685B68092B06D17B681B68BA689B
:100E0C00D26822F07F421A627B68012283F8392073
:100E1C007B68002283F83820002318461437BD461F
:100E2C005DF8047B704700BFF0FFFC0080B48BB012
:100E3C0000AFF860B9607A603B6000237B620023EE
:100E4C003B620023FB610023BB6100237B61FB68D9
:100E5C001B68FA681268526C02F040413A68100440
:100E6C003A6B02430A435A64FB681B687A68DA637C
:100E7C00FB685B68B3F5403F74D1BB6803F07F43FC
:100E8C003B62BB6803F47F03FB61BB6803F47F43E5
:100E9C00BB61BB68DBB27B61FB689B68002B08D134
:100EAC00BA69FB691A433B6A1A437B6913437B6239
:100EBC0053E0FB689B68012B06D1BA69FB691A43A6
:100ECC007B6913437B6248E0FB689B68022B11D162
:100EDC00FB69DB0CFB61BB699B0ABB617B69DB08B3
:100EEC007B61BB695A01FB69DB021A437B691343C3
:100EFC007B6232E0FB689B68032B17D13B6ADB0FEC
:100F0C003B62FB69DB0CFB61BB69DB0ABB617B6988
:100F1C00DB087B61BB695A01FB699B021A433B6A84
:100F2C00DB031A437B6913437B6216E03B6A1B0F9E
:100F3C003B62FB691B0DFB61BB691B0BBB617B69D6
:100F4C001B097B61BB691A01FB691B021A433B6AD3
:100F5C001B031A437B6913437B62FB681B687A6A29
:100F6C009A6303E0FB681B68BA68DA6000BF2C3731
:100F7C00BD465DF8047B704780B489B000AF7860E3
:100F8C00396000237B6100233B610023BB6100239C
:100F9C00FB6177E10122FB6902FA03F37B613B6899
:100FAC001A687B6913403B613A697B699A4240F04D
:100FBC0066813B685B68022B03D03B685B68122B35
:100FCC0023D1FB69DA087B68083253F82230BB6105
:100FDC00FB6903F007039B000F2202FA03F3DB43C8
:100FEC00BA691340BB613B681A69FB6903F00703DC
:100FFC009B0002FA03F3BA691343BB61FB69DA087D
:10100C007B680832B96943F822107B681B68BB61A6
:10101C00FB695B00032202FA03F3DB43BA6913405A
:10102C00BB613B685B6803F00302FB695B0002FA7F
:10103C0003F3BA691343BB617B68BA691A603B68F6
:10104C005B68012B0BD03B685B68022B07D03B68BD
:10105C005B68112B03D03B685B68122B30D17B682B
:10106C009B68BB61FB695B00032202FA03F3DB4361
:10107C00BA691340BB613B68DA68FB695B0002FA32
:10108C0003F3BA691343BB617B68BA699A607B68E6
:10109C005B68BB610122FB6902FA03F3DB43BA69AB
:1010AC001340BB613B685B681B0903F00102FB69E1
:1010BC0002FA03F3BA691343BB617B68BA695A60DD
:1010CC007B68DB68BB61FB695B00032202FA03F3FC
:1010DC00DB43BA691340BB613B689A68FB695B00F0
:1010EC0002FA03F3BA691343BB617B68BA69DA602D
:1010FC003B685B6803F08053002B00F0C08000233A
:10110C00FB60654A644B5B6C43F480435364624BF5
:10111C005B6C03F48043FB60FB68604AFB699B08D3
:10112C00023352F82330BB61FB6903F003039B00CD
:10113C000F2202FA03F3DB43BA691340BB617B68ED
:10114C00574A934237D07B68564A934231D07B68DA
:10115C00554A93422BD07B68544A934225D07B68E6
:10116C00534A93421FD07B68524A934219D07B68F2
:10117C00514A934213D07B68504A93420DD07B68FE
:10118C004F4A934207D07B684E4A934201D10923C0
:10119C0012E00A2310E008230EE007230CE00623DC
:1011AC000AE0052308E0042306E0032304E00223FD
:1011BC0002E0012300E00023FA6902F0030292002E
:1011CC009340BA691343BB613449FB699B080233F2
:1011DC00BA6941F823203C4B1B68BB613B69DB437C
:1011EC00BA691340BB613B685B6803F48033002B26
:1011FC0003D0BA693B691343BB61334ABB691360C3
:10120C00314B5B68BB613B69DB43BA691340BB6123
:10121C003B685B6803F40033002B03D0BA693B696D
:10122C001343BB61284ABB695360274B9B68BB6166
:10123C003B69DB43BA691340BB613B685B6803F4F1
:10124C008013002B03D0BA693B691343BB611E4A60
:10125C00BB6993601C4BDB68BB613B69DB43BA69C0
:10126C001340BB613B685B6803F40013002B03D095
:10127C00BA693B691343BB61134ABB69D360FB6911
:10128C000133FB61FB690F2B7FF684AE00BF243763
:10129C00BD465DF8047B70470038024000380140C1
:1012AC00000002400004024000080240000C024012
:1012BC00001002400014024000180240001C0240C2
:1012CC000020024000240240003C014080B483B066
:1012DC0000AF78600B467B8013467B707B78002BCD
:1012EC0003D07A887B689A6103E07B881A047B6858
:1012FC009A6100BF0C37BD465DF8047B7047000057
:10130C0080B584B000AF78600023FB600023BB6025
:10131C007B68002B01D10123C8E07B6893F83D303A
:10132C00DBB2002B06D17B68002283F83C20786866
:10133C0002F0DCFD7B68242283F83D207B681B686F
:10134C007A681268126822F001021A6001F05AF8E9
:10135C00B860BB68574AA2FB03239B0CFB607B68FD
:10136C001B68FA685A607B681A687B685B6852492C
:10137C008B4202D8FB68013309E0FB684FF496718D
:10138C0001FB03F34D49A1FB03139B0901331362CA
:10139C007B6819687B685B68474A934212D87B6804
:1013AC005B685B00BA68B2FBF3F3C3F30B03032B6C
:1013BC0006D97B685B685B00BA68B2FBF3F345E067
:1013CC00042343E07B689B68002B0FD17B685A6831
:1013DC0013465B001344BA68B2FBF3F3C3F30B037D
:1013EC00002B0CBF01230023DBB210E07B685A6892
:1013FC0013469B0013449A001344BA68B2FBF3F3F0
:10140C00C3F30B03002B0CBF01230023DBB2002B17
:10141C0001D001231AE07B689B68002B0AD17B6802
:10142C005A6813465B001344BA68B2FBF3F343F4F7
:10143C0000430BE07B685A6813469B0013449A00E8
:10144C001344BA68B2FBF3F343F44043CB617B68BB
:10145C001B687A68D1697A68126A0A431A607B68D9
:10146C001B687A6811697A68D2680A439A607B684B
:10147C001B687A6851697A6892690A43DA607B68FA
:10148C001B687A681268126842F001021A607B6865
:10149C0000221A647B68202283F83D207B6800229E
:1014AC001A637B68002283F83E200023184610370D
:1014BC00BD4680BD83DE1B43A0860100D34D621068
:1014CC0080B483B000AF786039607B6893F83D30AE
:1014DC00DBB2202B29D17B68242283F83D207B684A
:1014EC001B687A681268126822F001021A607B6825
:1014FC001B687A681268526A22F010025A627B6882
:10150C001B687A681268516A3A680A435A627B68A7
:10151C001B687A681268126842F001021A607B68D4
:10152C00202283F83D20002300E0022318460C37CC
:10153C00BD465DF8047B704780B485B000AF786021
:10154C0039600023FB817B6893F83D30DBB2202BA4
:10155C002AD17B68242283F83D207B681B687A683B
:10156C001268126822F001021A607B681B685B6AC1
:10157C00FB81FB8923F00F03FB813B689AB2FB894B
:10158C001343FB817B681B68FA895A627B681B6872
:10159C007A681268126842F001021A607B68202295
:1015AC0083F83D20002300E0022318461437BD4683
:1015BC005DF8047B7047000080B584B000AF7860A4
:1015CC000023FB600023BB607B68002B01D101234F
:1015DC00BFE07B6893F8A130DBB2002B06D17B68AF
:1015EC00002283F8A020786802F0EAFC7B680222D3
:1015FC0083F8A1207B681B687A681268926922F0D4
:10160C0070429A617B681B687A68126891697A6883
:10161C0050687A68926810437A68D26810437A6886
:10162C00126902430A439A617B681A687B681B68DB
:10163C0099684A4B0B4093607B685B691B04FB60A9
:10164C007B681B687A68126891687A689069FA6896
:10165C0002430A439A607B681A687B681B68D968E6
:10166C003E4B0B40D3607B68DB691B04FB607B68E3
:10167C001B687A681268D1687A68106AFA68024343
:10168C000A43DA607B681A687B681B681969334BFC
:10169C000B4013617B685B6A1B04FB607B681B68F7
:1016AC007A68126811697A68906AFA6802430A4388
:1016BC001A617B681A687B681B685969274B0B4059
:1016CC0053617B68DB6A1B04FB607B681B687A6870
:1016DC00126851697A68106BFA6802430A435A61BE
:1016EC007B6893F835301B02FB607B6893F83630CF
:1016FC001B04BB607B681B687A681268D26A02F0B4
:10170C007F42DA627B681B687A681268D16AB868B3
:10171C00FA680243786890F8340002430A43DA62AC
:10172C007B681B687A681268526B42F006025A6337
:10173C007B681B687A681268926942F001029A61B0
:10174C007B680022C3F8A4207B68012283F8A120C7
:10175C00002318461037BD4680BD00BF00F800F0CE
:10176C00B0B584B000AFF860B9607A60FB6893F8EC
:10177C00A030012B01D102232CE0FB68012283F85D
:10178C00A020FB68022283F8A120FA687B68342130
:10179C0001FB03F3134403F13802BB6814461D46E6
:1017AC000FCD0FC40FCD0FC40FCD0FC42B6823600A
:1017BC007A68B968F86800F047F8FB681B68012282
:1017CC005A62FB68012283F8A120FB68002283F88F
:1017DC00A020002318461037BD46B0BD80B586B09A
:1017EC0000AFF860B9607A60FB6893F8A030012B09
:1017FC0001D1022324E0FB68012283F8A020FB68BE
:10180C00022283F8A1207B68342202FB03F33833D5
:10181C00FA6813447B617B69BA685A627A687969A1
:10182C00F86800F011F8FB681B6801225A62FB682B
:10183C00012283F8A120FB68002283F8A02000235A
:10184C0018461837BD4680BD80B489B000AFF8602B
:10185C00B9607A600023FB610023BB6100237B61CC
:10186C00BB685A68FB681B68DB681B0CC3F30B0373
:10187C0013441B04FB61FB681B681A467B68DB0185
:10188C00134484331A46FB681B6819467B68DB01DA
:10189C000B4484335B6803F470435360FB681B6830
:1018AC001A467B68DB01134484331946BB681A68FB
:1018BC00FB681B68DB681B0CC3F30B0313445A1C3B
:1018CC00FB6913434B60BB68DA68FB681B68DB6819
:1018DC00C3F30A0313441B04FB61FB681B681A4621
:1018EC007B68DB01134484331A46FB681B6819467A
:1018FC007B68DB010B4484339B6803F47043936077
:10190C00FB681B681A467B68DB0113448433194659
:10191C00BB689A68FB681B68DB68C3F30A03134453
:10192C005A1CFB6913438B60FB681B681A467B6867
:10193C00DB01134484331A46FB681B6819467B6829
:10194C00DB010B4484331B6923F007031361FB6831
:10195C001B681A467B68DB01134484331A46BB6848
:10196C001B691361BB6893F831301B02FB61BB68C8
:10197C0093F832301B04BB61BB689B691B067B610F
:10198C00FB681B681A467B68DB01134484339B6934
:10199C00FB681B681A467B68DB01134484331A46C8
:1019AC0000239361FB681B681A467B68DB011344B8
:1019BC0084331946BB6893F830301A46FB691A43D6
:1019CC00BB691A437B6913438B61FB681B681A461E
:1019DC007B68DB01134484331A46FB681B68194689
:1019EC007B68DB010B4484335B6923F0FF03536199
:1019FC00FB681B681A467B68DB01134484331A4668
:101A0C00BB685B695361FB681B681A467B68DB012A
:101A1C00134484331A46FB681B6819467B68DB0148
:101A2C000B448433DB6923F4E06323F00703D361B5
:101A3C00FB681B681A467B68DB0113448433194628
:101A4C00BB68DA69BB681B6A1343CB61FB681B6814
:101A5C001A467B68DB01134484339B6AFB681B6862
:101A6C001A467B68DB01134484331A4600239362C5
:101A7C00FB681B681A467B68DB01134484331A46E7
:101A8C00BB685B6A9362BB681B69002B02D10423A1
:101A9C00FB611BE0BB681B69012B02D10323FB61BB
:101AAC0014E0BB681B69042B0BD0BB681B69022BB1
:101ABC0007D0BB681B69032B03D0BB681B69072BC2
:101ACC0002D10223FB6101E00123FB61FB681B686F
:101ADC001A467B68DB01134484331A46FB681B6887
:101AEC0019467B68DB010B448433DB6A03F0E0238B
:101AFC00D362FB681B681A467B68DB011344843392
:101B0C001846BB689B6AFA6902FB03F31A04BB68AC
:101B1C005968BB681B68CB1AF96901FB03F30333E3
:101B2C001343C362FB681B681A467B68DB011344D2
:101B3C0084331A46FB681B6819467B68DB010B442F
:101B4C0084331B6B23F4FF6323F007031363FB68DD
:101B5C001B681A467B68DB01134484331A46BB6846
:101B6C00DB6A1363FB681B681A467B68DB01134452
:101B7C0084331A46FB681B6819467B68DB010B44EF
:101B8C0084331B6843F00103136000BF2437BD4648
:101B9C005DF8047B7047000080B582B000AF002375
:101BAC007B6000233B60204A1F4B1B6C43F080532F
:101BBC0013641D4B1B6C03F080533B603B681B4B49
:101BCC0001221A60FEF7FAFC786009E0FEF7F6FCD9
:101BDC0002467B68D31AB3F57A7F01D903231FE041
:101BEC00134B5B6803F48033B3F5803FEED1114B9C
:101BFC0001221A60FEF7E2FC786009E0FEF7DEFCD9
:101C0C0002467B68D31AB3F57A7F01D9032307E028
:101C1C00074B5B6803F40033B3F5003FEED10023B0
:101C2C0018460837BD4680BD0038024040000E42C1
:101C3C000070004044000E4280B586B000AF786062
:101C4C007B68002B01D101232DE27B681B6803F01C
:101C5C000103002B75D0A34B9B6803F00C03042BE2
:101C6C000CD0A04B9B6803F00C03082B12D19D4B9E
:101C7C005B6803F48003B3F5800F0BD1994B1B68A1
:101C8C0003F40033002B5BD07B685B68002B57D1CF
:101C9C00012308E27B685B68B3F5803F06D1914A6B
:101CAC00904B1B6843F4803313601DE07B685B68CA
:101CBC00B3F5A02F0CD18B4A8A4B1B6843F48023BD
:101CCC001360884A874B1B6843F4803313600BE026
:101CDC00844A844B1B6823F480331360814A814B04
:101CEC001B6823F4802313607B685B68002B13D084
:101CFC00FEF764FC386108E0FEF760FC02463B69C5
:101D0C00D31A642B01D90323CDE1764B1B6803F462
:101D1C000033002BF0D014E0FEF750FC386108E0E3
:101D2C00FEF74CFC02463B69D31A642B01D9032302
:101D3C00B9E16C4B1B6803F40033002BF0D100E0CD
:101D4C0000BF7B681B6803F00203002B63D0654B5C
:101D5C009B6803F00C03002B0BD0624B9B6803F0C9
:101D6C000C03082B1CD15F4B5B6803F48003002B26
:101D7C0016D15C4B1B6803F00203002B05D07B686B
:101D8C00DB68012B01D001238DE15649554B1B68B3
:101D9C0023F0F8027B681B69DB0013430B603AE00D
:101DAC007B68DB68002B20D04F4B01221A60FEF7BA
:101DBC0005FC386108E0FEF701FC02463B69D31ACA
:101DCC00022B01D903236EE1464B1B6803F002037F
:101DDC00002BF0D04349434B1B6823F0F8027B687F
:101DEC001B69DB0013430B6015E03F4B00221A60AC
:101DFC00FEF7E4FB386108E0FEF7E0FB02463B69C6
:101E0C00D31A022B01D903234DE1364B1B6803F087
:101E1C000203002BF0D17B681B6803F00803002B36
:101E2C0030D07B685B69002B16D0304B01221A60D6
:101E3C00FEF7C4FB386108E0FEF7C0FB02463B69C5
:101E4C00D31A022B01D903232DE1264B5B6F03F030
:101E5C000203002BF0D015E0244B00221A60FEF791
:101E6C00ADFB386108E0FEF7A9FB02463B69D31ACB
:101E7C00022B01D9032316E11A4B5B6F03F002030B
:101E8C00002BF0D17B681B6803F00403002B00F0DF
:101E9C00A0800023FB75134B1B6C03F08053002BAD
:101EAC000FD10023FB600F4A0E4B1B6C43F0805389
:101EBC0013640C4B1B6C03F08053FB60FB68012319
:101ECC00FB750B4B1B6803F48073002B21D1084A64
:101EDC00074B1B6843F480731360FEF76FFB38618C
:101EEC0011E000BF0038024000004742800E47421C
:101EFC0000700040FEF762FB02463B69D31A022BCE
:101F0C0001D90323CFE06A4B1B6803F48073002BC9
:101F1C00F0D07B689B68012B06D1664A654B1B6F22
:101F2C0043F0010313671CE07B689B68052B0CD105
:101F3C00604A604B1B6F43F0040313675D4A5D4BB3
:101F4C001B6F43F0010313670BE05A4A594B1B6F8D
:101F5C0023F001031367574A564B1B6F23F00403FE
:101F6C0013677B689B68002B15D0FEF727FB386145
:101F7C000AE0FEF723FB02463B69D31A41F2883292
:101F8C00934201D903238EE04A4B1B6F03F00203EB
:101F9C00002BEED014E0FEF711FB38610AE0FEF7DF
:101FAC000DFB02463B69D31A41F28832934201D9A8
:101FBC00032378E03F4B1B6F03F00203002BEED1A1
:101FCC00FB7D012B05D13B4A3A4B1B6C23F0805314
:101FDC0013647B689B69002B64D0364B9B6803F0C1
:101FEC000C03082B5CD07B689B69022B41D1324BD4
:101FFC0000221A60FEF7E2FA386108E0FEF7DEFA1A
:10200C0002463B69D31A022B01D903234BE0294B1F
:10201C001B6803F00073002BF0D126497B68DA694A
:10202C007B681B6A1A437B685B6A9B011A437B685B
:10203C009B6A5B08013B1B041A437B68DB6A1B062B
:10204C0013434B601C4B01221A60FEF7B7FA386140
:10205C0008E0FEF7B3FA02463B69D31A022B01D90A
:10206C00032320E0134B1B6803F00073002BF0D00C
:10207C0018E0114B00221A60FEF7A0FA386108E054
:10208C00FEF79CFA02463B69D31A022B01D90323B3
:10209C0009E0084B1B6803F00073002BF0D101E042
:1020AC00012300E0002318461837BD4680BD00BF51
:1020BC0000700040003802406000474280B584B098
:1020CC0000AF786039607B68002B01D10123CAE036
:1020DC00674B1B6803F00F023B689A420CD2644BAF
:1020EC003A68D2B21A70624B1B6803F00F023B685D
:1020FC009A4201D00123B6E07B681B6803F002030F
:10210C00002B20D07B681B6803F00403002B05D048
:10211C00584A584B9B6843F4E05393607B681B68A8
:10212C0003F00803002B05D0524A524B9B6843F432
:10213C00604393604F494F4B9B6823F0F0027B68E0
:10214C009B6813438B607B681B6803F00103002BB7
:10215C0044D07B685B68012B07D1464B1B6803F4AA
:10216C000033002B19D101237DE07B685B68022BC7
:10217C0003D07B685B68032B07D13E4B1B6803F0D5
:10218C000073002B09D101236DE03A4B1B6803F05F
:10219C000203002B01D1012365E03649354B9B68C6
:1021AC0023F003027B685B6813438B60FEF706FA2F
:1021BC00F8600AE0FEF702FA0246FB68D31A41F215
:1021CC008832934201D903234DE02A4B9B6803F0DC
:1021DC000C027B685B689B009A42EBD1244B1B681A
:1021EC0003F00F023B689A420CD9214B3A68D2B2E9
:1021FC001A701F4B1B6803F00F023B689A4201D008
:10220C00012330E07B681B6803F00403002B08D02B
:10221C001849184B9B6823F4E0527B68DB68134326
:10222C008B607B681B6803F00803002B09D01149F5
:10223C00104B9B6823F460427B681B69DB001343E3
:10224C008B6000F01DF801460A4B9B681B0903F0DC
:10225C000F03094AD35C21FA03F3084A13600020E8
:10226C00FEF768F9002318461037BD4680BD00BF45
:10227C00003C024000380240F06E000824000020B0
:10228C002DE9F04F87B000AF0022FA6000227A618E
:10229C000022BA6000223A61514A926802F00C02A4
:1022AC00042A07D0082A08D0002A40F090804D4B11
:1022BC003B618FE04C4B3B618CE0494A526802F029
:1022CC003F02FA60464A526802F48002002A23D088
:1022DC00434B5B689B094FF0000440F2FF114FF039
:1022EC00000203EA010304EA02043F4A02FB04F180
:1022FC00002202FB03F20A443B49A3FB01015318E1
:10230C001946FB684FF000041A462346FDF768FF98
:10231C0003460C467B614CE0314A526892091146E7
:10232C004FF0000240F2FF154FF0000605EA0105E0
:10233C0006EA0206294632464FEA421B4BEAD16BAB
:10234C004FEA411A51465A46AA46B34655465E468E
:10235C004D1B62EB060629463246940144EA916411
:10236C008B015B1A64EB02044FEAC40949EA537906
:10237C004FEAC30843464C4655465E46ED1846EBBD
:10238C0004062B463446A2027A607A6842EA9352DB
:10239C007A609B023B6097E8180018462146FB6860
:1023AC004FF000041A462346FDF71AFF03460C466D
:1023BC007B610B4B5B681B0C03F0030301335B006D
:1023CC00BB607A69BB68B2FBF3F33B6102E0054B7F
:1023DC003B6100BF3B6918461C37BD46BDE8F08F1A
:1023EC00003802400024F40040787D0180B400AF36
:1023FC00034B1B681846BD465DF8047B704700BF55
:10240C002400002080B500AFFFF7F0FF0146054B1C
:10241C009B689B0A03F00703034AD35C21FA03F37E
:10242C00184680BD00380240006F000880B586B0A9
:10243C0000AF786000237B6100233B617B681B68E5
:10244C0003F00103002B05D17B681B6803F002032A
:10245C00002B61D0A34B00221A60FEF7AFF8786115
:10246C0008E0FEF7ABF802467B69D31A022B01D9C0
:10247C00032377E19C4B1B6803F00063002BF0D126
:10248C007B681B6803F00103002B09D096497B681D
:10249C005B689A017B689B681B071343C1F8843007
:1024AC007B681B6803F00203002B1FD08E4BD3F804
:1024BC0084301B0F03F007033B618B497B685B681F
:1024CC009A017B68DB681B061A433B691B071343A5
:1024DC00C1F884308449844BD3F88C3023F01F022C
:1024EC007B68DB69013B1343C1F88C307D4B0122C7
:1024FC001A60FEF763F8786108E0FEF75FF80246B1
:10250C007B69D31A022B01D903232BE1764B1B6871
:10251C0003F00063002BF0D07B681B6803F004030E
:10252C00002B05D17B681B6803F00803002B79D0C6
:10253C006E4B00221A60FEF741F8786108E0FEF756
:10254C003DF802467B69D31A022B01D9032309E11A
:10255C00654B1B6803F00053B3F1005FEFD07B6851
:10256C001B6803F00403002B20D05F4BD3F888309A
:10257C001B0F03F007033B615B497B681B699A01E6
:10258C007B685B691B061A433B691B071343C1F845
:10259C0088305549544BD3F88C3023F4F8527B686F
:1025AC001B6A013B1B021343C1F88C307B681B6810
:1025BC0003F00803002B1ED04B4BD3F888301B0EB6
:1025CC0003F00F033B6148497B681B699A013B6927
:1025DC001B061A437B689B691B071343C1F88830A1
:1025EC004149414BD3F88C3023F440327B685B6A11
:1025FC001343C1F88C303D4B01221A60FDF7DEFF0E
:10260C00786108E0FDF7DAFF02467B69D31A022BEA
:10261C0001D90323A6E0344B1B6803F00053B3F13C
:10262C00005FEFD17B681B6803F02003002B00F0E8
:10263C008D800023FB602C4A2B4B1B6C43F080538A
:10264C001364294B1B6C03F08053FB60FB68284A16
:10265C00274B1B6843F480731360FDF7AFFF786161
:10266C0008E0FDF7ABFF02467B69D31A022B01D9B8
:10267C00032377E01E4B1B6803F48073002BF0D010
:10268C00194B1B6F03F440733B613B69002B39D032
:10269C007B689B6A03F440723B699A4232D0124BBE
:1026AC001B6F23F440733B61124B01221A60114BD8
:1026BC0000221A600C4A3B6913670B4B1B6F03F02B
:1026CC000103002B1ED0FDF779FF786114E0FDF7B4
:1026DC0075FF02467B69D31A41F2883293420BD9BB
:1026EC0003233FE068004742003802407000474235
:1026FC0000700040400E47421C4B1B6F03F002035E
:10270C00002BE4D07B689B6A03F44073B3F5407FE5
:10271C000DD11649154B9B6823F4F8127B689B6A04
:10272C0023F0704323F4407313438B6005E00F4A8E
:10273C000E4B9B6823F4F81393600C490B4B1A6FE8
:10274C007B689B6AC3F30B0313430B677B681B68A3
:10275C0003F01003002B04D0054A7B6893F82C304F
:10276C001360002318461837BD4680BD0038024060
:10277C00E011474280B582B000AF786039607B6869
:10278C00002B01D1012325E07B6893F82C30DBB2C0
:10279C00002B06D17B68002283F82D20786801F08D
:1027AC00F1FD7B68022283F82C207B681A687B6819
:1027BC0004331946104600F081FA7B6818687B6870
:1027CC005B681A46396800F0ECFA7B68012283F8E2
:1027DC002C20002318460837BD4680BD80B584B038
:1027EC0000AFF860B9607A60FB6893F82C30DBB20C
:1027FC00022B01D1022318E0FB68022283F82C2063
:10280C00FB681B687A68B968184600F049FBBB681E
:10281C001B68022B04D1FB68052283F82C2003E0F3
:10282C00FB68012283F82C20002318461037BD4684
:10283C0080BD80B582B000AF786039607B6893F85A
:10284C002C30DBB2022B01D102230EE07B6802227A
:10285C0083F82C207B681B683968184600F05CFBF9
:10286C007B68012283F82C20002318460837BD46CC
:10287C0080BD80B582B000AF78607B68002B01D141
:10288C00012355E07B6800229A627B6893F85130F3
:10289C00DBB2002B06D17B68002283F850207868CD
:1028AC0001F09CFC7B68022283F851207B681B683A
:1028BC007A681268126822F040021A607B681B6802
:1028CC007A6851687A68926811437A68D2681143C1
:1028DC007A68126911437A68526911437A6892696D
:1028EC0002F4007211437A68D26911437A68126A51
:1028FC0011437A68926A0A431A607B681B687A688B
:10290C009269120C02F004017A68526A0A435A6006
:10291C007B681B687A681268D26922F40062DA61FB
:10292C007B6800225A657B68012283F851200023C2
:10293C0018460837BD4680BD80B58AB002AFF86036
:10294C00B9603B601346FB800023BB610023FB771F
:10295C00FB6893F85030012B01D1022323E1FB6873
:10296C00012283F85020FDF729FEB861FB6893F82B
:10297C005130DBB2012B02D00223FB770AE1BB689A
:10298C00002B02D0FB88002B02D10123FB7701E145
:10299C00FB68032283F85120FB6800225A65FB6810
:1029AC00BA681A63FB68FA889A86FB68FA88DA8632
:1029BC00FB6800229A63FB6800229A87FB6800225E
:1029CC00DA87FB6800225A64FB6800221A64FB68F1
:1029DC009B68B3F5004F07D1FB681B68FA68126857
:1029EC00126842F480421A60FB681B681B6803F093
:1029FC004003402B07D0FB681B68FA68126812680A
:102A0C0042F040021A60FB68DB68B3F5006F47D1F7
:102A1C00FB685B68002B04D0FB68DB8E9BB2012B40
:102A2C0038D1FB681B68BA681288DA60BB6802335D
:102A3C00BB60FB68DB8E9BB2013B9AB2FB68DA860B
:102A4C0028E0FB681B689B6803F00203022B0FD184
:102A5C00FB681B68BA681288DA60BB680233BB601B
:102A6C00FB68DB8E9BB2013B9AB2FB68DA8611E005
:102A7C003B68002B0BD03B68B3F1FF3F0AD0FDF74E
:102A8C009DFD0246BB69D21A3B689A4202D30323CE
:102A9C00FB777FE0FB68DB8E9BB2002BD1D148E04B
:102AAC00FB685B68002B04D0FB68DB8E9BB2012BB0
:102ABC003AD1FB681B680C33BA6812781A70BB6881
:102ACC000133BB60FB68DB8E9BB2013B9AB2FB68A7
:102ADC00DA8629E0FB681B689B6803F00203022B73
:102AEC0010D1FB681B680C33BA6812781A70BB687B
:102AFC000133BB60FB68DB8E9BB2013B9AB2FB6877
:102B0C00DA8611E03B68002B0BD03B68B3F1FF3F3A
:102B1C000AD0FDF753FD0246BB69D21A3B689A42B4
:102B2C0002D30323FB7735E0FB68DB8E9BB2002BD3
:102B3C00D0D1BB6900933B6801220221F86800F0F8
:102B4C0036F80346002B02D00323FB7722E0BA6948
:102B5C003968F86800F094F80346002B05D001237F
:102B6C00FB77FB6820225A6514E0FB689B68002BFE
:102B7C000AD100237B61FB681B68DB687B61FB6807
:102B8C001B689B687B617B69FB685B6D002B01D0CC
:102B9C000123FB77FB68012283F85120FB6800229C
:102BAC0083F85020FB7F18462037BD4680BD80B58A
:102BBC0084B000AFF860B9607A603B604DE03B6870
:102BCC00B3F1FF3F49D03B68002B07D0FDF7F6FC73
:102BDC000246BB69D21A3B689A423ED3FB681B681B
:102BEC00FA681268526822F0E0025A60FB685B686F
:102BFC00B3F5827F11D1FB689B68B3F5004F04D00D
:102C0C00FB689B68B3F5806F07D1FB681B68FA689B
:102C1C001268126822F040021A60FB689B6AB3F5D6
:102C2C00005F10D1FB681A68FB681B6819684DF6C9
:102C3C00FF730B401360FB681B68FA68126812681C
:102C4C0042F400521A60FB68012283F85120FB68A1
:102C5C00002283F8502003230EE0FB681B689A685F
:102C6C00BB681A40BB689A4201D1012200E00022E5
:102C7C007B689A42A3D1002318461037BD4680BD0D
:102C8C0080B586B002AFF860B9607A607B6800935B
:102C9C00BB6800228021F868FFF789FF0346002BF0
:102CAC0007D0FB685B6D43F02002FB685A65032379
:102CBC0000E0002318461037BD4680BD80B485B0B7
:102CCC0000AF786039600023FB600023BB603B6879
:102CDC001B68012B29D07B681B68FB60FB6823F405
:102CEC00FF4323F07F03FB603B685A683B689B689B
:102CFC001A433B68DB681A433B681B691A433B6801
:102D0C005B691A433B689B691A433B68DB691A434E
:102D1C003B681B6A1A433B685B6A1343FA681343AC
:102D2C00FB607B68FA681A6034E07B681B68FB60A8
:102D3C00FB6823F4F843FB603B68DA693B681B6A69
:102D4C001A433B685B6A1343FA681343FB607B6866
:102D5C005B68BB60BB6823F4FF4323F07F03BB605D
:102D6C003B685A683B689B681A433B68DB681A43AC
:102D7C003B681B691A433B685B691A433B689B6958
:102D8C001343BA681343BB607B68FA681A607B68AC
:102D9C00BA685A60002318461437BD465DF8047BA8
:102DAC00704780B487B000AFF860B9607A600023D8
:102DBC007B6100233B617B68012B2ED0FB689B68F9
:102DCC007B617B6903F070437B61BB681B685A1E97
:102DDC00BB685B68013B1B011A43BB689B68013BEA
:102DEC001B021A43BB68DB68013B1B031A43BB681D
:102DFC001B69013B1B041A43BB685B69013B1B0548
:102E0C001A43BB689B69013B1B0613437A69134346
:102E1C007B61FB687A699A603BE0FB689B687B612D
:102E2C007B6923F4700323F470437B61BB68DB681C
:102E3C00013B1A03BB685B69013B1B0513437A69B1
:102E4C0013437B61FB68DB683B613B6903F07043B8
:102E5C003B61BB681B685A1EBB685B68013B1B016E
:102E6C001A43BB689B68013B1B021A43BB681B6976
:102E7C00013B1B041A43BB689B69013B1B061343B4
:102E8C003A6913433B61FB687A699A60FB683A695B
:102E9C00DA60002318461C37BD465DF8047B70478A
:102EAC0080B586B000AFF860B9607A6000233B61F2
:102EBC0000237B61BB681A68BB685B681A43BB68FC
:102ECC009B68013B5B011A43BB68DB685B021343E5
:102EDC003B613A69FB681A61FDF770FB786110E0A1
:102EEC007B68B3F1FF3F0CD07B68002B07D0FDF75C
:102EFC0065FB02467B69D21A7B689A4201D903238F
:102F0C0006E0FB689B6903F02003002BE8D100234B
:102F1C0018461837BD4680BD80B483B000AF7860CA
:102F2C0039607B685A693B685B001A437B685A615D
:102F3C00002318460C37BD465DF8047B704780B5FE
:102F4C0000AFCA2000F044F9C32000F06BF9082050
:102F5C0000F068F9502000F065F9CF2000F038F946
:102F6C00002000F05FF9C12000F05CF9302000F087
:102F7C0059F9ED2000F02CF9642000F053F90320EE
:102F8C0000F050F9122000F04DF9812000F04AF9C0
:102F9C00E82000F01DF9852000F044F9002000F035
:102FAC0041F9782000F03EF9CB2000F011F93920DE
:102FBC0000F038F92C2000F035F9002000F032F93F
:102FCC00342000F02FF9022000F02CF9F72000F04B
:102FDC00FFF8202000F026F9EA2000F0F9F8002094
:102FEC0000F020F9002000F01DF9B12000F0F0F8FD
:102FFC00002000F017F91B2000F014F9B62000F0A7
:10300C00E7F80A2000F00EF9A22000F00BF9C0201E
:10301C0000F0DEF8102000F005F9C12000F0D8F81F
:10302C00102000F0FFF8C52000F0D2F8452000F089
:10303C00F9F8152000F0F6F8C72000F0C9F8902038
:10304C0000F0F0F8362000F0C3F8C82000F0EAF8E1
:10305C00F22000F0BDF8002000F0E4F8B02000F001
:10306C00B7F8C22000F0DEF8B62000F0B1F80A2064
:10307C0000F0D8F8A72000F0D5F8272000F0D2F8FF
:10308C00042000F0CFF82A2000F0A2F8002000F075
:10309C00C9F8002000F0C6F8002000F0C3F8EF20BB
:1030AC0000F0C0F82B2000F093F8002000F0BAF8E4
:1030BC00002000F0B7F8012000F0B4F83F2000F039
:1030CC00B1F8F62000F084F8012000F0ABF80020F5
:1030DC0000F0A8F8062000F0A5F82C2000F078F8F5
:1030EC006420FDF777FA262000F072F8012000F03A
:1030FC0099F8E02000F06CF80F2000F093F82920EC
:10310C0000F090F8242000F08DF80C2000F08AF8E4
:10311C000E2000F087F8092000F084F84E2000F013
:10312C0081F8782000F07EF83C2000F07BF8092034
:10313C0000F078F8132000F075F8052000F072F814
:10314C00172000F06FF8112000F06CF8002000F050
:10315C0069F8E12000F03CF8002000F063F816203C
:10316C0000F060F81B2000F05DF8042000F05AF825
:10317C00112000F057F8072000F054F8312000F02F
:10318C0051F8332000F04EF8422000F04BF80520A7
:10319C0000F048F80C2000F045F80A2000F042F846
:1031AC00282000F03FF82F2000F03CF80F2000F012
:1031BC0039F8112000F00CF86420FDF70BFA2920E7
:1031CC0000F006F82C2000F003F800BF80BD0000D2
:1031DC0080B584B000AF0346FB71FB793B730023D1
:1031EC007B7300224FF400510B48FEF76FF800225E
:1031FC0004210A48FEF76AF807F10C016423012246
:10320C000748FFF799FB012204210448FEF75EF8FA
:10321C0000BF1037BD4680BD000C024000080240C4
:10322C00B000002080B584B000AF0346FB71FB7981
:10323C003B7300237B7301224FF400510B48FEF7C4
:10324C0045F8002204210A48FEF740F807F10C016A
:10325C00642301220748FFF76FFB01220421044875
:10326C00FEF734F800BF1037BD4680BD000C02409D
:10327C0000080240B000002080B584B002AF786036
:10328C00114B4FF440325A600F4B0022DA600E485B
:10329C00FDF7CDFA0346002B12D10C4BDA6D0B4B1C
:1032AC00196E0A4B5B6E00930B4679680648FDF766
:1032BC0007FB0346002B03D10A210348FDF72BFB28
:1032CC0000BF0837BD4680BDB001002008010020BA
:1032DC0080B485B000AF0023FB60154B5B6E144AC5
:1032EC00126E02FB03F37B600023BB6016E0104BF5
:1032FC00D96DBA6813465B0013440B441A46FB683D
:10330C001360FB680133FB60FB686FF07F429342F4
:10331C0001D10023FB60BB680133BB60BA687B68DA
:10332C009A42E4D300BF1437BD465DF8047B704766
:10333C000801002080B586B002AFF860B9607A60F1
:10334C00154B4FF440325A60134B0022DA6012488E
:10335C00FDF76DFA0346002B1AD1104BD96D0F4BAC
:10336C001B6EBA6802FB03F2FB681A4413465B003F
:10337C001344CA1801230093012379680648FDF70A
:10338C009FFA0346002B03D10A210348FDF7C3FA29
:10339C0000BF1037BD4680BDB001002008010020E1
:1033AC0080B400AF074B00225A60064B4FF47F42AB
:1033BC001A60044B044A9A6000BFBD465DF8047B5A
:1033CC00704700BF4C0000200800002080B483B080
:1033DC0000AF7860044A7B68936000BF0C37BD4631
:1033EC005DF8047B704700BF4C00002080B483B0B4
:1033FC0000AF7860044A7B68136000BF0C37BD4691
:10340C005DF8047B704700BF4C00002080B483B093
:10341C0000AF7860044A7B68536000BF0C37BD4630
:10342C005DF8047B704700BF4C00002080B588B06D
:10343C0000AF0346FB800B46BB801346FB704E4B24
:10344C009B681A68FB78203B4B498968C98801FB4B
:10345C0003F1494B9B689B880733002B00DA073339
:10346C00DB1003FB01F31344444A1360424B9B688B
:10347C00DB887B82404B9B689B883B823B8A073373
:10348C00002B00DA0733DB10DBB2DB00DAB23B8A4D
:10349C00DBB2D31AFB730023BB6164E0374B1A68B1
:1034AC003B8A0733002B00DA0733DB101946BB6964
:1034BC0003FB01F31344BB603B8A0733002B00DA98
:1034CC000733DB10012B02D0022B04D00CE0BB68BD
:1034DC001B78FB6116E0BB681B781B02BA680132D3
:1034EC0012781343FB610DE0BB681B781A04BB68B0
:1034FC0001331B781B021343BA6802321278134350
:10350C00FB6100BF00237B6123E03A8A7B69D21AFE
:10351C00FB7B1344013B012202FA03F31A46FB69BD
:10352C001340002B09D0FA887B69D018B988124B4C
:10353C001B681A46FFF7FEFE08E0FA887B69D01874
:10354C00B9880D4B5B681A46FFF7F4FE7B690133B3
:10355C007B613A8A7B699A42D7D8BB880133BB809E
:10356C00BB690133BB617A8ABB699A4296D800BFAA
:10357C002037BD4680BD00BF4C0000205800002005
:10358C0080B588B000AFBA601A460346FB810B4683
:10359C00BB811346FB710123FB830023BB830023F8
:1035AC00BB6100233B61BB687B6102E0BB690133FB
:1035BC00BB617B695A1C7A611B78002BF6D1364BA8
:1035CC001A88364B9B689B88B2FBF3F39BB23B612A
:1035DC00FB79012B02D0022B0ED01BE03A69BB69A0
:1035EC00D31A2E4A9268928802FB03F35B089AB2B4
:1035FC00FB891344FB8310E03A69BB69D31A9AB276
:10360C00264B9B689B8812FB03F39AB2FB89D31A57
:10361C00FB8302E0FB89FB8300BFFB8B002B03D0F9
:10362C00B7F91E30002B15DA0123FB8312E0BB68BF
:10363C001A78B989FB8B1846FFF7F8FE174B9B6875
:10364C009A88FB8B1344FB83BB680133BB60BB8B39
:10365C000133BB83BB681B78002B14BF01230023F1
:10366C00DAB20D4B1B881846BB8B0C4989688988CC
:10367C0001FB03F3C31A9BB20849896889888B4202
:10368C00ACBF01230023DBB21340DBB2002BCED145
:10369C0000BF2037BD4680BD200000204C0000201C
:1036AC0080B582B000AF4FF0E0437B604FF08043B9
:1036BC003B60FCF71DFF00F09BF800F0A9FA00F04E
:1036CC0029FA00F05DFA00F01DF900F063F93C48AE
:1036DC0000F054FBFFF733FC00F09CF90022394951
:1036EC003948FEF77BF84FF47F00FFF7C5FD4FF428
:1036FC00FA60FCF76FFF3548FFF7BEFD4FF47A70A8
:10370C00FCF768FFFFF7E4FD4FF47A70FCF762FFFB
:10371C000020FFF7B1FDFFF743FE2D48FFF756FEE3
:10372C002C48FFF763FEFF20FFF770FE54220A219E
:10373C000A20FFF77BFE65220A211B20FFF776FE8D
:10374C0073220A212C20FFF771FE74220A213D20DE
:10375C00FFF76CFE2048FFF739FE8020FFF756FE7E
:10376C001E48FFF743FE03231D4A1E210A20FFF7C4
:10377C0007FF1C48FFF72AFE48F28000FFF746FEC1
:10378C004FF0FF10FFF732FE0223174A32210A20B6
:10379C00FFF7F6FE0E48FFF719FE0020FFF736FE86
:1037AC004FF6FF70FFF722FE0123104A64210A2016
:1037BC00FFF7E6FE4FF4FA60FCF70CFFFEE700BFE4
:1037CC00F0010020000005D008010020FFF00F00E0
:1037DC001000002000FFFF00080000208080FF0088
:1037EC0044450008180000204C45000854450008CA
:1037FC0080B5A0B000AF07F150033022002118466D
:10380C0000F086FE07F13C0300221A605A609A60B1
:10381C00DA601A6107F10C0330220021184600F01F
:10382C0077FE0023BB60354A344B1B6C43F080534E
:10383C001364324B1B6C03F08053BB60BB680023DA
:10384C007B602F4A2E4B1B6843F4404313602C4B78
:10385C001B6803F440437B607B6802233B650123B8
:10386C00FB6510233B660223BB660023FB66082323
:10387C003B67B4237B670223BB670423FB6707F119
:10388C0050031846FEF7D8F90346002B01D000F080
:10389C006DFAFEF781F90346002B01D000F066FAB1
:1038AC000F23FB6302233B6400237B644FF4A05380
:1038BC00BB644FF48053FB6407F13C0305211846AD
:1038CC00FEF7FCFB0346002B01D000F04FFA082357
:1038DC00FB603C23FB6105237B624FF480333B632D
:1038EC0007F10C031846FEF7A1FD0346002B01D08F
:1038FC0000F03CFA00BF8037BD4680BD0038024066
:10390C000070004080B500AF204B214A1A601F4B5D
:10391C004FF400325A601D4B01229A601B4B00225F
:10392C00DA601A4B00229A61184B0122DA61174BAC
:10393C0001221A62154B00225A62144B00229A6221
:10394C00124B0122DA62114B01221A630F4B002237
:10395C005A630E48FCF76BFF0346002B01D000F0B6
:10396C0005FA00210948FDF7CFF90346002B01D0D9
:10397C0000F0FCF901210548FDF7C6F90346002BC0
:10398C0001D000F0F3F900BF80BD00BFB0010020F2
:10399C0000B0024080B500AF1B4B1C4A1A601A4B9A
:1039AC001B4A5A60184B00229A60174B8222DA602D
:1039BC00154B4FF480421A61134B00225A61124B83
:1039CC0000229A61104B0022DA610F4B00221A621E
:1039DC000D48FDF795FC0346002B01D000F0C6F90D
:1039EC0000210948FDF76CFD0346002B01D000F0C7
:1039FC00BDF900210448FDF79FFD0346002B01D0C3
:103A0C0000F0B4F900BF80BD5C000020005C0040F9
:103A1C00A086010080B58EB000AF3B1D3422002182
:103A2C00184600F075FD394B394A1A60374B0022A5
:103A3C005A60364B00229A60344B0022DA60334BCA
:103A4C0000221A61314B08225A61304B00229A61D4
:103A5C002E4B1D22DA612D4B03221A622B4B40F2A6
:103A6C000D125A62294B40F243129A62274B40F2D4
:103A7C001712DA62254B40F247121A63234B0022CD
:103A8C0083F83420214B002283F835201F4B002271
:103A9C0083F836201D48FDF78FFD0346002B01D01F
:103AAC0000F064F900237B60F023BB600023FB6013
:103ABC004FF4A0733B6101237B61FF23BB610023A7
:103ACC00FB614FF480633B6205237B620023BB6286
:103ADC00F023FB624FF4A0733B63002387F8343070
:103AEC00002387F83530002387F836303B1D002241
:103AFC0019460648FDF734FE0346002B01D000F0B2
:103B0C0035F900BF3837BD4680BD00BF0801002025
:103B1C000068014080B500AF174B184A1A60164B6D
:103B2C004FF482725A60144B00229A60124B00229E
:103B3C00DA60114B00221A610F4B00225A610E4BB6
:103B4C004FF400729A610C4B1822DA610A4B002276
:103B5C001A62094B00225A62074B00229A62064BEA
:103B6C000A22DA620448FEF784FE0346002B01D0D9
:103B7C0000F0FCF800BF80BDB000002000500140F8
:103B8C0080B588B000AF204B204A1A601E4B012232
:103B9C005A601D4B00229A601B4B0422DA601A4BB0
:103BAC0010221A61184B40225A61174B4FF4C07205
:103BBC009A61154B0022DA61134B4FF400621A62C2
:103BCC00114B00225A62104B4FF400529A6202239E
:103BDC007B600723BB600423FB6007233B6102234C
:103BEC007B610223BB610223FB613B1D1946064826
:103BFC00FEF7C0FD0346002B01D000F0B7F800BF64
:103C0C002037BD4680BD00BFF0010020400100A060
:103C1C0080B58CB000AF07F11C0300221A605A600B
:103C2C009A60DA601A610023BB614C4A4B4B1B6BE8
:103C3C0043F020031363494B1B6B03F02003BB6160
:103C4C00BB6900237B61454A444B1B6B43F0040367
:103C5C001363424B1B6B03F004037B617B690023F2
:103C6C003B613E4A3D4B1B6B43F0010313633B4BE3
:103C7C001B6B03F001033B613B690023FB60374A7C
:103C8C00364B1B6B43F002031363344B1B6B03F07B
:103C9C000203FB60FB680023BB60304A2F4B1B6B9D
:103CAC0043F0400313632D4B1B6B03F04003BB60CD
:103CBC00BB6800237B60294A284B1B6B43F0100325
:103CCC001363264B1B6B03F010037B607B68002394
:103CDC003B60224A214B1B6B43F0080313631F4BC1
:103CEC001B6B03F008033B603B68012204211C485A
:103CFC00FDF7ECFA00224FF400511A48FDF7E6FAF2
:103D0C000423FB6101233B6200237B620223BB6221
:103D1C0007F11C0319461248FDF72EF94FF4005316
:103D2C00FB6101233B6200237B620223BB6207F130
:103D3C001C0319460B48FDF71FF94FF40043FB61B8
:103D4C0000233B6200237B6207F11C0319460648E3
:103D5C00FDF712F900BF3037BD4680BD0038024078
:103D6C0000080240000C02400000024080B400AF8A
:103D7C0000BFBD465DF8047B7047000080B584B081
:103D8C0000AF78600023FB602F4B01221A602E4B92
:103D9C0008225A602C4B01229A602B4B0022DA60CD
:103DAC004FF6FF7228497868FEF718FD0A20FCF7D9
:103DBC0011FC254B02221A60234B08225A60224B1D
:103DCC0001229A60204B0022DA604FF6FF721E49E6
:103DDC007868FEF703FD0A20FCF7FCFB1A4B032264
:103DEC001A60194B08225A60174B04229A60164B22
:103DFC000022DA604FF6FF7213497868FEF7EEFC8A
:103E0C000A20FCF7E7FB40F23123FB600E4B042247
:103E1C001A600D4B08225A600B4B01229A60FB680A
:103E2C00094AD3604FF6FF7207497868FEF7D6FC53
:103E3C000A20FCF7CFFB40F26A517868FEF7F9FCD8
:103E4C0000BF1037BD4680BD2402002080B483B073
:103E5C0000AF00237B60104A0F4B5B6C43F4804334
:103E6C0053640D4B5B6C03F480437B607B680023D5
:103E7C003B60094A084B1B6C43F080531364064BA0
:103E8C001B6C03F080533B603B6800BF0C37BD4696
:103E9C005DF8047B704700BF0038024080B584B0E9
:103EAC0000AF78607B681B680E4A934215D10023E3
:103EBC00FB600D4A0C4B1B6B43F4000313630A4B62
:103ECC001B6B03F40003FB60FB68002200215A20EB
:103EDC00FCF777FC5A20FCF790FC00BF1037BD466E
:103EEC0080BD00BF00B002400038024080B58AB0EF
:103EFC0000AF786007F1140300221A605A609A60D0
:103F0C00DA601A617B681B68294A93424BD1002303
:103F1C003B61284A274B1B6B43F004031363254B6F
:103F2C001B6B03F004033B613B690023FB60214ADC
:103F3C00204B1B6B43F0010313631E4B1B6B03F0F5
:103F4C000103FB60FB684FF400737B611223BB61C0
:103F5C000123FB6103233B6204237B6207F11403FF
:103F6C0019461548FDF708F84FF480737B6112234E
:103F7C00BB610123FB6103233B6204237B6207F1DA
:103F8C00140319460D48FCF7F7FF0023BB60094AE0
:103F9C00084B1B6C43F400031364064B1B6C03F4BB
:103FAC000003BB60BB6800BF2837BD4680BD00BFA7
:103FBC00005C004000380240000802400000024053
:103FCC0080B58EB000AF786007F1240300221A6030
:103FDC005A609A60DA601A617B681B68774A934270
:103FEC0040F0E88000233B62754A754B5B6C43F0F4
:103FFC0080635364724B5B6C03F080633B623B6A7F
:10400C000023FB616E4A6E4B1B6B43F02003136362
:10401C006B4B1B6B03F02003FB61FB690023BB6143
:10402C00674A674B1B6B43F001031363644B1B6BB9
:10403C0003F00103BB61BB6900237B61604A604BE9
:10404C001B6B43F0020313635D4B1B6B03F002030A
:10405C007B617B6900233B61594A594B1B6B43F0D5
:10406C0040031363564B1B6B03F040033B613B69EE
:10407C000023FB60524A524B1B6B43F00403136347
:10408C004F4B1B6B03F00403FB60FB680023BB600E
:10409C004B4A4B4B1B6B43F008031363484B1B6B96
:1040AC0003F00803BB60BB684FF480637B620223A0
:1040BC00BB620023FB6202233B630E237B6307F18D
:1040CC00240319463F48FCF757FF41F658037B621F
:1040DC000223BB620023FB6202233B630E237B6340
:1040EC0007F1240319463848FCF746FF03237B628B
:1040FC000223BB620023FB6202233B6309237B6325
:10410C0007F1240319463148FCF736FF4FF470636E
:10411C007B620223BB620023FB6202233B630E2300
:10412C007B6307F1240319462848FCF725FF4FF45D
:10413C000C637B620223BB620023FB6202233B63A2
:10414C000E237B6307F1240319462148FCF714FF67
:10415C004FF498637B620223BB620023FB62022351
:10416C003B630E237B6307F1240319461948FCF7C4
:10417C0003FF48237B620223BB620023FB62022302
:10418C003B630E237B6307F1240319461248FCF7AB
:10419C00F3FE4FF4A0537B620223BB620023FB624D
:1041AC0002233B6309237B6307F124031946084868
:1041BC00FCF7E2FE00BF3837BD4680BD0068014009
:1041CC00003802400014024000000240000402408B
:1041DC000018024000080240000C024080B58AB072
:1041EC0000AF786007F1140300221A605A609A60DD
:1041FC00DA601A617B681B68194A93422CD1002340
:10420C003B61184A174B5B6C43F480135364154B9A
:10421C005B6C03F480133B613B690023FB60114A28
:10422C00104B1B6B43F0200313630E4B1B6B03F003
:10423C002003FB60FB684FF460737B610223BB615E
:10424C000023FB6103233B6205237B6207F114030C
:10425C0019460548FCF790FE00BF2837BD4680BDC7
:10426C0000500140003802400014024080B586B076
:10427C0000AF3C4B1B68002B6FD13A4B01221A60EC
:10428C0000233B60384A384B9B6B43F0010393632C
:10429C00354B9B6B03F001033B603B684FF63F03D0
:1042AC007B600223BB600023FB6003233B610C2378
:1042BC007B613B1D19462D48FCF75EFE01237B609C
:1042CC000223BB600023FB6003233B610C237B6157
:1042DC003B1D19462648FCF74FFE48F233137B6012
:1042EC000223BB600023FB6003233B610C237B6137
:1042FC003B1D19461F48FCF73FFE4FF683737B604E
:10430C000223BB600023FB6003233B610C237B6116
:10431C003B1D19461848FCF72FFE4CF203737B60CB
:10432C000223BB600023FB6003233B610C237B61F6
:10433C003B1D19461148FCF71FFE60237B600223CE
:10434C00BB600023FB6003233B610C237B613B1DA3
:10435C0019460B48FCF710FE00E000BF1837BD46AD
:10436C0080BD00BF44000020003802400014024011
:10437C00000802400018024000100240000C0240ED
:10438C000004024080B582B000AF7860FFF76EFF8A
:10439C0000BF0837BD4680BD80B400AF00BFBD462E
:1043AC005DF8047B704780B400AFFEE780B400AFCB
:1043BC00FEE780B400AFFEE780B400AFFEE780B448
:1043CC0000AF00BFBD465DF8047B704780B400AF02
:1043DC0000BFBD465DF8047B704780B400AF00BFE2
:1043EC00BD465DF8047B704780B500AFFCF7D2F892
:1043FC0000BF80BD80B500AF0248FCF774FB00BF66
:10440C0080BD00BFB001002080B400AF164A164B2F
:10441C00D3F8883043F47003C2F88830134A134B36
:10442C001B6843F001031360104B00229A600F4A83
:10443C000E4B1B6823F0847323F4803313600B4BF7
:10444C000B4A5A60094A094B1B6823F480231360FA
:10445C00064B0022DA60044B4FF000629A6000BFFA
:10446C00BD465DF8047B704700ED00E0003802406B
:10447C0010300024DFF834D0002103E00C4B5B58E3
:10448C00435004310B480C4B42189A42F6D30B4A5A
:10449C0002E0002342F8043B094B9A42F9D3FFF7A0
:1044AC00B3FF00F011F8FFF7FBF870470000032092
:1044BC00186F0008000000202800002028000020B1
:1044CC0034020020FEE7000070B50D4E0D4CA41B0D
:1044DC00A4100025A54209D10B4E0C4C00F020F87D
:1044EC00A41BA4100025A54205D170BD56F825309B
:1044FC0098470135EEE756F8253098470135F2E735
:10450C00106F0008106F0008106F0008146F00087F
:10451C0002440346934200D1704703F8011BF9E7AC
:10452C00F8B500BFF8BC08BC9E467047F8B500BF94
:08453C00F8BC08BC9E46704764
:104544004C656674203136005269676874203800FF
:1045540043656E7465722032340000000000000070
:104564000000000000000000000000000000000047
:1045740000000000000000000000000000000C002B
:104584000C000C000C000C000C000C000C000000D3
:104594000C0000000000000000000000000000000B
:1045A4001DC01DC0088008800880000000000000B5
:1045B40000000000000000000000000000000D806A
:1045C4000D800D800D803FC01B003FC01B001B00F1
:1045D4001B001B00000000000000000004001F80FE
:1045E4003180318038001E000F000380318031801B
:1045F4003F00040004000000000000000000180058
:104604002400240018C007801E00318002400240AC
:104614000180000000000000000000000000000015
:104624000F001800180018000C001D80370033001C
:104634001D800000000000000000000000000000D9
:104644000700070002000200020000000000000052
:104654000000000000000000000000000000030053
:10466400030006000E000C000C000C000C000E00F1
:104674000600030003000000000000000000180012
:1046840018000C00060006000600060006000600DE
:104694000C001C00180000000000000000000600D0
:1046A40006003FC03FC00F001F80198000000000BB
:1046B40000000000000000000000000000000000F6
:1046C40000000400040004003F800400040004000F
:1046D40000000000000000000000000000000000D6
:1046E40000000000000000000000000000000600C0
:1046F40004000C0008000800000000000000000096
:1047040000000000000000003F80000000000000E6
:104714000000000000000000000000000000000095
:1047240000000000000000000000000000000C0079
:104734000C000000000000000000000000C000C0E9
:10474400018001800300030006000C000C00180027
:1047540018003000300000000000000000000E00CF
:104764001B003180318031803180318031801B00E9
:104774000E00000000000000000000000000060021
:104784003E000600060006000600060006000600BD
:104794003FC00000000000000000000000000F0007
:1047A400198031803180030006000C0018003000AD
:1047B4003F800000000000000000000000003F00F7
:1047C4006180018003001F000380018001806180FB
:1047D4003F0000000000000000000000000007008F
:1047E40007000F000B001B00130033003F80030081
:1047F4000F800000000000000000000000001F8087
:104804001800180018001F00118001800180218009
:104814001F000000000000000000000000000780EE
:104824001C00180030003700398031803180198035
:104834000F000000000000000000000000007F00E6
:104844004300030006000600060006000C000C00EE
:104854000C000000000000000000000000001F0029
:104864003180318031801F0031803180318031804E
:104874001F000000000000000000000000001E00F7
:1048840033003180318033801D80018003000700B4
:104894003C000000000000000000000000000000D8
:1048A400000000000C000C000000000000000C00E0
:1048B4000C000000000000000000000000000000E8
:1048C40000000000030003000000000000000600D8
:1048D40004000800080000000000000000000000C0
:1048E40000C0030004001800600018000400030066
:1048F40000C00000000000000000000000000000F4
:104904000000000000007FC000007FC00000000025
:104914000000000000000000000000000000000093
:10492400600018000400030000C003000400180025
:104934006000000000000000000000000000000013
:104944001F0031803180018007000C000C00000042
:104954000C000000000000000000000000000E0039
:104964001100210021002700290029002700200030
:1049740011000E0000000000000000000000000014
:104984003F000F000900198019801F8030C030C01B
:1049940079E00000000000000000000000000000BA
:1049A4007F003180318031803F003180318031801F
:1049B4007F00000000000000000000000000000074
:1049C4001F4030C060406000600060006040308084
:1049D4001F000000000000000000000000000000B4
:1049E4007F00318030C030C030C030C030C0318032
:1049F4007F00000000000000000000000000000034
:104A04007F803080308032003E0032003080308041
:104A14007F80000000000000000000000000000093
:104A24007FC03040304032003E0032003000300061
:104A34007C000000000000000000000000000000F6
:104A44001E80318060806000600067C061803180BA
:104A54001F00000000000000000000000000000033
:104A64007BC03180318031803F8031803180318022
:104A74007BC00000000000000000000000000000F7
:104A84003FC00600060006000600060006000600F9
:104A94003FC0000000000000000000000000000013
:104AA4001FC00300030003000300630063006300EE
:104AB4003E000000000000000000000000000000B4
:104AC4007BC03180330036003C003E00330031802F
:104AD40079C0000000000000000000000000000099
:104AE4007E001800180018001800184018401840DC
:104AF4007FC0000000000000000000000000000073
:104B0400E0E060C071C07BC06AC06EC064C060C0B9
:104B1400FBE00000000000000000000000000000B6
:104B240073C0318039803D80358037803380318057
:104B34007980000000000000000000000000000078
:104B44001F00318060C060C060C060C060C0318040
:104B54001F00000000000000000000000000000032
:104B64007F0031803180318031803F00300030005F
:104B74007E000000000000000000000000000000B3
:104B84001F00318060C060C060C060C060C0318000
:104B94001F000CC01F800000000000000000000087
:104BA4007F003180318031803E003300318031809C
:104BB4007CE0000000000000000000000000000095
:104BC4001F803180318038001F00038031803180A4
:104BD4003F00000000000000000000000000000092
:104BE4007F804C804C804C800C000C000C000C002E
:104BF4003F00000000000000000000000000000072
:104C04007BC031803180318031803180318031808E
:104C14001F00000000000000000000000000000071
:104C24007BC0318031801B001B001B000A000E007A
:104C34000E00000000000000000000000000000062
:104C4400FBE060C064C06EC06EC02A803B803B80C5
:104C5400318000000000000000000000000000009F
:104C64007BC031801B000E000E000E001B00318043
:104C74007BC00000000000000000000000000000F5
:104C840079E030C019800F00060006000600060017
:104C94001F80000000000000000000000000000071
:104CA4003F8021802300060004000C00188030801F
:104CB4003F800000000000000000000000000780AA
:104CC40006000600060006000600060006000600B0
:104CD40006000600078000000000000030003000DD
:104CE400180018000C000C000600030003000180EB
:104CF400018000C000C000000000000000001E0091
:104D0400060006000600060006000600060006006F
:104D1400060006001E0000000000000004000A0057
:104D24000A00110020802080000000000000000024
:104D3400000000000000000000000000000000006F
:104D4400000000000000000000000000000000005F
:104D540000000000000000000000FFE00800040064
:104D6400020000000000000000000000000000003D
:104D7400000000000000000000000000000000002F
:104D8400000000001F00018001801F8031803380FB
:104D94001DC00000000000000000000000007000C2
:104DA400300030003700398030C030C030C0398026
:104DB4007700000000000000000000000000000078
:104DC400000000001E8031806080600060803180BF
:104DD4001F0000000000000000000000000003802D
:104DE400018001801D803380618061806180338017
:104DF4001DC00000000000000000000000000000D2
:104E0400000000001F00318060C07FC0600030C01F
:104E14001F8000000000000000000000000007E008
:104E24000C000C003F800C000C000C000C000C006B
:104E34003F800000000000000000000000000000AF
:104E4400000000001DC03380618061806180338078
:104E54001D80018001801F00000000000000700020
:104E6400300030003700398031803180318031802A
:104E74007BC00000000000000000000000000600ED
:104E8400060000001E0006000600060006000600DC
:104E94003FC0000000000000000000000000060009
:104EA400060000003F0003000300030003000300AA
:104EB4000300030003003E00000000000000700037
:104EC40030003000378036003C003C0036003300B0
:104ED40077C00000000000000000000000001E0079
:104EE400060006000600060006000600060006008E
:104EF4003FC00000000000000000000000000000AF
:104F0400000000007F8036C036C036C036C036C0D0
:104F140076E0000000000000000000000000000037
:104F24000000000077003980318031803180318089
:104F34007BC0000000000000000000000000000032
:104F4400000000001F00318060C060C060C031807C
:104F54001F0000000000000000000000000000002E
:104F6400000000007700398030C030C030C0398084
:104F74003700300030007C0000000000000000001A
:104F8400000000001DC03380618061806180338037
:104F94001D800180018007C00000000000000000A7
:104FA400000000007B801CC01800180018001800C6
:104FB4007F0000000000000000000000000000006E
:104FC400000000001F8031803C001F0003803180FE
:104FD4003F00000000000000000000000000180076
:104FE400180018007F001800180018001800188016
:104FF4000F0000000000000000000000000000009E
:105004000000000073803180318031803180338032
:105014001DC00000000000000000000000000000AF
:10502400000000007BC0318031801B001B000E009B
:105034000E0000000000000000000000000000005E
:1050440000000000F1E060C064C06EC03B803B80A3
:10505400318000000000000000000000000000009B
:10506400000000007BC01B000E000E000E001B00A1
:105074007BC00000000000000000000000000000F1
:105084000000000079E030C0198019800B000F0087
:10509400060006000C003E000000000000000000B6
:1050A400000000003F80218003000E0018003080C3
:1050B4003F80000000000000000000000000060027
:1050C4000C000C000C000C000C0018000C000C0070
:1050D4000C000C00060000000000000000000600A8
:1050E400060006000600060006000600060006008C
:1050F40006000600060000000000000000000C008E
:10510400060006000600060006000300060006006E
:10511400060006000C000000000000000000000073
:1051240000000000000018002480030000000000BC
:10513400000000000000000000000000000000006B
:10514400000000000000000000000000000000005B
:10515400000000000000000000000000000000004B
:10516400000000000000000000000000000000003B
:10517400000000000000000000000000000000002B
:105184000000000000000000000003800003800015
:105194000380000380000380000380000380000379
:1051A40080000380000100000100000000000000F6
:1051B40000038000038000000000000000000000E5
:1051C40000000000000000000000000000000000DB
:1051D40000000000000E70000E70000E700004202D
:1051E400000420000420000420000000000000004F
:1051F40000000000000000000000000000000000AB
:10520400000000000000000000000000000000009A
:1052140000000000000000000000066000066000BE
:105224000660000660000660003FF8003FF80006D4
:1052340060000CC0003FF8003FF8000CC0000CC038
:10524400000CC0000CC0000CC000000000000000F6
:105254000000000000000000000000000000000149
:10526400800001800007B0000FF000187000187073
:10527400001C00000F800007E00000F00018300060
:105284001C30001C70001FE0001BC00001800001E6
:105294008000018000018000000000000000000088
:1052A400000000000000000000000780000FC000A4
:1052B4001CE0001860001860001CE0000FF80007F4
:1052C400E0001FF000073800061800061800073831
:1052D4000003F00001E000000000000000000000F6
:1052E40000000000000000000000000000000000BA
:1052F400000000000000000003F00007F0000C6054
:10530400000C00000C00000600000700000F9C00C9
:105314001DFC0018F0001870000FFC0007DC0000F2
:105324000000000000000000000000000000000079
:1053340000000000000000000000000000038000E6
:10534400038000038000010000010000010000014F
:105354000000000000000000000000000000000049
:105364000000000000000000000000000000000039
:105374000000000000000000000000000000000029
:10538400000000180000380000700000F00000E089
:105394000000E00001C00001C00001C00001C00025
:1053A40001C00001C00000E00000E0000070000047
:1053B4007000003800001800000000000000000029
:1053C400000000000000000000001800001C0000A5
:1053D4000E00000E00000700000700000380000319
:1053E4008000038000038000038000038000070026
:1053F400000700000F00000E00001C000018000051
:105404000000000000000000000000000000000098
:1054140000000180000180000180001DB8001FF819
:105424000007E00003C00003C0000660000660003F
:105434000000000000000000000000000000000068
:105444000000000000000000000000000000000058
:105454000000000000000000000000000000000048
:105464000180000180000180000180000180003F74
:10547400FC003FFC000180000180000180000180ED
:105484000001800000000000000000000000000097
:105494000000000000000000000000000000000008
:1054A40000000000000000000000000000000000F8
:1054B40000000000000000000000000000000000E8
:1054C40000000000000000E00000C00001C0000176
:1054D40080000180000300000300000000000000C1
:1054E40000000000000000000000000000000000B8
:1054F4000000000000000000000000000000001F89
:10550400F8001FF800000000000000000000000088
:105514000000000000000000000000000000000087
:105524000000000000000000000000000000000077
:105534000000000000000000000000000000000067
:105544000000000000000000000000000000000057
:1055540000000000000003C00003C00003C00000FE
:105564000000000000000000000000000000000037
:10557400000000000018000018000038000030008F
:1055840000700000600000600000C00000C0000166
:1055940080000180000300000300000600000600F4
:1055A400000E00000C00001C000018000018000091
:1055B40000000000000000000000000000000000E7
:1055C400000003C00007E0000C30000C3000181885
:1055D40000181800181800181800181800181800D7
:1055E4001818000C30000C300007E00003C0000065
:1055F40000000000000000000000000000000000A7
:10560400000000000000000000000080000780008F
:105614001F80001D800001800001800001800001C6
:105624008000018000018000018000018000018071
:10563400001FF8001FF80000000000000000000038
:105644000000000000000000000000000000000056
:10565400000007C0001FF000383000301800301878
:105664000000180000300000600001C0000380004A
:105674000600000C00001800003FF8003FF800008E
:105684000000000000000000000000000000000016
:105694000000000000000000000003C0000FE00054
:1056A4000C700000300000300000600003C00003F4
:1056B400E0000070000018000018000018001838FE
:1056C400001FF0000FC000000000000000000000F8
:1056D40000000000000000000000000000000000C6
:1056E400000000E00001E00001E00003600006604B
:1056F400000660000C60000C600018600030600060
:105704003FF8003FF80000600003F80003F80000D1
:105714000000000000000000000000000000000085
:10572400000000000000000000001FF0001FF00057
:105734001800001800001800001BC0001FF0001C17
:105744003000001800001800001800001800303065
:10575400003FF0000FC00000000000000000000047
:105764000000000000000000000000000000000035
:10577400000000F80003F8000700000E00000C0011
:10578400001800001BC0001FF0001C300018180097
:105794001818001818000C38000FF00003E000007F
:1057A40000000000000000000000000000000000F5
:1057B400000000000000000000001FF8001FF800B7
:1057C4001818001838000030000030000070000085
:1057D400600000600000E00000C00000C00001C0E4
:1057E40000018000018000000000000000000000B3
:1057F40000000000000000000000000000000000A5
:10580400000007E0000FF0001C38001818001818FA
:10581400000C300007E00007E0000C30001818000E
:105824001818001818001C38000FF00007E00000DA
:105834000000000000000000000000000000000064
:105844000000000000000000000007C0000FF0008E
:105854001C30001818001818001818000C38000F15
:10586400F80003D80000180000300000700000E0C9
:10587400001FC0001F000000000000000000000026
:105884000000000000000000000000000000000014
:10589400000000000000000000000000000003C041
:1058A4000003C00003C0000000000000000000006E
:1058B40000000000000003C00003C00003C000009B
:1058C40000000000000000000000000000000000D4
:1058D40000000000000000000000000000000000C4
:1058E40000000000000000F00000F00000F00000E4
:1058F400000000000000000000000000E00001C003
:10590400000180000180000300000200000000008C
:105914000000000000000000000000000000000083
:105924000000000000000000001C00003C0000F02B
:105934000003C0000F00003C0000F000003C000029
:105944000F000003C00000F000003C00001C000039
:105954000000000000000000000000000000000043
:105964000000000000000000000000000000000033
:105974000000000000000000007FFC007FFC00002D
:1059840000000000007FFC007FFC0000000000001D
:105994000000000000000000000000000000000003
:1059A40000000000000000000000000000000000F3
:1059B40000000000000000007000007800001E00DD
:1059C4000007800001E000007800001E000078005D
:1059D40001E0000780001E00007800007000000055
:1059E40000000000000000000000000000000000B3
:1059F4000000000000000000000000000007C000DC
:105A04000FE000187000183000183000007000001B
:105A1400E00003C000038000030000000000000059
:105A24000007000007000000000000000000000064
:105A34000000000000000000000000000000000062
:105A4400000003E00007F0000E38000C180018787E
:105A54000018F80019D8001998001998001998002E
:105A640018F8001878001800000C00000E18000741
:105A7400F80003E000000000000000000000000047
:105A8400000000000000000000000000001F800073
:105A94001FC00001C0000360000360000630000660
:105AA40030000C30000FF8001FF800180C00300C08
:105AB40000FC7F00FC7F00000000000000000000EC
:105AC40000000000000000000000000000000000D2
