:020000040800F2
:1000000000000320897800080D7200081B720008A8
:1000100021720008277200082D72000800000000FD
:100020000000000000000000000000003372000823
:1000300041720008000000004F7200085D72000865
:10004000D9780008D9780008D9780008D97800084C
:10005000D9780008D9780008D9780008D97800083C
:10006000D9780008D9780008D9780008D97800082C
:10007000D978000879720008D97800088D720008D4
:10008000D9780008D9780008D9780008D97800080C
:10009000D9780008D9780008D9780008D9780008FC
:1000A000D9780008D9780008D9780008D9780008EC
:1000B000D9780008D9780008D9780008D9780008DC
:1000C000D9780008D9780008D9780008D9780008CC
:1000D000D9780008D9780008D9780008D9780008BC
:1000E000D9780008D9780008D9780008D9780008AC
:1000F000D9780008D9780008D9780008D97800089C
:10010000D9780008D9780008D9780008D97800088B
:10011000D9780008D9780008A1720008D9780008B9
:10012000D9780008D9780008D9780008D97800086B
:10013000D9780008D9780008D9780008D97800085B
:10014000D9780008D9780008D9780008D97800084B
:10015000D9780008D9780008D9780008D97800083B
:10016000D9780008D9780008D9780008D97800082B
:10017000D9780008D9780008D97800080000000074
:10018000D9780008D9780008D9780008D97800080B
:10019000D9780008D9780008D9780008D9780008FB
:0C01A000B5720008D9780008C972000888
:1001AC0010B5054C237833B9044B13B10448AFF3A5
:1001BC0000800123237010BD3C00002000000000D3
:1001CC0028F2000808B5034B1BB103490348AFF3F1
:1001DC00008008BD000000004000002028F200084C
:1001EC0053B94AB9002908BF00281CBF4FF0FF3192
:1001FC004FF0FF3000F07AB9ADF1080C6DE904CE88
:10020C0000F006F8DDF804E0DDE9022304B07047E5
:10021C002DE9F0478C460D460446089E002B51D123
:10022C008A4217466DD9B2FA82FEBEF1000F0BD08E
:10023C00CEF1200C01FA0EF520FA0CFC02FA0EF7A6
:10024C004CEA050C00FA0EF44FEA174A250CBCFBDD
:10025C00FAF81FFA87F90AFB18CC45EA0C4508FB9B
:10026C0009F3AB420AD9ED1908F1FF3280F0238172
:10027C00AB4240F22081A8F102083D44ED1AA4B231
:10028C00B5FBFAF00AFB105544EA054400FB09F9EA
:10029C00A14509D9E41900F1FF3380F00A81A14589
:1002AC0040F2078102383C44A4EB090440EA0840C0
:1002BC000021002E61D024FA0EF400233460736008
:1002CC00BDE8F0878B4207D9002E54D0002186E878
:1002DC0021000846BDE8F087B3FA83F1002940F00D
:1002EC008E80AB4202D3824200F2FA80841A65EB14
:1002FC0003050120AC46002E3FD086E81010BDE867
:10030C00F08712B90127B7FBF2F7B7FA87FEBEF1F7
:10031C00000F34D1EB1B3A0C1FFA87FC0121B3FB05
:10032C00F2F8250C02FB183345EA03450CFB08F3E5
:10033C00AB4207D9ED1908F1FF3002D2AB4200F203
:10034C00D1808046ED1AA3B2B5FBF2F002FB10553A
:10035C0043EA05440CFB00FCA44507D9E41900F161
:10036C00FF3302D2A44500F2B8801846A4EB0C046B
:10037C0040EA08409DE731463046BDE8F087CEF1B3
:10038C00200405FA0EF307FA0EF720FA04F83A0CDB
:10039C0025FA04F448EA0308B4FBF2F14FEA1845D5
:1003AC0002FB11441FFA87FC45EA044501FB0CF3E0
:1003BC00AB4200FA0EF409D9ED1901F1FF3080F0CF
:1003CC008A80AB4240F2878002393D44EB1A1FFA17
:1003DC0088F5B3FBF2F002FB103345EA034500FB52
:1003EC000CF3AB4207D9ED1900F1FF386FD2AB42D9
:1003FC006DD902383D44EB1A40EA01418FE7C1F157
:10040C00200722FA07F88B4005FA01F448EA0303A7
:10041C0020FA07FE4FEA134CFD404EEA040EB5FBE2
:10042C00FCF94FEA1E440CFB19551FFA83F844EAF9
:10043C00054509FB08F4AC4202FA01F200FA01FA94
:10044C0008D9ED1809F1FF3043D2AC4241D9A9F1DA
:10045C0002091D442D1B1FFA8EFEB5FBFCF00CFB94
:10046C0010554EEA054400FB08F8A04507D9E418DE
:10047C0000F1FF3529D2A04527D902381C4440EAA7
:10048C000940A4EB0804A0FB02894C45C6464D4626
:10049C0015D312D056B1BAEB0E0364EB050404FA73
:1004AC0007F7CB401F43CC40376074600021BDE898
:1004BC00F0871846F8E69046E0E6C245EAD2B8EB7B
:1004CC00020E69EB03050138E4E72846D7E74046FE
:1004DC0091E78146BEE7014678E702383C4445E7A0
:1004EC00084608E7A8F102083D442BE7704700BF17
:1004FC0080B500AF0E4A0E4B1B6843F400731360BB
:10050C000B4A0B4B1B6843F480631360084A084B7F
:10051C001B6843F480731360032000F061F9002022
:10052C0000F008F806F0EEFA0023184680BD00BF74
:10053C00003C024080B582B000AF7860124B1A6864
:10054C00124B1B7819464FF47A73B3FBF1F3B2FBE1
:10055C00F3F3184600F087F90346002B01D0012372
:10056C000EE07B680F2B0AD8002279684FF0FF3021
:10057C0000F041F9064A7B681360002300E0012378
:10058C0018460837BD4680BD0C0000200400002032
:10059C000000002080B400AF064B1B781A46064BB7
:1005AC001B681344044A136000BFBD465DF8047B0E
:1005BC00704700BF040000209C2B022080B400AFC9
:1005CC00034B1B681846BD465DF8047B704700BFA3
:1005DC009C2B022080B584B000AF7860FFF7EEFF53
:1005EC00B8607B68FB60FB68B3F1FF3F05D0094B3B
:1005FC001B781A46FB681344FB6000BFFFF7DEFF55
:10060C000246BB68D21AFB689A42F7D300BF103778
:10061C00BD4680BD0400002080B485B000AF78607A
:10062C007B6803F00703FB600C4BDB68BB60BA68AC
:10063C004FF6FF031340BB60FB681A02BB68134301
:10064C0043F0BF6343F40033BB60044ABB68D36020
:10065C0000BF1437BD465DF8047B704700ED00E029
:10066C0080B400AF044BDB681B0A03F00703184689
:10067C00BD465DF8047B704700ED00E080B483B0AC
:10068C0000AF0346FB71094997F907305B09FA790A
:10069C0002F01F02012000FA02F241F8232000BFF1
:1006AC000C37BD465DF8047B704700BF00E100E0ED
:1006BC0080B483B000AF0346FB71094997F907304A
:1006CC005B09FA7902F01F02012000FA02F22033D2
:1006DC0041F8232000BF0C37BD465DF8047B704702
:1006EC0000E100E080B483B000AF03463960FB71D9
:1006FC0097F90730002B0BDA0D49FB7903F00F0348
:10070C00043B3A68D2B21201D2B20B441A7609E019
:10071C00084997F907303A68D2B21201D2B20B44A9
:10072C0083F8002300BF0C37BD465DF8047B70478F
:10073C0000ED00E000E100E080B489B000AFF860AB
:10074C00B9607A60FB6803F00703FB61FB69C3F1D6
:10075C000703042B28BF0423BB61FB690433062B5E
:10076C0002D9FB69033B00E000237B610122BB69DA
:10077C0002FA03F35A1EBB681A407B699A400121A6
:10078C007B6901FA03F3591E7B680B40134318462F
:10079C002437BD465DF8047B7047000080B582B0FD
:1007AC0000AF78607B68013BB3F1807F01D30123FC
:1007BC000FE00A4A7B68013B53600F214FF0FF307A
:1007CC00FFF790FF054B00229A60044B07221A603A
:1007DC00002318460837BD4680BD00BF10E000E07E
:1007EC0080B582B000AF78607868FFF715FF00BF66
:1007FC000837BD4680BD80B586B000AF0346B960F2
:10080C007A60FB7300237B61FFF72AFF78617A68BB
:10081C00B9687869FFF790FF024697F90F301146D7
:10082C001846FFF75FFF00BF1837BD4680BD80B587
:10083C0082B000AF0346FB7197F907301846FFF7FB
:10084C001DFF00BF0837BD4680BD80B582B000AF2C
:10085C000346FB7197F907301846FFF729FF00BFD5
:10086C000837BD4680BD80B582B000AF786078682F
:10087C00FFF794FF034618460837BD4680BD0000BD
:10088C0080B586B000AF786000237B61FFF796FEE1
:10089C0038617B68002B01D1012399E07B68002231
:1008AC0083F834207B68022283F835207B681B6830
:1008BC007A681268126822F001021A600FE0FFF7E2
:1008CC007DFE02463B69D31A052B08D97B68202292
:1008DC005A657B68032283F83520032378E07B6814
:1008EC001B681B6803F00103002BE8D17B681B68B5
:1008FC001B687B617A69384B13407B617B685A6853
:10090C007B689B681A437B68DB681A437B681B69AE
:10091C001A437B685B691A437B689B691A437B6843
:10092C00DB691A437B681B6A13437A6913437B6147
:10093C007B685B6A042B07D17B68DA6A7B681B6B6C
:10094C0013437A6913437B617B681B687A691A606D
:10095C007B681B685B697B617B6923F007037B61A8
:10096C007B685B6A7A6913437B617B685B6A042BE7
:10097C0017D17B689B6A7A6913437B617B68DB6A5E
:10098C00002B0ED0786800F0E9F90346002B08D054
:10099C007B6840225A657B68012283F8352001234D
:1009AC0016E07B681B687A695A61786800F0A0F9D8
:1009BC000346FB607B68DB6D3F229A40FB689A60C4
:1009CC007B6800225A657B68012283F8352000235E
:1009DC0018461837BD4680BD3F8010F080B586B0F4
:1009EC0000AF78600023BB60924B1B68924AA2FB5D
:1009FC0003239B0A7B617B689B6D3B613B691B6896
:100A0C00FB607B68DB6D08229A40FB681340002B6F
:100A1C001AD07B681B681B6803F00403002B13D0EF
:100A2C007B681B687A681268126822F004021A60EC
:100A3C007B68DB6D08229A403B699A607B685B6D32
:100A4C0043F001027B685A657B68DB6D01229A409A
:100A5C00FB681340002B12D07B681B685B6903F0AA
:100A6C008003002B0BD07B68DB6D01229A403B6925
:100A7C009A607B685B6D43F002027B685A657B6809
:100A8C00DB6D04229A40FB681340002B12D07B686C
:100A9C001B681B6803F00203002B0BD07B68DB6D1B
:100AAC0004229A403B699A607B685B6D43F00402B8
:100ABC007B685A657B68DB6D10229A40FB6813409B
:100ACC00002B43D07B681B681B6803F00803002BCA
:100ADC003CD07B68DB6D10229A403B699A607B6846
:100AEC001B681B6803F48023002B18D07B681B68E1
:100AFC001B6803F40023002B08D17B681B6C002BB4
:100B0C0024D07B681B6C786898471FE07B689B6CD3
:100B1C00002B1BD07B689B6C7868984716E07B6831
:100B2C001B681B6803F48073002B07D17B681B6860
:100B3C007A681268126822F008021A607B681B6CD3
:100B4C00002B03D07B681B6C786898477B68DB6D47
:100B5C0020229A40FB681340002B00F08E807B68AB
:100B6C001B681B6803F01003002B00F086807B6869
:100B7C00DB6D20229A403B699A607B6893F8353094
:100B8C00DBB2052B36D17B681B687A681268126859
:100B9C0022F016021A607B681B687A681268526928
:100BAC0022F080025A617B681B6C002B03D17B689E
:100BBC009B6C002B07D07B681B687A6812681268E4
:100BCC0022F008021A607B68DB6D3F229A403B6979
:100BDC009A607B68002283F834207B68012283F8BA
:100BEC0035207B681B6D002B7DD07B681B6D786876
:100BFC00984778E07B681B681B6803F48023002B04
:100C0C001CD07B681B681B6803F40023002B08D1E5
:100C1C007B685B6C002B30D07B685B6C786898478A
:100C2C002BE07B68DB6B002B27D07B68DB6B786859
:100C3C00984722E00C000020B5814E1B7B681B6896
:100C4C001B6803F48073002B0FD17B681B687A68D8
:100C5C001268126822F010021A607B68002283F876
:100C6C0034207B68012283F835207B68DB6B002BFA
:100C7C0003D07B68DB6B786898477B685B6D002BD7
:100C8C0032D07B685B6D03F00103002B22D07B68B4
:100C9C00052283F835207B681B687A681268126815
:100CAC0022F001021A60BB680133BB607A6993427F
:100CBC0007D87B681B681B6803F00103002BF2D17B
:100CCC0000E000BF7B68002283F834207B6801229F
:100CDC0083F835207B68DB6C002B05D07B68DB6CE4
:100CEC007868984700E000BF1837BD4680BD00BF4C
:100CFC0080B485B000AF78607B681B68DBB2103BBA
:100D0C00144AA2FB03231B09FB60134AFB68134420
:100D1C001B781A467B68DA65FB68032B09D97B685C
:100D2C001B6823F47F7323F003031A1D7B689A65F9
:100D3C0007E07B681B6823F47F7323F003037A6856
:100D4C0093657B689B6D18461437BD465DF8047B34
:100D5C00704700BFABAAAAAA44F2000880B485B0C1
:100D6C0000AF78600023FB737B689B6ABB607B6879
:100D7C009B69002B1FD1BB68032B55D801A252F8DD
:100D8C0023F000BFA10D0008B30D0008A10D000851
:100D9C00350E00087B68DB6A03F08073002B45D0AE
:100DAC000123FB7342E07B68DB6AB3F1C07F3FD168
:100DBC000123FB733CE07B689B69B3F5005F21D199
:100DCC00BB68032B36D801A252F823F0E90D0008BA
:100DDC00EF0D0008E90D0008010E00080123FB735C
:100DEC002FE07B68DB6A03F08073002B24D0012397
:100DFC00FB7321E07B68DB6AB3F1C07F1ED101235A
:100E0C00FB731BE0BB68022B02D9032B03D018E049
:100E1C000123FB7315E07B68DB6A03F08073002B06
:100E2C000ED00123FB730BE000BF0AE000BF08E00B
:100E3C0000BF06E000BF04E000BF02E000BF00E01E
:100E4C0000BFFB7B18461437BD465DF8047B70472A
:100E5C0080B582B000AF78607B68002B01D1012394
:100E6C003BE07B6893F83930DBB2002B06D17B6812
:100E7C00002283F83820786805F06CFE7B6802222B
:100E8C0083F839207B681B687A681268126822F430
:100E9C0040317A6852680A431A607B681B687A682A
:100EAC001268526B22F007017A6892680A435A63FF
:100EBC007B681A687B681B681B6C23F47F5323F0D8
:100ECC003F037968C9680B4313647B680022DA63BB
:100EDC007B68012283F83920002318460837BD4669
:100EEC0080BD80B584B000AF78607B681B685B68A0
:100EFC00FB607B681B681B68BB60FB6803F001032D
:100F0C00002B26D0BB6803F48073002B21D07B68A8
:100F1C001B687A681268126822F480721A607B6807
:100F2C00DB6B43F001027B68DA637B681B68012290
:100F3C009A607B68042283F839207B68002283F84E
:100F4C0038207B685B69002B03D07B685B69786811
:100F5C009847FB6803F02003002B26D0BB6803F4F2
:100F6C000053002B21D07B681B687A6812681268CA
:100F7C0022F400521A607B681B6820229A607B68FE
:100F8C00DB6B43F002027B68DA637B68042283F834
:100F9C0039207B68002283F838207B685B69002B42
:100FAC0003D07B685B6978689847FB6803F008039B
:100FBC00002B26D0BB6803F40063002B21D07B6888
:100FCC001B687A681268126822F400621A607B68E7
:100FDC001B6808229A607B68DB6B43F004027B6819
:100FEC00DA637B68042283F839207B68002283F85B
:100FFC0038207B685B69002B03D07B685B69786861
:10100C009847FB6803F00403002B13D0BB6803F470
:10101C008063002B0ED07B681B687A68126812689C
:10102C0022F480621A607B681B6804229A607868DC
:10103C0000F053F8FB6803F00203002B24D0BB68CC
:10104C0003F40073002B1FD07B681B687A6812684E
:10105C00126822F400721A607B681B6802229A6084
:10106C007B68DA6B7B68DA637B68012283F8392052
:10107C007B68002283F838207B681B69002B03D027
:10108C007B681B6978689847FB6803F01003002B9A
:10109C001FD0BB6803F48053002B1AD07B681B68ED
:1010AC007A681268126822F480521A607B681B6896
:1010BC0010229A607B68DA6B7B68DA637B680122AA
:1010CC0083F839207B68002283F83820786800F098
:1010DC000EF800BF1037BD4680BD80B483B000AFA2
:1010EC00786000BF0C37BD465DF8047B704780B458
:1010FC0083B000AF786000BF0C37BD465DF8047B51
:10110C007047000080B485B000AF786039603B68F0
:10111C001B0118337A681344BB600023FB607B68A7
:10112C005B68B3F5403F7B6893F83830012B01D1F5
:10113C00022370E07B68012283F838207B6802224E
:10114C0083F83920BB685B680A2B03D0BB685B68EB
:10115C00092B0CD1BB685A68BB689B681B041A43EB
:10116C00BB68DB6803F07F431343FB600AE0BB689A
:10117C005A68BB689B681B041A43BB68DB681B0678
:10118C001343FB603B68002B1ED17B681A687B689D
:10119C001B68596A234B0B40F9680B4353627B68FD
:1011AC001B68BA6812689A61BB685B680A2B03D02B
:1011BC00BB685B68092B25D17B681B68BA68D26851
:1011CC0022F07F429A621DE07B681A687B681B687C
:1011DC00D969144B0B40F9680B43D3617B681B68CE
:1011EC00BA6812681A61BB685B680A2B03D0BB68CB
:1011FC005B68092B06D17B681B68BA68D26822F041
:10120C007F421A627B68012283F839207B680022B6
:10121C0083F83820002318461437BD465DF8047B4C
:10122C00704700BFF0FFFC0080B489B000AF78605D
:10123C00396000237B6100233B610023BB610023E9
:10124C00FB6177E10122FB6902FA03F37B613B68E6
:10125C001A687B6913403B613A697B699A4240F09A
:10126C0066813B685B68022B03D03B685B68122B82
:10127C0023D1FB69DA087B68083253F82230BB6152
:10128C00FB6903F007039B000F2202FA03F3DB4315
:10129C00BA691340BB613B681A69FB6903F0070329
:1012AC009B0002FA03F3BA691343BB61FB69DA08CA
:1012BC007B680832B96943F822107B681B68BB61F4
:1012CC00FB695B00032202FA03F3DB43BA691340A8
:1012DC00BB613B685B6803F00302FB695B0002FACD
:1012EC0003F3BA691343BB617B68BA691A603B6844
:1012FC005B68012B0BD03B685B68022B07D03B680B
:10130C005B68112B03D03B685B68122B30D17B6878
:10131C009B68BB61FB695B00032202FA03F3DB43AE
:10132C00BA691340BB613B68DA68FB695B0002FA7F
:10133C0003F3BA691343BB617B68BA699A607B6833
:10134C005B68BB610122FB6902FA03F3DB43BA69F8
:10135C001340BB613B685B681B0903F00102FB692E
:10136C0002FA03F3BA691343BB617B68BA695A602A
:10137C007B68DB68BB61FB695B00032202FA03F349
:10138C00DB43BA691340BB613B689A68FB695B003D
:10139C0002FA03F3BA691343BB617B68BA69DA607A
:1013AC003B685B6803F08053002B00F0C080002387
:1013BC00FB60654A644B5B6C43F480435364624B43
:1013CC005B6C03F48043FB60FB68604AFB699B0821
:1013DC00023352F82330BB61FB6903F003039B001B
:1013EC000F2202FA03F3DB43BA691340BB617B683B
:1013FC00574A934237D07B68564A934231D07B6828
:10140C00554A93422BD07B68544A934225D07B6833
:10141C00534A93421FD07B68524A934219D07B683F
:10142C00514A934213D07B68504A93420DD07B684B
:10143C004F4A934207D07B684E4A934201D109230D
:10144C0012E00A2310E008230EE007230CE0062329
:10145C000AE0052308E0042306E0032304E002234A
:10146C0002E0012300E00023FA6902F0030292007B
:10147C009340BA691343BB613449FB699B0802333F
:10148C00BA6941F823203C4B1B68BB613B69DB43C9
:10149C00BA691340BB613B685B6803F48033002B73
:1014AC0003D0BA693B691343BB61334ABB69136010
:1014BC00314B5B68BB613B69DB43BA691340BB6171
:1014CC003B685B6803F40033002B03D0BA693B69BB
:1014DC001343BB61284ABB695360274B9B68BB61B4
:1014EC003B69DB43BA691340BB613B685B6803F43F
:1014FC008013002B03D0BA693B691343BB611E4AAE
:10150C00BB6993601C4BDB68BB613B69DB43BA690D
:10151C001340BB613B685B6803F40013002B03D0E2
:10152C00BA693B691343BB61134ABB69D360FB695E
:10153C000133FB61FB690F2B7FF684AE00BF2437B0
:10154C00BD465DF8047B704700380240003801400E
:10155C00000002400004024000080240000C02405F
:10156C00001002400014024000180240001C02400F
:10157C000020024000240240003C014080B487B0AF
:10158C0000AF7860396000233B610023FB600023CF
:10159C00BB6000237B61DAE001227B6902FA03F372
:1015AC003B613A683B691340FB60FA683B699A42BD
:1015BC0040F0CA807B681A687B695B00032101FAE2
:1015CC0003F3DB431A407B681A607B69DA087B699A
:1015DC00D9087B68083153F821107B6903F00703A5
:1015EC009B000F2000FA03F3DB4319407B680832A1
:1015FC0043F822107B689A687B695B00032101FA2F
:10160C0003F3DB431A407B689A607B685A680121BC
:10161C007B6901FA03F3DB431A407B685A607B68F1
:10162C00DA687B695B00032101FA03F3DB431A40A0
:10163C007B68DA604B4A7B699B08023352F8233093
:10164C00BB607B6903F003039B000F2202FA03F3D8
:10165C00BA681340BB607B68434A934237D07B68BF
:10166C00424A934231D07B68414A93422BD07B68EB
:10167C00404A934225D07B683F4A93421FD07B68F7
:10168C003E4A934219D07B683D4A934213D07B6803
:10169C003C4A93420DD07B683B4A934207D07B680F
:1016AC003A4A934201D1092312E00A2310E008239D
:1016BC000EE007230CE006230AE0052308E00423D0
:1016CC0006E0032304E0022302E0012300E00023F0
:1016DC007A6902F00302920003FA02F2BB689A42A2
:1016EC0032D17B6903F003039B000F2202FA03F350
:1016FC00BB601C487B699B081A497A6992080232C4
:10170C0051F82210BA68D2430A40023340F8232021
:10171C001F491F4B1A68FB68DB4313400B601C49C5
:10172C001B4B5A68FB68DB4313404B601849184B42
:10173C009A68FB68DB4313408B601549144BDA68DD
:10174C00FB68DB431340CB607B6901337B617B69B6
:10175C000F2B7FF621AF00BF1C37BD465DF8047B15
:10176C00704700BF003801400000024000040240F6
:10177C0000080240000C024000100240001402401D
:10178C0000180240001C02400020024000240240CD
:10179C00003C014080B483B000AF78600B467B8086
:1017AC0013467B707B78002B03D07A887B689A6118
:1017BC0003E07B881A047B689A6100BF0C37BD4636
:1017CC005DF8047B7047000080B584B000AF786092
:1017DC000023FB600023BB607B68002B01D101233D
:1017EC00C8E07B6893F83D30DBB2002B06D17B68F8
:1017FC00002283F83C20786805F0D4F97B68242219
:10180C0083F83D207B681B687A681268126822F0A6
:10181C0001021A6002F07AF9B860BB68574AA2FB61
:10182C0003239B0CFB607B681B68FA685A607B681F
:10183C001A687B685B6852498B4202D8FB6801339B
:10184C0009E0FB684FF4967101FB03F34D49A1FBD2
:10185C0003139B09013313627B6819687B685B680F
:10186C00474A934212D87B685B685B00BA68B2FB4C
:10187C00F3F3C3F30B03032B06D97B685B685B00A4
:10188C00BA68B2FBF3F345E0042343E07B689B6842
:10189C00002B0FD17B685A6813465B001344BA685F
:1018AC00B2FBF3F3C3F30B03002B0CBF0123002398
:1018BC00DBB210E07B685A6813469B0013449A0015
:1018CC001344BA68B2FBF3F3C3F30B03002B0CBF46
:1018DC0001230023DBB2002B01D001231AE07B682B
:1018EC009B68002B0AD17B685A6813465B00134433
:1018FC00BA68B2FBF3F343F400430BE07B685A681D
:10190C0013469B0013449A001344BA68B2FBF3F3DA
:10191C0043F44043CB617B681B687A68D1697A6871
:10192C00126A0A431A607B681B687A6811697A68C4
:10193C00D2680A439A607B681B687A6851697A6836
:10194C0092690A43DA607B681B687A6812681268CD
:10195C0042F001021A607B6800221A647B68202224
:10196C0083F83D207B6800221A637B68002283F891
:10197C003E20002318461037BD4680BD83DE1B4336
:10198C00A0860100D34D621080B588B002AFF8601C
:10199C007A601A460B467B8113463B8100237B61A0
:1019AC00FEF70CFE7861FB6893F83D30DBB2202B20
:1019BC0040F0EE807B690093192301227749F86887
:1019CC0000F06CFC0346002B01D00223E1E0FB6825
:1019DC0093F83C30012B01D10223DAE0FB680122A1
:1019EC0083F83C20FB681B681B6803F00103012B88
:1019FC0007D0FB681B68FA681268126842F0010293
:101A0C001A60FB681B68FA681268126822F400629C
:101A1C001A60FB68212283F83D20FB68102283F8B2
:101A2C003E20FB6800221A64FB687A685A62FB68E5
:101A3C003A895A85FB685A4ADA62FB685B8D9AB21E
:101A4C00FB681A8579897B693A6AF86800F0DCFAD8
:101A5C000346002B0FD0FB681B6C042B05D1FB68D5
:101A6C00002283F83C20012393E0FB68002283F8DA
:101A7C003C2003238DE000233B61FB681B685B6902
:101A8C003B61FB681B689B693B613B6966E07A695B
:101A9C00396AF86800F0C1FC0346002B0FD0FB68D4
:101AAC001B6C042B09D1FB681B68FA68126812685E
:101ABC0042F400721A6001236BE0032369E0FB68B7
:101ACC001A68FB685B6A581CF96848621B781361DA
:101ADC00FB685B8D9BB2013B9AB2FB685A85FB6835
:101AEC001B8D013B9AB2FB681A85FB681B685B690E
:101AFC0003F00403042B19D1FB681B8D002B15D0AC
:101B0C00FB681A68FB685B6A581CF96848621B78AA
:101B1C001361FB685B8D9BB2013B9AB2FB685A85E3
:101B2C00FB681B8D013B9AB2FB681A857A69396A8E
:101B3C00F86800F0AFFC0346002B0FD0FB681B6C61
:101B4C00042B09D1FB681B68FA681268126842F40E
:101B5C0000721A6001231CE003231AE0FB681B8D42
:101B6C00002B94D1FB681B68FA681268126842F467
:101B7C0000721A60FB68202283F83D20FB6800226B
:101B8C0083F83E20FB68002283F83C20002300E011
:101B9C00022318461837BD4680BD00BF0200100056
:101BAC000000FFFF80B58CB002AFF8607A601A4677
:101BBC000B467B8113463B8100237B62FEF7FEFCC8
:101BCC007862FB6893F83D30DBB2202B40F0158235
:101BDC007B6A0093192301228549F86800F05EFBAB
:101BEC000346002B01D0022308E2FB6893F83C303B
:101BFC00012B01D1022301E2FB68012283F83C2076
:101C0C00FB681B681B6803F00103012B07D0FB6802
:101C1C001B68FA681268126842F001021A60FB68CD
:101C2C001B68FA681268126822F400621A60FB687A
:101C3C00222283F83D20FB68102283F83E20FB68AB
:101C4C0000221A64FB687A685A62FB683A895A85E2
:101C5C00FB68684ADA62FB685B8D9AB2FB681A858E
:101C6C0079897B6A3A6BF86800F050FA0346002BCE
:101C7C000FD0FB681B6C042B05D1FB68002283F88A
:101C8C003C200123BAE1FB68002283F83C200323AB
:101C9C00B4E1FB681B8D002B13D100233B62FB6866
:101CAC001B685B693B62FB681B689B693B623B6A18
:101CBC00FB681B68FA681268126842F400721A60BA
:101CCC0088E1FB681B8D012B1BD1FB681B68FA6834
:101CDC001268126822F480621A600023FB61FB68B0
:101CEC001B685B69FB61FB681B689B69FB61FB699B
:101CFC00FB681B68FA681268126842F400721A607A
:101D0C0068E1FB681B8D022B1BD1FB681B68FA6812
:101D1C001268126822F480621A60FB681B68FA6809
:101D2C001268126842F400621A600023BB61FB68FF
:101D3C001B685B69BB61FB681B689B69BB61BB690A
:101D4C0048E1FB681B68FA681268126842F480620A
:101D5C001A6000237B61FB681B685B697B61FB6815
:101D6C001B689B697B617B6934E1FB681B8D032BD2
:101D7C0000F2EB80FB681B8D012B27D17A6A396B43
:101D8C00F86800F0C4FB0346002B07D0FB681B6C03
:101D9C00202B01D1032331E101232FE1FB685B6A86
:101DAC00591CFA685162FA6812681269D2B21A7038
:101DBC00FB681B8D013B9AB2FB681A85FB685B8D37
:101DCC009BB2013B9AB2FB685A8503E1FB681B8D01
:101DDC00022B4AD17B6A00933B6B00220649F868C0
:101DEC0000F05CFA0346002B08D0032306E100BF89
:101DFC00020010000000FFFF04000100FB681B68DC
:101E0C00FA681268126842F400721A60FB685B6A26
:101E1C00591CFA685162FA6812681269D2B21A70C7
:101E2C00FB681B8D013B9AB2FB681A85FB685B8DC6
:101E3C009BB2013B9AB2FB685A85FB685B6A591CE2
:101E4C00FA685162FA6812681269D2B21A70FB68A9
:101E5C001B8D013B9AB2FB681A85FB685B8D9BB2AC
:101E6C00013B9AB2FB685A85B4E07B6A00933B6BEA
:101E7C0000226449F86800F011FA0346002B01D0E7
:101E8C000323BBE0FB681B68FA681268126822F433
:101E9C0080621A60FB685B6A591CFA685162FA68C6
:101EAC0012681269D2B21A70FB681B8D013B9AB290
:101EBC00FB681A85FB685B8D9BB2013B9AB2FB6891
:101ECC005A857B6A00933B6B00224E49F86800F000
:101EDC00E5F90346002B01D003238FE0FB681B6858
:101EEC00FA681268126842F400721A60FB685B6A46
:101EFC00591CFA685162FA6812681269D2B21A70E7
:101F0C00FB681B8D013B9AB2FB681A85FB685B8DE5
:101F1C009BB2013B9AB2FB685A85FB685B6A591C01
:101F2C00FA685162FA6812681269D2B21A70FB68C8
:101F3C001B8D013B9AB2FB681A85FB685B8D9BB2CB
:101F4C00013B9AB2FB685A8544E07A6A396BF868AF
:101F5C0000F0DDFA0346002B07D0FB681B6C202B2E
:101F6C0001D103234AE0012348E0FB685B6A591C5A
:101F7C00FA685162FA6812681269D2B21A70FB6878
:101F8C001B8D013B9AB2FB681A85FB685B8D9BB27B
:101F9C00013B9AB2FB685A85FB681B685B6903F0CE
:101FAC000403042B16D1FB685B6A591CFA68516256
:101FBC00FA6812681269D2B21A70FB681B8D013B69
:101FCC009AB2FB681A85FB685B8D9BB2013B9AB297
:101FDC00FB685A85FB681B8D002B7FF4C6AEFB6833
:101FEC00202283F83D20FB68002283F83E20FB680A
:101FFC00002283F83C20002300E0022318462837F7
:10200C00BD4680BD0400010080B588B002AFF86009
:10201C007A603B600B467B81FB68DB6A7B617B698A
:10202C00042B06D07B69012B03D07B6913F5803F11
:10203C0008D1FB681B68FA681268126842F4807257
:10204C001A600BE0FB681B6B122B07D1FB681B683B
:10205C00FA681268126842F480721A603B68009346
:10206C007B6800224FF00111F86800F017F9034665
:10207C00002B01D0032340E0FB681B69B3F5804FB4
:10208C0007D1FB681B687A89D2B202F0FE021A6192
:10209C0021E0FB681B687A89D211D2B202F00602E9
:1020AC00D2B262F00F02D2B21A613B687A6815495B
:1020BC00F86800F044F90346002B07D0FB681B6C52
:1020CC00042B01D1012318E0032316E0FB681B68E5
:1020DC007A89D2B21A613B687A680B49F86800F0C9
:1020EC002EF90346002B07D0FB681B6C042B01D187
:1020FC00012302E0032300E0002318461837BD46F5
:10210C0080BD00BF080001000200010080B588B04E
:10211C0002AFF8607A603B600B467B81FB68DB6A40
:10212C007B61FB681B68FA681268126842F4806273
:10213C001A607B69042B06D07B69012B03D07B6969
:10214C0013F5803F08D1FB681B68FA6812681268A7
:10215C0042F480721A600BE0FB681B6B112B07D1E9
:10216C00FB681B68FA681268126842F480721A6085
:10217C003B6800937B6800224FF00111F86800F077
:10218C008DF80346002B01D003237FE0FB681B690D
:10219C00B3F5804F08D1FB681B687A89D2B242F044
:1021AC000102D2B21A615FE0FB681B687A89D21116
:1021BC00D2B202F00602D2B262F00F02D2B21A61AF
:1021CC003B687A683349F86800F0B9F80346002B8D
:1021DC0007D0FB681B6C042B01D1012356E00323B1
:1021EC0054E0FB681B687A89D2B21A613B687A6842
:1021FC002949F86800F0A3F80346002B07D0FB68C8
:10220C001B6C042B01D1012340E003233EE000238F
:10221C003B61FB681B685B693B61FB681B689B69E6
:10222C003B613B69FB681B68FA681268126842F4F0
:10223C0080721A603B6800937B6800224FF001119A
:10224C00F86800F02BF80346002B01D003231DE0A7
:10225C00FB681B687A89D211D2B202F00602D2B2A4
:10226C0062F00E02D2B21A613B687A680A49F868C9
:10227C0000F065F80346002B07D0FB681B6C042BA1
:10228C0001D1012302E0032300E000231846183794
:10229C00BD4680BD080001000200010080B584B07D
:1022AC0000AFF860B9603B601346FB711FE03B6800
:1022BC00B3F1FF3F1BD03B68002B07D0FEF77EF934
:1022CC000246BB69D21A3B689A4210D9FB680022BD
:1022DC001A63FB68202283F83D20FB68002283F8F8
:1022EC003E20FB68002283F83C20032323E0BB68DC
:1022FC001B0CDBB2012B0DD1FB681B685B69DA434D
:10230C00BB6813409BB2002B0CBF01230023DBB234
:10231C001A460CE0FB681B689B69DA43BB681340E8
:10232C009BB2002B0CBF01230023DBB21A46FB79B6
:10233C009A42BCD0002318461037BD4680BD80B5EC
:10234C0084B000AFF860B9607A603B6040E0FB6835
:10235C001B685B6903F48063B3F5806F1CD1FB6869
:10236C001B68FA681268126842F400721A60FB6803
:10237C001B686FF480625A61FB6804221A64FB6864
:10238C0000221A63FB68202283F83D20FB680022A0
:10239C0083F83C2001233CE07B68B3F1FF3F17D06E
:1023AC007B68002B07D0FEF709F902463B68D21A6E
:1023BC007B689A420CD9FB6800221A63FB682022C6
:1023CC0083F83D20FB68002283F83C20032320E0A7
:1023DC00BB681B0CDBB2012B0CD1FB681B685B6967
:1023EC00DA43BB6813409BB2002B14BF01230023BC
:1023FC00DBB20BE0FB681B689B69DA43BB681340DC
:10240C009BB2002B14BF01230023DBB2002B9ED107
:10241C00002318461037BD4680BD80B584B000AF90
:10242C00F860B9607A6029E0F86800F0BAF8034601
:10243C00002B01D0012329E0BB68B3F1FF3F1DD075
:10244C00BB68002B07D0FEF7B9F802467B68D21A9E
:10245C00BB689A4212D9FB681B6C43F02002FB68E4
:10246C001A64FB6800221A63FB68202283F83D2063
:10247C00FB68002283F83C20032307E0FB681B6801
:10248C005B6903F08003802BCED1002318461037F4
:10249C00BD4680BD80B584B000AFF860B9607A608D
:1024AC0029E0F86800F07DF80346002B01D00123E9
:1024BC0029E0BB68B3F1FF3F1DD0BB68002B07D0F0
:1024CC00FEF77CF802467B68D21ABB689A4212D996
:1024DC00FB681B6C43F02002FB681A64FB6800224B
:1024EC001A63FB68202283F83D20FB68002283F8E6
:1024FC003C20032307E0FB681B685B6903F00403C3
:10250C00042BCED1002318461037BD4680BD80B5B4
:10251C0084B000AFF860B9607A6036E0FB681B6885
:10252C005B6903F01003102B14D1FB681B686FF070
:10253C0010025A61FB6800221A64FB6800221A63BD
:10254C00FB68202283F83D20FB68002283F83C20A6
:10255C00012322E0BB68002B07D0FEF72FF80246C0
:10256C007B68D21ABB689A420FD9FB681B6C43F08C
:10257C002002FB681A64FB68202283F83D20FB686C
:10258C00002283F83C20032307E0FB681B685B698F
:10259C0003F04003402BC1D1002318461037BD4631
:1025AC0080BD80B483B000AF78607B681B685B69CA
:1025BC0003F48063B3F5806F14D17B681B686FF4F0
:1025CC0080625A617B6804221A647B6800221A6359
:1025DC007B68202283F83D207B68002283F83C2016
:1025EC00012300E0002318460C37BD465DF8047B40
:1025FC00704780B483B000AF786039607B6893F823
:10260C003D30DBB2202B29D17B68242283F83D207E
:10261C007B681B687A681268126822F001021A60E3
:10262C007B681B687A681268526A22F010025A6240
:10263C007B681B687A681268516A3A680A435A6266
:10264C007B681B687A681268126842F001021A6093
:10265C007B68202283F83D20002300E002231846EB
:10266C000C37BD465DF8047B704780B485B000AF75
:10267C00786039600023FB817B6893F83D30DBB2D6
:10268C00202B2AD17B68242283F83D207B681B6891
:10269C007A681268126822F001021A607B681B6863
:1026AC005B6AFB81FB8923F00F03FB813B689AB2C9
:1026BC00FB891343FB817B681B68FA895A627B6830
:1026CC001B687A681268126842F001021A607B6813
:1026DC00202283F83D20002300E002231846143703
:1026EC00BD465DF8047B704780B584B000AF786060
:1026FC000023FB600023BB607B68002B01D101230E
:10270C00BFE07B6893F8A130DBB2002B06D17B686D
:10271C00002283F8A020786804F012FB7B68022268
:10272C0083F8A1207B681B687A681268926922F092
:10273C0070429A617B681B687A68126891697A6842
:10274C0050687A68926810437A68D26810437A6845
:10275C00126902430A439A617B681A687B681B689A
:10276C0099684A4B0B4093607B685B691B04FB6068
:10277C007B681B687A68126891687A689069FA6855
:10278C0002430A439A607B681A687B681B68D968A5
:10279C003E4B0B40D3607B68DB691B04FB607B68A2
:1027AC001B687A681268D1687A68106AFA68024302
:1027BC000A43DA607B681A687B681B681969334BBB
:1027CC000B4013617B685B6A1B04FB607B681B68B6
:1027DC007A68126811697A68906AFA6802430A4347
:1027EC001A617B681A687B681B685969274B0B4018
:1027FC0053617B68DB6A1B04FB607B681B687A682F
:10280C00126851697A68106BFA6802430A435A617C
:10281C007B6893F835301B02FB607B6893F836308D
:10282C001B04BB607B681B687A681268D26A02F072
:10283C007F42DA627B681B687A681268D16AB86872
:10284C00FA680243786890F8340002430A43DA626B
:10285C007B681B687A681268526B42F006025A63F6
:10286C007B681B687A681268926942F001029A616F
:10287C007B680022C3F8A4207B68012283F8A12086
:10288C00002318461037BD4680BD00BF00F800F08D
:10289C0080B582B000AF7860786804F067FB7B6825
:1028AC000022C3F8A4207B68002283F8A1207B6857
:1028BC00002283F8A020002318460837BD4680BDAF
:1028CC0080B584B000AF78607B681B689B6BFB6045
:1028DC007B681B685B6BBB60FB6803F00403002B1D
:1028EC0023D0BB6803F00403002B1ED07B681B684D
:1028FC007A681268526B22F004025A637B681B6878
:10290C000422DA637B68D3F8A43043F001027B68BD
:10291C00C3F8A4207B68042283F8A1207B680022E2
:10292C0083F8A020786800F06FF8FB6803F00203CE
:10293C00002B23D0BB6803F00203002B1ED07B6856
:10294C001B687A681268526B22F002025A637B6829
:10295C001B680222DA637B68D3F8A43043F00202CE
:10296C007B68C3F8A4207B68042283F8A1207B68D1
:10297C00002283F8A020786800F046F8FB6803F08A
:10298C000103002B1BD0BB6803F00103002B16D0F6
:10299C007B681B687A681268526B22F001025A63DA
:1029AC007B681B680122DA637B68012283F8A12013
:1029BC007B68002283F8A020786802F0B1F9FB68EC
:1029CC0003F00803002B1BD0BB6803F00803002B9B
:1029DC0016D07B681B687A681268526B22F008026A
:1029EC005A637B681B680822DA637B68012283F8D0
:1029FC00A1207B68002283F8A020786800F00EF8F4
:102A0C0000BF1037BD4680BD80B483B000AF786086
:102A1C0000BF0C37BD465DF8047B704780B483B0B3
:102A2C0000AF786000BF0C37BD465DF8047B704783
:102A3C00B0B584B000AFF860B9607A60FB6893F809
:102A4C00A030012B01D102232CE0FB68012283F87A
:102A5C00A020FB68022283F8A120FA687B6834214D
:102A6C0001FB03F3134403F13802BB6814461D4603
:102A7C000FCD0FC40FCD0FC40FCD0FC42B68236027
:102A8C007A68B968F86800F063FAFB681B68012281
:102A9C005A62FB68012283F8A120FB68002283F8AC
:102AAC00A020002318461037BD46B0BD80B485B0B9
:102ABC0000AFF860B9607A60FB6893F8A030012B26
:102ACC0001D1022331E0FB68012283F8A020FB68CE
:102ADC00022283F8A120FB681B681A467B68DB0185
:102AEC00134484331A46FB681B6819467B68DB0168
:102AFC000B448433DB6803F07F43D360FB681B68B3
:102B0C001A467B68DB01134484331A46BB68D360D6
:102B1C00FB681B6801225A62FB68012283F8A12022
:102B2C00FB68002283F8A020002318461437BD460A
:102B3C005DF8047B704780B489B000AFF860B96071
:102B4C007A603B600023FB610023BB6100237B6147
:102B5C00FB6893F8A030012B01D1022359E0FB68EC
:102B6C00012283F8A020FB68022283F8A120002315
:102B7C00BB6141E0FA683B68342101FB03F3134469
:102B8C0048331B68062B14D1BA6913461B01134436
:102B9C001A06BB681B68DBB21A43BB681B6803F4DC
:102BAC007F431A43BB681B6803F47F031343FB6129
:102BBC0010E0BB691A06BB681B68DBB21A43BB6822
:102BCC001B6803F47F431A43BB681B6803F47F0341
:102BDC001343FB61BB6804337B617B69BB60FB689F
:102BEC001B681A463B68DB01134484331A46FB69A5
:102BFC001364BB690133BB61BA697B689A42B9D370
:102C0C00FB68012283F8A120FB68002283F8A02036
:102C1C00002318462437BD465DF8047B704780B40A
:102C2C0083B000AF786039607B6893F8A030012BDB
:102C3C0001D1022327E07B68012283F8A0207B6866
:102C4C00022283F8A1207B681B681A463B68DB01D3
:102C5C00134484331A467B681B6819463B68DB01B6
:102C6C000B4484331B6843F0020313607B681B68BE
:102C7C0001225A627B68012283F8A1207B68002222
:102C8C0083F8A020002318460C37BD465DF8047B62
:102C9C00704780B483B000AF786039607B6893F87C
:102CAC00A030012B01D1022327E07B68012283F89D
:102CBC00A0207B68022283F8A1207B681B681A463F
:102CCC003B68DB01134484331A467B681B68194646
:102CDC003B68DB010B4484331B6823F00203136055
:102CEC007B681B6801225A627B68012283F8A12051
:102CFC007B68002283F8A020002318460C37BD46C1
:102D0C005DF8047B704780B483B000AF78603960A5
:102D1C007B6893F8A030012B01D1022327E07B685C
:102D2C00012283F8A0207B68022283F8A1207B6813
:102D3C001B681A463B68DB01134484331A467B68D4
:102D4C001B6819463B68DB010B4484331B6843F05A
:102D5C00100313607B681B6801225A627B68012296
:102D6C0083F8A1207B68002283F8A020002318465A
:102D7C000C37BD465DF8047B704780B586B000AF5C
:102D8C00F860B9607A603B60FB6893F8A030012B67
:102D9C0001D1022333E0FB68012283F8A020FB68F9
:102DAC00022283F8A1203B68342202FB03F3383360
:102DBC00FA6813447B617B69BA681A607B699A6A0A
:102DCC00BB681A447B695A607B697A689A607B6934
:102DDC00DA6A7B681A447B69DA603A687969F86860
:102DEC0000F0B6F8FB681B6801225A62FB680122EE
:102DFC0083F8A120FB68002283F8A020002318464A
:102E0C001837BD4680BD80B586B000AFF860B9609C
:102E1C007A60FB6893F8A030012B01D1022324E0E7
:102E2C00FB68012283F8A020FB68022283F8A12012
:102E3C007B68342202FB03F33833FA6813447B615A
:102E4C007B69BA685A617A687969F86800F080F829
:102E5C00FB681B6801225A62FB68012283F8A120DF
:102E6C00FB68002283F8A020002318461837BD46C3
:102E7C0080BD80B586B000AFF860B9607A60FB6841
:102E8C0093F8A030012B01D1022324E0FB6801222E
:102E9C0083F8A020FB68022283F8A1207B683422EF
:102EAC0002FB03F33833FA6813447B617B69BA681D
:102EBC005A627A687969F86800F04AF8FB681B680E
:102ECC0001225A62FB68012283F8A120FB680022D0
:102EDC0083F8A020002318461837BD4680BD00009B
:102EEC0080B483B000AF786039607B6893F8A03011
:102EFC00012B01D1022323E07B68012283F8A0205F
:102F0C007B68022283F8A1207B681B687A681268B0
:102F1C00526B22F001025A630C4A3B6813647B68C3
:102F2C001B687A681268526B42F001025A637B6824
:102F3C00012283F8A1207B68002283F8A0200023C3
:102F4C0018460C37BD465DF8047B7047006801409D
:102F5C0080B489B000AFF860B9607A600023FB617F
:102F6C000023BB6100237B61BB685A68FB681B684C
:102F7C00DB681B0CC3F30B0313441B04FB61FB68E2
:102F8C001B681A467B68DB01134484331A46FB68C2
:102F9C001B6819467B68DB010B4484335B6803F4C4
:102FAC0070435360FB681B681A467B68DB01134453
:102FBC0084331946BB681A68FB681B68DB681B0CFA
:102FCC00C3F30B0313445A1CFB6913434B60BB68DC
:102FDC00DA68FB681B68DB68C3F30A0313441B0441
:102FEC00FB61FB681B681A467B68DB011344843366
:102FFC001A46FB681B6819467B68DB010B4484335B
:10300C009B6803F470439360FB681B681A467B68EB
:10301C00DB01134484331946BB689A68FB681B6850
:10302C00DB68C3F30A0313445A1CFB6913438B601C
:10303C00FB681B681A467B68DB01134484331A4611
:10304C00FB681B6819467B68DB010B4484331B69E6
:10305C0023F007031361FB681B681A467B68DB01CE
:10306C00134484331A46BB681B691361BB6893F81D
:10307C0031301B02FB61BB6893F832301B04BB611F
:10308C00BB689B691B067B61FB681B681A467B68E7
:10309C00DB01134484339B69FB681B681A467B680D
:1030AC00DB01134484331A4600239361FB681B68CD
:1030BC001A467B68DB01134484331946BB6893F8CA
:1030CC0030301A46FB691A43BB691A437B691343B8
:1030DC008B61FB681B681A467B68DB0113448433E5
:1030EC001A46FB681B6819467B68DB010B4484336A
:1030FC005B6923F0FF035361FB681B681A467B680E
:10310C00DB01134484331A46BB685B695361FB686B
:10311C001B681A467B68DB01134484331A46FB6830
:10312C001B6819467B68DB010B448433DB6923F491
:10313C00E06323F00703D361FB681B681A467B68C6
:10314C00DB01134484331946BB68DA69BB681B6A1C
:10315C001343CB61FB681B681A467B68DB01134485
:10316C0084339B6AFB681B681A467B68DB0113443B
:10317C0084331A4600239362FB681B681A467B68EB
:10318C00DB01134484331A46BB685B6A9362BB68E9
:10319C001B69002B02D10423FB611BE0BB681B697C
:1031AC00012B02D10323FB6114E0BB681B69042BC8
:1031BC000BD0BB681B69022B07D0BB681B69032BA8
:1031CC0003D0BB681B69072B02D10223FB6101E012
:1031DC000123FB61FB681B681A467B68DB01134407
:1031EC0084331A46FB681B6819467B68DB010B4469
:1031FC008433DB6A03F0E023D362FB681B681A4656
:10320C007B68DB01134484331846BB689B6AFA69FC
:10321C0002FB03F31A04BB685968BB681B68CB1A22
:10322C00F96901FB03F303331343C362FB681B68A7
:10323C001A467B68DB01134484331A46FB681B680F
:10324C0019467B68DB010B4484331B6B23F4FF634F
:10325C0023F007031363FB681B681A467B68DB01CA
:10326C00134484331A46BB68DB6A1363FB681B6820
:10327C001A467B68DB01134484331A46FB681B68CF
:10328C0019467B68DB010B4484331B6843F0010354
:10329C00136000BF2437BD465DF8047B7047000007
:1032AC0080B582B000AF00237B6000233B60204AD6
:1032BC001F4B1B6C43F0805313641D4B1B6C03F0B2
:1032CC0080533B603B681B4B01221A60FDF776F97B
:1032DC00786009E0FDF772F902467B68D31AB3F502
:1032EC007A7F01D903231FE0134B5B6803F480330F
:1032FC00B3F5803FEED1114B01221A60FDF75EF958
:10330C00786009E0FDF75AF902467B68D31AB3F5E9
:10331C007A7F01D9032307E0074B5B6803F4003382
:10332C00B3F5003FEED1002318460837BD4680BDEB
:10333C000038024040000E420070004044000E4233
:10334C0080B586B000AF78607B68002B01D101237B
:10335C002DE27B681B6803F00103002B75D0A34B97
:10336C009B6803F00C03042B0CD0A04B9B6803F060
:10337C000C03082B12D19D4B5B6803F48003B3F54F
:10338C00800F0BD1994B1B6803F40033002B5BD0DF
:10339C007B685B68002B57D1012308E27B685B6874
:1033AC00B3F5803F06D1914A904B1B6843F48033B0
:1033BC0013601DE07B685B68B3F5A02F0CD18B4AC2
:1033CC008A4B1B6843F480231360884A874B1B6825
:1033DC0043F4803313600BE0844A844B1B6823F462
:1033EC0080331360814A814B1B6823F48023136064
:1033FC007B685B68002B13D0FDF7E0F8386108E0C0
:10340C00FDF7DCF802463B69D31A642B01D9032380
:10341C00CDE1764B1B6803F40033002BF0D014E0A5
:10342C00FDF7CCF8386108E0FDF7C8F802463B69B7
:10343C00D31A642B01D90323B9E16C4B1B6803F439
:10344C000033002BF0D100E000BF7B681B6803F059
:10345C000203002B63D0654B9B6803F00C03002B1D
:10346C000BD0624B9B6803F00C03082B1CD15F4BF9
:10347C005B6803F48003002B16D15C4B1B6803F0D4
:10348C000203002B05D07B68DB68012B01D00123E4
:10349C008DE15649554B1B6823F0F8027B681B697C
:1034AC00DB0013430B603AE07B68DB68002B20D019
:1034BC004F4B01221A60FDF781F8386108E0FDF7E7
:1034CC007DF802463B69D31A022B01D903236EE126
:1034DC00464B1B6803F00203002BF0D04349434BCF
:1034EC001B6823F0F8027B681B69DB0013430B603D
:1034FC0015E03F4B00221A60FDF760F8386108E0D8
:10350C00FDF75CF802463B69D31A022B01D9032361
:10351C004DE1364B1B6803F00203002BF0D17B68A6
:10352C001B6803F00803002B30D07B685B69002B11
:10353C0016D0304B01221A60FDF740F8386108E0D4
:10354C00FDF73CF802463B69D31A022B01D9032341
:10355C002DE1264B5B6F03F00203002BF0D015E03E
:10356C00244B00221A60FDF729F8386108E0FDF7BA
:10357C0025F802463B69D31A022B01D9032316E125
:10358C001A4B5B6F03F00203002BF0D17B681B68B6
:10359C0003F00403002B00F0A0800023FB75134BF9
:1035AC001B6C03F08053002B0FD10023FB600F4AE0
:1035BC000E4B1B6C43F0805313640C4B1B6C03F0D1
:1035CC008053FB60FB680123FB750B4B1B6803F4FA
:1035DC008073002B21D1084A074B1B6843F480737E
:1035EC001360FCF7EBFF386111E000BF00380240BC
:1035FC0000004742800E474200700040FCF7DEFF9F
:10360C0002463B69D31A022B01D90323CFE06A4B44
:10361C001B6803F48073002BF0D07B689B68012B34
:10362C0006D1664A654B1B6F43F0010313671CE020
:10363C007B689B68052B0CD1604A604B1B6F43F079
:10364C00040313675D4A5D4B1B6F43F00103136763
:10365C000BE05A4A594B1B6F23F001031367574A6F
:10366C00564B1B6F23F0040313677B689B68002B7E
:10367C0015D0FCF7A3FF38610AE0FCF79FFF024668
:10368C003B69D31A41F28832934201D903238EE06D
:10369C004A4B1B6F03F00203002BEED014E0FCF737
:1036AC008DFF38610AE0FCF789FF02463B69D31AAB
:1036BC0041F28832934201D9032378E03F4B1B6FD0
:1036CC0003F00203002BEED1FB7D012B05D13B4A0D
:1036DC003A4B1B6C23F0805313647B689B69002B63
:1036EC0064D0364B9B6803F00C03082B5CD07B68D2
:1036FC009B69022B41D1324B00221A60FCF75EFF12
:10370C00386108E0FCF75AFF02463B69D31A022BDA
:10371C0001D903234BE0294B1B6803F00073002BEA
:10372C00F0D126497B68DA697B681B6A1A437B688F
:10373C005B6A9B011A437B689B6A5B08013B1B0419
:10374C001A437B68DB6A1B0613434B601C4B01223C
:10375C001A60FCF733FF386108E0FCF72FFF0246D4
:10376C003B69D31A022B01D9032320E0134B1B68AE
:10377C0003F00073002BF0D018E0114B00221A60FC
:10378C00FCF71CFF386108E0FCF718FF02463B69A8
:10379C00D31A022B01D9032309E0084B1B6803F051
:1037AC000073002BF0D101E0012300E00023184648
:1037BC001837BD4680BD00BF007000400038024085
:1037CC006000474280B584B000AF786039607B6898
:1037DC00002B01D10123CAE0674B1B6803F00F02D9
:1037EC003B689A420CD2644B3A68D2B21A70624B64
:1037FC001B6803F00F023B689A4201D00123B6E02C
:10380C007B681B6803F00203002B20D07B681B68CD
:10381C0003F00403002B05D0584A584B9B6843F423
:10382C00E05393607B681B6803F00803002B05D002
:10383C00524A524B9B6843F4604393604F494F4B41
:10384C009B6823F0F0027B689B6813438B607B685A
:10385C001B6803F00103002B44D07B685B68012BD1
:10386C0007D1464B1B6803F40033002B19D10123FD
:10387C007DE07B685B68022B03D07B685B68032B65
:10388C0007D13E4B1B6803F00073002B09D10123B9
:10389C006DE03A4B1B6803F00203002B01D10123AE
:1038AC0065E03649354B9B6823F003027B685B6807
:1038BC0013438B60FCF782FEF8600AE0FCF77EFE97
:1038CC000246FB68D31A41F28832934201D9032392
:1038DC004DE02A4B9B6803F00C027B685B689B00F5
:1038EC009A42EBD1244B1B6803F00F023B689A42BF
:1038FC000CD9214B3A68D2B21A701F4B1B6803F0DB
:10390C000F023B689A4201D0012330E07B681B68B0
:10391C0003F00403002B08D01849184B9B6823F4C0
:10392C00E0527B68DB6813438B607B681B6803F099
:10393C000803002B09D01149104B9B6823F46042FB
:10394C007B681B69DB0013438B6000F01DF801469C
:10395C000A4B9B681B0903F00F03094AD35C21FA3D
:10396C0003F3084A13600020FCF7E4FD002318461B
:10397C001037BD4680BD00BF003C024000380240FD
:10398C00607604080C0000202DE9F04F87B000AFE2
:10399C000022FA6000227A610022BA6000223A61A9
:1039AC00514A926802F00C02042A07D0082A08D067
:1039BC00002A40F090804D4B3B618FE04C4B3B61BB
:1039CC008CE0494A526802F03F02FA60464A52685B
:1039DC0002F48002002A23D0434B5B689B094FF012
:1039EC00000440F2FF114FF0000203EA010304EA65
:1039FC0002043F4A02FB04F1002202FB03F20A44D8
:103A0C003B49A3FB010153181946FB684FF0000416
:103A1C001A462346FCF7E4FB03460C467B614CE05C
:103A2C00314A5268920911464FF0000240F2FF15DC
:103A3C004FF0000605EA010506EA02062946324661
:103A4C004FEA421B4BEAD16B4FEA411A51465A4698
:103A5C00AA46B34655465E464D1B62EB0606294602
:103A6C003246940144EA91648B015B1A64EB0204C4
:103A7C004FEAC40949EA53794FEAC30843464C4616
:103A8C0055465E46ED1846EB04062B463446A2021C
:103A9C007A607A6842EA93527A609B023B6097E8BC
:103AAC00180018462146FB684FF000041A462346BE
:103ABC00FCF796FB03460C467B610B4B5B681B0CBF
:103ACC0003F0030301335B00BB607A69BB68B2FB94
:103ADC00F3F33B6102E0054B3B6100BF3B691846C9
:103AEC001C37BD46BDE8F08F003802400024F400BE
:103AFC0040787D0180B400AF034B1B681846BD466F
:103B0C005DF8047B704700BF0C00002080B500AF4F
:103B1C00FFF7F0FF0146054B9B689B0A03F0070378
:103B2C00034AD35C21FA03F3184680BD00380240E7
:103B3C007076040880B586B000AF786000237B6196
:103B4C0000233B617B681B6803F00103002B05D14C
:103B5C007B681B6803F00203002B61D0A34B00228F
:103B6C001A60FCF72BFD786108E0FCF727FD024694
:103B7C007B69D31A022B01D9032377E19C4B1B6879
:103B8C0003F00063002BF0D17B681B6803F001038A
:103B9C00002B09D096497B685B689A017B689B680F
:103BAC001B071343C1F884307B681B6803F00203C6
:103BBC00002B1FD08E4BD3F884301B0F03F0070360
:103BCC003B618B497B685B689A017B68DB681B06F1
:103BDC001A433B691B071343C1F884308449844B57
:103BEC00D3F88C3023F01F027B68DB69013B134355
:103BFC00C1F88C307D4B01221A60FCF7DFFC786138
:103C0C0008E0FCF7DBFC02467B69D31A022B01D9D6
:103C1C0003232BE1764B1B6803F00063002BF0D0E1
:103C2C007B681B6803F00403002B05D17B681B68C1
:103C3C0003F00803002B79D06E4B00221A60FCF7BE
:103C4C00BDFC786108E0FCF7B9FC02467B69D31A2D
:103C5C00022B01D9032309E1654B1B6803F00053C8
:103C6C00B3F1005FEFD07B681B6803F00403002BFB
:103C7C0020D05F4BD3F888301B0F03F007033B6158
:103C8C005B497B681B699A017B685B691B061A435D
:103C9C003B691B071343C1F888305549544BD3F883
:103CAC008C3023F4F8527B681B6A013B1B021343D4
:103CBC00C1F88C307B681B6803F00803002B1ED006
:103CCC004B4BD3F888301B0E03F00F033B61484974
:103CDC007B681B699A013B691B061A437B689B69CD
:103CEC001B071343C1F888304149414BD3F88C3042
:103CFC0023F440327B685B6A1343C1F88C303D4B34
:103D0C0001221A60FCF75AFC786108E0FCF756FCBB
:103D1C0002467B69D31A022B01D90323A6E0344B4C
:103D2C001B6803F00053B3F1005FEFD17B681B6895
:103D3C0003F02003002B00F08D800023FB602C4A45
:103D4C002B4B1B6C43F080531364294B1B6C03F0FF
:103D5C008053FB60FB68284A274B1B6843F4807335
:103D6C001360FCF72BFC786108E0FCF727FC02469B
:103D7C007B69D31A022B01D9032377E01E4B1B68F6
:103D8C0003F48073002BF0D0194B1B6F03F44073BA
:103D9C003B613B69002B39D07B689B6A03F4407212
:103DAC003B699A4232D0124B1B6F23F440733B6138
:103DBC00124B01221A60114B00221A600C4A3B690B
:103DCC0013670B4B1B6F03F00103002B1ED0FCF78A
:103DDC00F5FB786114E0FCF7F1FB02467B69D31A22
:103DEC0041F2883293420BD903233FE068004742EB
:103DFC00003802407000474200700040400E4742BD
:103E0C001C4B1B6F03F00203002BE4D07B689B6AF6
:103E1C0003F44073B3F5407F0DD11649154B9B68E5
:103E2C0023F4F8127B689B6A23F0704323F44073ED
:103E3C0013438B6005E00F4A0E4B9B6823F4F81379
:103E4C0093600C490B4B1A6F7B689B6AC3F30B0393
:103E5C0013430B677B681B6803F01003002B04D023
:103E6C00054A7B6893F82C301360002318461837EA
:103E7C00BD4680BD00380240E011474280B582B09B
:103E8C0000AF786039607B68002B01D1012325E0FD
:103E9C007B6893F82C30DBB2002B06D17B680022B8
:103EAC0083F82D20786803F0A1F97B68022283F84F
:103EBC002C207B681A687B6804331946104600F086
:103ECC00EAFC7B6818687B685B681A46396800F006
:103EDC0055FD7B68012283F82C20002318460837F7
:103EEC00BD4680BD80B584B000AFF860B9607A6023
:103EFC00FB6893F82C30DBB2022B01D1022318E0C3
:103F0C00FB68022283F82C20FB681B687A68B9686E
:103F1C00184600F0B2FDBB681B68022B04D1FB688D
:103F2C00052283F82C2003E0FB68012283F82C2067
:103F3C00002318461037BD4680BD80B582B000AF57
:103F4C00786039607B6893F82C30DBB2022B01D19E
:103F5C0002230EE07B68022283F82C207B681B680E
:103F6C003968184600F0C5FD7B68012283F82C20C7
:103F7C00002318460837BD4680BD80B582B000AF1F
:103F8C0078607B68002B01D1012355E07B6800220F
:103F9C009A627B6893F85130DBB2002B06D17B68B8
:103FAC00002283F85020786803F024F87B68022202
:103FBC0083F851207B681B687A681268126822F0BB
:103FCC0040021A607B681B687A6851687A6892684C
:103FDC0011437A68D26811437A68126911437A687E
:103FEC00526911437A68926902F4007211437A683B
:103FFC00D26911437A68126A11437A68926A0A4349
:10400C001A607B681B687A689269120C02F00401D2
:10401C007A68526A0A435A607B681B687A6812682D
:10402C00D26922F40062DA617B6800225A657B68EF
:10403C00012283F85120002318460837BD4680BD65
:10404C0080B58AB002AFF860B9603B601346FB8064
:10405C000023BB610023FB77FB6893F85030012BE6
:10406C0001D1022323E1FB68012283F85020FCF7E5
:10407C00A5FAB861FB6893F85130DBB2012B02D082
:10408C000223FB770AE1BB68002B02D0FB88002BD4
:10409C0002D10123FB7701E1FB68032283F8512055
:1040AC00FB6800225A65FB68BA681A63FB68FA88D9
:1040BC009A86FB68FA88DA86FB6800229A63FB68AA
:1040CC0000229A87FB680022DA87FB6800225A6478
:1040DC00FB6800221A64FB689B68B3F5004F07D19C
:1040EC00FB681B68FA681268126842F480421A6016
:1040FC00FB681B681B6803F04003402B07D0FB6870
:10410C001B68FA681268126842F040021A60FB6879
:10411C00DB68B3F5006F47D1FB685B68002B04D0FC
:10412C00FB68DB8E9BB2012B38D1FB681B68BA682D
:10413C001288DA60BB680233BB60FB68DB8E9BB213
:10414C00013B9AB2FB68DA8628E0FB681B689B6827
:10415C0003F00203022B0FD1FB681B68BA681288AC
:10416C00DA60BB680233BB60FB68DB8E9BB2013B41
:10417C009AB2FB68DA8611E03B68002B0BD03B68E7
:10418C00B3F1FF3F0AD0FCF719FA0246BB69D21A09
:10419C003B689A4202D30323FB777FE0FB68DB8EFC
:1041AC009BB2002BD1D148E0FB685B68002B04D09C
:1041BC00FB68DB8E9BB2012B3AD1FB681B680C337E
:1041CC00BA6812781A70BB680133BB60FB68DB8E6F
:1041DC009BB2013B9AB2FB68DA8629E0FB681B684C
:1041EC009B6803F00203022B10D1FB681B680C3395
:1041FC00BA6812781A70BB680133BB60FB68DB8E3F
:10420C009BB2013B9AB2FB68DA8611E03B68002B4B
:10421C000BD03B68B3F1FF3F0AD0FCF7CFF9024655
:10422C00BB69D21A3B689A4202D30323FB7735E071
:10423C00FB68DB8E9BB2002BD0D1BB6900933B6833
:10424C0001220221F86800F036F80346002B02D058
:10425C000323FB7722E0BA693968F86800F094F818
:10426C000346002B05D00123FB77FB6820225A65FF
:10427C0014E0FB689B68002B0AD100237B61FB6870
:10428C001B68DB687B61FB681B689B687B617B69D7
:10429C00FB685B6D002B01D00123FB77FB680122CF
:1042AC0083F85120FB68002283F85020FB7F1846CE
:1042BC002037BD4680BD80B584B000AFF860B960D2
:1042CC007A603B604DE03B68B3F1FF3F49D03B68FF
:1042DC00002B07D0FCF772F90246BB69D21A3B6877
:1042EC009A423ED3FB681B68FA681268526822F047
:1042FC00E0025A60FB685B68B3F5827F11D1FB6802
:10430C009B68B3F5004F04D0FB689B68B3F5806FD6
:10431C0007D1FB681B68FA681268126822F0400229
:10432C001A60FB689B6AB3F5005F10D1FB681A68D2
:10433C00FB681B6819684DF6FF730B401360FB6834
:10434C001B68FA681268126842F400521A60FB6823
:10435C00012283F85120FB68002283F850200323AC
:10436C000EE0FB681B689A68BB681A40BB689A42EF
:10437C0001D1012200E000227B689A42A3D10023E4
:10438C0018461037BD4680BD80B586B002AFF860C8
:10439C00B9607A607B680093BB6800228021F86862
:1043AC00FFF789FF0346002B07D0FB685B6D43F0DA
:1043BC002002FB685A65032300E0002318461037DF
:1043CC00BD4680BD80B582B000AF78607B68002BA5
:1043DC0001D101231DE07B6893F83930DBB2002B4F
:1043EC0006D17B68002283F83820786802F04AFEF8
:1043FC007B68022283F839207B681A687B68043357
:10440C001946104600F044F97B68012283F83920E4
:10441C00002318460837BD4680BD80B582B000AF7A
:10442C0078607B681B681B6903F00203022B22D1A6
:10443C007B681B68DB6803F00203022B1BD17B68D3
:10444C001B686FF002021A617B6801221A767B6886
:10445C001B689B6903F00303002B03D0786800F002
:10446C00F8F805E0786800F0EAF8786800F0FBF8F6
:10447C007B6800221A767B681B681B6903F00403B7
:10448C00042B22D17B681B68DB6803F00403042B2C
:10449C001BD17B681B686FF004021A617B680222D7
:1044AC001A767B681B689B6903F44073002B03D05E
:1044BC00786800F0CEF805E0786800F0C0F878680D
:1044CC0000F0D1F87B6800221A767B681B681B69A8
:1044DC0003F00803082B22D17B681B68DB6803F010
:1044EC000803082B1BD17B681B686FF008021A614C
:1044FC007B6804221A767B681B68DB6903F0030374
:10450C00002B03D0786800F0A4F805E0786800F080
:10451C0096F8786800F0A7F87B6800221A767B681A
:10452C001B681B6903F01003102B22D17B681B68DE
:10453C00DB6803F01003102B1BD17B681B686FF03A
:10454C0010021A617B6808221A767B681B68DB698B
:10455C0003F44073002B03D0786800F07AF805E080
:10456C00786800F06CF8786800F07DF87B680022C1
:10457C001A767B681B681B6903F00103012B0ED1B3
:10458C007B681B68DB6803F00103012B07D17B6898
:10459C001B686FF001021A61786800F046F87B68BE
:1045AC001B681B6903F08003802B0ED17B681B6892
:1045BC00DB6803F08003802B07D17B681B686FF0EE
:1045CC0080021A61786800F05CF97B681B681B69D3
:1045DC0003F04003402B0ED17B681B68DB6803F0B3
:1045EC004003402B07D17B681B686FF040021A61B7
:1045FC00786800F042F87B681B681B6903F02003A5
:10460C00202B0ED17B681B68DB6803F02003202B6A
:10461C0007D17B681B686FF020021A61786800F084
:10462C0026F900BF0837BD4680BD80B483B000AF0B
:10463C00786000BF0C37BD465DF8047B704780B4D2
:10464C0083B000AF786000BF0C37BD465DF8047BCB
:10465C00704780B483B000AF786000BF0C37BD46A4
:10466C005DF8047B704780B483B000AF786000BF06
:10467C000C37BD465DF8047B704780B483B000AF47
:10468C00786000BF0C37BD465DF8047B70470000B6
:10469C0080B485B000AF786039600023FB607B6824
:1046AC001B68FB607B68444A934213D07B68B3F170
:1046BC00804F0FD07B68414A93420BD07B68404AB5
:1046CC00934207D07B683F4A934203D07B683E4AB3
:1046DC00934201D1012300E00023002B08D0FB689A
:1046EC0023F07003FB603B685B68FA681343FB6064
:1046FC007B68314A93422BD07B68B3F1804F27D033
:10470C007B682E4A934223D07B682D4A93421FD05C
:10471C007B682C4A93421BD07B682B4A934217D060
:10472C007B682A4A934213D07B68294A93420FD064
:10473C007B68284A93420BD07B68274A934207D068
:10474C007B68264A934203D07B68254A934201D169
:10475C00012300E00023002B08D0FB6823F44073F6
:10476C00FB603B68DB68FA681343FB607B68FA68A4
:10477C001A603B689A687B68DA623B681A687B68E7
:10478C009A627B680C4A934203D07B680E4A934230
:10479C0001D1012300E00023002B03D03B681A69F0
:1047AC007B681A637B6801225A6100BF1437BD46CF
:1047BC005DF8047B704700BF00000140000400401E
:1047CC0000080040000C0040000401400040014083
:1047DC00004401400048014000180040001C00400B
:1047EC000020004080B483B000AF786039607B68F3
:1047FC0093F83830012B01D1022332E07B6801227F
:10480C0083F838207B68022283F839207B681B6888
:10481C007A681268526822F070025A607B681B68D2
:10482C007A68126851683A6812680A435A607B6861
:10483C001B687A681268926822F080029A607B6822
:10484C001B687A68126891683A6852680A439A60E1
:10485C007B68012283F839207B68002283F838209A
:10486C00002318460C37BD465DF8047B704780B4B6
:10487C0083B000AF786000BF0C37BD465DF8047B99
:10488C00704780B483B000AF786000BF0C37BD4672
:10489C005DF8047B704780B485B000AF78603960F8
:1048AC000023FB600023BB603B681B68012B29D0F5
:1048BC007B681B68FB60FB6823F4FF4323F07F03DA
:1048CC00FB603B685A683B689B681A433B68DB6833
:1048DC001A433B681B691A433B685B691A433B6884
:1048EC009B691A433B68DB691A433B681B6A1A4392
:1048FC003B685B6A1343FA681343FB607B68FA6896
:10490C001A6034E07B681B68FB60FB6823F4F84397
:10491C00FB603B68DA693B681B6A1A433B685B6A5D
:10492C001343FA681343FB607B685B68BB60BB682E
:10493C0023F4FF4323F07F03BB603B685A683B685A
:10494C009B681A433B68DB681A433B681B691A4334
:10495C003B685B691A433B689B691343BA68134312
:10496C00BB607B68FA681A607B68BA685A6000237F
:10497C0018461437BD465DF8047B704780B487B089
:10498C0000AFF860B9607A6000237B6100233B6163
:10499C007B68012B2ED0FB689B687B617B6903F0E5
:1049AC0070437B61BB681B685A1EBB685B68013B2C
:1049BC001B011A43BB689B68013B1B021A43BB6873
:1049CC00DB68013B1B031A43BB681B69013B1B04DF
:1049DC001A43BB685B69013B1B051A43BB689B69A7
:1049EC00013B1B0613437A6913437B61FB687A69AD
:1049FC009A603BE0FB689B687B617B6923F47003E6
:104A0C0023F470437B61BB68DB68013B1A03BB6812
:104A1C005B69013B1B0513437A6913437B61FB689C
:104A2C00DB683B613B6903F070433B61BB681B680F
:104A3C005A1EBB685B68013B1B011A43BB689B6831
:104A4C00013B1B021A43BB681B69013B1B041A4345
:104A5C00BB689B69013B1B0613433A6913433B61DB
:104A6C00FB687A699A60FB683A69DA600023184639
:104A7C001C37BD465DF8047B704780B586B000AF2F
:104A8C00F860B9607A6000233B6100237B61BB68EE
:104A9C001A68BB685B681A43BB689B68013B5B0187
:104AAC001A43BB68DB685B0213433B613A69FB68E2
:104ABC001A61FBF783FD786110E07B68B3F1FF3F6F
:104ACC000CD07B68002B07D0FBF778FD02467B6986
:104ADC00D21A7B689A4201D9032306E0FB689B69D2
:104AEC0003F02003002BE8D1002318461837BD46ED
:104AFC0080BD80B483B000AF786039607B685A6940
:104B0C003B685B001A437B685A61002318460C37DC
:104B1C00BD465DF8047B704780B500AF4FF4FC31A7
:104B2C00034805F089FA034804F0C8FF00BF80BDB4
:104B3C0058000020A0FA070880B400AF034B1B6894
:104B4C001846BD465DF8047B704700BFA02B0220C1
:104B5C0080B485B000AF7860084B1A687B6813444A
:104B6C00FB6000BF054B1B68FA68D31A002BF9DCFD
:104B7C0000BF1437BD465DF8047B7047A02B0220A4
:104B8C0080B400AF00BFBD465DF8047B704780B5B4
:104B9C0086B002AFF860B9607A60FB70FA780023D7
:104BAC00009313467A68B968F86801F08DF800BF75
:104BBC001037BD4680BD80B586B002AFF860B960D5
:104BCC007A60FB70FA780023009313467A68B96810
:104BDC00F86801F05FF800BF1037BD4680BD80B5A6
:104BEC0086B002AFF860B9607A60FB70FA78002387
:104BFC00009313467A68B968F86801F065F800BF4D
:104C0C001037BD4680BD80B586B002AFF860B96084
:104C1C007A60FB70FA780023009313467A68B968BF
:104C2C00F86801F037F800BF1037BD4680BD80B57D
:104C3C0086B002AFF860B9607A60FB70FA78022334
:104C4C00009313467A68B968F86801F03DF800BF24
:104C5C001037BD4680BD80B586B002AFF860B96034
:104C6C007A60FB70FA780223009313467A68B9686D
:104C7C00F86801F00FF800BF1037BD4680BD80B555
:104C8C0086B002AFF860B9607A60FB70FA780323E3
:104C9C00009313467A68B968F86801F015F800BFFC
:104CAC001037BD4680BD80B586B002AFF860B960E4
:104CBC007A60FB70FA780323009313467A68B9681C
:104CCC00F86800F0E7FF00BF1037BD4680BD80B527
:104CDC0086B002AFF860B9607A60FB70FA78042392
:104CEC00009313467A68B968F86800F0EDFF00BFCE
:104CFC001037BD4680BD80B586B002AFF860B96094
:104D0C007A60FB70FA780423009313467A68B968CA
:104D1C00F86800F0BFFF00BF1037BD4680BD000033
:104D2C0090B585B000AF78600023FB6066E0394930
:104D3C00FA681346DB009B1A9B000B4404331B6878
:104D4C00002B58DB3349FA681346DB009B1A9B0097
:104D5C000B4419682F48FA681346DB009B1A9B001A
:104D6C0003440C3318682B4CFA681346DB009B1A6F
:104D7C009B00234410331B6803FB00F0254CFA689E
:104D8C001346DB009B1A9B00234404331B6803FB74
:104D9C0000F0204CFA681346DB009B1A9B0023445E
:104DAC0014331B6803FB00F30B44BB60FA68B9684F
:104DBC007868FEF75EF87B681B687A681268526A3E
:104DCC0042F001025A62F8681249FA681346DB0095
:104DDC009B1A9B000B4404331B68194604F006FB1A
:104DEC000C49FA681346DB009B1A9B000B440433F6
:104DFC004FF0FF321A60FB680133FB60FB68002B3D
:104E0C0095D000217868FEF76BF800BF1437BD46CB
:104E1C0090BD00BF98F8012080B582B000AF00F0C3
:104E2C007FFA002300225849584804F0D7FD00208F
:104E3C0003F0D6FB0346002B0CD0F0224FF4A071EC
:104E4C00002003F035FBF0224FF4A071002003F09A
:104E5C0017FB0BE04FF4A072F021002003F028FBAD
:104E6C004FF4A072F021002003F00AFB484B494A92
:104E7C001A6000237B607FE0474A7B6852F823105E
:104E8C0043487A681346DB009B1A9B000344183393
:104E9C0019603F497A681346DB009B1A9B000B4450
:104EAC0004334FF0FF321A60786839497A68134638
:104EBC00DB009B1A9B000B441B68194603F0CAFAD3
:104ECC007B68184603F080FB0346D91030487A689B
:104EDC001346DB009B1A9B000344143319607B6858
:104EEC002E4A2121184603F02BFB7B682C4A2321E8
:104EFC00184603F025FB786800F088FA0346042B6B
:104F0C000BD87B68274A1921184603F019FB7B68DC
:104F1C00254A2521184603F013FB786800F076FA31
:104F2C000346022B05D17B68204A2421184603F046
:104F3C0007FB1F491F4805F089FD1F491F4805F055
:104F4C006FFB1F491F4805F0E9FC1F491F4805F07E
:104F5C00DDFA1F491F4805F039FC1F4804F0F6F92B
:104F6C001E4804F0A5FD1E4804F0F6F91D4804F097
:104F7C00F9F97B6801337B607B68002B3FF47CAFD5
:104F8C0000BF0837BD4680BD44030808A4010808CB
:104F9C0098F80120000020D00800002009560008D5
:104FAC00BD560008DD570008DD5E00080D5E0008E8
:104FBC00B34C00088B4C0008634C00083B4C0008B9
:104FCC00034D0008DB4C0008134C0008EB4B0008A9
:104FDC00C34B00089B4B0008555C0008495B00085C
:104FEC00315A0008095D000890B58BB000AFF8602D
:104FFC00B9607A6000237B62BB68013B0D2B00F229
:10500C00028101A252F823F04D50000813520008FF
:10501C0055500008BD500008CB500008DD5000086A
:10502C006D51000857510008EF500008BB510008A3
:10503C0013520008CB510008E7510008A550000896
:10504C00F86800F0EDF8E1E07349FA681346DB000C
:10505C009B1A9B000B4419687B6858686E4CFA6865
:10506C001346DB009B1A9B0023440C331B6803FB89
:10507C0000F0694CFA681346DB009B1A9B00234432
:10508C0014331B6803FB00F30B443B62FA68396A68
:10509C006248FDF7EEFEB9E07B6819685E48FA6875
:1050AC001346DB009B1A9B00034404331960ADE0EC
:1050BC007968FB6801225948FDF73DFDA6E0574B86
:1050CC001B68564A1268926942F001029A619DE08F
:1050DC00524B1B68514A1268926922F001029A6184
:1050EC0094E07B681B68012B13D14C4B1B681A4650
:1050FC00FB68DB01134484331A46484B1B68194682
:10510C00FB68DB010B4484331B6843F00103136021
:10511C0012E0424B1B681A46FB68DB0113448433D4
:10512C001A463E4B1B681946FB68DB010B44843363
:10513C001B6823F001031360384B1B68374A126855
:10514C00526A42F001025A6260E07B681B681946A1
:10515C007B685B681A46FB683048FDF70EFE55E02D
:10516C0007F1140207F118031946F86804F014F952
:10517C007B6819682848FA681346DB009B1A9B0069
:10518C0003440C3319607B6859682348FA6813464A
:10519C00DB009B1A9B00034410331960BB69194652
:1051AC007B691A46FB681D48FDF7E7FD2EE07B681E
:1051BC001B68FA6819461948FDF725FE26E07B683E
:1051CC001B68002B04D0F9681448FDF728FD1DE07E
:1051DC00F9681248FDF75DFD18E07B681B681B0C35
:1051EC00DAB27B681B6803F47F431A437B681B6845
:1051FC001B0403F47F031343FB61FA68F969074846
:10520C00FDF754FC02E04FF0FF337B627B6A1846DB
:10521C002C37BD4690BD00BF98F80120A42B02206E
:10522C0080B590B000AF78607B68002B69D100230B
:10523C00BB60F023FB6000233B614FF4A0737B61E8
:10524C00786800F0E3F80346BB6130497A6813468E
:10525C00DB009B1A9B000B441B68FB62FF23FB616A
:10526C0000233B62002387F83830002387F839305D
:10527C00002387F83A304FF4C0637B620723BB628C
:10528C00F0233B634FF4A0737B6307F108037A6848
:10529C0019461F48FDF7CCFB7B68184603F094F9C0
:1052AC000346082B04DC79681948FDF72CFD28E02F
:1052BC0016497A681346DB009B1A9B000B44183383
:1052CC001B68144A93421CD179681148FDF71BFDE9
:1052DC000023FB630BE0104B5B68F86B98470146AF
:1052EC000E4AFB6B42F82310FB6B0133FB63FB6B29
:1052FC00FF2BF0D97B684FF4807208490448FDF706
:10530C001AFC00BF4037BD4680BD00BF98F8012095
:10531C00A42B02208C030808A4030808B42502203F
:10532C0080B500AF3448FDF7B3FA00F073FE324B92
:10533C0009225A61304B01229A612F4B1D22DA61EE
:10534C002D4B03221A622C4B40F243129A622A4BC9
:10535C0040F20D125A62284B40F247121A63264B48
:10536C0040F21712DA62244B002283F83420224BCD
:10537C00002283F83520204B002283F836201F4B67
:10538C0008221A601D4BC0221A611C4B04229A6120
:10539C001A4B4FF400325A621848FEF7CBFB164BEF
:1053AC0000225A60144B00229A60134B0022DA60E0
:1053BC00114B00221A61104B114A1A600E48FDF76E
:1053CC0093F900210C48FDF78BFD0E4B4FF4403246
:1053DC005A600C4B02229A600A4B0022DA60094B8D
:1053EC00094A1A600748FBF733FD0346002B00D02F
:1053FC00FEE700BF80BD00BFA42B0220B429022011
:10540C000068014058F8012000B0024080B485B01B
:10541C0000AF78607B68002B01D000233AE0204974
:10542C007A681346DB009B1A9B000B4418331B68ED
:10543C00FB60FB681B4A934201D100232AE0FB6806
:10544C00194A934201D1012324E0FB68174A934285
:10545C0001D102231EE0FB68154A934201D10323BC
:10546C0018E0FB68134A934201D1042312E0FB6855
:10547C00114A934201D105230CE0FB680F4A934279
:10548C0001D1062306E0FB680D4A934201D10723A4
:10549C0000E0FEE718461437BD465DF8047B704704
:1054AC0098F8012044030808FC02080814030808B3
:1054BC00740308085C030808A4030808BC03080864
:1054CC008C03080880B586B000AFF860B9607A60CC
:1054DC003B60F868FFF79AFF7861154B4FF4007248
:1054EC001A60134ABB68D360114A7B68D363104AB5
:1054FC007B6A13610E4ABB6A13640D4A7B69D361E4
:10550C000B4A3B681B04396A89B20B435364084A43
:10551C00074B1B6843F00103136000BF044B1B686F
:10552C0003F00103002BF9D100BF1837BD4680BD35
:10553C0000B0024080B586B000AFF860B9607A6008
:10554C003B60F868FFF762FF7861134B134A1A60EF
:10555C00114A7B6A9363104ABB68D3630E4A3B6A59
:10556C0013640D4A7B6953630B4A7B681B043968CF
:10557C0089B20B435364084A074B1B6843F0010381
:10558C00136000BF044B1B6803F00103002BF9D11F
:10559C0000BF1837BD4680BD00B0024000020300BA
:1055AC0080B485B000AF786013497A681346DB008D
:1055BC009B1A9B000B440C3319680F487A681346EE
:1055CC00DB009B1A9B00034410331B6803FB01F1A7
:1055DC0009487A681346DB009B1A9B00034414337A
:1055EC001B6803FB01F3FB60FB6818461437BD46D0
:1055FC005DF8047B704700BF98F80120F0B58DB0C2
:10560C0004AFF860B9607A60FB681846FFF7C8FF12
:10561C00F8612649FA681346DB009B1A9B000B4481
:10562C001B681946BB68FA6902FB03F30B44BB61A8
:10563C001E49FA681346DB009B1A9B000B441B683F
:10564C0019467B68FA6902FB03F30B447B61F8682B
:10565C00BC697D691549FA681346DB009B1A9B00EF
:10566C000B440C331B681E461049FA681346DB00CA
:10567C009B1A9B000B4410331B681A4600230293A1
:10568C0000230193009233462A462146FFF71AFF66
:10569C000649FA681346DB009B1A9B000B4408333F
:1056AC007A681A6000BF2437BD46F0BD98F8012017
:1056BC00F0B58FB004AF78613961FA60BB607B697B
:1056CC001846FFF76DFF03467B6240497A69134623
:1056DC00DB009B1A9B000B4419683C487A69134603
:1056EC00DB009B1A9B00034404331B687A6A02FBA1
:1056FC0003F3194435487A691346DB009B1A9B0067
:10570C0003440C331B68FA6802FB03F23B69D018A4
:10571C002E4C7A691346DB009B1A9B0023441433EE
:10572C001B6803FB00F30B443B6228497A69134660
:10573C00DB009B1A9B000B44196824487A691346BA
:10574C00DB009B1A9B00034404331B687A6A02FB40
:10575C0003F319441D487A691346DB009B1A9B001E
:10576C0003440C331B683A6C02FB03F2BB68D01881
:10577C00164C7A691346DB009B1A9B0023441433A6
:10578C001B6803FB00F30B44FB617C693D6AFE69FB
:10579C007B6C7B60B96C0D487A691346DB009B1AF5
:1057AC009B0003440C331A687B6CD31A1A460023F3
:1057BC000293019200917B68324629462046FFF7FE
:1057CC0081FE00BF2C37BD46F0BD00BF98F801200C
:1057DC00F0B58BB002AFF860B9607A603B6003F053
:1057EC001DFE0346012B10D100221921F86802F08E
:1057FC00A7FEBB6B3A687968B86803F0C3F8324A05
:10580C001921F86802F09CFE59E03A68BB68D31A7B
:10581C000133FB61BA6B7B68D31A0133BB61FB6844
:10582C001846FFF7BDFE78612849FA681346DB007D
:10583C009B1A9B000B441B681C462449FA681346B0
:10584C00DB009B1A9B000B440C331B687A6802FB31
:10585C0003F2BB68D1181D48FA681346DB009B1A8B
:10586C009B00034414331B6803FB01F318461749D0
:10587C00FA681346DB009B1A9B000B4408331B6829
:10588C001A467B6903FB02F3034423443B61F8682B
:10589C003C69FD69BE690D49FA681346DB009B1A29
:1058AC009B000B440C331A68FB69D31A1A46FB6B2A
:1058BC000193009233462A462146FFF73BFE00BF78
:1058CC002437BD46F0BD00BFDD57000898F8012015
:1058DC0080B483B000AF786039600B4A7B68D362C8
:1058EC00094A3B68013B1B029BB243F00103D361A5
:1058FC00054A054BDB6943F02003D36100BF0C372D
:10590C00BD465DF8047B704700B0024080B487B0A0
:10591C0000AFF860B9607A60FB681A1DFA601B680A
:10592C007B61BB681A1DBA607A69120402F47F01AC
:10593C007A6902F47F4211437A69120CD2B2114394
:10594C007A69D24302F07F420A431A607B68013BBA
:10595C007B607B68002BDFD100BF1C37BD465DF838
:10596C00047B704780B487B000AFF860B9607A6090
:10597C00FB681A1DFA601B687B61BB681A1DBA6054
:10598C007A6982F07F421A607B68013B7B607B689E
:10599C00002BEDD100BF1C37BD465DF8047B704772
:1059AC0080B485B000AFF860B9607A603B601B4B87
:1059BC001B4A1A60194AFB68D360184ABB685361CA
:1059CC00164A7B68D363154B00221A61134B0022D5
:1059DC009A61124B00221A64104B0022DA610F4BB1
:1059EC0000225A620D4B00225A630C4A3B681B047E
:1059FC0043F001035364094A084B1B6843F001034D
:105A0C00136000BF054B1B6803F00103002BF9D199
:105A1C0000BF1437BD465DF8047B704700B00240F0
:105A2C000002020080B489B000AFF860B960134680
:105A3C00FB71BB6803F07F43B3F17F4F01D1FB686F
:105A4C0039E0FB6883F07F43FB61BB6883F07F43E5
:105A5C00BB611C4B1C4A1A601A4A07F11C03D36029
:105A6C00184A07F118035361164A07F11403D3635C
:105A7C00144AFB791B0643F48033D361114AFB793A
:105A8C00C3F1FF031B0653620E4B00225A630D4BEE
:105A9C004FF001125A640B4A0A4B1B6843F0010386
:105AAC00136000BF074B1B6803F00103002BF9D1F7
:105ABC007B6983F07F4318462437BD465DF8047B31
:105ACC00704700BF00B002400002020080B485B0F5
