:020000040800F2
:1000000000000320396100086D5D00087B5D000879
:10001000815D0008875D00088D5D0008000000001C
:10002000000000000000000000000000935D0008D8
:10003000A15D000800000000AF5D0008BD5D000884
:1000400089610008896100088961000889610008E8
:1000500089610008896100088961000889610008D8
:1000600089610008896100088961000889610008C8
:1000700089610008D95D000889610008ED5D00080C
:1000800089610008896100088961000889610008A8
:100090008961000889610008896100088961000898
:1000A0008961000889610008896100088961000888
:1000B0008961000889610008896100088961000878
:1000C0008961000889610008896100088961000868
:1000D0008961000889610008896100088961000858
:1000E0008961000889610008896100088961000848
:1000F0008961000889610008896100088961000838
:100100008961000889610008896100088961000827
:100110008961000889610008015E000889610008A2
:100120008961000889610008896100088961000807
:1001300089610008896100088961000889610008F7
:1001400089610008896100088961000889610008E7
:1001500089610008896100088961000889610008D7
:1001600089610008896100088961000889610008C7
:1001700089610008896100088961000800000000A9
:1001800089610008896100088961000889610008A7
:100190008961000889610008896100088961000897
:0C01A000155E000889610008295E000857
:1001AC0010B5054C237833B9044B13B10448AFF3A5
:1001BC0000800123237010BD1C00002000000000F3
:1001CC0040A9000808B5034B1BB103490348AFF322
:1001DC00008008BD000000002000002040A900089D
:1001EC0053B94AB9002908BF00281CBF4FF0FF3192
:1001FC004FF0FF3000F07AB9ADF1080C6DE904CE88
:10020C0000F006F8DDF804E0DDE9022304B07047E5
:10021C002DE9F0478C460D460446089E002B51D123
:10022C008A4217466DD9B2FA82FEBEF1000F0BD08E
:10023C00CEF1200C01FA0EF520FA0CFC02FA0EF7A6
:10024C004CEA050C00FA0EF44FEA174A250CBCFBDD
:10025C00FAF81FFA87F90AFB18CC45EA0C4508FB9B
:10026C0009F3AB420AD9ED1908F1FF3280F0238172
:10027C00AB4240F22081A8F102083D44ED1AA4B231
:10028C00B5FBFAF00AFB105544EA054400FB09F9EA
:10029C00A14509D9E41900F1FF3380F00A81A14589
:1002AC0040F2078102383C44A4EB090440EA0840C0
:1002BC000021002E61D024FA0EF400233460736008
:1002CC00BDE8F0878B4207D9002E54D0002186E878
:1002DC0021000846BDE8F087B3FA83F1002940F00D
:1002EC008E80AB4202D3824200F2FA80841A65EB14
:1002FC0003050120AC46002E3FD086E81010BDE867
:10030C00F08712B90127B7FBF2F7B7FA87FEBEF1F7
:10031C00000F34D1EB1B3A0C1FFA87FC0121B3FB05
:10032C00F2F8250C02FB183345EA03450CFB08F3E5
:10033C00AB4207D9ED1908F1FF3002D2AB4200F203
:10034C00D1808046ED1AA3B2B5FBF2F002FB10553A
:10035C0043EA05440CFB00FCA44507D9E41900F161
:10036C00FF3302D2A44500F2B8801846A4EB0C046B
:10037C0040EA08409DE731463046BDE8F087CEF1B3
:10038C00200405FA0EF307FA0EF720FA04F83A0CDB
:10039C0025FA04F448EA0308B4FBF2F14FEA1845D5
:1003AC0002FB11441FFA87FC45EA044501FB0CF3E0
:1003BC00AB4200FA0EF409D9ED1901F1FF3080F0CF
:1003CC008A80AB4240F2878002393D44EB1A1FFA17
:1003DC0088F5B3FBF2F002FB103345EA034500FB52
:1003EC000CF3AB4207D9ED1900F1FF386FD2AB42D9
:1003FC006DD902383D44EB1A40EA01418FE7C1F157
:10040C00200722FA07F88B4005FA01F448EA0303A7
:10041C0020FA07FE4FEA134CFD404EEA040EB5FBE2
:10042C00FCF94FEA1E440CFB19551FFA83F844EAF9
:10043C00054509FB08F4AC4202FA01F200FA01FA94
:10044C0008D9ED1809F1FF3043D2AC4241D9A9F1DA
:10045C0002091D442D1B1FFA8EFEB5FBFCF00CFB94
:10046C0010554EEA054400FB08F8A04507D9E418DE
:10047C0000F1FF3529D2A04527D902381C4440EAA7
:10048C000940A4EB0804A0FB02894C45C6464D4626
:10049C0015D312D056B1BAEB0E0364EB050404FA73
:1004AC0007F7CB401F43CC40376074600021BDE898
:1004BC00F0871846F8E69046E0E6C245EAD2B8EB7B
:1004CC00020E69EB03050138E4E72846D7E74046FE
:1004DC0091E78146BEE7014678E702383C4445E7A0
:1004EC00084608E7A8F102083D442BE7704700BF17
:1004FC0080B500AF0E4A0E4B1B6843F400731360BB
:10050C000B4A0B4B1B6843F480631360084A084B7F
:10051C001B6843F480731360032000F047F900203C
:10052C0000F008F805F0E2F80023184680BD00BF83
:10053C00003C024080B582B000AF7860124B1A6864
:10054C00124B1B7819464FF47A73B3FBF1F3B2FBE1
:10055C00F3F3184600F05FF90346002B01D001239A
:10056C000EE07B680F2B0AD8002279684FF0FF3021
:10057C0000F027F9064A7B681360002300E0012392
:10058C0018460837BD4680BD080000200400002036
:10059C000000002080B400AF064B1B781A46064BB7
:1005AC001B681344044A136000BFBD465DF8047B0E
:1005BC00704700BF040000205CF9012080B400AF3C
:1005CC00034B1B681846BD465DF8047B704700BFA3
:1005DC005CF9012080B584B000AF7860FFF7EEFFC6
:1005EC00B8607B68FB60FB68B3F1FF3F05D0094B3B
:1005FC001B781A46FB681344FB6000BFFFF7DEFF55
:10060C000246BB68D21AFB689A42F7D300BF103778
:10061C00BD4680BD0400002080B485B000AF78607A
:10062C007B6803F00703FB600C4BDB68BB60BA68AC
:10063C004FF6FF031340BB60FB681A02BB68134301
:10064C0043F0BF6343F40033BB60044ABB68D36020
:10065C0000BF1437BD465DF8047B704700ED00E029
:10066C0080B400AF044BDB681B0A03F00703184689
:10067C00BD465DF8047B704700ED00E080B483B0AC
:10068C0000AF0346FB71094997F907305B09FA790A
:10069C0002F01F02012000FA02F241F8232000BFF1
:1006AC000C37BD465DF8047B704700BF00E100E0ED
:1006BC0080B483B000AF03463960FB7197F9073003
:1006CC00002B0BDA0D49FB7903F00F03043B3A685E
:1006DC00D2B21201D2B20B441A7609E0084997F94A
:1006EC0007303A68D2B21201D2B20B4483F800231D
:1006FC0000BF0C37BD465DF8047B704700ED00E091
:10070C0000E100E080B489B000AFF860B9607A60B5
:10071C00FB6803F00703FB61FB69C3F10703042BC0
:10072C0028BF0423BB61FB690433062B02D9FB6988
:10073C00033B00E000237B610122BB6902FA03F357
:10074C005A1EBB681A407B699A4001217B6901FAE9
:10075C0003F3591E7B680B40134318462437BD46E0
:10076C005DF8047B7047000080B582B000AF786004
:10077C007B68013BB3F1807F01D301230FE00A4A70
:10078C007B68013B53600F214FF0FF30FFF790FF68
:10079C00054B00229A60044B07221A60002318466E
:1007AC000837BD4680BD00BF10E000E080B582B0C8
:1007BC0000AF78607868FFF72FFF00BF0837BD46A1
:1007CC0080BD80B586B000AF0346B9607A60FB731C
:1007DC0000237B61FFF744FF78617A68B968786918
:1007EC00FFF790FF024697F90F3011461846FFF7B6
:1007FC005FFF00BF1837BD4680BD80B582B000AF2B
:10080C000346FB7197F907301846FFF737FF00BF17
:10081C000837BD4680BD80B582B000AF786078687F
:10082C00FFF7A2FF034618460837BD4680BD0000FF
:10083C0080B586B000AF786000237B61FFF7BEFE09
:10084C0038617B68002B01D1012399E07B68002281
:10085C0083F834207B68022283F835207B681B6880
:10086C007A681268126822F001021A600FE0FFF732
:10087C00A5FE02463B69D31A052B08D97B682022BA
:10088C005A657B68032283F83520032378E07B6864
:10089C001B681B6803F00103002BE8D17B681B6805
:1008AC001B687B617A69384B13407B617B685A68A3
:1008BC007B689B681A437B68DB681A437B681B69FF
:1008CC001A437B685B691A437B689B691A437B6894
:1008DC00DB691A437B681B6A13437A6913437B6198
:1008EC007B685B6A042B07D17B68DA6A7B681B6BBD
:1008FC0013437A6913437B617B681B687A691A60BE
:10090C007B681B685B697B617B6923F007037B61F8
:10091C007B685B6A7A6913437B617B685B6A042B37
:10092C0017D17B689B6A7A6913437B617B68DB6AAE
:10093C00002B0ED0786800F0E9F90346002B08D0A4
:10094C007B6840225A657B68012283F8352001239D
:10095C0016E07B681B687A695A61786800F0A0F928
:10096C000346FB607B68DB6D3F229A40FB689A6014
:10097C007B6800225A657B68012283F835200023AE
:10098C0018461837BD4680BD3F8010F080B586B044
:10099C0000AF78600023BB60924B1B68924AA2FBAD
:1009AC0003239B0A7B617B689B6D3B613B691B68E6
:1009BC00FB607B68DB6D08229A40FB681340002BC0
:1009CC001AD07B681B681B6803F00403002B13D040
:1009DC007B681B687A681268126822F004021A603D
:1009EC007B68DB6D08229A403B699A607B685B6D83
:1009FC0043F001027B685A657B68DB6D01229A40EB
:100A0C00FB681340002B12D07B681B685B6903F0FA
:100A1C008003002B0BD07B68DB6D01229A403B6975
:100A2C009A607B685B6D43F002027B685A657B6859
:100A3C00DB6D04229A40FB681340002B12D07B68BC
:100A4C001B681B6803F00203002B0BD07B68DB6D6B
:100A5C0004229A403B699A607B685B6D43F0040208
:100A6C007B685A657B68DB6D10229A40FB681340EB
:100A7C00002B43D07B681B681B6803F00803002B1A
:100A8C003CD07B68DB6D10229A403B699A607B6896
:100A9C001B681B6803F48023002B18D07B681B6831
:100AAC001B6803F40023002B08D17B681B6C002B04
:100ABC0024D07B681B6C786898471FE07B689B6C24
:100ACC00002B1BD07B689B6C7868984716E07B6882
:100ADC001B681B6803F48073002B07D17B681B68B1
:100AEC007A681268126822F008021A607B681B6C24
:100AFC00002B03D07B681B6C786898477B68DB6D98
:100B0C0020229A40FB681340002B00F08E807B68FB
:100B1C001B681B6803F01003002B00F086807B68B9
:100B2C00DB6D20229A403B699A607B6893F83530E4
:100B3C00DBB2052B36D17B681B687A6812681268A9
:100B4C0022F016021A607B681B687A681268526978
:100B5C0022F080025A617B681B6C002B03D17B68EE
:100B6C009B6C002B07D07B681B687A681268126834
:100B7C0022F008021A607B68DB6D3F229A403B69C9
:100B8C009A607B68002283F834207B68012283F80A
:100B9C0035207B681B6D002B7DD07B681B6D7868C6
:100BAC00984778E07B681B681B6803F48023002B54
:100BBC001CD07B681B681B6803F40023002B08D136
:100BCC007B685B6C002B30D07B685B6C78689847DB
:100BDC002BE07B68DB6B002B27D07B68DB6B7868AA
:100BEC00984722E008000020B5814E1B7B681B68EB
:100BFC001B6803F48073002B0FD17B681B687A6829
:100C0C001268126822F010021A607B68002283F8C6
:100C1C0034207B68012283F835207B68DB6B002B4A
:100C2C0003D07B68DB6B786898477B685B6D002B27
:100C3C0032D07B685B6D03F00103002B22D07B6804
:100C4C00052283F835207B681B687A681268126865
:100C5C0022F001021A60BB680133BB607A699342CF
:100C6C0007D87B681B681B6803F00103002BF2D1CB
:100C7C0000E000BF7B68002283F834207B680122EF
:100C8C0083F835207B68DB6C002B05D07B68DB6C34
:100C9C007868984700E000BF1837BD4680BD00BF9C
:100CAC0080B485B000AF78607B681B68DBB2103B0A
:100CBC00144AA2FB03231B09FB60134AFB68134471
:100CCC001B781A467B68DA65FB68032B09D97B68AD
:100CDC001B6823F47F7323F003031A1D7B689A654A
:100CEC0007E07B681B6823F47F7323F003037A68A7
:100CFC0093657B689B6D18461437BD465DF8047B85
:100D0C00704700BFABAAAAAA5CA9000880B485B042
:100D1C0000AF78600023FB737B689B6ABB607B68C9
:100D2C009B69002B1FD1BB68032B55D801A252F82D
:100D3C0023F000BF510D0008630D0008510D000891
:100D4C00E50D00087B68DB6A03F08073002B45D04F
:100D5C000123FB7342E07B68DB6AB3F1C07F3FD1B8
:100D6C000123FB733CE07B689B69B3F5005F21D1E9
:100D7C00BB68032B36D801A252F823F0990D00085A
:100D8C009F0D0008990D0008B10D00080123FB739D
:100D9C002FE07B68DB6A03F08073002B24D00123E7
:100DAC00FB7321E07B68DB6AB3F1C07F1ED10123AA
:100DBC00FB731BE0BB68022B02D9032B03D018E09A
:100DCC000123FB7315E07B68DB6A03F08073002B57
:100DDC000ED00123FB730BE000BF0AE000BF08E05C
:100DEC0000BF06E000BF04E000BF02E000BF00E06F
:100DFC0000BFFB7B18461437BD465DF8047B70477B
:100E0C0080B582B000AF78607B68002B01D10123E4
:100E1C003BE07B6893F83930DBB2002B06D17B6862
:100E2C00002283F83820786804F088FC7B68022262
:100E3C0083F839207B681B687A681268126822F480
:100E4C0040317A6852680A431A607B681B687A687A
:100E5C001268526B22F007017A6892680A435A634F
:100E6C007B681A687B681B681B6C23F47F5323F028
:100E7C003F037968C9680B4313647B680022DA630B
:100E8C007B68012283F83920002318460837BD46B9
:100E9C0080BD80B584B000AF78607B681B685B68F0
:100EAC00FB607B681B681B68BB60FB6803F001037D
:100EBC00002B26D0BB6803F48073002B21D07B68F9
:100ECC001B687A681268126822F480721A607B6858
:100EDC00DB6B43F001027B68DA637B681B680122E1
:100EEC009A607B68042283F839207B68002283F89F
:100EFC0038207B685B69002B03D07B685B69786862
:100F0C009847FB6803F02003002B26D0BB6803F442
:100F1C000053002B21D07B681B687A68126812681A
:100F2C0022F400521A607B681B6820229A607B684E
:100F3C00DB6B43F002027B68DA637B68042283F884
:100F4C0039207B68002283F838207B685B69002B92
:100F5C0003D07B685B6978689847FB6803F00803EB
:100F6C00002B26D0BB6803F40063002B21D07B68D8
:100F7C001B687A681268126822F400621A607B6837
:100F8C001B6808229A607B68DB6B43F004027B6869
:100F9C00DA637B68042283F839207B68002283F8AB
:100FAC0038207B685B69002B03D07B685B697868B1
:100FBC009847FB6803F00403002B13D0BB6803F4C1
:100FCC008063002B0ED07B681B687A6812681268ED
:100FDC0022F480621A607B681B6804229A6078682D
:100FEC0000F053F8FB6803F00203002B24D0BB681D
:100FFC0003F40073002B1FD07B681B687A6812689F
:10100C00126822F400721A607B681B6802229A60D4
:10101C007B68DA6B7B68DA637B68012283F83920A2
:10102C007B68002283F838207B681B69002B03D077
:10103C007B681B6978689847FB6803F01003002BEA
:10104C001FD0BB6803F48053002B1AD07B681B683D
:10105C007A681268126822F480521A607B681B68E6
:10106C0010229A607B68DA6B7B68DA637B680122FA
:10107C0083F839207B68002283F83820786800F0E8
:10108C000EF800BF1037BD4680BD80B483B000AFF2
:10109C00786000BF0C37BD465DF8047B704780B4A8
:1010AC0083B000AF786000BF0C37BD465DF8047BA1
:1010BC007047000080B485B000AF786039603B6841
:1010CC001B0118337A681344BB600023FB607B68F8
:1010DC005B68B3F5403F7B6893F83830012B01D146
:1010EC00022370E07B68012283F838207B6802229F
:1010FC0083F83920BB685B680A2B03D0BB685B683C
:10110C00092B0CD1BB685A68BB689B681B041A433B
:10111C00BB68DB6803F07F431343FB600AE0BB68EA
:10112C005A68BB689B681B041A43BB68DB681B06C8
:10113C001343FB603B68002B1ED17B681A687B68ED
:10114C001B68596A234B0B40F9680B4353627B684D
:10115C001B68BA6812689A61BB685B680A2B03D07B
:10116C00BB685B68092B25D17B681B68BA68D268A1
:10117C0022F07F429A621DE07B681A687B681B68CC
:10118C00D969144B0B40F9680B43D3617B681B681E
:10119C00BA6812681A61BB685B680A2B03D0BB681B
:1011AC005B68092B06D17B681B68BA68D26822F091
:1011BC007F421A627B68012283F839207B68002207
:1011CC0083F83820002318461437BD465DF8047B9D
:1011DC00704700BFF0FFFC0080B489B000AF7860AE
:1011EC00396000237B6100233B610023BB6100233A
:1011FC00FB6177E10122FB6902FA03F37B613B6837
:10120C001A687B6913403B613A697B699A4240F0EA
:10121C0066813B685B68022B03D03B685B68122BD2
:10122C0023D1FB69DA087B68083253F82230BB61A2
:10123C00FB6903F007039B000F2202FA03F3DB4365
:10124C00BA691340BB613B681A69FB6903F0070379
:10125C009B0002FA03F3BA691343BB61FB69DA081A
:10126C007B680832B96943F822107B681B68BB6144
:10127C00FB695B00032202FA03F3DB43BA691340F8
:10128C00BB613B685B6803F00302FB695B0002FA1D
:10129C0003F3BA691343BB617B68BA691A603B6894
:1012AC005B68012B0BD03B685B68022B07D03B685B
:1012BC005B68112B03D03B685B68122B30D17B68C9
:1012CC009B68BB61FB695B00032202FA03F3DB43FF
:1012DC00BA691340BB613B68DA68FB695B0002FAD0
:1012EC0003F3BA691343BB617B68BA699A607B6884
:1012FC005B68BB610122FB6902FA03F3DB43BA6949
:10130C001340BB613B685B681B0903F00102FB697E
:10131C0002FA03F3BA691343BB617B68BA695A607A
:10132C007B68DB68BB61FB695B00032202FA03F399
:10133C00DB43BA691340BB613B689A68FB695B008D
:10134C0002FA03F3BA691343BB617B68BA69DA60CA
:10135C003B685B6803F08053002B00F0C0800023D7
:10136C00FB60654A644B5B6C43F480435364624B93
:10137C005B6C03F48043FB60FB68604AFB699B0871
:10138C00023352F82330BB61FB6903F003039B006B
:10139C000F2202FA03F3DB43BA691340BB617B688B
:1013AC00574A934237D07B68564A934231D07B6878
:1013BC00554A93422BD07B68544A934225D07B6884
:1013CC00534A93421FD07B68524A934219D07B6890
:1013DC00514A934213D07B68504A93420DD07B689C
:1013EC004F4A934207D07B684E4A934201D109235E
:1013FC0012E00A2310E008230EE007230CE006237A
:10140C000AE0052308E0042306E0032304E002239A
:10141C0002E0012300E00023FA6902F003029200CB
:10142C009340BA691343BB613449FB699B0802338F
:10143C00BA6941F823203C4B1B68BB613B69DB4319
:10144C00BA691340BB613B685B6803F48033002BC3
:10145C0003D0BA693B691343BB61334ABB69136060
:10146C00314B5B68BB613B69DB43BA691340BB61C1
:10147C003B685B6803F40033002B03D0BA693B690B
:10148C001343BB61284ABB695360274B9B68BB6104
:10149C003B69DB43BA691340BB613B685B6803F48F
:1014AC008013002B03D0BA693B691343BB611E4AFE
:1014BC00BB6993601C4BDB68BB613B69DB43BA695E
:1014CC001340BB613B685B6803F40013002B03D033
:1014DC00BA693B691343BB61134ABB69D360FB69AF
:1014EC000133FB61FB690F2B7FF684AE00BF243701
:1014FC00BD465DF8047B704700380240003801405F
:10150C00000002400004024000080240000C0240AF
:10151C00001002400014024000180240001C02405F
:10152C000020024000240240003C014080B483B003
:10153C0000AF78600B467B8013467B707B78002B6A
:10154C0003D07A887B689A6103E07B881A047B68F5
:10155C009A6100BF0C37BD465DF8047B70470000F4
:10156C0080B584B000AF78600023FB600023BB60C3
:10157C007B68002B01D10123C8E07B6893F83D30D8
:10158C00DBB2002B06D17B68002283F83C20786804
:10159C0004F0FCF87B68242283F83D207B681B68F0
:1015AC007A681268126822F001021A6001F0EEFFEC
:1015BC00B860BB68574AA2FB03239B0CFB607B689B
:1015CC001B68FA685A607B681A687B685B685249CA
:1015DC008B4202D8FB68013309E0FB684FF496712B
:1015EC0001FB03F34D49A1FB03139B090133136268
:1015FC007B6819687B685B68474A934212D87B68A2
:10160C005B685B00BA68B2FBF3F3C3F30B03032B09
:10161C0006D97B685B685B00BA68B2FBF3F345E004
:10162C00042343E07B689B68002B0FD17B685A68CE
:10163C0013465B001344BA68B2FBF3F3C3F30B031A
:10164C00002B0CBF01230023DBB210E07B685A682F
:10165C0013469B0013449A001344BA68B2FBF3F38D
:10166C00C3F30B03002B0CBF01230023DBB2002BB5
:10167C0001D001231AE07B689B68002B0AD17B68A0
:10168C005A6813465B001344BA68B2FBF3F343F495
:10169C0000430BE07B685A6813469B0013449A0086
:1016AC001344BA68B2FBF3F343F44043CB617B6859
:1016BC001B687A68D1697A68126A0A431A607B6877
:1016CC001B687A6811697A68D2680A439A607B68E9
:1016DC001B687A6851697A6892690A43DA607B6898
:1016EC001B687A681268126842F001021A607B6803
:1016FC0000221A647B68202283F83D207B6800223C
:10170C001A637B68002283F83E20002318461037AA
:10171C00BD4680BD83DE1B43A0860100D34D621005
:10172C0080B588B002AFF8607A601A460B467B81B0
:10173C0013463B8100237B61FEF740FF7861FB6819
:10174C0093F83D30DBB2202B40F0EE807B690093A8
:10175C00192301227749F86800F06CFC0346002B32
:10176C0001D00223E1E0FB6893F83C30012B01D15E
:10177C000223DAE0FB68012283F83C20FB681B683B
:10178C001B6803F00103012B07D0FB681B68FA6888
:10179C001268126842F001021A60FB681B68FA6852
:1017AC001268126822F400621A60FB68212283F826
:1017BC003D20FB68102283F83E20FB6800221A644F
:1017CC00FB687A685A62FB683A895A85FB685A4A00
:1017DC00DA62FB685B8D9AB2FB681A8579897B6942
:1017EC003A6AF86800F0DCFA0346002B0FD0FB686D
:1017FC001B6C042B05D1FB68002283F83C200123D1
:10180C0093E0FB68002283F83C2003238DE0002347
:10181C003B61FB681B685B693B61FB681B689B69F0
:10182C003B613B6966E07A69396AF86800F0C1FC93
:10183C000346002B0FD0FB681B6C042B09D1FB68F3
:10184C001B68FA681268126842F400721A6001236D
:10185C006BE0032369E0FB681A68FB685B6A581C41
:10186C00F96848621B781361FB685B8D9BB2013B86
:10187C009AB2FB685A85FB681B8D013B9AB2FB68D8
:10188C001A85FB681B685B6903F00403042B19D1F0
:10189C00FB681B8D002B15D0FB681A68FB685B6A14
:1018AC00581CF96848621B781361FB685B8D9BB20E
:1018BC00013B9AB2FB685A85FB681B8D013B9AB2BF
:1018CC00FB681A857A69396AF86800F0AFFC034640
:1018DC00002B0FD0FB681B6C042B09D1FB681B6819
:1018EC00FA681268126842F400721A6001231CE054
:1018FC0003231AE0FB681B8D002B94D1FB681B683B
:10190C00FA681268126842F400721A60FB682022AE
:10191C0083F83D20FB68002283F83E20FB68002200
:10192C0083F83C20002300E0022318461837BD46FC
:10193C0080BD00BF020010000000FFFF80B58CB01E
:10194C0002AFF8607A601A460B467B8113463B81E6
:10195C0000237B62FEF732FE7862FB6893F83D3021
:10196C00DBB2202B40F015827B6A009319230122F5
:10197C008549F86800F05EFB0346002B01D002237A
:10198C0008E2FB6893F83C30012B01D1022301E201
:10199C00FB68012283F83C20FB681B681B6803F082
:1019AC000103012B07D0FB681B68FA6812681268E8
:1019BC0042F001021A60FB681B68FA681268126830
:1019CC0022F400621A60FB68222283F83D20FB6837
:1019DC00102283F83E20FB6800221A64FB687A68A8
:1019EC005A62FB683A895A85FB68684ADA62FB6876
:1019FC005B8D9AB2FB681A8579897B6A3A6BF868B9
:101A0C0000F050FA0346002B0FD0FB681B6C042B24
:101A1C0005D1FB68002283F83C200123BAE1FB6866
:101A2C00002283F83C200323B4E1FB681B8D002BC0
:101A3C0013D100233B62FB681B685B693B62FB684C
:101A4C001B689B693B623B6AFB681B68FA681268FF
:101A5C00126842F400721A6088E1FB681B8D012B3E
:101A6C001BD1FB681B68FA681268126822F480624A
:101A7C001A600023FB61FB681B685B69FB61FB68F8
:101A8C001B689B69FB61FB69FB681B68FA68126841
:101A9C00126842F400721A6068E1FB681B8D022B1D
:101AAC001BD1FB681B68FA681268126822F480620A
:101ABC001A60FB681B68FA681268126842F40062CC
:101ACC001A600023BB61FB681B685B69BB61FB6828
:101ADC001B689B69BB61BB6948E1FB681B68FA68C2
:101AEC001268126842F480621A6000237B61FB6802
:101AFC001B685B697B61FB681B689B697B617B690D
:101B0C0034E1FB681B8D032B00F2EB80FB681B8D13
:101B1C00012B27D17A6A396BF86800F0C4FB0346B5
:101B2C00002B07D0FB681B6C202B01D1032331E168
:101B3C0001232FE1FB685B6A591CFA685162FA6851
:101B4C0012681269D2B21A70FB681B8D013B9AB2F3
:101B5C00FB681A85FB685B8D9BB2013B9AB2FB68F4
:101B6C005A8503E1FB681B8D022B4AD17B6A0093DB
:101B7C003B6B00220649F86800F05CFA0346002B28
:101B8C0008D0032306E100BF020010000000FFFF95
:101B9C0004000100FB681B68FA681268126842F4C2
:101BAC0000721A60FB685B6A591CFA685162FA6829
:101BBC0012681269D2B21A70FB681B8D013B9AB283
:101BCC00FB681A85FB685B8D9BB2013B9AB2FB6884
:101BDC005A85FB685B6A591CFA685162FA6812688C
:101BEC001269D2B21A70FB681B8D013B9AB2FB686A
:101BFC001A85FB685B8D9BB2013B9AB2FB685A85D8
:101C0C00B4E07B6A00933B6B00226449F86800F0F7
:101C1C0011FA0346002B01D00323BBE0FB681B68C1
:101C2C00FA681268126822F480621A60FB685B6AB8
:101C3C00591CFA685162FA6812681269D2B21A70A9
:101C4C00FB681B8D013B9AB2FB681A85FB685B8DA8
:101C5C009BB2013B9AB2FB685A857B6A00933B6B43
:101C6C0000224E49F86800F0E5F90346002B01D03C
:101C7C0003238FE0FB681B68FA681268126842F451
:101C8C0000721A60FB685B6A591CFA685162FA6848
:101C9C0012681269D2B21A70FB681B8D013B9AB2A2
:101CAC00FB681A85FB685B8D9BB2013B9AB2FB68A3
:101CBC005A85FB685B6A591CFA685162FA681268AB
:101CCC001269D2B21A70FB681B8D013B9AB2FB6889
:101CDC001A85FB685B8D9BB2013B9AB2FB685A85F7
:101CEC0044E07A6A396BF86800F0DDFA0346002BA1
:101CFC0007D0FB681B6C202B01D103234AE0012386
:101D0C0048E0FB685B6A591CFA685162FA68126811
:101D1C001269D2B21A70FB681B8D013B9AB2FB6838
:101D2C001A85FB685B8D9BB2013B9AB2FB685A85A6
:101D3C00FB681B685B6903F00403042B16D1FB687A
:101D4C005B6A591CFA685162FA6812681269D2B25D
:101D5C001A70FB681B8D013B9AB2FB681A85FB68F5
:101D6C005B8D9BB2013B9AB2FB685A85FB681B8D5D
:101D7C00002B7FF4C6AEFB68202283F83D20FB6865
:101D8C00002283F83E20FB68002283F83C200023CD
:101D9C0000E0022318462837BD4680BD0400010030
:101DAC0080B588B002AFF8607A603B600B467B81EF
:101DBC00FB68DB6A7B617B69042B06D07B69012B9A
:101DCC0003D07B6913F5803F08D1FB681B68FA6868
:101DDC001268126842F480721A600BE0FB681B6B8D
:101DEC00122B07D1FB681B68FA681268126842F460
:101DFC0080721A603B6800937B6800224FF00111DF
:101E0C00F86800F017F90346002B01D0032340E0DB
:101E1C00FB681B69B3F5804F07D1FB681B687A8997
:101E2C00D2B202F0FE021A6121E0FB681B687A89CB
:101E3C00D211D2B202F00602D2B262F00F02D2B2CA
:101E4C001A613B687A681549F86800F044F9034652
:101E5C00002B07D0FB681B6C042B01D1012318E06D
:101E6C00032316E0FB681B687A89D2B21A613B68BF
:101E7C007A680B49F86800F02EF90346002B07D05E
:101E8C00FB681B6C042B01D1012302E0032300E04F
:101E9C00002318461837BD4680BD00BF080001005E
:101EAC000200010080B588B002AFF8607A603B6038
:101EBC000B467B81FB68DB6A7B61FB681B68FA68FD
:101ECC001268126842F480621A607B69042B06D097
:101EDC007B69012B03D07B6913F5803F08D1FB682C
:101EEC001B68FA681268126842F480721A600BE080
:101EFC00FB681B6B112B07D1FB681B68FA68126817
:101F0C00126842F480721A603B6800937B6800226E
:101F1C004FF00111F86800F08DF80346002B01D04A
:101F2C0003237FE0FB681B69B3F5804F08D1FB6886
:101F3C001B687A89D2B242F00102D2B21A615FE018
:101F4C00FB681B687A89D211D2B202F00602D2B2B7
:101F5C0062F00F02D2B21A613B687A683349F868B2
:101F6C0000F0B9F80346002B07D0FB681B6C042B60
:101F7C0001D1012356E0032354E0FB681B687A89E6
:101F8C00D2B21A613B687A682949F86800F0A3F864
:101F9C000346002B07D0FB681B6C042B01D10123DB
:101FAC0040E003233EE000233B61FB681B685B6958
:101FBC003B61FB681B689B693B613B69FB681B6869
:101FCC00FA681268126842F480721A603B680093D7
:101FDC007B6800224FF00111F86800F02BF80346E3
:101FEC00002B01D003231DE0FB681B687A89D211FA
:101FFC00D2B202F00602D2B262F00E02D2B21A6172
:10200C003B687A680A49F86800F065F80346002BCB
:10201C0007D0FB681B6C042B01D1012302E00323C6
:10202C0000E0002318461837BD4680BD08000100AB
:10203C000200010080B584B000AFF860B9603B606D
:10204C001346FB711FE03B68B3F1FF3F1BD03B68AD
:10205C00002B07D0FEF7B2FA0246BB69D21A3B68D6
:10206C009A4210D9FB6800221A63FB68202283F87D
:10207C003D20FB68002283F83E20FB68002283F899
:10208C003C20032323E0BB681B0CDBB2012B0DD1DE
:10209C00FB681B685B69DA43BB6813409BB2002B7F
:1020AC000CBF01230023DBB21A460CE0FB681B6853
:1020BC009B69DA43BB6813409BB2002B0CBF012316
:1020CC000023DBB21A46FB799A42BCD00023184697
:1020DC001037BD4680BD80B584B000AFF860B960E4
:1020EC007A603B6040E0FB681B685B6903F48063CB
:1020FC00B3F5806F1CD1FB681B68FA681268126814
:10210C0042F400721A60FB681B686FF480625A61BB
:10211C00FB6804221A64FB6800221A63FB68202205
:10212C0083F83D20FB68002283F83C2001233CE02F
:10213C007B68B3F1FF3F17D07B68002B07D0FEF70D
:10214C003DFA02463B68D21A7B689A420CD9FB686E
:10215C0000221A63FB68202283F83D20FB680022D2
:10216C0083F83C20032320E0BB681B0CDBB2012B63
:10217C000CD1FB681B685B69DA43BB6813409BB2EC
:10218C00002B14BF01230023DBB20BE0FB681B68A0
:10219C009B69DA43BB6813409BB2002B14BF01232D
:1021AC000023DBB2002B9ED1002318461037BD460E
:1021BC0080BD80B584B000AFF860B9607A6029E06A
:1021CC00F86800F0BAF80346002B01D0012329E08F
:1021DC00BB68B3F1FF3F1DD0BB68002B07D0FEF7E7
:1021EC00EDF902467B68D21ABB689A4212D9FB6899
:1021FC001B6C43F02002FB681A64FB6800221A6314
:10220C00FB68202283F83D20FB68002283F83C20E9
:10221C00032307E0FB681B685B6903F08003802BDA
:10222C00CED1002318461037BD4680BD80B584B092
:10223C0000AFF860B9607A6029E0F86800F07DF8CA
:10224C000346002B01D0012329E0BB68B3F1FF3F0B
:10225C001DD0BB68002B07D0FEF7B0F902467B6897
:10226C00D21ABB689A4212D9FB681B6C43F020024D
:10227C00FB681A64FB6800221A63FB68202283F84F
:10228C003D20FB68002283F83C20032307E0FB6819
:10229C001B685B6903F00403042BCED100231846A2
:1022AC001037BD4680BD80B584B000AFF860B96012
:1022BC007A6036E0FB681B685B6903F01003102B37
:1022CC0014D1FB681B686FF010025A61FB68002286
:1022DC001A64FB6800221A63FB68202283F83D20F5
:1022EC00FB68002283F83C20012322E0BB68002B12
:1022FC0007D0FEF763F902467B68D21ABB689A4294
:10230C000FD9FB681B6C43F02002FB681A64FB6856
:10231C00202283F83D20FB68002283F83C20032315
:10232C0007E0FB681B685B6903F04003402BC1D1DD
:10233C00002318461037BD4680BD80B483B000AF73
:10234C0078607B681B685B6903F48063B3F5806F0E
:10235C0014D17B681B686FF480625A617B6804221D
:10236C001A647B6800221A637B68202283F83D2064
:10237C007B68002283F83C20012300E000231846F0
:10238C000C37BD465DF8047B704780B483B000AF5A
:10239C00786039607B6893F83D30DBB2202B29D113
:1023AC007B68242283F83D207B681B687A6812685E
:1023BC00126822F001021A607B681B687A68126846
:1023CC00526A22F010025A627B681B687A681268A3
:1023DC00516A3A680A435A627B681B687A681268C9
:1023EC00126842F001021A607B68202283F83D20BB
:1023FC00002300E0022318460C37BD465DF8047B31
:10240C00704780B485B000AF786039600023FB81E1
:10241C007B6893F83D30DBB2202B2AD17B682422D9
:10242C0083F83D207B681B687A681268126822F07A
:10243C0001021A607B681B685B6AFB81FB8923F0D5
:10244C000F03FB813B689AB2FB891343FB817B68CA
:10245C001B68FA895A627B681B687A681268126872
:10246C0042F001021A607B68202283F83D20002391
:10247C0000E0022318461437BD465DF8047B704714
:10248C0080B584B000AF78600023FB600023BB6094
:10249C007B68002B01D10123BFE07B6893F8A1304E
:1024AC00DBB2002B06D17B68002283F8A020786871
:1024BC0003F03AFA7B68022283F8A1207B681B6840
:1024CC007A681268926922F070429A617B681B6884
:1024DC007A68126891697A6850687A6892681043D1
:1024EC007A68D26810437A68126902430A439A6187
:1024FC007B681A687B681B6899684A4B0B40936031
:10250C007B685B691B04FB607B681B687A681268DC
:10251C0091687A689069FA6802430A439A607B680A
:10252C001A687B681B68D9683E4B0B40D3607B688C
:10253C00DB691B04FB607B681B687A681268D168D6
:10254C007A68106AFA6802430A43DA607B681A6890
:10255C007B681B681969334B0B4013617B685B6AA2
:10256C001B04FB607B681B687A68126811697A68C7
:10257C00906AFA6802430A431A617B681A687B689E
:10258C001B685969274B0B4053617B68DB6A1B0442
:10259C00FB607B681B687A68126851697A68106BFB
:1025AC00FA6802430A435A617B6893F835301B0280
:1025BC00FB607B6893F836301B04BB607B681B6840
:1025CC007A681268D26A02F07F42DA627B681B6812
:1025DC007A681268D16AB868FA680243786890F829
:1025EC00340002430A43DA627B681B687A6812681B
:1025FC00526B42F006025A637B681B687A68126859
:10260C00926942F001029A617B680022C3F8A4200F
:10261C007B68012283F8A120002318461037BD46A1
:10262C0080BD00BF00F800F080B584B000AF7860CA
:10263C007B681B689B6BFB607B681B685B6BBB6080
:10264C00FB6803F00403002B23D0BB6803F00403E6
:10265C00002B1ED07B681B687A681268526B22F0C4
:10266C0004025A637B681B680422DA637B68D3F824
:10267C00A43043F001027B68C3F8A4207B680422D9
:10268C0083F8A1207B68002283F8A020786800F0F2
:10269C006FF8FB6803F00203002B23D0BB6803F038
:1026AC000203002B1ED07B681B687A681268526B81
:1026BC0022F002025A637B681B680222DA637B6891
:1026CC00D3F8A43043F002027B68C3F8A4207B68E3
:1026DC00042283F8A1207B68002283F8A02078686C
:1026EC0000F046F8FB6803F00103002B1BD0BB681D
:1026FC0003F00103002B16D07B681B687A68126804
:10270C00526B22F001025A637B681B680122DA6368
:10271C007B68012283F8A1207B68002283F8A0202B
:10272C00786802F015FAFB6803F00803002B1BD045
:10273C00BB6803F00803002B16D07B681B687A6813
:10274C001268526B22F008025A637B681B680822DD
:10275C00DA637B68012283F8A1207B68002283F86E
:10276C00A020786800F00EF800BF1037BD4680BD81
:10277C0080B483B000AF786000BF0C37BD465DF805
:10278C00047B704780B483B000AF786000BF0C3717
:10279C00BD465DF8047B7047B0B584B000AFF860FF
:1027AC00B9607A60FB6893F8A030012B01D1022349
:1027BC002CE0FB68012283F8A020FB68022283F83E
:1027CC00A120FA687B68342101FB03F3134403F165
:1027DC003802BB6814461D460FCD0FC40FCD0FC475
:1027EC000FCD0FC42B6823607A68B968F86800F0C5
:1027FC00EFF8FB681B6801225A62FB68012283F820
:10280C00A120FB68002283F8A02000231846103773
:10281C00BD46B0BD80B483B000AF78607B6893F8E0
:10282C00A030012B01D1022316E07B68012283F832
:10283C00A0207B68022283F8A1200A4A094B9B69DD
:10284C0043F4803393617B68012283F8A1207B6879
:10285C00002283F8A020002318460C37BD465DF8F3
:10286C00047B70470068014080B586B000AFF8600B
:10287C00B9607A603B60FB6893F8A030012B01D102
:10288C00022333E0FB68012283F8A020FB680222BC
:10289C0083F8A1203B68342202FB03F33833FA6837
:1028AC0013447B617B69BA681A607B699A6ABB685E
:1028BC001A447B695A607B697A689A607B69DA6A28
:1028CC007B681A447B69DA603A687969F86800F0C9
:1028DC007FF8FB681B6801225A62FB68012283F8AF
:1028EC00A120FB68002283F8A0200023184618378B
:1028FC00BD4680BD80B586B000AFF860B9607A6027
:10290C00FB6893F8A030012B01D1022324E0FB6873
:10291C00012283F8A020FB68022283F8A1207B68A7
:10292C00342202FB03F33833FA6813447B617B696E
:10293C00BA685A627A687969F86800F049F8FB68F5
:10294C001B6801225A62FB68012283F8A120FB68F4
:10295C00002283F8A020002318461837BD4680BDFE
:10296C0080B483B000AF786039607B6893F8A03096
:10297C00012B01D1022323E07B68012283F8A020E4
:10298C007B68022283F8A1207B681B687A68126836
:10299C00526B22F001025A630C4A3B6813647B6849
:1029AC001B687A681268526B42F001025A637B68AA
:1029BC00012283F8A1207B68002283F8A020002349
:1029CC0018460C37BD465DF8047B70470068014023
:1029DC0080B489B000AFF860B9607A600023FB6105
:1029EC000023BB6100237B61BB685A68FB681B68D2
:1029FC00DB681B0CC3F30B0313441B04FB61FB6868
:102A0C001B681A467B68DB01134484331A46FB6847
:102A1C001B6819467B68DB010B4484335B6803F449
:102A2C0070435360FB681B681A467B68DB011344D8
:102A3C0084331946BB681A68FB681B68DB681B0C7F
:102A4C00C3F30B0313445A1CFB6913434B60BB6861
:102A5C00DA68FB681B68DB68C3F30A0313441B04C6
:102A6C00FB61FB681B681A467B68DB0113448433EB
:102A7C001A46FB681B6819467B68DB010B448433E0
:102A8C009B6803F470439360FB681B681A467B6871
:102A9C00DB01134484331946BB689A68FB681B68D6
:102AAC00DB68C3F30A0313445A1CFB6913438B60A2
:102ABC00FB681B681A467B68DB01134484331A4697
:102ACC00FB681B6819467B68DB010B4484331B696C
:102ADC0023F007031361FB681B681A467B68DB0154
:102AEC00134484331A46BB681B691361BB6893F8A3
:102AFC0031301B02FB61BB6893F832301B04BB61A5
:102B0C00BB689B691B067B61FB681B681A467B686C
:102B1C00DB01134484339B69FB681B681A467B6892
:102B2C00DB01134484331A4600239361FB681B6852
:102B3C001A467B68DB01134484331946BB6893F84F
:102B4C0030301A46FB691A43BB691A437B6913433D
:102B5C008B61FB681B681A467B68DB01134484336A
:102B6C001A46FB681B6819467B68DB010B448433EF
:102B7C005B6923F0FF035361FB681B681A467B6893
:102B8C00DB01134484331A46BB685B695361FB68F1
:102B9C001B681A467B68DB01134484331A46FB68B6
:102BAC001B6819467B68DB010B448433DB6923F417
:102BBC00E06323F00703D361FB681B681A467B684C
:102BCC00DB01134484331946BB68DA69BB681B6AA2
:102BDC001343CB61FB681B681A467B68DB0113440B
:102BEC0084339B6AFB681B681A467B68DB011344C1
:102BFC0084331A4600239362FB681B681A467B6871
:102C0C00DB01134484331A46BB685B6A9362BB686E
:102C1C001B69002B02D10423FB611BE0BB681B6901
:102C2C00012B02D10323FB6114E0BB681B69042B4D
:102C3C000BD0BB681B69022B07D0BB681B69032B2D
:102C4C0003D0BB681B69072B02D10223FB6101E097
:102C5C000123FB61FB681B681A467B68DB0113448C
:102C6C0084331A46FB681B6819467B68DB010B44EE
:102C7C008433DB6A03F0E023D362FB681B681A46DB
:102C8C007B68DB01134484331846BB689B6AFA6982
:102C9C0002FB03F31A04BB685968BB681B68CB1AA8
:102CAC00F96901FB03F303331343C362FB681B682D
:102CBC001A467B68DB01134484331A46FB681B6895
:102CCC0019467B68DB010B4484331B6B23F4FF63D5
:102CDC0023F007031363FB681B681A467B68DB0150
:102CEC00134484331A46BB68DB6A1363FB681B68A6
:102CFC001A467B68DB01134484331A46FB681B6855
:102D0C0019467B68DB010B4484331B6843F00103D9
:102D1C00136000BF2437BD465DF8047B704700008C
:102D2C0080B582B000AF00237B6000233B60204A5B
:102D3C001F4B1B6C43F0805313641D4B1B6C03F037
:102D4C0080533B603B681B4B01221A60FDF736FC3D
:102D5C00786009E0FDF732FC02467B68D31AB3F5C4
:102D6C007A7F01D903231FE0134B5B6803F4803394
:102D7C00B3F5803FEED1114B01221A60FDF71EFC1A
:102D8C00786009E0FDF71AFC02467B68D31AB3F5AC
:102D9C007A7F01D9032307E0074B5B6803F4003308
:102DAC00B3F5003FEED1002318460837BD4680BD71
:102DBC000038024040000E420070004044000E42B9
:102DCC0080B586B000AF78607B68002B01D1012301
:102DDC002DE27B681B6803F00103002B75D0A34B1D
:102DEC009B6803F00C03042B0CD0A04B9B6803F0E6
:102DFC000C03082B12D19D4B5B6803F48003B3F5D5
:102E0C00800F0BD1994B1B6803F40033002B5BD064
:102E1C007B685B68002B57D1012308E27B685B68F9
:102E2C00B3F5803F06D1914A904B1B6843F4803335
:102E3C0013601DE07B685B68B3F5A02F0CD18B4A47
:102E4C008A4B1B6843F480231360884A874B1B68AA
:102E5C0043F4803313600BE0844A844B1B6823F4E7
:102E6C0080331360814A814B1B6823F480231360E9
:102E7C007B685B68002B13D0FDF7A0FB386108E082
:102E8C00FDF79CFB02463B69D31A642B01D9032343
:102E9C00CDE1764B1B6803F40033002BF0D014E02B
:102EAC00FDF78CFB386108E0FDF788FB02463B69B7
:102EBC00D31A642B01D90323B9E16C4B1B6803F4BF
:102ECC000033002BF0D100E000BF7B681B6803F0DF
:102EDC000203002B63D0654B9B6803F00C03002BA3
:102EEC000BD0624B9B6803F00C03082B1CD15F4B7F
:102EFC005B6803F48003002B16D15C4B1B6803F05A
:102F0C000203002B05D07B68DB68012B01D0012369
:102F1C008DE15649554B1B6823F0F8027B681B6901
:102F2C00DB0013430B603AE07B68DB68002B20D09E
:102F3C004F4B01221A60FDF741FB386108E0FDF7A9
:102F4C003DFB02463B69D31A022B01D903236EE1E8
:102F5C00464B1B6803F00203002BF0D04349434B54
:102F6C001B6823F0F8027B681B69DB0013430B60C2
:102F7C0015E03F4B00221A60FDF720FB386108E09A
:102F8C00FDF71CFB02463B69D31A022B01D9032324
:102F9C004DE1364B1B6803F00203002BF0D17B682C
:102FAC001B6803F00803002B30D07B685B69002B97
:102FBC0016D0304B01221A60FDF700FB386108E097
:102FCC00FDF7FCFA02463B69D31A022B01D9032305
:102FDC002DE1264B5B6F03F00203002BF0D015E0C4
:102FEC00244B00221A60FDF7E9FA386108E0FDF77E
:102FFC00E5FA02463B69D31A022B01D9032316E1E9
:10300C001A4B5B6F03F00203002BF0D17B681B683B
:10301C0003F00403002B00F0A0800023FB75134B7E
:10302C001B6C03F08053002B0FD10023FB600F4A65
:10303C000E4B1B6C43F0805313640C4B1B6C03F056
:10304C008053FB60FB680123FB750B4B1B6803F47F
:10305C008073002B21D1084A074B1B6843F4807303
:10306C001360FDF7ABFA386111E000BF0038024085
:10307C0000004742800E474200700040FDF79EFA68
:10308C0002463B69D31A022B01D90323CFE06A4BCA
:10309C001B6803F48073002BF0D07B689B68012BBA
:1030AC0006D1664A654B1B6F43F0010313671CE0A6
:1030BC007B689B68052B0CD1604A604B1B6F43F0FF
:1030CC00040313675D4A5D4B1B6F43F001031367E9
:1030DC000BE05A4A594B1B6F23F001031367574AF5
:1030EC00564B1B6F23F0040313677B689B68002B04
:1030FC0015D0FDF763FA38610AE0FDF75FFA024676
:10310C003B69D31A41F28832934201D903238EE0F2
:10311C004A4B1B6F03F00203002BEED014E0FDF7BB
:10312C004DFA38610AE0FDF749FA02463B69D31AB9
:10313C0041F28832934201D9032378E03F4B1B6F55
:10314C0003F00203002BEED1FB7D012B05D13B4A92
:10315C003A4B1B6C23F0805313647B689B69002BE8
:10316C0064D0364B9B6803F00C03082B5CD07B6857
:10317C009B69022B41D1324B00221A60FDF71EFADB
:10318C00386108E0FDF71AFA02463B69D31A022BA4
:10319C0001D903234BE0294B1B6803F00073002B70
:1031AC00F0D126497B68DA697B681B6A1A437B6815
:1031BC005B6A9B011A437B689B6A5B08013B1B049F
:1031CC001A437B68DB6A1B0613434B601C4B0122C2
:1031DC001A60FDF7F3F9386108E0FDF7EFF90246E4
:1031EC003B69D31A022B01D9032320E0134B1B6834
:1031FC0003F00073002BF0D018E0114B00221A6082
:10320C00FDF7DCF9386108E0FDF7D8F902463B69B7
:10321C00D31A022B01D9032309E0084B1B6803F0D6
:10322C000073002BF0D101E0012300E000231846CD
:10323C001837BD4680BD00BF00700040003802400A
:10324C006000474280B584B000AF786039607B681D
:10325C00002B01D10123CAE0674B1B6803F00F025E
:10326C003B689A420CD2644B3A68D2B21A70624BE9
:10327C001B6803F00F023B689A4201D00123B6E0B1
:10328C007B681B6803F00203002B20D07B681B6853
:10329C0003F00403002B05D0584A584B9B6843F4A9
:1032AC00E05393607B681B6803F00803002B05D088
:1032BC00524A524B9B6843F4604393604F494F4BC7
:1032CC009B6823F0F0027B689B6813438B607B68E0
:1032DC001B6803F00103002B44D07B685B68012B57
:1032EC0007D1464B1B6803F40033002B19D1012383
:1032FC007DE07B685B68022B03D07B685B68032BEB
:10330C0007D13E4B1B6803F00073002B09D101233E
:10331C006DE03A4B1B6803F00203002B01D1012333
:10332C0065E03649354B9B6823F003027B685B688C
:10333C0013438B60FDF742F9F8600AE0FDF73EF9A4
:10334C000246FB68D31A41F28832934201D9032317
:10335C004DE02A4B9B6803F00C027B685B689B007A
:10336C009A42EBD1244B1B6803F00F023B689A4244
:10337C000CD9214B3A68D2B21A701F4B1B6803F060
:10338C000F023B689A4201D0012330E07B681B6836
:10339C0003F00403002B08D01849184B9B6823F446
:1033AC00E0527B68DB6813438B607B681B6803F01F
:1033BC000803002B09D01149104B9B6823F4604281
:1033CC007B681B69DB0013438B6000F01DF8014622
:1033DC000A4B9B681B0903F00F03094AD35C21FAC3
:1033EC0003F3084A13600020FDF7A4F800231846E5
:1033FC001037BD4680BD00BF003C02400038024083
:10340C0064A90008080000202DE9F04F87B000AF38
:10341C000022FA6000227A610022BA6000223A612E
:10342C00514A926802F00C02042A07D0082A08D0EC
:10343C00002A40F090804D4B3B618FE04C4B3B6140
:10344C008CE0494A526802F03F02FA60464A5268E0
:10345C0002F48002002A23D0434B5B689B094FF097
:10346C00000440F2FF114FF0000203EA010304EAEA
:10347C0002043F4A02FB04F1002202FB03F20A445D
:10348C003B49A3FB010153181946FB684FF000049C
:10349C001A462346FCF7A4FE03460C467B614CE01F
:1034AC00314A5268920911464FF0000240F2FF1562
:1034BC004FF0000605EA010506EA020629463246E7
:1034CC004FEA421B4BEAD16B4FEA411A51465A461E
:1034DC00AA46B34655465E464D1B62EB0606294688
:1034EC003246940144EA91648B015B1A64EB02044A
:1034FC004FEAC40949EA53794FEAC30843464C469C
:10350C0055465E46ED1846EB04062B463446A202A1
:10351C007A607A6842EA93527A609B023B6097E841
:10352C00180018462146FB684FF000041A46234643
:10353C00FCF756FE03460C467B610B4B5B681B0C81
:10354C0003F0030301335B00BB607A69BB68B2FB19
:10355C00F3F33B6102E0054B3B6100BF3B6918464E
:10356C001C37BD46BDE8F08F003802400024F40043
:10357C0040787D0180B400AF034B1B681846BD46F4
:10358C005DF8047B704700BF0800002080B500AFD9
:10359C00FFF7F0FF0146054B9B689B0A03F00703FE
:1035AC00034AD35C21FA03F3184680BD003802406D
:1035BC0074A9000880B586B000AF786000237B61E9
:1035CC0000233B617B681B6803F00103002B05D1D2
:1035DC007B681B6803F00203002B61D0A34B002215
:1035EC001A60FCF7EBFF786108E0FCF7E7FF024696
:1035FC007B69D31A022B01D9032377E19C4B1B68FF
:10360C0003F00063002BF0D17B681B6803F001030F
:10361C00002B09D096497B685B689A017B689B6894
:10362C001B071343C1F884307B681B6803F002034B
:10363C00002B1FD08E4BD3F884301B0F03F00703E5
:10364C003B618B497B685B689A017B68DB681B0676
:10365C001A433B691B071343C1F884308449844BDC
:10366C00D3F88C3023F01F027B68DB69013B1343DA
:10367C00C1F88C307D4B01221A60FCF79FFF7861FA
:10368C0008E0FCF79BFF02467B69D31A022B01D999
:10369C0003232BE1764B1B6803F00063002BF0D067
:1036AC007B681B6803F00403002B05D17B681B6847
:1036BC0003F00803002B79D06E4B00221A60FCF744
:1036CC007DFF786108E0FCF779FF02467B69D31A2D
:1036DC00022B01D9032309E1654B1B6803F000534E
:1036EC00B3F1005FEFD07B681B6803F00403002B81
:1036FC0020D05F4BD3F888301B0F03F007033B61DE
:10370C005B497B681B699A017B685B691B061A43E2
:10371C003B691B071343C1F888305549544BD3F808
:10372C008C3023F4F8527B681B6A013B1B02134359
:10373C00C1F88C307B681B6803F00803002B1ED08B
:10374C004B4BD3F888301B0E03F00F033B614849F9
:10375C007B681B699A013B691B061A437B689B6952
:10376C001B071343C1F888304149414BD3F88C30C7
:10377C0023F440327B685B6A1343C1F88C303D4BB9
:10378C0001221A60FCF71AFF786108E0FCF716FFBB
:10379C0002467B69D31A022B01D90323A6E0344BD2
:1037AC001B6803F00053B3F1005FEFD17B681B681B
:1037BC0003F02003002B00F08D800023FB602C4ACB
:1037CC002B4B1B6C43F080531364294B1B6C03F085
:1037DC008053FB60FB68284A274B1B6843F48073BB
:1037EC001360FCF7EBFE786108E0FCF7E7FE02469D
:1037FC007B69D31A022B01D9032377E01E4B1B687C
:10380C0003F48073002BF0D0194B1B6F03F440733F
:10381C003B613B69002B39D07B689B6A03F4407297
:10382C003B699A4232D0124B1B6F23F440733B61BD
:10383C00124B01221A60114B00221A600C4A3B6990
:10384C0013670B4B1B6F03F00103002B1ED0FCF70F
:10385C00B5FE786114E0FCF7B1FE02467B69D31A21
:10386C0041F2883293420BD903233FE06800474270
:10387C00003802407000474200700040400E474242
:10388C001C4B1B6F03F00203002BE4D07B689B6A7C
:10389C0003F44073B3F5407F0DD11649154B9B686B
:1038AC0023F4F8127B689B6A23F0704323F4407373
:1038BC0013438B6005E00F4A0E4B9B6823F4F813FF
:1038CC0093600C490B4B1A6F7B689B6AC3F30B0319
:1038DC0013430B677B681B6803F01003002B04D0A9
:1038EC00054A7B6893F82C30136000231846183770
:1038FC00BD4680BD00380240E011474280B582B021
:10390C0000AF786039607B68002B01D1012325E082
:10391C007B6893F82C30DBB2002B06D17B6800223D
:10392C0083F82D20786802F011FA7B68022283F864
:10393C002C207B681A687B6804331946104600F00B
:10394C00EAFC7B6818687B685B681A46396800F08B
:10395C0055FD7B68012283F82C200023184608377C
:10396C00BD4680BD80B584B000AFF860B9607A60A8
:10397C00FB6893F82C30DBB2022B01D1022318E048
:10398C00FB68022283F82C20FB681B687A68B968F4
:10399C00184600F0B2FDBB681B68022B04D1FB6813
:1039AC00052283F82C2003E0FB68012283F82C20ED
:1039BC00002318461037BD4680BD80B582B000AFDD
:1039CC00786039607B6893F82C30DBB2022B01D124
:1039DC0002230EE07B68022283F82C207B681B6894
:1039EC003968184600F0C5FD7B68012283F82C204D
:1039FC00002318460837BD4680BD80B582B000AFA5
:103A0C0078607B68002B01D1012355E07B68002294
:103A1C009A627B6893F85130DBB2002B06D17B683D
:103A2C00002283F85020786802F094F87B68022218
:103A3C0083F851207B681B687A681268126822F040
:103A4C0040021A607B681B687A6851687A689268D1
:103A5C0011437A68D26811437A68126911437A6803
:103A6C00526911437A68926902F4007211437A68C0
:103A7C00D26911437A68126A11437A68926A0A43CE
:103A8C001A607B681B687A689269120C02F0040158
:103A9C007A68526A0A435A607B681B687A681268B3
:103AAC00D26922F40062DA617B6800225A657B6875
:103ABC00012283F85120002318460837BD4680BDEB
:103ACC0080B58AB002AFF860B9603B601346FB80EA
:103ADC000023BB610023FB77FB6893F85030012B6C
:103AEC0001D1022323E1FB68012283F85020FCF76B
:103AFC0065FDB861FB6893F85130DBB2012B02D045
:103B0C000223FB770AE1BB68002B02D0FB88002B59
:103B1C0002D10123FB7701E1FB68032283F85120DA
:103B2C00FB6800225A65FB68BA681A63FB68FA885E
:103B3C009A86FB68FA88DA86FB6800229A63FB682F
:103B4C0000229A87FB680022DA87FB6800225A64FD
:103B5C00FB6800221A64FB689B68B3F5004F07D121
:103B6C00FB681B68FA681268126842F480421A609B
:103B7C00FB681B681B6803F04003402B07D0FB68F5
:103B8C001B68FA681268126842F040021A60FB68FF
:103B9C00DB68B3F5006F47D1FB685B68002B04D082
:103BAC00FB68DB8E9BB2012B38D1FB681B68BA68B3
:103BBC001288DA60BB680233BB60FB68DB8E9BB299
:103BCC00013B9AB2FB68DA8628E0FB681B689B68AD
:103BDC0003F00203022B0FD1FB681B68BA68128832
:103BEC00DA60BB680233BB60FB68DB8E9BB2013BC7
:103BFC009AB2FB68DA8611E03B68002B0BD03B686D
:103C0C00B3F1FF3F0AD0FCF7D9FC0246BB69D21ACC
:103C1C003B689A4202D30323FB777FE0FB68DB8E81
:103C2C009BB2002BD1D148E0FB685B68002B04D021
:103C3C00FB68DB8E9BB2012B3AD1FB681B680C3303
:103C4C00BA6812781A70BB680133BB60FB68DB8EF4
:103C5C009BB2013B9AB2FB68DA8629E0FB681B68D1
:103C6C009B6803F00203022B10D1FB681B680C331A
:103C7C00BA6812781A70BB680133BB60FB68DB8EC4
:103C8C009BB2013B9AB2FB68DA8611E03B68002BD1
:103C9C000BD03B68B3F1FF3F0AD0FCF78FFC024618
:103CAC00BB69D21A3B689A4202D30323FB7735E0F7
:103CBC00FB68DB8E9BB2002BD0D1BB6900933B68B9
:103CCC0001220221F86800F036F80346002B02D0DE
:103CDC000323FB7722E0BA693968F86800F094F89E
:103CEC000346002B05D00123FB77FB6820225A6585
:103CFC0014E0FB689B68002B0AD100237B61FB68F6
:103D0C001B68DB687B61FB681B689B687B617B695C
:103D1C00FB685B6D002B01D00123FB77FB68012254
:103D2C0083F85120FB68002283F85020FB7F184653
:103D3C002037BD4680BD80B584B000AFF860B96057
:103D4C007A603B604DE03B68B3F1FF3F49D03B6884
:103D5C00002B07D0FCF732FC0246BB69D21A3B6839
:103D6C009A423ED3FB681B68FA681268526822F0CC
:103D7C00E0025A60FB685B68B3F5827F11D1FB6887
:103D8C009B68B3F5004F04D0FB689B68B3F5806F5C
:103D9C0007D1FB681B68FA681268126822F04002AF
:103DAC001A60FB689B6AB3F5005F10D1FB681A6858
:103DBC00FB681B6819684DF6FF730B401360FB68BA
:103DCC001B68FA681268126842F400521A60FB68A9
:103DDC00012283F85120FB68002283F85020032332
:103DEC000EE0FB681B689A68BB681A40BB689A4275
:103DFC0001D1012200E000227B689A42A3D100236A
:103E0C0018461037BD4680BD80B586B002AFF8604D
:103E1C00B9607A607B680093BB6800228021F868E7
:103E2C00FFF789FF0346002B07D0FB685B6D43F05F
:103E3C002002FB685A65032300E000231846103764
:103E4C00BD4680BD80B582B000AF78607B68002B2A
:103E5C0001D101231DE07B6893F83930DBB2002BD4
:103E6C0006D17B68002283F83820786801F0BAFE0E
:103E7C007B68022283F839207B681A687B680433DC
:103E8C001946104600F044F97B68012283F839206A
:103E9C00002318460837BD4680BD80B582B000AF00
:103EAC0078607B681B681B6903F00203022B22D12C
:103EBC007B681B68DB6803F00203022B1BD17B6859
:103ECC001B686FF002021A617B6801221A767B680C
:103EDC001B689B6903F00303002B03D0786800F088
:103EEC00F8F805E0786800F0EAF8786800F0FBF87C
:103EFC007B6800221A767B681B681B6903F004033D
:103F0C00042B22D17B681B68DB6803F00403042BB1
:103F1C001BD17B681B686FF004021A617B6802225C
:103F2C001A767B681B689B6903F44073002B03D0E3
:103F3C00786800F0CEF805E0786800F0C0F8786892
:103F4C0000F0D1F87B6800221A767B681B681B692D
:103F5C0003F00803082B22D17B681B68DB6803F095
:103F6C000803082B1BD17B681B686FF008021A61D1
:103F7C007B6804221A767B681B68DB6903F00303F9
:103F8C00002B03D0786800F0A4F805E0786800F006
:103F9C0096F8786800F0A7F87B6800221A767B68A0
:103FAC001B681B6903F01003102B22D17B681B6864
:103FBC00DB6803F01003102B1BD17B681B686FF0C0
:103FCC0010021A617B6808221A767B681B68DB6911
:103FDC0003F44073002B03D0786800F07AF805E006
:103FEC00786800F06CF8786800F07DF87B68002247
:103FFC001A767B681B681B6903F00103012B0ED139
:10400C007B681B68DB6803F00103012B07D17B681D
:10401C001B686FF001021A61786800F046F87B6843
:10402C001B681B6903F08003802B0ED17B681B6817
:10403C00DB6803F08003802B07D17B681B686FF073
:10404C0080021A61786800F05CF97B681B681B6958
:10405C0003F04003402B0ED17B681B68DB6803F038
:10406C004003402B07D17B681B686FF040021A613C
:10407C00786800F042F87B681B681B6903F020032A
:10408C00202B0ED17B681B68DB6803F02003202BF0
:10409C0007D17B681B686FF020021A61786800F00A
:1040AC0026F900BF0837BD4680BD80B483B000AF91
:1040BC00786000BF0C37BD465DF8047B704780B458
:1040CC0083B000AF786000BF0C37BD465DF8047B51
:1040DC00704780B483B000AF786000BF0C37BD462A
:1040EC005DF8047B704780B483B000AF786000BF8C
:1040FC000C37BD465DF8047B704780B483B000AFCD
:10410C00786000BF0C37BD465DF8047B704700003B
:10411C0080B485B000AF786039600023FB607B68A9
:10412C001B68FB607B68444A934213D07B68B3F1F5
:10413C00804F0FD07B68414A93420BD07B68404A3A
:10414C00934207D07B683F4A934203D07B683E4A38
:10415C00934201D1012300E00023002B08D0FB681F
:10416C0023F07003FB603B685B68FA681343FB60E9
:10417C007B68314A93422BD07B68B3F1804F27D0B8
:10418C007B682E4A934223D07B682D4A93421FD0E2
:10419C007B682C4A93421BD07B682B4A934217D0E6
:1041AC007B682A4A934213D07B68294A93420FD0EA
:1041BC007B68284A93420BD07B68274A934207D0EE
:1041CC007B68264A934203D07B68254A934201D1EF
:1041DC00012300E00023002B08D0FB6823F440737C
:1041EC00FB603B68DB68FA681343FB607B68FA682A
:1041FC001A603B689A687B68DA623B681A687B686D
:10420C009A627B680C4A934203D07B680E4A9342B5
:10421C0001D1012300E00023002B03D03B681A6975
:10422C007B681A637B6801225A6100BF1437BD4654
:10423C005DF8047B704700BF0000014000040040A3
:10424C0000080040000C0040000401400040014008
:10425C00004401400048014000180040001C004090
:10426C000020004080B483B000AF786039607B6878
:10427C0093F83830012B01D1022332E07B68012204
:10428C0083F838207B68022283F839207B681B680E
:10429C007A681268526822F070025A607B681B6858
:1042AC007A68126851683A6812680A435A607B68E7
:1042BC001B687A681268926822F080029A607B68A8
:1042CC001B687A68126891683A6852680A439A6067
:1042DC007B68012283F839207B68002283F8382020
:1042EC00002318460C37BD465DF8047B704780B43C
:1042FC0083B000AF786000BF0C37BD465DF8047B1F
:10430C00704780B483B000AF786000BF0C37BD46F7
:10431C005DF8047B704780B485B000AF786039607D
:10432C000023FB600023BB603B681B68012B29D07A
:10433C007B681B68FB60FB6823F4FF4323F07F035F
:10434C00FB603B685A683B689B681A433B68DB68B8
:10435C001A433B681B691A433B685B691A433B6809
:10436C009B691A433B68DB691A433B681B6A1A4317
:10437C003B685B6A1343FA681343FB607B68FA681B
:10438C001A6034E07B681B68FB60FB6823F4F8431D
:10439C00FB603B68DA693B681B6A1A433B685B6AE3
:1043AC001343FA681343FB607B685B68BB60BB68B4
:1043BC0023F4FF4323F07F03BB603B685A683B68E0
:1043CC009B681A433B68DB681A433B681B691A43BA
:1043DC003B685B691A433B689B691343BA68134398
:1043EC00BB607B68FA681A607B68BA685A60002305
:1043FC0018461437BD465DF8047B704780B487B00F
:10440C0000AFF860B9607A6000237B6100233B61E8
:10441C007B68012B2ED0FB689B687B617B6903F06A
:10442C0070437B61BB681B685A1EBB685B68013BB1
:10443C001B011A43BB689B68013B1B021A43BB68F8
:10444C00DB68013B1B031A43BB681B69013B1B0464
:10445C001A43BB685B69013B1B051A43BB689B692C
:10446C00013B1B0613437A6913437B61FB687A6932
:10447C009A603BE0FB689B687B617B6923F470036B
:10448C0023F470437B61BB68DB68013B1A03BB6898
:10449C005B69013B1B0513437A6913437B61FB6822
:1044AC00DB683B613B6903F070433B61BB681B6895
:1044BC005A1EBB685B68013B1B011A43BB689B68B7
:1044CC00013B1B021A43BB681B69013B1B041A43CB
:1044DC00BB689B69013B1B0613433A6913433B6161
:1044EC00FB687A699A60FB683A69DA6000231846BF
:1044FC001C37BD465DF8047B704780B586B000AFB5
:10450C00F860B9607A6000233B6100237B61BB6873
:10451C001A68BB685B681A43BB689B68013B5B010C
:10452C001A43BB68DB685B0213433B613A69FB6867
:10453C001A61FCF743F8786110E07B68B3F1FF3F38
:10454C000CD07B68002B07D0FCF738F802467B694F
:10455C00D21A7B689A4201D9032306E0FB689B6957
:10456C0003F02003002BE8D1002318461837BD4672
:10457C0080BD80B483B000AF786039607B685A69C5
:10458C003B685B001A437B685A61002318460C3762
:10459C00BD465DF8047B704780B500AF4FF4FC312D
:1045AC00034803F06BFB034803F0AAF800BF80BD7F
:1045BC003800002090A9000880B400AF00BFBD46B1
:1045CC005DF8047B7047000080B500AF274B284A8C
:1045DC001A60264B00225A60244B00229A60234B0F
:1045EC000022DA60214B00221A61204B08225A610A
:1045FC001E4B00229A611D4B1D22DA611B4B0322BC
:10460C001A621A4B40F20D125A62184B40F24312C6
:10461C009A62164B40F21712DA62144B40F24712B0
:10462C001A63124B002283F83420104B002283F8BB
:10463C0035200E4B002283F836200C48FDF720FF66
:10464C0000210A48FEF78CF90848FEF7E3F801222E
:10465C0004210848FCF76AFF00224FF40051064879
:10466C00FCF764FF00F0AEFA00BF80BD98F90120A2
:10467C000068014000080240000C024080B500AF09
:10468C001C4B00221A601B4BF0225A60194B002263
:10469C009A60184B4FF4A072DA60164B00221A6124
:1046AC00144BFF225A61134B00229A61114B4FF4A9
:1046BC00C062DA610F4B07221A620E4B0E4A5A6225
:1046CC000C4BF0229A620B4B4FF4A072DA62094B3E
:1046DC00002283F83020074B002283F83120054B51
:1046EC00002283F83220002202490448FEF754F8D5
:1046FC0000BF80BD64F90120000005D098F90120AD
:10470C0080B58AB002AFF860B9607A6002F0B8FB8D
:10471C000346DB104FF4963202FB03F3FB61BB68DC
:10472C00FA6902FB03F303F1504303F50033BB6159
:10473C007B68FA6902FB03F303F1504303F5003382
:10474C007B61B86979690023019300230093F023FE
:10475C004FF4A07200F00AF8034A7B68136000BFA4
:10476C002037BD4680BD00BF38F8012080B485B02D
:10477C0000AFF860B9607A603B60164B4FF4007282
:10478C001A60144AFB68D360124ABB68D363114A9F
:10479C00BB6913610F4AFB6913640E4B0022DA618B
:1047AC000C4A7B681B04396889B20B435364094A71
:1047BC00084B1B6843F00103136000BF054B1B68DB
:1047CC0003F00103002BF9D100BF1437BD465DF88F
:1047DC00047B704700B00240B0B588B002AFF860FF
:1047EC00B9607A603B607A6813469B0013449B0166
:1047FC001A46BB68D41802F043FB0346DB1003FBDC
:10480C0004F303F1504303F500337B61BA6A13469A
:10481C009B0013449B011A463B68D41802F030FBF2
:10482C000346DB1003FB04F303F1504303F50033A1
:10483C003B6178693969FA6A3C6BFB6AC3F5A07312
:10484C001D46FB6AC3F5A073019300952346FFF741
:10485C008DFF00BF1837BD46B0BD0000B0B58AB0A3
:10486C0002AFF860B9607A603B6002F009FB034666
:10487C00DB104FF4963202FB03F31B4A126802FB67
:10488C0003F31D467A6813469B0013449B011A469A
:10489C00BB68D41802F0F4FA0346DB1003FB04F3F4
:1048AC002B4403F1504303F50033FB61BB6B002B2E
:1048BC0000DA03339B101A463B6BD31ABB613B6B7C
:1048CC00C3F5A0737B61F969386B7C6BBB697A6942
:1048DC0001920093234602463868FFF747FF00BF5A
:1048EC002037BD46B0BD00BF38F8012080B500AF01
:1048FC00FFF76AFE002300221649174802F096FEC5
:10490C00F0224FF4A071002002F012FAF0224FF4C2
:10491C00A071002002F024FA1049002002F0F2F9F4
:10492C00012002F0F3FD0E4A2121002002F060FA72
:10493C000C4A2321002002F05BFA0B4A19210020BB
:10494C0002F056FA094A2821002002F051FA00BF61
:10495C0080BD00BFDCB1000894B00008000002D09C
:10496C000D470008E5470008D54A000869480008CB
:10497C0080B58AB000AFF860B9607A60BB68013B63
:10498C000D2B5ED801A252F823F000BFD1490008CC
:10499C00D9490008E1490008FB490008034A00080E
:1049AC00174A00082B4A00084F4A00084F4A0008D3
:1049BC004F4A00084F4A00084F4A00084F4A000867
:1049CC00EF490008FFF75AFE00233EE07B687B624C
:1049DC0000233AE000221F491F48FDF78BFF0023FC
:1049EC0033E07B681B681D4A136000232DE07B6855
:1049FC003B62002329E0184B1B68174A1268926926
:104A0C0042F001029A6100231FE0134B1B68124A0B
:104A1C001268926922F001029A61002315E007F1F5
:104A2C00140207F118031946002002F015FDBB69AA
:104A3C0019467B691A4600230748FDF715FF00232A
:104A4C0003E04FF0FF33FB61FB6918462837BD4686
:104A5C0080BD00BF000002D098F901203CF8012075
:104A6C0080B485B000AFF860B9607A603B60144BDD
:104A7C00144A1A60124ABB699363114AFB68D363E8
:104A8C000F4A3B6813640E4B00225A630C4ABB68F6
:104A9C001B04796889B20B435364094A084B1B68A1
:104AAC0043F00103136000BF054B1B6803F00103C7
:104ABC00002BF9D100BF1437BD465DF8047B70475D
:104ACC0000B0024000020300B0B58AB002AFF8603B
:104ADC00B9607A603B603A68BB68D31A0133FB61FA
:104AEC003A6B7B68D31A0133BB6102F0C9F90346F8
:104AFC00DB104FF4963202FB03F3144A126802FBEC
:104B0C0003F31D467A6813469B0013449B011A4617
:104B1C00BB68D41802F0B4F90346DB1003FB04F3B2
:104B2C002B4403F1504303F500337B617869F96939
:104B3C00BA69FB69C3F5A0731C467B6B00932346D3
:104B4C00FFF78EFF00BF2037BD46B0BD38F80120FF
:104B5C0090B585B000AF7860194B1B68002B27DB34
:104B6C00174B1B684FF4963202FB03F402F088F9E2
:104B7C000346DB1003FB04F303F1504303F500334E
:104B8C00FB607B681B6884331A46FB6893627B6806
:104B9C001B687A681268526A42F001025A62084B2A
:104BAC001B68184602F0AAFC054B4FF0FF321A6046
:104BBC0000217868FDF7D4FE00BF1437BD4690BDC8
:104BCC003CF8012080B500AFCA2000F043F9C320A7
:104BDC0000F06AF9082000F067F9502000F064F941
:104BEC00CF2000F037F9002000F05EF9C12000F072
:104BFC005BF9302000F058F9ED2000F02BF964201F
:104C0C0000F052F9032000F04FF9122000F04CF99B
:104C1C00812000F049F9E82000F01CF9852000F013
:104C2C0043F9002000F040F9782000F03DF9CB204A
:104C3C0000F010F9392000F037F92C2000F034F98D
:104C4C00002000F031F9342000F02EF9022000F0A1
:104C5C002BF9F72000F0FEF8202000F025F9EA20CF
:104C6C0000F0F8F8002000F01FF9002000F01CF90B
:104C7C00B12000F0EFF8002000F016F91B2000F036
:104C8C0013F9B62000F0E6F80A2000F00DF9A22086
:104C9C0000F00AF9C02000F0DDF8102000F004F953
:104CAC00C12000F0D7F8102000F0FEF8C52000F06D
:104CBC00D1F8452000F0F8F8152000F0F5F8C720E1
:104CCC0000F0C8F8902000F0EFF8362000F0C2F8A1
:104CDC00C82000F0E9F8F22000F0BCF8002000F049
:104CEC00E3F8B02000F0B6F8C22000F0DDF8B620F2
:104CFC0000F0B0F80A2000F0D7F8A72000F0D4F8A4
:104D0C00272000F0D1F8042000F0CEF82A2000F083
:104D1C00A1F8002000F0C8F8002000F0C5F8002031
:104D2C0000F0C2F8EF2000F0BFF82B2000F092F852
:104D3C00002000F0B9F8002000F0B6F8012000F0D7
:104D4C00B3F83F2000F0B0F8F62000F083F8012013
:104D5C0000F0AAF8002000F0A7F8062000F0A4F854
:104D6C002C2000F077F86420FBF734FC262000F0B0
:104D7C0071F8012000F098F8E02000F06BF80F209B
:104D8C0000F092F8292000F08FF8242000F08CF825
:104D9C000C2000F089F80E2000F086F8092000F0B5
:104DAC0083F84E2000F080F8782000F07DF83C204D
:104DBC0000F07AF8092000F077F8132000F074F86E
:104DCC00052000F071F8172000F06EF8112000F0AB
:104DDC006BF8002000F068F8E12000F03BF80020B0
:104DEC0000F062F8162000F05FF81B2000F05CF871
:104DFC00042000F059F8112000F056F8072000F0BC
:104E0C0053F8312000F050F8332000F04DF84220D8
:104E1C0000F04AF8052000F047F80C2000F044F8A8
:104E2C000A2000F041F8282000F03EF82F2000F076
:104E3C003BF80F2000F038F8112000F00BF864203C
:104E4C00FBF7C8FB292000F005F82C2000F002F835
:104E5C0000BF80BD80B584B000AF0346FB71FB7909
:104E6C003B7300237B7300224FF400510B48FCF77B
:104E7C005DFB002204210A48FCF758FB07F10C01EA
:104E8C00642301220748FEF71BFE0122042104487B
:104E9C00FCF74CFB00BF1037BD4680BD000C024038
:104EAC000008024058FB012080B584B000AF0346D7
:104EBC00FB71FB793B7300237B7301224FF4005190
:104ECC000B48FCF733FB002204210A48FCF72EFBAD
:104EDC0007F10C01642301220748FEF7F1FD0122C2
:104EEC0004210448FCF722FB00BF1037BD4680BDEF
:104EFC00000C02400008024058FB012080B582B033
:104F0C0000AFFBF7F5FA00F049F800F0D1FA00F029
:104F1C005FFA00F03FF900F0F3F900F081FA00F0CD
:104F2C00C7F800F0F7F800F021FA194800F076FB0A
:104F3C0000224FF050411748FDF7DCFC01F062F8FD
:104F4C0000237B60144A144B1B6B43F48053136394
:104F5C00114B1B6B03F480537B607B6802F042FCAB
:104F6C004FF4000002F076FA02F002FC6FF07F4082
:104F7C0002F03EFAC821C82001F0F4FF0021002005
:104F8C0001F0F0FF0121012001F0ECFFFEE700BF72
:104F9C002CFC012098F901200038024080B5A0B00B
:104FAC0000AF07F1500330220021184605F0B9FC80
:104FBC0007F13C0300221A605A609A60DA601A61A9
:104FCC0007F10C0330220021184605F0AAFC00233F
:104FDC00BB60354A344B1B6C43F080531364324B2B
:104FEC001B6C03F08053BB60BB6800237B602F4AB3
:104FFC002E4B1B6843F4404313602C4B1B6803F48B
:10500C0040437B607B6802233B650123FB651023D7
:10501C003B660223BB660023FB6608233B67B42375
:10502C007B670223BB670423FB6707F15003184619
:10503C00FDF7C6FE0346002B01D000F0E7FAFDF7A2
:10504C006FFE0346002B01D000F0E0FA0F23FB6348
:10505C0002233B6400237B644FF4A053BB644FF4E6
:10506C008053FB6407F13C0305211846FEF7EAF870
:10507C000346002B01D000F0C9FA0823FB603C2347
:10508C00FB6102237B624FF480333B6307F10C031B
:10509C001846FEF78FFA0346002B01D000F0B6FA43
:1050AC0000BF8037BD4680BD003802400070004014
:1050BC0080B500AF154B164A1A60144B00225A608B
:1050CC00124B00229A60114B0022DA600F4B002227
:1050DC009A620E4B0022DA620C4B01221A630B4BC4
:1050EC0000225A630948FBF78BFE0346002B01D0C4
:1050FC0000F08CFA01210548FBF7DCFF0346002B7E
:10510C0001D000F083FA00BF80BD00BFECFB012092
:10511C0000B0024080B500AF1B4B1C4A1A601A4B02
:10512C001B4A5A60184B00229A60174B8222DA6095
:10513C00154B4FF480421A61134B00225A61124BEB
:10514C0000229A61104B0022DA610F4B00221A6286
:10515C000D48FCF705FA0346002B01D000F056FA77
:10516C0000210948FDF711F90346002B01D000F08E
:10517C004DFA00210448FDF744F90346002B01D0F9
:10518C0000F044FA00BF80BDA4FA0120005C00408E
:10519C00A086010080B59AB000AF07F13403342229
:1051AC000021184605F0BDFB3B4634220021184671
:1051BC0005F0B7FB504B514A1A604F4B00225A6016
:1051CC004D4B00229A604C4B0022DA604A4B002275
:1051DC001A61494B08225A61474B00229A61464B8F
:1051EC001D22DA61444B03221A62434B40F20D122A
:1051FC005A62414B40F243129A623F4B40F21712F3
:10520C00DA623D4B40F247121A633B4B002283F8A3
:10521C003420394B002283F83520374B002283F899
:10522C0036203548FDF72CF90346002B01D000F051
:10523C00EDF900237B63F023BB630023FB634FF486
:10524C00A0733B6400237B64FF23BB640023FB64DB
:10525C004FF4C0633B6507237B650023BB65F023DC
:10526C00FB654FF4A0733B66002387F86430002382
:10527C0087F86530002387F8663007F13403002285
:10528C0019461D48FDF788FA0346002B01D000F0A3
:10529C00BDF900233B60F0237B600023BB604FF41F
:1052AC00A073FB6003233B6100237B610023BB6184
:1052BC004FF48063FB6105233B6200237B62F02388
:1052CC00BB624FF4A073FB62002387F830300023DD
:1052DC0087F83130002387F832303B4601221946DB
:1052EC000548FDF759FA0346002B01D000F08EF962
:1052FC0000BF6837BD4680BD98F9012000680140A9
:10530C0080B500AF174B184A1A60164B4FF48272D7
:10531C005A60144B00229A60124B0022DA60114B37
:10532C0000221A610F4B00225A610E4B4FF400728F
:10533C009A610C4B1822DA610A4B00221A62094B53
:10534C0000225A62074B00229A62064B0A22DA624A
:10535C000448FEF752FB0346002B01D000F056F92F
:10536C0000BF80BD58FB01200050014080B582B0C9
:10537C0000AF3B4600221A605A60134B134A1A6066
:10538C00114B42F210725A600F4B00229A600E4B76
:10539C00C822DA600C48FEF755FD0346002B01D0FD
:1053AC0000F034F910233B6000237B603B46194628
:1053BC000548FEF757FF0346002B01D000F026F9F5
:1053CC0000BF0837BD4680BDB0FB01200010004077
:1053DC0080B582B000AF00237B60104A0F4B1B6B73
:1053EC0043F4001313630D4B1B6B03F400137B602E
:1053FC007B68002200210D20FBF7E3F90D20FBF761
:10540C00FCF9002200210F20FBF7DBF90F20FBF742
:10541C00F4F900BF0837BD4680BD00BF003802401C
:10542C0080B588B000AF204B204A1A601E4B012279
:10543C005A601D4B00229A601B4B0422DA601A4BF7
:10544C0010221A61184B40225A61174B4FF4C0724C
:10545C009A61154B0022DA61134B4FF400621A6209
:10546C00114B00225A62104B4FF400529A620223E5
:10547C007B600723BB600423FB6007233B61032392
:10548C007B610223BB610223FB613B1D194606486D
:10549C00FEF734FA0346002B01D000F0B7F800BF3A
:1054AC002037BD4680BD00BF2CFC0120400100A070
:1054BC0080B58CB000AF07F11C0300221A605A6053
:1054CC009A60DA601A610023BB614C4A4B4B1B6B30
:1054DC0043F020031363494B1B6B03F02003BB61A8
:1054EC00BB6900237B61454A444B1B6B43F00403AF
:1054FC001363424B1B6B03F004037B617B6900233A
:10550C003B613E4A3D4B1B6B43F0010313633B4B2A
:10551C001B6B03F001033B613B690023FB60374AC3
:10552C00364B1B6B43F002031363344B1B6B03F0C2
:10553C000203FB60FB680023BB60304A2F4B1B6BE4
:10554C0043F0400313632D4B1B6B03F04003BB6014
:10555C00BB6800237B60294A284B1B6B43F010036C
:10556C001363264B1B6B03F010037B607B680023DB
:10557C003B60224A214B1B6B43F0080313631F4B08
:10558C001B6B03F008033B603B68012204211C48A1
:10559C00FBF7CCFF00224FF400511A48FBF7C6FF73
:1055AC000423FB6101233B6200237B620223BB6269
:1055BC0007F11C0319461248FBF70EFE4FF400537B
:1055CC00FB6101233B6200237B620223BB6207F178
:1055DC001C0319460B48FBF7FFFD4FF40043FB611E
:1055EC0000233B6200237B6207F11C03194606482B
:1055FC00FBF7F2FD00BF3037BD4680BD00380240DE
:10560C0000080240000C02400000024080B400AFD1
:10561C0000BFBD465DF8047B7047000080B584B0C8
:10562C0000AF78600023FB602F4B01221A602E4BD9
:10563C0008225A602C4B01229A602B4B0022DA6014
:10564C004FF6FF7228497868FEF78CF90A20FAF7B2
:10565C00C1FF254B02221A60234B08225A60224BB1
:10566C0001229A60204B0022DA604FF6FF721E492D
:10567C007868FEF777F90A20FAF7ACFF1A4B032289
:10568C001A60194B08225A60174B04229A60164B69
:10569C000022DA604FF6FF7213497868FEF762F960
:1056AC000A20FAF797FF40F23123FB600E4B0422DD
:1056BC001A600D4B08225A600B4B01229A60FB6852
:1056CC00094AD3604FF6FF7207497868FEF74AF92A
:1056DC000A20FAF77FFF40F26A517868FEF76DF9FD
:1056EC0000BF1037BD4680BD60FC012080B483B084
:1056FC0000AF00237B60104A0F4B5B6C43F480437C
:10570C0053640D4B5B6C03F480437B607B6800231C
:10571C003B60094A084B1B6C43F080531364064BE7
:10572C001B6C03F080533B603B6800BF0C37BD46DD
:10573C005DF8047B704700BF0038024080B584B030
:10574C0000AF78607B681B680E4A934215D100232A
:10575C00FB600D4A0C4B1B6B43F4000313630A4BA9
:10576C001B6B03F40003FB60FB68002200215A2032
:10577C00FBF727F85A20FBF740F800BF1037BD465F
:10578C0080BD00BF00B002400038024080B58AB036
:10579C0000AF786007F1140300221A605A609A6017
:1057AC00DA601A617B681B68574A934240F0A88004
:1057BC0000233B61554A554B1B6B43F004031363A9
:1057CC00524B1B6B03F004033B613B690023FB60F2
:1057DC004E4A4E4B1B6B43F0010313634B4B1B6B3D
:1057EC0003F00103FB60FB684FF400737B61122331
:1057FC00BB610123FB6103233B6204237B6207F142
:10580C00140319464248FBF7E7FC4FF480737B61A5
:10581C001223BB610123FB6103233B6204237B62E4
:10582C0007F1140319463B48FBF7D6FC0023BB6079
:10583C00364A364B1B6C43F400031364334B1B6C1E
:10584C0003F40003BB60BB68334B344A1A60324B21
:10585C004FF0C0625A60304B00229A602E4B0022EF
:10586C00DA602D4B4FF480621A612B4B00225A6187
:10587C00294B00229A61284B0022DA61264B002228
:10588C001A62254B00225A622348FAF7D1FF0346CD
:10589C00002B01D0FFF7BAFE7B681F4A9A631E4AA1
:1058AC007B6893631E4B1F4A1A601D4B4FF0C062FE
:1058BC005A601B4B40229A60194B0022DA60184B3D
:1058CC004FF480621A61164B00225A61144B00226D
:1058DC009A61134B0022DA61114B00221A62104BB1
:1058EC0000225A620E48FAF7A3FF0346002B01D0A0
:1058FC00FFF78CFE7B680A4A5A63094A7B689363FC
:10590C0000BF2837BD4680BD005C00400038024017
:10591C000008024000000240F8FA012040600240FA
:10592C0044FA01207060024080B58EB000AF786000
:10593C0007F1240300221A605A609A60DA601A6137
:10594C007B681B687B4A934240F0F08000233B62EB
:10595C00794A794B5B6C43F080635364764B5B6C98
:10596C0003F080633B623B6A0023FB61724A724B1B
:10597C001B6B43F0200313636F4B1B6B03F0200373
:10598C00FB61FB690023BB616B4A6B4B1B6B43F0E8
:10599C0001031363684B1B6B03F00103BB61BB6911
:1059AC0000237B61644A644B1B6B43F0020313635B
:1059BC00614B1B6B03F002037B617B6900233B6132
:1059CC005D4A5D4B1B6B43F0400313635A4B1B6BDF
:1059DC0003F040033B613B690023FB60564A564B86
:1059EC001B6B43F004031363534B1B6B03F0040357
:1059FC00FB60FB680023BB604F4A4F4B1B6B43F0B3
:105A0C00080313634C4B1B6B03F00803BB60BB68B0
:105A1C004FF480637B620223BB620023FB62022390
:105A2C003B630E237B6307F1240319464348FBF7C2
:105A3C00D3FB41F658037B620223BB620023FB625B
:105A4C0002233B630E237B6307F1240319463C4876
:105A5C00FBF7C2FB03237B620223BB620023FB62C6
:105A6C0002233B6309237B6307F124031946354862
:105A7C00FBF7B2FB4FF470637B620223BB62002323
:105A8C00FB6202233B630E237B6307F1240319465D
:105A9C002C48FBF7A1FB4FF40C637B620223BB6227
:105AAC000023FB6202233B630E237B6307F1240379
:105ABC0019462548FBF790FB4FF498637B62022351
:105ACC00BB620023FB6202233B630E237B6307F163
