:020000040800F2
:1000000000000320053C0008293B0008373B00089E
:100010003D3B0008433B0008493B0008000000004E
:100020000000000000000000000000004F3B00083E
:100030005D3B0008000000006B3B0008793B0008B6
:10004000553C0008553C0008553C0008553C00084C
:10005000553C0008553C0008553C0008553C00083C
:10006000553C0008553C0008553C0008553C00082C
:10007000553C0008553C0008553C0008553C00081C
:10008000553C0008553C0008553C0008553C00080C
:10009000553C0008553C0008553C0008553C0008FC
:1000A000553C0008553C0008553C0008553C0008EC
:1000B000553C0008553C0008553C0008553C0008DC
:1000C000553C0008553C0008553C0008553C0008CC
:1000D000553C0008553C0008553C0008553C0008BC
:1000E000553C0008553C0008553C0008553C0008AC
:1000F000553C0008553C0008553C0008553C00089C
:10010000553C0008553C0008553C0008553C00088B
:10011000553C0008553C0008553C0008553C00087B
:10012000553C0008553C0008553C0008553C00086B
:10013000553C0008553C0008553C0008553C00085B
:10014000553C0008553C0008553C0008553C00084B
:10015000553C0008553C0008553C0008553C00083B
:10016000553C0008553C0008553C0008553C00082B
:10017000553C0008553C0008553C000800000000B4
:10018000553C0008553C0008553C0008553C00080B
:10019000553C0008553C0008553C0008553C0008FB
:0C01A000553C0008553C0008853B000859
:1001AC0010B5054C237833B9044B13B10448AFF3A5
:1001BC0000800123237010BD0C0000200000000003
:1001CC00B03C000808B5034B1BB103490348AFF31F
:1001DC00008008BD0000000010000020B03C0008AA
:1001EC0053B94AB9002908BF00281CBF4FF0FF3192
:1001FC004FF0FF3000F07AB9ADF1080C6DE904CE88
:10020C0000F006F8DDF804E0DDE9022304B07047E5
:10021C002DE9F0478C460D460446089E002B51D123
:10022C008A4217466DD9B2FA82FEBEF1000F0BD08E
:10023C00CEF1200C01FA0EF520FA0CFC02FA0EF7A6
:10024C004CEA050C00FA0EF44FEA174A250CBCFBDD
:10025C00FAF81FFA87F90AFB18CC45EA0C4508FB9B
:10026C0009F3AB420AD9ED1908F1FF3280F0238172
:10027C00AB4240F22081A8F102083D44ED1AA4B231
:10028C00B5FBFAF00AFB105544EA054400FB09F9EA
:10029C00A14509D9E41900F1FF3380F00A81A14589
:1002AC0040F2078102383C44A4EB090440EA0840C0
:1002BC000021002E61D024FA0EF400233460736008
:1002CC00BDE8F0878B4207D9002E54D0002186E878
:1002DC0021000846BDE8F087B3FA83F1002940F00D
:1002EC008E80AB4202D3824200F2FA80841A65EB14
:1002FC0003050120AC46002E3FD086E81010BDE867
:10030C00F08712B90127B7FBF2F7B7FA87FEBEF1F7
:10031C00000F34D1EB1B3A0C1FFA87FC0121B3FB05
:10032C00F2F8250C02FB183345EA03450CFB08F3E5
:10033C00AB4207D9ED1908F1FF3002D2AB4200F203
:10034C00D1808046ED1AA3B2B5FBF2F002FB10553A
:10035C0043EA05440CFB00FCA44507D9E41900F161
:10036C00FF3302D2A44500F2B8801846A4EB0C046B
:10037C0040EA08409DE731463046BDE8F087CEF1B3
:10038C00200405FA0EF307FA0EF720FA04F83A0CDB
:10039C0025FA04F448EA0308B4FBF2F14FEA1845D5
:1003AC0002FB11441FFA87FC45EA044501FB0CF3E0
:1003BC00AB4200FA0EF409D9ED1901F1FF3080F0CF
:1003CC008A80AB4240F2878002393D44EB1A1FFA17
:1003DC0088F5B3FBF2F002FB103345EA034500FB52
:1003EC000CF3AB4207D9ED1900F1FF386FD2AB42D9
:1003FC006DD902383D44EB1A40EA01418FE7C1F157
:10040C00200722FA07F88B4005FA01F448EA0303A7
:10041C0020FA07FE4FEA134CFD404EEA040EB5FBE2
:10042C00FCF94FEA1E440CFB19551FFA83F844EAF9
:10043C00054509FB08F4AC4202FA01F200FA01FA94
:10044C0008D9ED1809F1FF3043D2AC4241D9A9F1DA
:10045C0002091D442D1B1FFA8EFEB5FBFCF00CFB94
:10046C0010554EEA054400FB08F8A04507D9E418DE
:10047C0000F1FF3529D2A04527D902381C4440EAA7
:10048C000940A4EB0804A0FB02894C45C6464D4626
:10049C0015D312D056B1BAEB0E0364EB050404FA73
:1004AC0007F7CB401F43CC40376074600021BDE898
:1004BC00F0871846F8E69046E0E6C245EAD2B8EB7B
:1004CC00020E69EB03050138E4E72846D7E74046FE
:1004DC0091E78146BEE7014678E702383C4445E7A0
:1004EC00084608E7A8F102083D442BE7704700BF17
:1004FC0080B500AF0E4A0E4B1B6843F400731360BB
:10050C000B4A0B4B1B6843F480631360084A084B7F
:10051C001B6843F480731360032000F047F900203C
:10052C0000F008F803F0BEF80023184680BD00BFA9
:10053C00003C024080B582B000AF7860124B1A6864
:10054C00124B1B7819464FF47A73B3FBF1F3B2FBE1
:10055C00F3F3184600F05FF90346002B01D001239A
:10056C000EE07B680F2B0AD8002279684FF0FF3021
:10057C0000F027F9064A7B681360002300E0012392
:10058C0018460837BD4680BD080000200400002036
:10059C000000002080B400AF064B1B781A46064BB7
:1005AC001B681344044A136000BFBD465DF8047B0E
:1005BC00704700BF040000202C00002080B400AF66
:1005CC00034B1B681846BD465DF8047B704700BFA3
:1005DC002C00002080B584B000AF7860FFF7EEFFF0
:1005EC00B8607B68FB60FB68B3F1FF3F05D0094B3B
:1005FC001B781A46FB681344FB6000BFFFF7DEFF55
:10060C000246BB68D21AFB689A42F7D300BF103778
:10061C00BD4680BD0400002080B485B000AF78607A
:10062C007B6803F00703FB600C4BDB68BB60BA68AC
:10063C004FF6FF031340BB60FB681A02BB68134301
:10064C0043F0BF6343F40033BB60044ABB68D36020
:10065C0000BF1437BD465DF8047B704700ED00E029
:10066C0080B400AF044BDB681B0A03F00703184689
:10067C00BD465DF8047B704700ED00E080B483B0AC
:10068C0000AF0346FB71094997F907305B09FA790A
:10069C0002F01F02012000FA02F241F8232000BFF1
:1006AC000C37BD465DF8047B704700BF00E100E0ED
:1006BC0080B483B000AF03463960FB7197F9073003
:1006CC00002B0BDA0D49FB7903F00F03043B3A685E
:1006DC00D2B21201D2B20B441A7609E0084997F94A
:1006EC0007303A68D2B21201D2B20B4483F800231D
:1006FC0000BF0C37BD465DF8047B704700ED00E091
:10070C0000E100E080B489B000AFF860B9607A60B5
:10071C00FB6803F00703FB61FB69C3F10703042BC0
:10072C0028BF0423BB61FB690433062B02D9FB6988
:10073C00033B00E000237B610122BB6902FA03F357
:10074C005A1EBB681A407B699A4001217B6901FAE9
:10075C0003F3591E7B680B40134318462437BD46E0
:10076C005DF8047B7047000080B582B000AF786004
:10077C007B68013BB3F1807F01D301230FE00A4A70
:10078C007B68013B53600F214FF0FF30FFF790FF68
:10079C00054B00229A60044B07221A60002318466E
:1007AC000837BD4680BD00BF10E000E080B582B0C8
:1007BC0000AF78607868FFF72FFF00BF0837BD46A1
:1007CC0080BD80B586B000AF0346B9607A60FB731C
:1007DC0000237B61FFF744FF78617A68B968786918
:1007EC00FFF790FF024697F90F3011461846FFF7B6
:1007FC005FFF00BF1837BD4680BD80B582B000AF2B
:10080C000346FB7197F907301846FFF737FF00BF17
:10081C000837BD4680BD80B582B000AF786078687F
:10082C00FFF7A2FF034618460837BD4680BD80B5CA
:10083C0082B000AF78607B68002B01D101233BE0D4
:10084C007B6893F83930DBB2002B06D17B68002231
:10085C0083F83820786802F04DFF7B68022283F819
:10086C0039207B681B687A681268126822F4403160
:10087C007A6852680A431A607B681B687A68126847
:10088C00526B22F007017A6892680A435A637B68BC
:10089C001A687B681B681B6C23F47F5323F03F039F
:1008AC007968C9680B4313647B680022DA637B6840
:1008BC00012283F83920002318460837BD4680BD35
:1008CC0080B586B002AFF860B9607A603B60FB68B7
:1008DC0093F83830012B01D1022318E0FB68012278
:1008EC0083F83820FB68022283F83920BB69009317
:1008FC003B687A68B968F86800F098FAFB681B687E
:10090C00FA681268126842F001021A600023184655
:10091C001037BD4680BD80B584B000AF78603960BB
:10092C000023FB600023BB607B681B681B6803F023
:10093C000103002B56D0FFF741FEF8604BE07B68BB
:10094C001B685B68BB60BB6803F02103002B23D0E2
:10095C00BB6803F02003002B05D07B68DB6B43F0F6
:10096C0002027B68DA63BB6803F00103002B05D03D
:10097C007B68DB6B43F001027B68DA637B681B6886
:10098C0021229A607B68042283F839207B6800223C
:10099C0083F838200123A2E03B68B3F1FF3F1AD063
:1009AC003B68002B07D0FFF709FE0246FB68D21A02
:1009BC003B689A420FD97B68DB6B43F020027B6863
:1009CC00DA637B68032283F839207B68002283F882
:1009DC003820032383E07B681B685B6803F0020309
:1009EC00002BACD07B681B68DB6903F02003002B69
:1009FC0006D17B681B685B6A03F02003002B61D077
:100A0C00FFF7DCFDF86056E07B681B685B68BB6039
:100A1C00BB6803F02903002B2ED0BB6803F008033E
:100A2C00002B05D07B68DB6B43F004027B68DA6338
:100A3C00BB6803F02003002B05D07B68DB6B43F015
:100A4C0002027B68DA63BB6803F00103002B05D05C
:100A5C007B68DB6B43F001027B68DA637B681B68A5
:100A6C0029229A607B68042283F839207B68002253
:100A7C0083F83820012332E03B68B3F1FF3F1AD0F2
:100A8C003B68002B07D0FFF799FD0246FB68D21A92
:100A9C003B689A420FD97B68DB6B43F020027B6882
:100AAC00DA637B68032283F839207B68002283F8A1
:100ABC003820032313E07B681B685B6803F010038A
:100ACC00002BA1D07B681B6812229A607B680122E4
:100ADC0083F839207B68002283F8382000231846DD
:100AEC001037BD4680BD80B584B000AF78607B68A0
:100AFC001B685B68FB607B681B681B68BB60FB68E2
:100B0C0003F00103002B26D0BB6803F48073002B89
:100B1C0021D07B681B687A681268126822F4807294
:100B2C001A607B68DB6B43F001027B68DA637B68DD
:100B3C001B6801229A607B68042283F839207B6849
:100B4C00002283F838207B685B69002B03D07B681C
:100B5C005B6978689847FB6803F02003002B26D06C
:100B6C00BB6803F40053002B21D07B681B687A68A8
:100B7C001268126822F400521A607B681B682022EB
:100B8C009A607B68DB6B43F002027B68DA637B68FC
:100B9C00042283F839207B68002283F838207B6894
:100BAC005B69002B03D07B685B6978689847FB68AE
:100BBC0003F00803002B26D0BB6803F40063002B62
:100BCC0021D07B681B687A681268126822F4006274
:100BDC001A607B681B6808229A607B68DB6B43F0A9
:100BEC0004027B68DA637B68042283F839207B6813
:100BFC00002283F838207B685B69002B03D07B686C
:100C0C005B6978689847FB6803F00403002B13D0EA
:100C1C00BB6803F48063002B0ED07B681B687A687A
:100C2C001268126822F480621A607B681B680422C6
:100C3C009A60786800F053F8FB6803F00203002B0D
:100C4C0024D0BB6803F40073002B1FD07B681B6897
:100C5C007A681268126822F400721A607B681B684A
:100C6C0002229A607B68DA6B7B68DA637B6801220C
:100C7C0083F839207B68002283F838207B681B6955
:100C8C00002B03D07B681B6978689847FB6803F0DE
:100C9C001003002B1FD0BB6803F48053002B1AD019
:100CAC007B681B687A681268126822F480521A609A
:100CBC007B681B6810229A607B68DA6B7B68DA634E
:100CCC007B68012283F839207B68002283F8382066
:100CDC00786800F00EF800BF1037BD4680BD80B4B8
:100CEC0083B000AF786000BF0C37BD465DF8047B65
:100CFC00704780B483B000AF786000BF0C37BD463E
:100D0C005DF8047B7047000080B485B000AF78605C
:100D1C0039603B681B0118337A681344BB600023AD
:100D2C00FB607B685B68B3F5403F7B6893F83830B9
:100D3C00012B01D1022370E07B68012283F838205B
:100D4C007B68022283F83920BB685B680A2B03D0CE
:100D5C00BB685B68092B0CD1BB685A68BB689B6885
:100D6C001B041A43BB68DB6803F07F431343FB602F
:100D7C000AE0BB685A68BB689B681B041A43BB68D3
:100D8C00DB681B061343FB603B68002B1ED17B68A2
:100D9C001A687B681B68596A234B0B40F9680B4334
:100DAC0053627B681B68BA6812689A61BB685B689F
:100DBC000A2B03D0BB685B68092B25D17B681B68A9
:100DCC00BA68D26822F07F429A621DE07B681A688A
:100DDC007B681B68D969144B0B40F9680B43D361D2
:100DEC007B681B68BA6812681A61BB685B680A2B5F
:100DFC0003D0BB685B68092B06D17B681B68BA689B
:100E0C00D26822F07F421A627B68012283F8392073
:100E1C007B68002283F83820002318461437BD461F
:100E2C005DF8047B704700BFF0FFFC0080B48BB012
:100E3C0000AFF860B9607A603B6000237B620023EE
:100E4C003B620023FB610023BB6100237B61FB68D9
:100E5C001B68FA681268526C02F040413A68100440
:100E6C003A6B02430A435A64FB681B687A68DA637C
:100E7C00FB685B68B3F5403F74D1BB6803F07F43FC
:100E8C003B62BB6803F47F03FB61BB6803F47F43E5
:100E9C00BB61BB68DBB27B61FB689B68002B08D134
:100EAC00BA69FB691A433B6A1A437B6913437B6239
:100EBC0053E0FB689B68012B06D1BA69FB691A43A6
:100ECC007B6913437B6248E0FB689B68022B11D162
:100EDC00FB69DB0CFB61BB699B0ABB617B69DB08B3
:100EEC007B61BB695A01FB69DB021A437B691343C3
:100EFC007B6232E0FB689B68032B17D13B6ADB0FEC
:100F0C003B62FB69DB0CFB61BB69DB0ABB617B6988
:100F1C00DB087B61BB695A01FB699B021A433B6A84
:100F2C00DB031A437B6913437B6216E03B6A1B0F9E
:100F3C003B62FB691B0DFB61BB691B0BBB617B69D6
:100F4C001B097B61BB691A01FB691B021A433B6AD3
:100F5C001B031A437B6913437B62FB681B687A6A29
:100F6C009A6303E0FB681B68BA68DA6000BF2C3731
:100F7C00BD465DF8047B704780B489B000AF7860E3
:100F8C00396000237B6100233B610023BB6100239C
:100F9C00FB6177E10122FB6902FA03F37B613B6899
:100FAC001A687B6913403B613A697B699A4240F04D
:100FBC0066813B685B68022B03D03B685B68122B35
:100FCC0023D1FB69DA087B68083253F82230BB6105
:100FDC00FB6903F007039B000F2202FA03F3DB43C8
:100FEC00BA691340BB613B681A69FB6903F00703DC
:100FFC009B0002FA03F3BA691343BB61FB69DA087D
:10100C007B680832B96943F822107B681B68BB61A6
:10101C00FB695B00032202FA03F3DB43BA6913405A
:10102C00BB613B685B6803F00302FB695B0002FA7F
:10103C0003F3BA691343BB617B68BA691A603B68F6
:10104C005B68012B0BD03B685B68022B07D03B68BD
:10105C005B68112B03D03B685B68122B30D17B682B
:10106C009B68BB61FB695B00032202FA03F3DB4361
:10107C00BA691340BB613B68DA68FB695B0002FA32
:10108C0003F3BA691343BB617B68BA699A607B68E6
:10109C005B68BB610122FB6902FA03F3DB43BA69AB
:1010AC001340BB613B685B681B0903F00102FB69E1
:1010BC0002FA03F3BA691343BB617B68BA695A60DD
:1010CC007B68DB68BB61FB695B00032202FA03F3FC
:1010DC00DB43BA691340BB613B689A68FB695B00F0
:1010EC0002FA03F3BA691343BB617B68BA69DA602D
:1010FC003B685B6803F08053002B00F0C08000233A
:10110C00FB60654A644B5B6C43F480435364624BF5
:10111C005B6C03F48043FB60FB68604AFB699B08D3
:10112C00023352F82330BB61FB6903F003039B00CD
:10113C000F2202FA03F3DB43BA691340BB617B68ED
:10114C00574A934237D07B68564A934231D07B68DA
:10115C00554A93422BD07B68544A934225D07B68E6
:10116C00534A93421FD07B68524A934219D07B68F2
:10117C00514A934213D07B68504A93420DD07B68FE
:10118C004F4A934207D07B684E4A934201D10923C0
:10119C0012E00A2310E008230EE007230CE00623DC
:1011AC000AE0052308E0042306E0032304E00223FD
:1011BC0002E0012300E00023FA6902F0030292002E
:1011CC009340BA691343BB613449FB699B080233F2
:1011DC00BA6941F823203C4B1B68BB613B69DB437C
:1011EC00BA691340BB613B685B6803F48033002B26
:1011FC0003D0BA693B691343BB61334ABB691360C3
:10120C00314B5B68BB613B69DB43BA691340BB6123
:10121C003B685B6803F40033002B03D0BA693B696D
:10122C001343BB61284ABB695360274B9B68BB6166
:10123C003B69DB43BA691340BB613B685B6803F4F1
:10124C008013002B03D0BA693B691343BB611E4A60
:10125C00BB6993601C4BDB68BB613B69DB43BA69C0
:10126C001340BB613B685B6803F40013002B03D095
:10127C00BA693B691343BB61134ABB69D360FB6911
:10128C000133FB61FB690F2B7FF684AE00BF243763
:10129C00BD465DF8047B70470038024000380140C1
:1012AC00000002400004024000080240000C024012
:1012BC00001002400014024000180240001C0240C2
:1012CC000020024000240240003C014080B483B066
:1012DC0000AF78600B467B8013467B707B78002BCD
:1012EC0003D07A887B689A6103E07B881A047B6858
:1012FC009A6100BF0C37BD465DF8047B7047000057
:10130C0080B584B000AF78600023FB600023BB6025
:10131C007B68002B01D10123BFE07B6893F8A130DF
:10132C00DBB2002B06D17B68002283F8A020786802
:10133C0002F008FA7B68022283F8A1207B681B6804
:10134C007A681268926922F070429A617B681B6815
:10135C007A68126891697A6850687A689268104362
:10136C007A68D26810437A68126902430A439A6118
:10137C007B681A687B681B6899684A4B0B409360C2
:10138C007B685B691B04FB607B681B687A6812686E
:10139C0091687A689069FA6802430A439A607B689C
:1013AC001A687B681B68D9683E4B0B40D3607B681E
:1013BC00DB691B04FB607B681B687A681268D16868
:1013CC007A68106AFA6802430A43DA607B681A6822
:1013DC007B681B681969334B0B4013617B685B6A34
:1013EC001B04FB607B681B687A68126811697A6859
:1013FC00906AFA6802430A431A617B681A687B6830
:10140C001B685969274B0B4053617B68DB6A1B04D3
:10141C00FB607B681B687A68126851697A68106B8C
:10142C00FA6802430A435A617B6893F835301B0211
:10143C00FB607B6893F836301B04BB607B681B68D1
:10144C007A681268D26A02F07F42DA627B681B68A3
:10145C007A681268D16AB868FA680243786890F8BA
:10146C00340002430A43DA627B681B687A681268AC
:10147C00526B42F006025A637B681B687A681268EA
:10148C00926942F001029A617B680022C3F8A420A1
:10149C007B68012283F8A120002318461037BD4633
:1014AC0080BD00BF00F800F0B0B584B000AFF860AC
:1014BC00B9607A60FB6893F8A030012B01D102234C
:1014CC002CE0FB68012283F8A020FB68022283F841
:1014DC00A120FA687B68342101FB03F3134403F168
:1014EC003802BB6814461D460FCD0FC40FCD0FC478
:1014FC000FCD0FC42B6823607A68B968F86800F0C8
:10150C0047F8FB681B6801225A62FB68012283F8CA
:10151C00A120FB68002283F8A02000231846103776
:10152C00BD46B0BD80B586B000AFF860B9607A60DA
:10153C00FB6893F8A030012B01D1022324E0FB6857
:10154C00012283F8A020FB68022283F8A1207B688B
:10155C00342202FB03F33833FA6813447B617B6952
:10156C00BA685A627A687969F86800F011F8FB6811
:10157C001B6801225A62FB68012283F8A120FB68D8
:10158C00002283F8A020002318461837BD4680BDE2
:10159C0080B489B000AFF860B9607A600023FB6159
:1015AC000023BB6100237B61BB685A68FB681B6826
:1015BC00DB681B0CC3F30B0313441B04FB61FB68BC
:1015CC001B681A467B68DB01134484331A46FB689C
:1015DC001B6819467B68DB010B4484335B6803F49E
:1015EC0070435360FB681B681A467B68DB0113442D
:1015FC0084331946BB681A68FB681B68DB681B0CD4
:10160C00C3F30B0313445A1CFB6913434B60BB68B5
:10161C00DA68FB681B68DB68C3F30A0313441B041A
:10162C00FB61FB681B681A467B68DB01134484333F
:10163C001A46FB681B6819467B68DB010B44843334
:10164C009B6803F470439360FB681B681A467B68C5
:10165C00DB01134484331946BB689A68FB681B682A
:10166C00DB68C3F30A0313445A1CFB6913438B60F6
:10167C00FB681B681A467B68DB01134484331A46EB
:10168C00FB681B6819467B68DB010B4484331B69C0
:10169C0023F007031361FB681B681A467B68DB01A8
:1016AC00134484331A46BB681B691361BB6893F8F7
:1016BC0031301B02FB61BB6893F832301B04BB61F9
:1016CC00BB689B691B067B61FB681B681A467B68C1
:1016DC00DB01134484339B69FB681B681A467B68E7
:1016EC00DB01134484331A4600239361FB681B68A7
:1016FC001A467B68DB01134484331946BB6893F8A4
:10170C0030301A46FB691A43BB691A437B69134391
:10171C008B61FB681B681A467B68DB0113448433BE
:10172C001A46FB681B6819467B68DB010B44843343
:10173C005B6923F0FF035361FB681B681A467B68E7
:10174C00DB01134484331A46BB685B695361FB6845
:10175C001B681A467B68DB01134484331A46FB680A
:10176C001B6819467B68DB010B448433DB6923F46B
:10177C00E06323F00703D361FB681B681A467B68A0
:10178C00DB01134484331946BB68DA69BB681B6AF6
:10179C001343CB61FB681B681A467B68DB0113445F
:1017AC0084339B6AFB681B681A467B68DB01134415
:1017BC0084331A4600239362FB681B681A467B68C5
:1017CC00DB01134484331A46BB685B6A9362BB68C3
:1017DC001B69002B02D10423FB611BE0BB681B6956
:1017EC00012B02D10323FB6114E0BB681B69042BA2
:1017FC000BD0BB681B69022B07D0BB681B69032B82
:10180C0003D0BB681B69072B02D10223FB6101E0EB
:10181C000123FB61FB681B681A467B68DB011344E0
:10182C0084331A46FB681B6819467B68DB010B4442
:10183C008433DB6A03F0E023D362FB681B681A462F
:10184C007B68DB01134484331846BB689B6AFA69D6
:10185C0002FB03F31A04BB685968BB681B68CB1AFC
:10186C00F96901FB03F303331343C362FB681B6881
:10187C001A467B68DB01134484331A46FB681B68E9
:10188C0019467B68DB010B4484331B6B23F4FF6329
:10189C0023F007031363FB681B681A467B68DB01A4
:1018AC00134484331A46BB68DB6A1363FB681B68FA
:1018BC001A467B68DB01134484331A46FB681B68A9
:1018CC0019467B68DB010B4484331B6843F001032E
:1018DC00136000BF2437BD465DF8047B70470000E1
:1018EC0080B582B000AF00237B6000233B60204AB0
:1018FC001F4B1B6C43F0805313641D4B1B6C03F08C
:10190C0080533B603B681B4B01221A60FEF756FE6E
:10191C00786009E0FEF752FE02467B68D31AB3F5F5
:10192C007A7F01D903231FE0134B5B6803F48033E8
:10193C00B3F5803FEED1114B01221A60FEF73EFE4B
:10194C00786009E0FEF73AFE02467B68D31AB3F5DD
:10195C007A7F01D9032307E0074B5B6803F400335C
:10196C00B3F5003FEED1002318460837BD4680BDC5
:10197C000038024040000E420070004044000E420D
:10198C0080B586B000AF78607B68002B01D1012355
:10199C002DE27B681B6803F00103002B75D0A34B71
:1019AC009B6803F00C03042B0CD0A04B9B6803F03A
:1019BC000C03082B12D19D4B5B6803F48003B3F529
:1019CC00800F0BD1994B1B6803F40033002B5BD0B9
:1019DC007B685B68002B57D1012308E27B685B684E
:1019EC00B3F5803F06D1914A904B1B6843F480338A
:1019FC0013601DE07B685B68B3F5A02F0CD18B4A9C
:101A0C008A4B1B6843F480231360884A874B1B68FE
:101A1C0043F4803313600BE0844A844B1B6823F43B
:101A2C0080331360814A814B1B6823F4802313603D
:101A3C007B685B68002B13D0FEF7C0FD386108E0B3
:101A4C00FEF7BCFD02463B69D31A642B01D9032374
:101A5C00CDE1764B1B6803F40033002BF0D014E07F
:101A6C00FEF7ACFD386108E0FEF7A8FD02463B69C5
:101A7C00D31A642B01D90323B9E16C4B1B6803F413
:101A8C000033002BF0D100E000BF7B681B6803F033
:101A9C000203002B63D0654B9B6803F00C03002BF7
:101AAC000BD0624B9B6803F00C03082B1CD15F4BD3
:101ABC005B6803F48003002B16D15C4B1B6803F0AE
:101ACC000203002B05D07B68DB68012B01D00123BE
:101ADC008DE15649554B1B6823F0F8027B681B6956
:101AEC00DB0013430B603AE07B68DB68002B20D0F3
:101AFC004F4B01221A60FEF761FD386108E0FEF7DA
:101B0C005DFD02463B69D31A022B01D903236EE11A
:101B1C00464B1B6803F00203002BF0D04349434BA8
:101B2C001B6823F0F8027B681B69DB0013430B6016
:101B3C0015E03F4B00221A60FEF740FD386108E0CB
:101B4C00FEF73CFD02463B69D31A022B01D9032355
:101B5C004DE1364B1B6803F00203002BF0D17B6880
:101B6C001B6803F00803002B30D07B685B69002BEB
:101B7C0016D0304B01221A60FEF720FD386108E0C8
:101B8C00FEF71CFD02463B69D31A022B01D9032335
:101B9C002DE1264B5B6F03F00203002BF0D015E018
:101BAC00244B00221A60FEF709FD386108E0FEF7AD
:101BBC0005FD02463B69D31A022B01D9032316E11A
:101BCC001A4B5B6F03F00203002BF0D17B681B6890
:101BDC0003F00403002B00F0A0800023FB75134BD3
:101BEC001B6C03F08053002B0FD10023FB600F4ABA
:101BFC000E4B1B6C43F0805313640C4B1B6C03F0AB
:101C0C008053FB60FB680123FB750B4B1B6803F4D3
:101C1C008073002B21D1084A074B1B6843F4807357
:101C2C001360FEF7CBFC386111E000BF00380240B6
:101C3C0000004742800E474200700040FEF7BEFC99
:101C4C0002463B69D31A022B01D90323CFE06A4B1E
:101C5C001B6803F48073002BF0D07B689B68012B0E
:101C6C0006D1664A654B1B6F43F0010313671CE0FA
:101C7C007B689B68052B0CD1604A604B1B6F43F053
:101C8C00040313675D4A5D4B1B6F43F0010313673D
:101C9C000BE05A4A594B1B6F23F001031367574A49
:101CAC00564B1B6F23F0040313677B689B68002B58
:101CBC0015D0FEF783FC38610AE0FEF77FFC024684
:101CCC003B69D31A41F28832934201D903238EE047
:101CDC004A4B1B6F03F00203002BEED014E0FEF70F
:101CEC006DFC38610AE0FEF769FC02463B69D31AC9
:101CFC0041F28832934201D9032378E03F4B1B6FAA
:101D0C0003F00203002BEED1FB7D012B05D13B4AE6
:101D1C003A4B1B6C23F0805313647B689B69002B3C
:101D2C0064D0364B9B6803F00C03082B5CD07B68AB
:101D3C009B69022B41D1324B00221A60FEF73EFC0C
:101D4C00386108E0FEF73AFC02463B69D31A022BD5
:101D5C0001D903234BE0294B1B6803F00073002BC4
:101D6C00F0D126497B68DA697B681B6A1A437B6869
:101D7C005B6A9B011A437B689B6A5B08013B1B04F3
:101D8C001A437B68DB6A1B0613434B601C4B012216
:101D9C001A60FEF713FC386108E0FEF70FFC0246F0
:101DAC003B69D31A022B01D9032320E0134B1B6888
:101DBC0003F00073002BF0D018E0114B00221A60D6
:101DCC00FEF7FCFB386108E0FEF7F8FB02463B69C6
:101DDC00D31A022B01D9032309E0084B1B6803F02B
:101DEC000073002BF0D101E0012300E00023184622
:101DFC001837BD4680BD00BF00700040003802405F
:101E0C006000474280B584B000AF786039607B6871
:101E1C00002B01D10123CAE0674B1B6803F00F02B2
:101E2C003B689A420CD2644B3A68D2B21A70624B3D
:101E3C001B6803F00F023B689A4201D00123B6E005
:101E4C007B681B6803F00203002B20D07B681B68A7
:101E5C0003F00403002B05D0584A584B9B6843F4FD
:101E6C00E05393607B681B6803F00803002B05D0DC
:101E7C00524A524B9B6843F4604393604F494F4B1B
:101E8C009B6823F0F0027B689B6813438B607B6834
:101E9C001B6803F00103002B44D07B685B68012BAB
:101EAC0007D1464B1B6803F40033002B19D10123D7
:101EBC007DE07B685B68022B03D07B685B68032B3F
:101ECC0007D13E4B1B6803F00073002B09D1012393
:101EDC006DE03A4B1B6803F00203002B01D1012388
:101EEC0065E03649354B9B6823F003027B685B68E1
:101EFC0013438B60FEF762FBF8600AE0FEF75EFBB3
:101F0C000246FB68D31A41F28832934201D903236B
:101F1C004DE02A4B9B6803F00C027B685B689B00CE
:101F2C009A42EBD1244B1B6803F00F023B689A4298
:101F3C000CD9214B3A68D2B21A701F4B1B6803F0B4
:101F4C000F023B689A4201D0012330E07B681B688A
:101F5C0003F00403002B08D01849184B9B6823F49A
:101F6C00E0527B68DB6813438B607B681B6803F073
:101F7C000803002B09D01149104B9B6823F46042D5
:101F8C007B681B69DB0013438B6000F01DF8014676
:101F9C000A4B9B681B0903F00F03094AD35C21FA17
:101FAC0003F3084A13600020FEF7C4FA0023184616
:101FBC001037BD4680BD00BF003C024000380240D7
:101FCC00C83C0008080000202DE9F04F87B000AF96
:101FDC000022FA6000227A610022BA6000223A6183
:101FEC00514A926802F00C02042A07D0082A08D041
:101FFC00002A40F090804D4B3B618FE04C4B3B6195
:10200C008CE0494A526802F03F02FA60464A526834
:10201C0002F48002002A23D0434B5B689B094FF0EB
:10202C00000440F2FF114FF0000203EA010304EA3E
:10203C0002043F4A02FB04F1002202FB03F20A44B1
:10204C003B49A3FB010153181946FB684FF00004F0
:10205C001A462346FEF7C4F803460C467B614CE057
:10206C00314A5268920911464FF0000240F2FF15B6
:10207C004FF0000605EA010506EA0206294632463B
:10208C004FEA421B4BEAD16B4FEA411A51465A4672
:10209C00AA46B34655465E464D1B62EB06062946DC
:1020AC003246940144EA91648B015B1A64EB02049E
:1020BC004FEAC40949EA53794FEAC30843464C46F0
:1020CC0055465E46ED1846EB04062B463446A202F6
:1020DC007A607A6842EA93527A609B023B6097E896
:1020EC00180018462146FB684FF000041A46234698
:1020FC00FEF776F803460C467B610B4B5B681B0CBA
:10210C0003F0030301335B00BB607A69BB68B2FB6D
:10211C00F3F33B6102E0054B3B6100BF3B691846A2
:10212C001C37BD46BDE8F08F003802400024F40097
:10213C0040787D0180B586B000AF786000237B616C
:10214C0000233B617B681B6803F00103002B05D166
:10215C007B681B6803F00203002B61D0A34B0022A9
:10216C001A60FEF72BFA786108E0FEF727FA0246B0
:10217C007B69D31A022B01D9032377E19C4B1B6893
:10218C0003F00063002BF0D17B681B6803F00103A4
:10219C00002B09D096497B685B689A017B689B6829
:1021AC001B071343C1F884307B681B6803F00203E0
:1021BC00002B1FD08E4BD3F884301B0F03F007037A
:1021CC003B618B497B685B689A017B68DB681B060B
:1021DC001A433B691B071343C1F884308449844B71
:1021EC00D3F88C3023F01F027B68DB69013B13436F
:1021FC00C1F88C307D4B01221A60FEF7DFF9786153
:10220C0008E0FEF7DBF902467B69D31A022B01D9F1
:10221C0003232BE1764B1B6803F00063002BF0D0FB
:10222C007B681B6803F00403002B05D17B681B68DB
:10223C0003F00803002B79D06E4B00221A60FEF7D6
:10224C00BDF9786108E0FEF7B9F902467B69D31A4B
:10225C00022B01D9032309E1654B1B6803F00053E2
:10226C00B3F1005FEFD07B681B6803F00403002B15
:10227C0020D05F4BD3F888301B0F03F007033B6172
:10228C005B497B681B699A017B685B691B061A4377
:10229C003B691B071343C1F888305549544BD3F89D
:1022AC008C3023F4F8527B681B6A013B1B021343EE
:1022BC00C1F88C307B681B6803F00803002B1ED020
:1022CC004B4BD3F888301B0E03F00F033B6148498E
:1022DC007B681B699A013B691B061A437B689B69E7
:1022EC001B071343C1F888304149414BD3F88C305C
:1022FC0023F440327B685B6A1343C1F88C303D4B4E
:10230C0001221A60FEF75AF9786108E0FEF756F9D7
:10231C0002467B69D31A022B01D90323A6E0344B66
:10232C001B6803F00053B3F1005FEFD17B681B68AF
:10233C0003F02003002B00F08D800023FB602C4A5F
:10234C002B4B1B6C43F080531364294B1B6C03F019
:10235C008053FB60FB68284A274B1B6843F480734F
:10236C001360FEF72BF9786108E0FEF727F90246B7
:10237C007B69D31A022B01D9032377E01E4B1B6810
:10238C0003F48073002BF0D0194B1B6F03F44073D4
:10239C003B613B69002B39D07B689B6A03F440722C
:1023AC003B699A4232D0124B1B6F23F440733B6152
:1023BC00124B01221A60114B00221A600C4A3B6925
:1023CC0013670B4B1B6F03F00103002B1ED0FEF7A2
:1023DC00F5F8786114E0FEF7F1F802467B69D31A40
:1023EC0041F2883293420BD903233FE06800474205
:1023FC00003802407000474200700040400E4742D7
:10240C001C4B1B6F03F00203002BE4D07B689B6A10
:10241C0003F44073B3F5407F0DD11649154B9B68FF
:10242C0023F4F8127B689B6A23F0704323F4407307
:10243C0013438B6005E00F4A0E4B9B6823F4F81393
:10244C0093600C490B4B1A6F7B689B6AC3F30B03AD
:10245C0013430B677B681B6803F01003002B04D03D
:10246C00054A7B6893F82C30136000231846183704
:10247C00BD4680BD00380240E011474280B582B0B5
:10248C0000AF786039607B68002B01D1012325E017
:10249C007B6893F82C30DBB2002B06D17B680022D2
:1024AC0083F82D20786801F02FFB7B68022283F8DB
:1024BC002C207B681A687B6804331946104600F0A0
:1024CC0081FA7B6818687B685B681A46396800F08B
:1024DC00ECFA7B68012283F82C200023184608377D
:1024EC00BD4680BD80B584B000AFF860B9607A603D
:1024FC00FB6893F82C30DBB2022B01D1022318E0DD
:10250C00FB68022283F82C20FB681B687A68B96888
:10251C00184600F049FBBB681B68022B04D1FB6812
:10252C00052283F82C2003E0FB68012283F82C2081
:10253C00002318461037BD4680BD80B582B000AF71
:10254C00786039607B6893F82C30DBB2022B01D1B8
:10255C0002230EE07B68022283F82C207B681B6828
:10256C003968184600F05CFB7B68012283F82C204C
:10257C00002318460837BD4680BD80B582B000AF39
:10258C0078607B68002B01D1012355E07B68002229
:10259C009A627B6893F85130DBB2002B06D17B68D2
:1025AC00002283F85020786801F0DAF97B68022267
:1025BC0083F851207B681B687A681268126822F0D5
:1025CC0040021A607B681B687A6851687A68926866
:1025DC0011437A68D26811437A68126911437A6898
:1025EC00526911437A68926902F4007211437A6855
:1025FC00D26911437A68126A11437A68926A0A4363
:10260C001A607B681B687A689269120C02F00401EC
:10261C007A68526A0A435A607B681B687A68126847
:10262C00D26922F40062DA617B6800225A657B6809
:10263C00012283F85120002318460837BD4680BD7F
:10264C0080B58AB002AFF860B9603B601346FB807E
:10265C000023BB610023FB77FB6893F85030012B00
:10266C0001D1022323E1FB68012283F85020FDF7FE
:10267C00A5FFB861FB6893F85130DBB2012B02D097
:10268C000223FB770AE1BB68002B02D0FB88002BEE
:10269C0002D10123FB7701E1FB68032283F851206F
:1026AC00FB6800225A65FB68BA681A63FB68FA88F3
:1026BC009A86FB68FA88DA86FB6800229A63FB68C4
:1026CC0000229A87FB680022DA87FB6800225A6492
:1026DC00FB6800221A64FB689B68B3F5004F07D1B6
:1026EC00FB681B68FA681268126842F480421A6030
:1026FC00FB681B681B6803F04003402B07D0FB688A
:10270C001B68FA681268126842F040021A60FB6893
:10271C00DB68B3F5006F47D1FB685B68002B04D016
:10272C00FB68DB8E9BB2012B38D1FB681B68BA6847
:10273C001288DA60BB680233BB60FB68DB8E9BB22D
:10274C00013B9AB2FB68DA8628E0FB681B689B6841
:10275C0003F00203022B0FD1FB681B68BA681288C6
:10276C00DA60BB680233BB60FB68DB8E9BB2013B5B
:10277C009AB2FB68DA8611E03B68002B0BD03B6801
:10278C00B3F1FF3F0AD0FDF719FF0246BB69D21A1D
:10279C003B689A4202D30323FB777FE0FB68DB8E16
:1027AC009BB2002BD1D148E0FB685B68002B04D0B6
:1027BC00FB68DB8E9BB2012B3AD1FB681B680C3398
:1027CC00BA6812781A70BB680133BB60FB68DB8E89
:1027DC009BB2013B9AB2FB68DA8629E0FB681B6866
:1027EC009B6803F00203022B10D1FB681B680C33AF
:1027FC00BA6812781A70BB680133BB60FB68DB8E59
:10280C009BB2013B9AB2FB68DA8611E03B68002B65
:10281C000BD03B68B3F1FF3F0AD0FDF7CFFE024669
:10282C00BB69D21A3B689A4202D30323FB7735E08B
:10283C00FB68DB8E9BB2002BD0D1BB6900933B684D
:10284C0001220221F86800F036F80346002B02D072
:10285C000323FB7722E0BA693968F86800F094F832
:10286C000346002B05D00123FB77FB6820225A6519
:10287C0014E0FB689B68002B0AD100237B61FB688A
:10288C001B68DB687B61FB681B689B687B617B69F1
:10289C00FB685B6D002B01D00123FB77FB680122E9
:1028AC0083F85120FB68002283F85020FB7F1846E8
:1028BC002037BD4680BD80B584B000AFF860B960EC
:1028CC007A603B604DE03B68B3F1FF3F49D03B6819
:1028DC00002B07D0FDF772FE0246BB69D21A3B688B
:1028EC009A423ED3FB681B68FA681268526822F061
:1028FC00E0025A60FB685B68B3F5827F11D1FB681C
:10290C009B68B3F5004F04D0FB689B68B3F5806FF0
:10291C0007D1FB681B68FA681268126822F0400243
:10292C001A60FB689B6AB3F5005F10D1FB681A68EC
:10293C00FB681B6819684DF6FF730B401360FB684E
:10294C001B68FA681268126842F400521A60FB683D
:10295C00012283F85120FB68002283F850200323C6
:10296C000EE0FB681B689A68BB681A40BB689A4209
:10297C0001D1012200E000227B689A42A3D10023FE
:10298C0018461037BD4680BD80B586B002AFF860E2
:10299C00B9607A607B680093BB6800228021F8687C
:1029AC00FFF789FF0346002B07D0FB685B6D43F0F4
:1029BC002002FB685A65032300E0002318461037F9
:1029CC00BD4680BD80B485B000AF7860396000230F
:1029DC00FB600023BB603B681B68012B29D07B6824
:1029EC001B68FB60FB6823F4FF4323F07F03FB6051
:1029FC003B685A683B689B681A433B68DB681A4320
:102A0C003B681B691A433B685B691A433B689B69CB
:102A1C001A433B68DB691A433B681B6A1A433B68E1
:102A2C005B6A1343FA681343FB607B68FA681A60AD
:102A3C0034E07B681B68FB60FB6823F4F843FB60A5
:102A4C003B68DA693B681B6A1A433B685B6A134351
:102A5C00FA681343FB607B685B68BB60BB6823F45C
:102A6C00FF4323F07F03BB603B685A683B689B685D
:102A7C001A433B68DB681A433B681B691A433B6883
:102A8C005B691A433B689B691343BA681343BB6089
:102A9C007B68FA681A607B68BA685A60002318462B
:102AAC001437BD465DF8047B704780B487B000AF27
:102ABC00F860B9607A6000237B6100233B617B681E
:102ACC00012B2ED0FB689B687B617B6903F0704304
:102ADC007B61BB681B685A1EBB685B68013B1B01B2
:102AEC001A43BB689B68013B1B021A43BB68DB683B
:102AFC00013B1B031A43BB681B69013B1B041A43B4
:102B0C00BB685B69013B1B051A43BB689B69013BB6
:102B1C001B0613437A6913437B61FB687A699A60DD
:102B2C003BE0FB689B687B617B6923F4700323F4B7
:102B3C0070437B61BB68DB68013B1A03BB685B6954
:102B4C00013B1B0513437A6913437B61FB68DB680C
:102B5C003B613B6903F070433B61BB681B685A1EC9
:102B6C00BB685B68013B1B011A43BB689B68013B5C
:102B7C001B021A43BB681B69013B1B041A43BB684D
:102B8C009B69013B1B0613433A6913433B61FB688A
:102B9C007A699A60FB683A69DA60002318461C3738
:102BAC00BD465DF8047B704780B586B000AFF86019
:102BBC00B9607A6000233B6100237B61BB681A68B3
:102BCC00BB685B681A43BB689B68013B5B011A439B
:102BDC00BB68DB685B0213433B613A69FB681A61B3
:102BEC00FDF7ECFC786110E07B68B3F1FF3F0CD093
:102BFC007B68002B07D0FDF7E1FC02467B69D21AFB
:102C0C007B689A4201D9032306E0FB689B6903F0B9
:102C1C002003002BE8D1002318461837BD4680BD91
:102C2C0080B483B000AF786039607B685A693B68C8
:102C3C005B001A437B685A61002318460C37BD466B
:102C4C005DF8047B704780B500AFCA2000F044F9F2
:102C5C00C32000F06BF9082000F068F9502000F058
:102C6C0065F9CF2000F038F9002000F05FF9C120A1
:102C7C0000F05CF9302000F059F9ED2000F02CF94F
:102C8C00642000F053F9032000F050F9122000F0FA
:102C9C004DF9812000F04AF9E82000F01DF985205B
:102CAC0000F044F9002000F041F9782000F03EF9E2
:102CBC00CB2000F011F9392000F038F92C2000F06D
:102CCC0035F9002000F032F9342000F02FF9022001
:102CDC0000F02CF9F72000F0FFF8202000F026F986
:102CEC00EA2000F0F9F8002000F020F9002000F0B4
:102CFC001DF9B12000F0F0F8002000F017F91B20AE
:102D0C0000F014F9B62000F0E7F80A2000F00EF9F4
:102D1C00A22000F00BF9C02000F0DEF8102000F02B
:102D2C0005F9C12000F0D8F8102000F0FFF8C520FC
:102D3C0000F0D2F8452000F0F9F8152000F0F6F874
:102D4C00C72000F0C9F8902000F0F0F8362000F011
:102D5C00C3F8C82000F0EAF8F22000F0BDF800201B
:102D6C0000F0E4F8B02000F0B7F8C22000F0DEF874
:102D7C00B62000F0B1F80A2000F0D8F8A72000F037
:102D8C00D5F8272000F0D2F8042000F0CFF82A2044
:102D9C0000F0A2F8002000F0C9F8002000F0C6F8FE
:102DAC00002000F0C3F8EF2000F0C0F82B2000F05A
:102DBC0093F8002000F0BAF8002000F0B7F80120DA
:102DCC0000F0B4F83F2000F0B1F8F62000F084F8E1
:102DDC00012000F0ABF8002000F0A8F8062000F06D
:102DEC00A5F82C2000F078F86420FDF7F3FB2620E2
:102DFC0000F072F8012000F099F8E02000F06CF877
:102E0C000F2000F093F8292000F090F8242000F017
:102E1C008DF80C2000F08AF80E2000F087F80920BD
:102E2C0000F084F84E2000F081F8782000F07EF855
:102E3C003C2000F07BF8092000F078F8132000F01B
:102E4C0075F8052000F072F8172000F06FF81120CB
:102E5C0000F06CF8002000F069F8E12000F03CF87C
:102E6C00002000F063F8162000F060F81B2000F042
:102E7C005DF8042000F05AF8112000F057F80720F4
:102E8C0000F054F8312000F051F8332000F04EF8E7
:102E9C00422000F04BF8052000F048F80C2000F020
:102EAC0045F80A2000F042F8282000F03FF82F20C7
:102EBC0000F03CF80F2000F039F8112000F00CF86D
:102ECC006420FDF787FB292000F006F82C2000F089
:102EDC0003F800BF80BD000080B584B000AF03468E
:102EEC00FB71FB793B7300237B7300224FF4005181
:102EFC000B48FEF7EBF9002204210A48FEF7E6F92D
:102F0C0007F10C01642301220748FFF799FB01220A
:102F1C0004210448FEF7DAF900BF1037BD4680BD26
:102F2C00000C0240000802403000002080B584B044
:102F3C0000AF0346FB71FB793B7300237B730122CB
:102F4C004FF400510B48FEF7C1F9002204210A4846
:102F5C00FEF7BCF907F10C01642301220748FFF7C7
:102F6C006FFB012204210448FEF7B0F900BF1037B3
:102F7C00BD4680BD000C024000080240300000201D
:102F8C0080B584B002AF7860114B4FF440325A6078
:102F9C000F4B0022DA600E48FDF749FC0346002B6C
:102FAC0012D10C4BDA6D0B4B196E0A4B5B6E009306
:102FBC000B4679680648FDF783FC0346002B03D1CA
:102FCC000A210348FDF7A7FC00BF0837BD4680BDAA
:102FDC00300100208800002080B485B000AF0023B1
:102FEC00FB60154B5B6E144A126E02FB03F37B60A5
:102FFC000023BB6016E0104BD96DBA6813465B001A
:10300C0013440B441A46FB681360FB680133FB60E6
:10301C00FB686FF07F42934201D10023FB60BB68D9
:10302C000133BB60BA687B689A42E4D300BF1437A3
:10303C00BD465DF8047B70478800002080B584B0E5
:10304C0000AF4FF0E043BB604FF080437B60FDF777
:10305C004FFA00F047F800F015FA00F095F900F07F
:10306C00C9F900F0C9F81B4800F0B4FAFFF7EBFD02
:10307C0000F00AF9002218491848FEF753FA4FF4E9
:10308C007F00FFF77DFF4FF4FA60FDF7A3FA1448B9
:10309C00FFF776FF4FF47A70FDF79CFAFFF79CFF71
:1030AC004FF47A70FDF796FA0023FB6009E0FA689A
:1030BC0013465B0013441846FFF762FFFB680133AD
:1030CC00FB60FB68312BF2DD4FF4FA70FDF782FAEE
:1030DC00EAE700BF70010020000005D08800002046
:1030EC00FFF00F0080B5A0B000AF07F15003302205
:1030FC000021184600F0CEFD07F13C0300221A60B7
:10310C005A609A60DA601A6107F10C0330220021D0
:10311C00184600F0BFFD0023BB60354A344B1B6CD6
:10312C0043F080531364324B1B6C03F08053BB6031
:10313C00BB6800237B602F4A2E4B1B6843F4404333
:10314C0013602C4B1B6803F440437B607B680223A9
:10315C003B650123FB6510233B660223BB66002302
:10316C00FB6608233B67B4237B670223BB670423FE
:10317C00FB6707F150031846FEF702FC0346002BD1
:10318C0001D000F01FFAFEF7ABFB0346002B01D079
:10319C0000F018FA0F23FB6302233B6400237B64CB
:1031AC004FF4A053BB644FF48053FB6407F13C0312
:1031BC0005211846FEF726FE0346002B01D000F031
:1031CC0001FA0823FB603C23FB6105237B624FF46F
:1031DC0080333B6307F10C031846FEF7ABFF034645
:1031EC00002B01D000F0EEF900BF8037BD4680BD4A
:1031FC00003802400070004080B500AF204B214ADF
:10320C001A601F4B4FF400325A601D4B01229A601A
:10321C001B4B0022DA601A4B00229A61184B0122D8
:10322C00DA61174B01221A62154B00225A62144BB9
:10323C0000229A62124B0122DA62114B01221A63AC
:10324C000F4B00225A630E48FDF7F1FA0346002B90
:10325C0001D000F0B7F900210948FDF755FD0346F0
:10326C00002B01D000F0AEF901210548FDF74CFD13
:10327C000346002B01D000F0A5F900BF80BD00BFB4
:10328C003001002000B0024080B58EB000AF3B1D75
:10329C0034220021184600F0FDFC394B394A1A60E3
:1032AC00374B00225A60364B00229A60344B002276
:1032BC00DA60334B00221A61314B08225A61304BD1
:1032CC0000229A612E4B1D22DA612D4B03221A62C9
:1032DC002B4B40F20D125A62294B40F243129A6268
:1032EC00274B40F21712DA62254B40F247121A6351
:1032FC00234B002283F83420214B002283F8352005
:10330C001F4B002283F836201D48FDF7F9FF0346BA
:10331C00002B01D000F056F900237B60F023BB603A
:10332C000023FB604FF4A0733B6101237B61FF23FF
:10333C00BB610023FB614FF480633B6205237B621E
:10334C000023BB62F023FB624FF4A0733B630023AA
:10335C0087F83430002387F83530002387F836306F
:10336C003B1D002219460648FEF79EF80346002B2B
:10337C0001D000F027F900BF3837BD4680BD00BF33
:10338C00880000200068014080B500AF174B184A38
:10339C001A60164B4FF482725A60144B00229A60DA
:1033AC00124B0022DA60114B00221A610F4B0022E3
:1033BC005A610E4B4FF400729A610C4B1822DA6171
:1033CC000A4B00221A62094B00225A62074B002258
:1033DC009A62064B0A22DA620448FFF7CEF80346DB
:1033EC00002B01D000F0EEF800BF80BD30000020B3
:1033FC000050014080B588B000AF204B204A1A60C5
:10340C001E4B01225A601D4B00229A601B4B04225A
:10341C00DA601A4B10221A61184B40225A61174B72
:10342C004FF4C0729A61154B0022DA61134B4FF4C2
:10343C0000621A62114B00225A62104B4FF4005278
:10344C009A6202237B600723BB600423FB60072383
:10345C003B6102237B610223BB610223FB613B1DA9
:10346C0019460648FFF70AF80346002B01D000F076
:10347C00A9F800BF2037BD4680BD00BF70010020F9
:10348C00400100A080B58CB000AF07F11C030022F6
:10349C001A605A609A60DA601A610023BB61464A6E
:1034AC00454B1B6B43F020031363434B1B6B03F027
:1034BC002003BB61BB6900237B613F4A3E4B1B6B06
:1034CC0043F0040313633C4B1B6B03F004037B615D
:1034DC007B6900233B61384A374B1B6B43F001037C
:1034EC001363354B1B6B03F001033B613B690023FA
:1034FC00FB60314A304B1B6B43F0020313632E4BC2
:10350C001B6B03F00203FB60FB680023BB602A4AC1
:10351C00294B1B6B43F040031363274B1B6B03F0CE
:10352C004003BB60BB6800237B60234A224B1B6BB0
:10353C0043F010031363204B1B6B03F010037B60F1
:10354C007B6800233B601C4A1B4B1B6B43F008033E
:10355C001363194B1B6B03F008033B603B680122A0
:10356C0004211648FDF7B2FE00224FF40051144816
:10357C00FDF7ACFE0423FB6101233B6200237B625D
:10358C000223BB6207F11C0319460C48FDF7F4FC3F
:10359C004FF40053FB6101233B6200237B62022347
:1035AC00BB6207F11C0319460548FDF7E5FC00BF9B
:1035BC003037BD4680BD00BF0038024000080240D5
:1035CC00000C024080B400AF00BFBD465DF8047B28
:1035DC007047000080B584B000AF78600023FB60BA
:1035EC002F4B01221A602E4B08225A602C4B0122C1
:1035FC009A602B4B0022DA604FF6FF7228497868EC
:10360C00FEF770FF0A20FCF7E5FF254B02221A603B
:10361C00234B08225A60224B01229A60204B002235
:10362C00DA604FF6FF721E497868FEF75BFF0A20DE
:10363C00FCF7D0FF1A4B03221A60194B08225A6070
:10364C00174B04229A60164B0022DA604FF6FF7279
:10365C0013497868FEF746FF0A20FCF7BBFF40F2DF
:10366C003123FB600E4B04221A600D4B08225A606A
:10367C000B4B01229A60FB68094AD3604FF6FF722C
:10368C0007497868FEF72EFF0A20FCF7A3FF40F2EB
:10369C006A517868FEF751FF00BF1037BD4680BDF8
:1036AC00A401002080B483B000AF00237B60104ADB
:1036BC000F4B5B6C43F4804353640D4B5B6C03F416
:1036CC0080437B607B6800233B60094A084B1B6C82
:1036DC0043F080531364064B1B6C03F080533B6028
:1036EC003B6800BF0C37BD465DF8047B704700BFDC
:1036FC000038024080B584B000AF78607B681B68EE
:10370C000E4A934215D10023FB600D4A0C4B1B6BE8
:10371C0043F4000313630A4B1B6B03F40003FB60BD
:10372C00FB68002200215A20FDF74BF85A20FDF7C8
:10373C0064F800BF1037BD4680BD00BF00B002402A
:10374C000038024080B58EB000AF786007F12403DA
:10375C0000221A605A609A60DA601A617B681B68F2
:10376C00774A934240F0E88000233B62754A754BE0
:10377C005B6C43F080635364724B5B6C03F080634F
:10378C003B623B6A0023FB616E4A6E4B1B6B43F042
:10379C00200313636B4B1B6B03F02003FB61FB6972
:1037AC000023BB61674A674B1B6B43F00103136338
:1037BC00644B1B6B03F00103BB61BB6900237B6192
:1037CC00604A604B1B6B43F0020313635D4B1B6B36
:1037DC0003F002037B617B6900233B61594A594B1F
:1037EC001B6B43F040031363564B1B6B03F04003FE
:1037FC003B613B690023FB60524A524B1B6B43F00D
:10380C00040313634F4B1B6B03F00403FB60FB6857
:10381C000023BB604B4A4B4B1B6B43F008031363F9
:10382C00484B1B6B03F00803BB60BB684FF4806311
:10383C007B620223BB620023FB6202233B630E23E9
:10384C007B6307F1240319463F48FDF795FB41F6CE
:10385C0058037B620223BB620023FB6202233B639F
:10386C000E237B6307F1240319463848FDF784FBCC
:10387C0003237B620223BB620023FB6202233B63B4
:10388C0009237B6307F1240319463148FDF774FBC8
:10389C004FF470637B620223BB620023FB62022342
:1038AC003B630E237B6307F1240319462848FDF77D
:1038BC0063FB4FF40C637B620223BB620023FB624D
:1038CC0002233B630E237B6307F124031946214833
:1038DC00FDF752FB4FF498637B620223BB6200231B
:1038EC00FB6202233B630E237B6307F1240319461F
:1038FC001948FDF741FB48237B620223BB6200237E
:10390C00FB6202233B630E237B6307F124031946FE
:10391C001248FDF731FB4FF4A0537B620223BB62CC
:10392C000023FB6202233B6309237B6307F124031F
:10393C0019460848FDF720FB00BF3837BD4680BD4F
:10394C0000680140003802400014024000000240B0
:10395C00000402400018024000080240000C024023
:10396C0080B58AB000AF786007F1140300221A60AA
:10397C005A609A60DA601A617B681B68194A934234
:10398C002CD100233B61184A174B5B6C43F480131A
:10399C005364154B5B6C03F480133B613B69002350
:1039AC00FB60114A104B1B6B43F0200313630E4B4F
:1039BC001B6B03F02003FB60FB684FF460737B61AF
:1039CC000223BB610023FB6103233B6205237B6263
:1039DC0007F1140319460548FDF7CEFA00BF283746
:1039EC00BD4680BD0050014000380240001402402A
:1039FC0080B586B000AF3C4B1B68002B6FD13A4BA7
:103A0C0001221A6000233B60384A384B9B6B43F011
:103A1C0001039363354B9B6B03F001033B603B68E5
:103A2C004FF63F037B600223BB600023FB60032344
:103A3C003B610C237B613B1D19462D48FDF79CFA1D
:103A4C0001237B600223BB600023FB6003233B61EB
:103A5C000C237B613B1D19462648FDF78DFA48F275
:103A6C0033137B600223BB600023FB6003233B61A9
:103A7C000C237B613B1D19461F48FDF77DFA4FF661
:103A8C0083737B600223BB600023FB6003233B61D9
:103A9C000C237B613B1D19461848FDF76DFA4CF25F
:103AAC0003737B600223BB600023FB6003233B6139
:103ABC000C237B613B1D19461148FDF75DFA602311
:103ACC007B600223BB600023FB6003233B610C2360
:103ADC007B613B1D19460B48FDF74EFA00E000BF19
:103AEC001837BD4680BD00BF2800002000380240BA
:103AFC00001402400008024000180240001002406E
:103B0C00000C02400004024080B582B000AF786027
:103B1C00FFF76EFF00BF0837BD4680BD80B400AF15
:103B2C0000BFBD465DF8047B704780B400AFFEE774
:103B3C0080B400AFFEE780B400AFFEE780B400AF06
:103B4C00FEE780B400AF00BFBD465DF8047B704754
:103B5C0080B400AF00BFBD465DF8047B704780B4F5
:103B6C0000AF00BFBD465DF8047B704780B500AF69
:103B7C00FCF710FD00BF80BD80B500AF0248FCF71C
:103B8C00B2FF00BF80BD00BF3001002080B400AF89
:103B9C00164A164BD3F8883043F47003C2F88830B9
:103BAC00134A134B1B6843F001031360104B0022A4
:103BBC009A600F4A0E4B1B6823F0847323F48033F6
:103BCC0013600B4B0B4A5A60094A094B1B6823F4D0
:103BDC0080231360064B0022DA60044B4FF0006226
:103BEC009A6000BFBD465DF8047B704700ED00E0B5
:103BFC000038024010300024DFF834D0002103E0FC
:103C0C000C4B5B58435004310B480C4B42189A42F6
:103C1C00F6D30B4A02E0002342F8043B094B9A42CC
:103C2C00F9D3FFF7B3FF00F011F8FFF707FA70476D
:103C3C0000000320E83C0008000000200C000020DD
:103C4C000C000020B4010020FEE7000070B50D4E02
:103C5C000D4CA41BA4100025A54209D10B4E0C4CF5
:103C6C0000F020F8A41BA4100025A54205D170BDBE
:103C7C0056F8253098470135EEE756F82530984729
:103C8C000135F2E7E03C0008E03C0008E03C0008AD
:103C9C00E43C000802440346934200D1704703F809
:103CAC00011BF9E7F8B500BFF8BC08BC9E4670478D
:0C3CBC00F8B500BFF8BC08BC9E4670477D
:103CC80000000000000000000102030406070809C4
:083CD80044C5FF7F010000005C
:043CE000D101000806
:043CE400AD01000826
:0C3CE80010000000010000000024F400A7
:0400000508003C05AE
:00000001FF
