:020000040800F2
:1000000000000320596B000855650008636500086F
:10001000696500086F65000875650008000000004C
:1000200000000000000000000000000091440008F3
:100030007B65000800000000A146000889650008F3
:10004000A96B0008A96B0008A96B0008A96B000840
:10005000A96B0008A96B0008A96B0008A96B000830
:10006000A96B0008A96B0008A96B0008A96B000820
:10007000A96B0008A96B0008A96B0008A96B000810
:10008000A96B0008A96B0008A96B0008A96B000800
:10009000A96B0008A96B0008A96B0008A96B0008F0
:1000A000A96B0008A96B0008A96B0008A96B0008E0
:1000B000A96B0008A96B0008A96B0008A96B0008D0
:1000C000A96B0008A96B0008A96B0008A96B0008C0
:1000D000A96B0008A96B0008A96B0008A96B0008B0
:1000E000A96B0008A96B0008A96B0008A96B0008A0
:1000F000A96B0008A96B0008A96B0008A96B000890
:10010000A96B0008A96B0008A96B0008A96B00087F
:10011000A96B0008A96B0008A96B0008A96B00086F
:10012000A96B0008A96B0008A96B0008A96B00085F
:10013000A96B0008A96B0008A96B0008A96B00084F
:10014000A96B0008A96B0008A96B0008A96B00083F
:10015000A96B0008A96B0008A96B0008A96B00082F
:10016000A96B0008A96B0008A96B0008A96B00081F
:10017000A96B0008A96B0008A96B0008000000002B
:10018000A96B0008A96B0008A96B0008A96B0008FF
:10019000A96B0008A96B0008A96B0008A96B0008EF
:0C01A000A96B0008A96B00089965000815
:1001B00010B5054C237833B9044B13B10448AFF3A1
:1001C00000800123237010BD780000200000000093
:1001D0005C74000808B5034B1BB103490348AFF337
:1001E000008008BD000000007C0000205C74000856
:1001F00001F0FF01102A2BDB10F0070F08D010F8D8
:10020000013B013A8B422DD010F0070F42B3F6D1DB
:10021000F0B441EA012141EA014122F007047FF0F4
:1002200000070023F0E80256083C85EA010586EA4B
:10023000010685FA47F5A3FA87F586FA47F6A5FA87
:1002400087F68EB9EED1F0BC01F0FF0102F0070293
:1002500032B110F8013B013A83EA010313B1F8D13E
:100260000020704701387047002D06BF354603381F
:10027000073815F0010F07D1013015F4807F02BF58
:10028000013015F4C03F0130F0BC0138704700BFA9
:1002900053B94AB9002908BF00281CBF4FF0FF31ED
:1002A0004FF0FF3000F07AB9ADF1080C6DE904CEE3
:1002B00000F006F8DDF804E0DDE9022304B0704741
:1002C0002DE9F0478C460D460446089E002B51D17F
:1002D0008A4217466DD9B2FA82FEBEF1000F0BD0EA
:1002E000CEF1200C01FA0EF520FA0CFC02FA0EF702
:1002F0004CEA050C00FA0EF44FEA174A250CBCFB39
:10030000FAF81FFA87F90AFB18CC45EA0C4508FBF6
:1003100009F3AB420AD9ED1908F1FF3280F02381CD
:10032000AB4240F22081A8F102083D44ED1AA4B28C
:10033000B5FBFAF00AFB105544EA054400FB09F945
:10034000A14509D9E41900F1FF3380F00A81A145E4
:1003500040F2078102383C44A4EB090440EA08401B
:100360000021002E61D024FA0EF400233460736063
:10037000BDE8F0878B4207D9002E54D0002186E8D3
:1003800021000846BDE8F087B3FA83F1002940F068
:100390008E80AB4202D3824200F2FA80841A65EB6F
:1003A00003050120AC46002E3FD086E81010BDE8C2
:1003B000F08712B90127B7FBF2F7B7FA87FEBEF153
:1003C000000F34D1EB1B3A0C1FFA87FC0121B3FB61
:1003D000F2F8250C02FB183345EA03450CFB08F341
:1003E000AB4207D9ED1908F1FF3002D2AB4200F25F
:1003F000D1808046ED1AA3B2B5FBF2F002FB105596
:1004000043EA05440CFB00FCA44507D9E41900F1BC
:10041000FF3302D2A44500F2B8801846A4EB0C04C6
:1004200040EA08409DE731463046BDE8F087CEF10E
:10043000200405FA0EF307FA0EF720FA04F83A0C36
:1004400025FA04F448EA0308B4FBF2F14FEA184530
:1004500002FB11441FFA87FC45EA044501FB0CF33B
:10046000AB4200FA0EF409D9ED1901F1FF3080F02A
:100470008A80AB4240F2878002393D44EB1A1FFA72
:1004800088F5B3FBF2F002FB103345EA034500FBAD
:100490000CF3AB4207D9ED1900F1FF386FD2AB4234
:1004A0006DD902383D44EB1A40EA01418FE7C1F1B2
:1004B000200722FA07F88B4005FA01F448EA030303
:1004C00020FA07FE4FEA134CFD404EEA040EB5FB3E
:1004D000FCF94FEA1E440CFB19551FFA83F844EA55
:1004E000054509FB08F4AC4202FA01F200FA01FAF0
:1004F00008D9ED1809F1FF3043D2AC4241D9A9F136
:1005000002091D442D1B1FFA8EFEB5FBFCF00CFBEF
:1005100010554EEA054400FB08F8A04507D9E41839
:1005200000F1FF3529D2A04527D902381C4440EA02
:100530000940A4EB0804A0FB02894C45C6464D4681
:1005400015D312D056B1BAEB0E0364EB050404FACE
:1005500007F7CB401F43CC40376074600021BDE8F3
:10056000F0871846F8E69046E0E6C245EAD2B8EBD6
:10057000020E69EB03050138E4E72846D7E7404659
:1005800091E78146BEE7014678E702383C4445E7FB
:10059000084608E7A8F102083D442BE7704700BF72
:1005A00080B500AF0E4A0E4B1B6843F40073136016
:1005B0000B4A0B4B1B6843F480631360084A084BDB
:1005C0001B6843F480731360032000F047F90F2089
:1005D00000F008F805F0AAFD0023184680BD00BF12
:1005E000003C024080B582B000AF7860124B1A68C0
:1005F000124B1B7819464FF47A73B3FBF1F3B2FB3D
:10060000F3F3184600F05FF90346002B01D00123F5
:100610000EE07B680F2B0AD8002279684FF0FF307C
:1006200000F027F9064A7B681360002300E00123ED
:1006300018460837BD4680BD100000200400002089
:100640000000002080B400AF064B1B781A46064B12
:100650001B681344044A136000BFBD465DF8047B69
:10066000704700BF04000020583E002080B400AF57
:10067000034B1B681846BD465DF8047B704700BFFE
:10068000583E002080B584B000AF7860FFF7EEFFE1
:10069000B8607B68FB60FB68B3F1FF3F05D0094B96
:1006A0001B781A46FB681344FB6000BFFFF7DEFFB0
:1006B0000246BB68D21AFB689A42F7D300BF1037D4
:1006C000BD4680BD0400002080B485B000AF7860D6
:1006D0007B6803F00703FB600C4BDB68BB60BA6808
:1006E0004FF6FF031340BB60FB681A02BB6813435D
:1006F00043F0BF6343F40033BB60044ABB68D3607C
:1007000000BF1437BD465DF8047B704700ED00E084
:1007100080B400AF044BDB681B0A03F007031846E4
:10072000BD465DF8047B704700ED00E080B483B007
:1007300000AF0346FB71094997F907305B09FA7965
:1007400002F01F02012000FA02F241F8232000BF4C
:100750000C37BD465DF8047B704700BF00E100E048
:1007600080B483B000AF03463960FB7197F907305E
:10077000002B0BDA0D49FB7903F00F03043B3A68B9
:10078000D2B21201D2B20B441A7609E0084997F9A5
:1007900007303A68D2B21201D2B20B4483F8002378
:1007A00000BF0C37BD465DF8047B704700ED00E0EC
:1007B00000E100E080B489B000AFF860B9607A6011
:1007C000FB6803F00703FB61FB69C3F10703042B1C
:1007D00028BF0423BB61FB690433062B02D9FB69E4
:1007E000033B00E000237B610122BB6902FA03F3B3
:1007F0005A1EBB681A407B699A4001217B6901FA45
:1008000003F3591E7B680B40134318462437BD463B
:100810005DF8047B7047000080B582B000AF78605F
:100820007B68013BB3F1807F01D301230FE00A4ACB
:100830007B68013B53600F214FF0FF30FFF790FFC3
:10084000054B00229A60044B07221A6000231846C9
:100850000837BD4680BD00BF10E000E080B582B023
:1008600000AF78607868FFF72FFF00BF0837BD46FC
:1008700080BD80B586B000AF0346B9607A60FB7377
:1008800000237B61FFF744FF78617A68B968786973
:10089000FFF790FF024697F90F3011461846FFF711
:1008A0005FFF00BF1837BD4680BD80B582B000AF86
:1008B0000346FB7197F907301846FFF737FF00BF73
:1008C0000837BD4680BD80B582B000AF78607868DB
:1008D000FFF7A2FF034618460837BD4680BD00005B
:1008E00080B586B000AF786000237B61FFF7BEFE65
:1008F00038617B68002B01D1012399E07B680022DD
:1009000083F834207B68022283F835207B681B68DB
:100910007A681268126822F001021A600FE0FFF78D
:10092000A5FE02463B69D31A052B08D97B68202215
:100930005A657B68032283F83520032378E07B68BF
:100940001B681B6803F00103002BE8D17B681B6860
:100950001B687B617A69384B13407B617B685A68FE
:100960007B689B681A437B68DB681A437B681B695A
:100970001A437B685B691A437B689B691A437B68EF
:10098000DB691A437B681B6A13437A6913437B61F3
:100990007B685B6A042B07D17B68DA6A7B681B6B18
:1009A00013437A6913437B617B681B687A691A6019
:1009B0007B681B685B697B617B6923F007037B6154
:1009C0007B685B6A7A6913437B617B685B6A042B93
:1009D00017D17B689B6A7A6913437B617B68DB6A0A
:1009E000002B0ED0786800F0ABF80346002B08D03F
:1009F0007B6840225A657B68012283F835200123F9
:100A000016E07B681B687A695A61786800F062F8C2
:100A10000346FB607B68DB6D3F229A40FB689A606F
:100A20007B6800225A657B68012283F83520002309
:100A300018461837BD4680BD3F8010F080B584B0A1
:100A400000AF78607B68002B01D101233EE07B681A
:100A500093F83530DBB2022B01D1022336E07B68FC
:100A60001B687A681268126822F001021A607B68BB
:100A70001B6800221A607B681B6800225A607B6832
:100A80001B6800229A607B681B680022DA607B6822
:100A90001B6800221A617B681B6821225A617868F2
:100AA00000F018F80346FB607B68DB6D3F229A403C
:100AB000FB689A607B6800225A657B68002283F895
:100AC00035207B68002283F8342000231846103735
:100AD000BD4680BD80B485B000AF78607B681B6880
:100AE000DBB2103B144AA2FB03231B09FB60134A31
:100AF000FB6813441B781A467B68DA65FB68032B96
:100B000009D97B681B6823F47F7323F003031A1D44
:100B10007B689A6507E07B681B6823F47F7323F08A
:100B200003037A6893657B689B6D18461437BD464E
:100B30005DF8047B704700BFABAAAAAAB074000896
:100B400080B485B000AF78600023FB737B689B6A3C
:100B5000BB607B689B69002B1FD1BB68032B55D8FA
:100B600001A252F823F000BF790B00088B0B00089C
:100B7000790B00080D0C00087B68DB6A03F08073BA
:100B8000002B45D00123FB7342E07B68DB6AB3F1A5
:100B9000C07F3FD10123FB733CE07B689B69B3F5C9
:100BA000005F21D1BB68032B36D801A252F823F095
:100BB000C10B0008C70B0008C10B0008D90B0008C7
:100BC0000123FB732FE07B68DB6A03F08073002B4B
:100BD00024D00123FB7321E07B68DB6AB3F1C07F83
:100BE0001ED10123FB731BE0BB68022B02D9032B30
:100BF00003D018E00123FB7315E07B68DB6A03F088
:100C00008073002B0ED00123FB730BE000BF0AE0C2
:100C100000BF08E000BF06E000BF04E000BF02E044
:100C200000BF00E000BFFB7B18461437BD465DF8EF
:100C3000047B704780B582B000AF78607B68002B82
:100C400001D101233BE07B6893F83930DBB2002B04
:100C500006D17B68002283F83820786805F092FA84
:100C60007B68022283F839207B681B687A681268E7
:100C7000126822F440317A6852680A431A607B682D
:100C80001B687A681268526B22F007017A689268D2
:100C90000A435A637B681A687B681B681B6C23F4E1
:100CA0007F5323F03F037968C9680B4313647B6863
:100CB0000022DA637B68012283F83920002318467A
:100CC0000837BD4680BD80B586B002AFF860B96018
:100CD0007A603B60FB6893F83830012B01D1022326
:100CE00018E0FB68012283F83820FB68022283F8B1
:100CF0003920BB6900933B687A68B968F86800F0EE
:100D000097FAFB681B68FA681268126842F00102E1
:100D10001A60002318461037BD4680BD80B584B0E8
:100D200000AF786039600023FB600023BB607B6804
:100D30001B681B6803F00103002B56D0FFF796FCDD
:100D4000F8604BE07B681B685B68BB60BB6803F0C6
:100D50002103002B23D0BB6803F02003002B05D018
:100D60007B68DB6B43F002027B68DA63BB6803F0ED
:100D70000103002B05D07B68DB6B43F001027B682D
:100D8000DA637B681B6821229A607B68042283F8FF
:100D900039207B68002283F838200123A2E03B68D9
:100DA000B3F1FF3F1AD03B68002B07D0FFF75EFC82
:100DB0000246FB68D21A3B689A420FD97B68DB6B0C
:100DC00043F020027B68DA637B68032283F83920D2
:100DD0007B68002283F83820032383E07B681B684C
:100DE0005B6803F00203002BACD07B681B68DB69F7
:100DF00003F02003002B06D17B681B685B6A03F0BD
:100E00002003002B61D0FFF731FCF86056E07B68CF
:100E10001B685B68BB60BB6803F02903002B2ED006
:100E2000BB6803F00803002B05D07B68DB6B43F045
:100E300004027B68DA63BB6803F02003002B05D053
:100E40007B68DB6B43F002027B68DA63BB6803F00C
:100E50000103002B05D07B68DB6B43F001027B684C
:100E6000DA637B681B6829229A607B68042283F816
:100E700039207B68002283F83820012332E03B6868
:100E8000B3F1FF3F1AD03B68002B07D0FFF7EEFB12
:100E90000246FB68D21A3B689A420FD97B68DB6B2B
:100EA00043F020027B68DA637B68032283F83920F1
:100EB0007B68002283F83820032313E07B681B68DB
:100EC0005B6803F01003002BA1D07B681B68122223
:100ED0009A607B68012283F839207B68002283F8BE
:100EE0003820002318461037BD4680BD80B584B039
:100EF00000AF78607B681B685B68FB607B681B6881
:100F00001B68BB60FB6803F00103002B26D0BB68A5
:100F100003F48073002B21D07B681B687A68126809
:100F2000126822F480721A607B68DB6B43F0010266
:100F30007B68DA637B681B6801229A607B68042205
:100F400083F839207B68002283F838207B685B694E
:100F5000002B03D07B685B6978689847FB6803F0D7
:100F60002003002B26D0BB6803F40053002B21D0B4
:100F70007B681B687A681268126822F400521A6053
:100F80007B681B6820229A607B68DB6B43F002025F
:100F90007B68DA637B68042283F839207B6800224F
:100FA00083F838207B685B69002B03D07B685B6922
:100FB00078689847FB6803F00803002B26D0BB68CD
:100FC00003F40063002B21D07B681B687A681268E9
:100FD000126822F400621A607B681B6808229A601B
:100FE0007B68DB6B43F004027B68DA637B68042276
:100FF00083F839207B68002283F838207B685B699E
:10100000002B03D07B685B6978689847FB6803F026
:101010000403002B13D0BB6803F48063002B0ED0B5
:101020007B681B687A681268126822F480621A6012
:101030007B681B6804229A60786800F053F8FB68AC
:1010400003F00203002B24D0BB6803F40073002BD1
:101050001FD07B681B687A681268126822F40072DD
:101060001A607B681B6802229A607B68DA6B7B6877
:10107000DA637B68012283F839207B68002283F8D9
:1010800038207B681B69002B03D07B681B6978685C
:101090009847FB6803F01003002B1FD0BB6803F4D4
:1010A0008053002B1AD07B681B687A68126812681C
:1010B00022F480521A607B681B6810229A607B6859
:1010C000DA6B7B68DA637B68012283F839207B68FE
:1010D000002283F83820786800F00EF800BF10373F
:1010E000BD4680BD80B483B000AF786000BF0C37D0
:1010F000BD465DF8047B704780B483B000AF786074
:1011000000BF0C37BD465DF8047B704780B485B0E6
:1011100000AF786039603B681B0118337A6813446C
:10112000BB600023FB607B685B68B3F5403F7B6876
:1011300093F83830012B01D1022370E07B68012243
:1011400083F838207B68022283F83920BB685B680B
:101150000A2B03D0BB685B68092B0CD1BB685A68AB
:10116000BB689B681B041A43BB68DB6803F07F43C2
:101170001343FB600AE0BB685A68BB689B681B04AA
:101180001A43BB68DB681B061343FB603B68002BFC
:101190001ED17B681A687B681B68596A234B0B4019
:1011A000F9680B4353627B681B68BA6812689A61DE
:1011B000BB685B680A2B03D0BB685B68092B25D131
:1011C0007B681B68BA68D26822F07F429A621DE091
:1011D0007B681A687B681B68D969144B0B40F968F7
:1011E0000B43D3617B681B68BA6812681A61BB68DD
:1011F0005B680A2B03D0BB685B68092B06D17B6850
:101200001B68BA68D26822F07F421A627B680122AA
:1012100083F839207B68002283F8382000231846A1
:101220001437BD465DF8047B704700BFF0FFFC003B
:1012300080B48BB000AFF860B9607A603B60002387
:101240007B6200233B620023FB610023BB61002320
:101250007B61FB681B68FA681268526C02F04041BF
:101260003A6810043A6B02430A435A64FB681B68ED
:101270007A68DA63FB685B68B3F5403F74D1BB689A
:1012800003F07F433B62BB6803F47F03FB61BB68F1
:1012900003F47F43BB61BB68DBB27B61FB689B6887
:1012A000002B08D1BA69FB691A433B6A1A437B6970
:1012B00013437B6253E0FB689B68012B06D1BA693C
:1012C000FB691A437B6913437B6248E0FB689B68B8
:1012D000022B11D1FB69DB0CFB61BB699B0ABB6173
:1012E0007B69DB087B61BB695A01FB69DB021A433E
:1012F0007B6913437B6232E0FB689B68032B17D149
:101300003B6ADB0F3B62FB69DB0CFB61BB69DB0A01
:10131000BB617B69DB087B61BB695A01FB699B028E
:101320001A433B6ADB031A437B6913437B6216E073
:101330003B6A1B0F3B62FB691B0DFB61BB691B0B0F
:10134000BB617B691B097B61BB691A01FB691B02DD
:101350001A433B6A1B031A437B6913437B62FB6896
:101360001B687A6A9A6303E0FB681B68BA68DA60F4
:1013700000BF2C37BD465DF8047B704780B489B050
:1013800000AF7860396000237B6100233B6100235C
:10139000BB610023FB6177E10122FB6902FA03F3E1
:1013A0007B613B681A687B6913403B613A697B69E2
:1013B0009A4240F066813B685B68022B03D03B6831
:1013C0005B68122B23D1FB69DA087B68083253F87B
:1013D0002230BB61FB6903F007039B000F2202FA76
:1013E00003F3DB43BA691340BB613B681A69FB69CD
:1013F00003F007039B0002FA03F3BA691343BB61CE
:10140000FB69DA087B680832B96943F822107B6807
:101410001B68BB61FB695B00032202FA03F3DB4339
:10142000BA691340BB613B685B6803F00302FB6968
:101430005B0002FA03F3BA691343BB617B68BA69C4
:101440001A603B685B68012B0BD03B685B68022B22
:1014500007D03B685B68112B03D03B685B68122B9D
:1014600030D17B689B68BB61FB695B00032202FA99
:1014700003F3DB43BA691340BB613B68DA68FB697D
:101480005B0002FA03F3BA691343BB617B68BA6974
:101490009A607B685B68BB610122FB6902FA03F317
:1014A000DB43BA691340BB613B685B681B0903F00F
:1014B0000102FB6902FA03F3BA691343BB617B685B
:1014C000BA695A607B68DB68BB61FB695B00032219
:1014D00002FA03F3DB43BA691340BB613B689A68C5
:1014E000FB695B0002FA03F3BA691343BB617B68D3
:1014F000BA69DA603B685B6803F08053002B00F048
:10150000C0800023FB60654A644B5B6C43F48043FE
:101510005364624B5B6C03F48043FB60FB68604A7E
:10152000FB699B08023352F82330BB61FB6903F06F
:1015300003039B000F2202FA03F3DB43BA69134053
:10154000BB617B68574A934237D07B68564A9342C7
:1015500031D07B68554A93422BD07B68544A9342E2
:1015600025D07B68534A93421FD07B68524A9342EE
:1015700019D07B68514A934213D07B68504A9342FA
:101580000DD07B684F4A934207D07B684E4A934206
:1015900001D1092312E00A2310E008230EE00723FB
:1015A0000CE006230AE0052308E0042306E00323F9
:1015B00004E0022302E0012300E00023FA6902F0C4
:1015C000030292009340BA691343BB613449FB693B
:1015D0009B080233BA6941F823203C4B1B68BB616E
:1015E0003B69DB43BA691340BB613B685B6803F44A
:1015F0008033002B03D0BA693B691343BB61334A84
:10160000BB691360314B5B68BB613B69DB43BA6903
:101610001340BB613B685B6803F40033002B03D0CD
:10162000BA693B691343BB61284ABB695360274BC6
:101630009B68BB613B69DB43BA691340BB613B6894
:101640005B6803F48013002B03D0BA693B69134332
:10165000BB611E4ABB6993601C4BDB68BB613B6985
:10166000DB43BA691340BB613B685B6803F400135A
:10167000002B03D0BA693B691343BB61134ABB69B2
:10168000D360FB690133FB61FB690F2B7FF684AEEE
:1016900000BF2437BD465DF8047B70470038024028
:1016A00000380140000002400004024000080240EF
:1016B000000C0240001002400014024000180240DA
:1016C000001C02400020024000240240003C014077
:1016D00080B485B000AF78600B467B807B681A6968
:1016E0007B881340002B02D00123FB7301E0002311
:1016F000FB73FB7B18461437BD465DF8047B7047CF
:1017000080B483B000AF78600B467B8013467B705B
:101710007B78002B03D07A887B689A6103E07B8812
:101720001A047B689A6100BF0C37BD465DF8047BE4
:101730007047000080B584B000AF78600023FB6084
:101740000023BB607B68002B01D10123C8E07B68CC
:1017500093F83D30DBB2002B06D17B68002283F882
:101760003C20786804F036FD7B68242283F83D2015
:101770007B681B687A681268126822F001021A609E
:1017800001F08EFEB860BB68574AA2FB03239B0C96
:10179000FB607B681B68FA685A607B681A687B6824
:1017A0005B6852498B4202D8FB68013309E0FB6851
:1017B0004FF4967101FB03F34D49A1FB03139B0901
:1017C000013313627B6819687B685B68474A934200
:1017D00012D87B685B685B00BA68B2FBF3F3C3F3B3
:1017E0000B03032B06D97B685B685B00BA68B2FB0E
:1017F000F3F345E0042343E07B689B68002B0FD1A3
:101800007B685A6813465B001344BA68B2FBF3F373
:10181000C3F30B03002B0CBF01230023DBB210E04A
:101820007B685A6813469B0013449A001344BA68B5
:10183000B2FBF3F3C3F30B03002B0CBF0123002314
:10184000DBB2002B01D001231AE07B689B68002BE0
:101850000AD17B685A6813465B001344BA68B2FB2E
:10186000F3F343F400430BE07B685A6813469B0094
:1018700013449A001344BA68B2FBF3F343F44043B1
:10188000CB617B681B687A68D1697A68126A0A43FF
:101890001A607B681B687A6811697A68D2680A43A3
:1018A0009A607B681B687A6851697A6892690A4312
:1018B000DA607B681B687A681268126842F001027D
:1018C0001A607B6800221A647B68202283F83D201E
:1018D0007B6800221A637B68002283F83E20002385
:1018E00018461037BD4680BD83DE1B43A08601002D
:1018F000D34D621080B588B002AFF8607A601A46A6
:101900000B467B8113463B8100237B61FEF7AEFED5
:101910007861FB6893F83D30DBB2202B40F0EE801D
:101920007B690093192301227749F86800F06CFC69
:101930000346002B01D00223E1E0FB6893F83C3022
:10194000012B01D10223DAE0FB68012283F83C205D
:10195000FB681B681B6803F00103012B07D0FB68C1
:101960001B68FA681268126842F001021A60FB688C
:101970001B68FA681268126822F400621A60FB6839
:10198000212283F83D20FB68102283F83E20FB686B
:1019900000221A64FB687A685A62FB683A895A85A1
:1019A000FB685A4ADA62FB685B8D9AB2FB681A855B
:1019B00079897B693A6AF86800F0DCFA0346002B03
:1019C0000FD0FB681B6C042B05D1FB68002283F849
:1019D0003C20012393E0FB68002283F83C20032392
:1019E0008DE000233B61FB681B685B693B61FB6822
:1019F0001B689B693B613B6966E07A69396AF868F4
:101A000000F0C1FC0346002B0FD0FB681B6C042BBD
:101A100009D1FB681B68FA681268126842F4007208
:101A20001A6001236BE0032369E0FB681A68FB6816
:101A30005B6A581CF96848621B781361FB685B8D10
:101A40009BB2013B9AB2FB685A85FB681B8D013B38
:101A50009AB2FB681A85FB681B685B6903F0040394
:101A6000042B19D1FB681B8D002B15D0FB681A685D
:101A7000FB685B6A581CF96848621B781361FB6855
:101A80005B8D9BB2013B9AB2FB685A85FB681B8D4C
:101A9000013B9AB2FB681A857A69396AF86800F0E6
:101AA000AFFC0346002B0FD0FB681B6C042B09D145
:101AB000FB681B68FA681268126842F400721A60C8
:101AC00001231CE003231AE0FB681B8D002B94D13B
:101AD000FB681B68FA681268126842F400721A60A8
:101AE000FB68202283F83D20FB68002283F83E201B
:101AF000FB68002283F83C20002300E00223184604
:101B00001837BD4680BD00BF020010000000FFFF77
:101B100080B58CB002AFF8607A601A460B467B81C4
:101B200013463B8100237B62FEF7A0FD7862FB68D1
:101B300093F83D30DBB2202B40F015827B6A009396
:101B4000192301228549F86800F05EFB0346002B4B
:101B500001D0022308E2FB6893F83C30012B01D14D
:101B6000022301E2FB68012283F83C20FB681B682A
:101B70001B6803F00103012B07D0FB681B68FA68A0
:101B80001268126842F001021A60FB681B68FA686A
:101B90001268126822F400621A60FB68222283F83D
:101BA0003D20FB68102283F83E20FB6800221A6467
:101BB000FB687A685A62FB683A895A85FB68684A0A
:101BC000DA62FB685B8D9AB2FB681A8579897B6A59
:101BD0003A6BF86800F050FA0346002B0FD0FB6810
:101BE0001B6C042B05D1FB68002283F83C200123E9
:101BF000BAE1FB68002283F83C200323B4E1FB68D0
:101C00001B8D002B13D100233B62FB681B685B69B3
:101C10003B62FB681B689B693B623B6AFB681B6815
:101C2000FA681268126842F400721A6088E1FB6870
:101C30001B8D012B1BD1FB681B68FA6812681268A8
:101C400022F480621A600023FB61FB681B685B69F9
:101C5000FB61FB681B689B69FB61FB69FB681B6898
:101C6000FA681268126842F400721A6068E1FB6850
:101C70001B8D022B1BD1FB681B68FA681268126867
:101C800022F480621A60FB681B68FA6812681268A6
:101C900042F400621A600023BB61FB681B685B6949
:101CA000BB61FB681B689B69BB61BB6948E1FB6862
:101CB0001B68FA681268126842F480621A60002396
:101CC0007B61FB681B685B697B61FB681B689B69C8
:101CD0007B617B6934E1FB681B8D032B00F2EB8099
:101CE000FB681B8D012B27D17A6A396BF86800F0ED
:101CF000C4FB0346002B07D0FB681B6C202B01D1D3
:101D0000032331E101232FE1FB685B6A591CFA6868
:101D10005162FA6812681269D2B21A70FB681B8DA0
:101D2000013B9AB2FB681A85FB685B8D9BB2013B55
:101D30009AB2FB685A8503E1FB681B8D022B4AD1DE
:101D40007B6A00933B6B00220649F86800F05CFA5E
:101D50000346002B08D0032306E100BF0200100059
:101D60000000FFFF04000100FB681B68FA681268AE
:101D7000126842F400721A60FB685B6A591CFA68C8
:101D80005162FA6812681269D2B21A70FB681B8D30
:101D9000013B9AB2FB681A85FB685B8D9BB2013BE5
:101DA0009AB2FB685A85FB685B6A591CFA685162F3
:101DB000FA6812681269D2B21A70FB681B8D013B77
:101DC0009AB2FB681A85FB685B8D9BB2013B9AB2A5
:101DD000FB685A85B4E07B6A00933B6B0022644940
:101DE000F86800F011FA0346002B01D00323BBE092
:101DF000FB681B68FA681268126822F480621A6035
:101E0000FB685B6A591CFA685162FA6812681269C9
:101E1000D2B21A70FB681B8D013B9AB2FB681A851F
:101E2000FB685B8D9BB2013B9AB2FB685A857B6A6B
:101E300000933B6B00224E49F86800F0E5F9034639
:101E4000002B01D003238FE0FB681B68FA6812683F
:101E5000126842F400721A60FB685B6A591CFA68E7
:101E60005162FA6812681269D2B21A70FB681B8D4F
:101E7000013B9AB2FB681A85FB685B8D9BB2013B04
:101E80009AB2FB685A85FB685B6A591CFA68516212
:101E9000FA6812681269D2B21A70FB681B8D013B96
:101EA0009AB2FB681A85FB685B8D9BB2013B9AB2C4
:101EB000FB685A8544E07A6A396BF86800F0DDFA0D
:101EC0000346002B07D0FB681B6C202B01D103239A
:101ED0004AE0012348E0FB685B6A591CFA685162DA
:101EE000FA6812681269D2B21A70FB681B8D013B46
:101EF0009AB2FB681A85FB685B8D9BB2013B9AB274
:101F0000FB685A85FB681B685B6903F00403042BBC
:101F100016D1FB685B6A591CFA685162FA6812684C
:101F20001269D2B21A70FB681B8D013B9AB2FB6832
:101F30001A85FB685B8D9BB2013B9AB2FB685A85A0
:101F4000FB681B8D002B7FF4C6AEFB68202283F854
:101F50003D20FB68002283F83E20FB68002283F8C6
:101F60003C20002300E0022318462837BD4680BDF0
:101F70000400010080B588B002AFF8607A603B6071
:101F80000B467B81FB68DB6A7B617B69042B06D097
:101F90007B69012B03D07B6913F5803F08D1FB6877
:101FA0001B68FA681268126842F480721A600BE0CB
:101FB000FB681B6B122B07D1FB681B68FA68126861
:101FC000126842F480721A603B6800937B680022BA
:101FD0004FF00111F86800F017F90346002B01D00B
:101FE000032340E0FB681B69B3F5804F07D1FB6812
:101FF0001B687A89D2B202F0FE021A6121E0FB6806
:102000001B687A89D211D2B202F00602D2B262F013
:102010000F02D2B21A613B687A681549F86800F07D
:1020200044F90346002B07D0FB681B6C042B01D13D
:10203000012318E0032316E0FB681B687A89D2B2FB
:102040001A613B687A680B49F86800F02EF903467C
:10205000002B07D0FB681B6C042B01D1012302E08D
:10206000032300E0002318461837BD4680BD00BF9B
:10207000080001000200010080B588B002AFF860DE
:102080007A603B600B467B81FB68DB6A7B61FB68A7
:102090001B68FA681268126842F480621A607B69F1
:1020A000042B06D07B69012B03D07B6913F5803F9D
:1020B00008D1FB681B68FA681268126842F48072E3
:1020C0001A600BE0FB681B6B112B07D1FB681B68C8
:1020D000FA681268126842F480721A603B680093D2
:1020E0007B6800224FF00111F86800F08DF803467C
:1020F000002B01D003237FE0FB681B69B3F5804F01
:1021000008D1FB681B687A89D2B242F00102D2B2D0
:102110001A615FE0FB681B687A89D211D2B202F0C3
:102120000602D2B262F00F02D2B21A613B687A683C
:102130003349F86800F0B9F80346002B07D0FB6874
:102140001B6C042B01D1012356E0032354E0FB68F0
:102150001B687A89D2B21A613B687A682949F868A3
:1021600000F0A3F80346002B07D0FB681B6C042B80
:1021700001D1012340E003233EE000233B61FB68E3
:102180001B685B693B61FB681B689B693B613B6942
:10219000FB681B68FA681268126842F480721A6061
:1021A0003B6800937B6800224FF00111F86800F053
:1021B0002BF80346002B01D003231DE0FB681B68AE
:1021C0007A89D211D2B202F00602D2B262F00E02C5
:1021D000D2B21A613B687A680A49F86800F065F87B
:1021E0000346002B07D0FB681B6C042B01D1012395
:1021F00002E0032300E0002318461837BD4680BDE7
:10220000080001000200010080B584B000AFF86052
:10221000B9603B601346FB711FE03B68B3F1FF3FC1
:102220001BD03B68002B07D0FEF720FA0246BB69A3
:10223000D21A3B689A4210D9FB6800221A63FB68E5
:10224000202283F83D20FB68002283F83E20FB68B3
:10225000002283F83C20032323E0BB681B0CDBB285
:10226000012B0DD1FB681B685B69DA43BB68134027
:102270009BB2002B0CBF01230023DBB21A460CE0FB
:10228000FB681B689B69DA43BB6813409BB2002B59
:102290000CBF01230023DBB21A46FB799A42BCD063
:1022A000002318461037BD4680BD80B584B000AF0E
:1022B000F860B9607A603B6040E0FB681B685B696E
:1022C00003F48063B3F5806F1CD1FB681B68FA6868
:1022D0001268126842F400721A60FB681B686FF49F
:1022E00080625A61FB6804221A64FB6800221A6348
:1022F000FB68202283F83D20FB68002283F83C2005
:1023000001233CE07B68B3F1FF3F17D07B68002BD3
:1023100007D0FEF7ABF902463B68D21A7B689A42B7
:102320000CD9FB6800221A63FB68202283F83D2049
:10233000FB68002283F83C20032320E0BB681B0CD1
:10234000DBB2012B0CD1FB681B685B69DA43BB680D
:1023500013409BB2002B14BF01230023DBB20BE020
:10236000FB681B689B69DA43BB6813409BB2002B78
:1023700014BF01230023DBB2002B9ED1002318469B
:102380001037BD4680BD80B584B000AFF860B9603D
:102390007A6029E0F86800F0BAF80346002B01D013
:1023A000012329E0BB68B3F1FF3F1DD0BB68002BC0
:1023B00007D0FEF75BF902467B68D21ABB689A42E7
:1023C00012D9FB681B6C43F02002FB681A64FB689F
:1023D00000221A63FB68202283F83D20FB6800225C
:1023E00083F83C20032307E0FB681B685B6903F06C
:1023F0008003802BCED1002318461037BD4680BD08
:1024000080B584B000AFF860B9607A6029E0F86800
:1024100000F07DF80346002B01D0012329E0BB68C2
:10242000B3F1FF3F1DD0BB68002B07D0FEF71EF9AC
:1024300002467B68D21ABB689A4212D9FB681B6CB1
:1024400043F02002FB681A64FB6800221A63FB68F1
:10245000202283F83D20FB68002283F83C200323E0
:1024600007E0FB681B685B6903F00403042BCED113
:10247000002318461037BD4680BD80B584B000AF3C
:10248000F860B9607A6036E0FB681B685B6903F04E
:102490001003102B14D1FB681B686FF010025A61F7
:1024A000FB6800221A64FB6800221A63FB68202282
:1024B00083F83D20FB68002283F83C20012322E0C2
:1024C000BB68002B07D0FEF7D1F802467B68D21A12
:1024D000BB689A420FD9FB681B6C43F02002FB6873
:1024E0001A64FB68202283F83D20FB68002283F8F1
:1024F0003C20032307E0FB681B685B6903F0400393
:10250000402BC1D1002318461037BD4680BD80B492
:1025100083B000AF78607B681B685B6903F48063FD
:10252000B3F5806F14D17B681B686FF480625A61C9
:102530007B6804221A647B6800221A637B6820226D
:1025400083F83D207B68002283F83C20012300E0D3
:10255000002318460C37BD465DF8047B704780B4F5
:1025600083B000AF786039607B6893F83D30DBB2B0
:10257000202B29D17B68242283F83D207B681B68AF
:102580007A681268126822F001021A607B681B6880
:102590007A681268526A22F010025A627B681B68DD
:1025A0007A681268516A3A680A435A627B681B6803
:1025B0007A681268126842F001021A607B68202271
:1025C00083F83D20002300E0022318460C37BD4667
:1025D0005DF8047B704780B485B000AF78603960E7
:1025E0000023FB817B6893F83D30DBB2202B2AD19E
:1025F0007B68242283F83D207B681B687A68126818
:10260000126822F001021A607B681B685B6AFB811A
:10261000FB8923F00F03FB813B689AB2FB891343CC
:10262000FB817B681B68FA895A627B681B687A6841
:102630001268126842F001021A607B68202283F857
:102640003D20002300E0022318461437BD465DF804
:10265000047B704780B584B000AF78600023FB60D6
:102660000023BB607B68002B01D10123BFE07B68A6
:1026700093F8A130DBB2002B06D17B68002283F8EF
:10268000A020786803F010FE7B68022283F8A12066
:102690007B681B687A681268926922F070429A61BE
:1026A0007B681B687A68126891697A6850687A68F2
:1026B000926810437A68D26810437A6812690243BC
:1026C0000A439A617B681A687B681B6899684A4B61
:1026D0000B4093607B685B691B04FB607B681B6835
:1026E0007A68126891687A689069FA6802430A43C6
:1026F0009A607B681A687B681B68D9683E4B0B4000
:10270000D3607B68DB691B04FB607B681B687A68AD
:102710001268D1687A68106AFA6802430A43DA607C
:102720007B681A687B681B681969334B0B4013611F
:102730007B685B6A1B04FB607B681B687A681268B5
:1027400011697A68906AFA6802430A431A617B68E1
:102750001A687B681B685969274B0B4053617B687B
:10276000DB6A1B04FB607B681B687A68126851692E
:102770007A68106BFA6802430A435A617B6893F8DF
:1027800035301B02FB607B6893F836301B04BB605E
:102790007B681B687A681268D26A02F07F42DA624C
:1027A0007B681B687A681268D16AB868FA68024365
:1027B000786890F8340002430A43DA627B681B6849
:1027C0007A681268526B42F006025A637B681B6893
:1027D0007A681268926942F001029A617B6800226D
:1027E000C3F8A4207B68012283F8A12000231846A7
:1027F0001037BD4680BD00BF00F800F0B0B584B012
:1028000000AFF860B9607A60FB6893F8A030012BE4
:1028100001D102232CE0FB68012283F8A020FB6891
:10282000022283F8A120FA687B68342101FB03F3BC
:10283000134403F13802BB6814461D460FCD0FC484
:102840000FCD0FC40FCD0FC42B6823607A68B96811
:10285000F86800F047F8FB681B6801225A62FB68C1
:10286000012283F8A120FB68002283F8A020002326
:1028700018461037BD46B0BD80B586B000AFF860D1
:10288000B9607A60FB6893F8A030012B01D1022374
:1028900024E0FB68012283F8A020FB68022283F871
:1028A000A1207B68342202FB03F33833FA68134417
:1028B0007B617B69BA685A627A687969F86800F066
:1028C00011F8FB681B6801225A62FB68012283F839
:1028D000A120FB68002283F8A020002318461837A7
:1028E000BD4680BD80B489B000AFF860B9607A6041
:1028F0000023FB610023BB6100237B61BB685A6836
:10290000FB681B68DB681B0CC3F30B0313441B043D
:10291000FB61FB681B681A467B68DB011344843348
:102920001A46FB681B6819467B68DB010B4484333D
:102930005B6803F470435360FB681B681A467B684E
:10294000DB01134484331946BB681A68FB681B68B3
:10295000DB681B0CC3F30B0313445A1CFB691343C2
:102960004B60BB68DA68FB681B68DB68C3F30A036B
:1029700013441B04FB61FB681B681A467B68DB0180
:10298000134484331A46FB681B6819467B68DB01D5
:102990000B4484339B6803F470439360FB681B68AB
:1029A0001A467B68DB01134484331946BB689A6876
:1029B000FB681B68DB68C3F30A0313445A1CFB69FA
:1029C00013438B60FB681B681A467B68DB0113446A
:1029D00084331A46FB681B6819467B68DB010B448D
:1029E00084331B6923F007031361FB681B681A46D5
:1029F0007B68DB01134484331A46BB681B6913618F
:102A0000BB6893F831301B02FB61BB6893F832302E
:102A10001B04BB61BB689B691B067B61FB681B6871
:102A20001A467B68DB01134484339B69FB681B688F
:102A30001A467B68DB01134484331A4600239361F2
:102A4000FB681B681A467B68DB0113448433194614
:102A5000BB6893F830301A46FB691A43BB691A43C6
:102A60007B6913438B61FB681B681A467B68DB013B
:102A7000134484331A46FB681B6819467B68DB01E4
:102A80000B4484335B6923F0FF035361FB681B68CD
:102A90001A467B68DB01134484331A46BB685B69C2
:102AA0005361FB681B681A467B68DB01134484335F
:102AB0001A46FB681B6819467B68DB010B448433AC
:102AC000DB6923F4E06323F00703D361FB681B6831
:102AD0001A467B68DB01134484331946BB68DA6904
:102AE000BB681B6A1343CB61FB681B681A467B6893
:102AF000DB01134484339B6AFB681B681A467B68BE
:102B0000DB01134484331A4600239362FB681B687D
:102B10001A467B68DB01134484331A46BB685B6A40
:102B20009362BB681B69002B02D10423FB611BE08D
:102B3000BB681B69012B02D10323FB6114E0BB6856
:102B40001B69042B0BD0BB681B69022B07D0BB6829
:102B50001B69032B03D0BB681B69072B02D102231F
:102B6000FB6101E00123FB61FB681B681A467B687F
:102B7000DB01134484331A46FB681B6819467B68E3
:102B8000DB010B448433DB6A03F0E023D362FB6890
:102B90001B681A467B68DB01134484331846BB6804
:102BA0009B6AFA6902FB03F31A04BB685968BB68A5
:102BB0001B68CB1AF96901FB03F303331343C362A8
:102BC000FB681B681A467B68DB01134484331A4692
:102BD000FB681B6819467B68DB010B4484331B6B65
:102BE00023F4FF6323F007031363FB681B681A4693
:102BF0007B68DB01134484331A46BB68DB6A1363CA
:102C0000FB681B681A467B68DB01134484331A4651
:102C1000FB681B6819467B68DB010B4484331B6827
:102C200043F00103136000BF2437BD465DF8047B09
:102C30007047000080B582B000AF00237B600023A6
:102C40003B60204A1F4B1B6C43F0805313641D4BA9
:102C50001B6C03F080533B603B681B4B01221A60E6
:102C6000FDF704FD786009E0FDF700FD02467B6892
:102C7000D31AB3F57A7F01D903231FE0134B5B68A6
:102C800003F48033B3F5803FEED1114B01221A607B
:102C9000FDF7ECFC786009E0FDF7E8FC02467B6894
:102CA000D31AB3F57A7F01D9032307E0074B5B689A
:102CB00003F40033B3F5003FEED100231846083784
:102CC000BD4680BD0038024040000E42007000400A
:102CD00044000E4280B586B000AF78607B68002B60
:102CE00001D101232DE27B681B6803F00103002B57
:102CF00075D0A34B9B6803F00C03042B0CD0A04BA6
:102D00009B6803F00C03082B12D19D4B5B6803F406
:102D10008003B3F5800F0BD1994B1B6803F400338C
:102D2000002B5BD07B685B68002B57D1012308E246
:102D30007B685B68B3F5803F06D1914A904B1B6876
:102D400043F4803313601DE07B685B68B3F5A02F0C
:102D50000CD18B4A8A4B1B6843F480231360884A4A
:102D6000874B1B6843F4803313600BE0844A844B29
:102D70001B6823F480331360814A814B1B6823F462
:102D8000802313607B685B68002B13D0FDF76EFC1B
:102D9000386108E0FDF76AFC02463B69D31A642BF0
:102DA00001D90323CDE1764B1B6803F40033002BDC
:102DB000F0D014E0FDF75AFC386108E0FDF756FC4E
:102DC00002463B69D31A642B01D90323B9E16C4B4A
:102DD0001B6803F40033002BF0D100E000BF7B68D8
:102DE0001B6803F00203002B63D0654B9B6803F064
:102DF0000C03002B0BD0624B9B6803F00C03082BD9
:102E00001CD15F4B5B6803F48003002B16D15C4B35
:102E10001B6803F00203002B05D07B68DB68012BE5
:102E200001D001238DE15649554B1B6823F0F80270
:102E30007B681B69DB0013430B603AE07B68DB684F
:102E4000002B20D04F4B01221A60FDF70FFC386198
:102E500008E0FDF70BFC02463B69D31A022B01D9AF
:102E600003236EE1464B1B6803F00203002BF0D0F6
:102E70004349434B1B6823F0F8027B681B69DB0066
:102E800013430B6015E03F4B00221A60FDF7EEFB89
:102E9000386108E0FDF7EAFB02463B69D31A022BD2
:102EA00001D903234DE1364B1B6803F00203002BCD
:102EB000F0D17B681B6803F00803002B30D07B68DF
:102EC0005B69002B16D0304B01221A60FDF7CEFB58
:102ED000386108E0FDF7CAFB02463B69D31A022BB2
:102EE00001D903232DE1264B5B6F03F00203002B76
:102EF000F0D015E0244B00221A60FDF7B7FB3861D3
:102F000008E0FDF7B3FB02463B69D31A022B01D957
:102F1000032316E11A4B5B6F03F00203002BF0D181
:102F20007B681B6803F00403002B00F0A0800023E3
:102F3000FB75134B1B6C03F08053002B0FD1002348
:102F4000FB600F4A0E4B1B6C43F0805313640C4B19
:102F50001B6C03F08053FB60FB680123FB750B4B7C
:102F60001B6803F48073002B21D1084A074B1B68B0
:102F700043F480731360FDF779FB386111E000BF03
:102F80000038024000004742800E47420070004077
:102F9000FDF76CFB02463B69D31A022B01D90323D0
:102FA000CFE06A4B1B6803F48073002BF0D07B6882
:102FB0009B68012B06D1664A654B1B6F43F00103EA
:102FC00013671CE07B689B68052B0CD1604A604B43
:102FD0001B6F43F0040313675D4A5D4B1B6F43F0A7
:102FE000010313670BE05A4A594B1B6F23F001038F
:102FF0001367574A564B1B6F23F0040313677B6814
:103000009B68002B15D0FDF731FB38610AE0FDF716
:103010002DFB02463B69D31A41F28832934201D913
:1030200003238EE04A4B1B6F03F00203002BEED00C
:1030300014E0FDF71BFB38610AE0FDF717FB0246C1
:103040003B69D31A41F28832934201D9032378E0D5
:103050003F4B1B6F03F00203002BEED1FB7D012BD6
:1030600005D13B4A3A4B1B6C23F0805313647B68B9
:103070009B69002B64D0364B9B6803F00C03082B34
:103080005CD07B689B69022B41D1324B00221A60D5
:10309000FDF7ECFA386108E0FDF7E8FA02463B6913
:1030A000D31A022B01D903234BE0294B1B6803F0F1
:1030B0000073002BF0D126497B68DA697B681B6AB4
:1030C0001A437B685B6A9B011A437B689B6A5B08B7
:1030D000013B1B041A437B68DB6A1B0613434B60EE
:1030E0001C4B01221A60FDF7C1FA386108E0FDF7B8
:1030F000BDFA02463B69D31A022B01D9032320E013
:10310000134B1B6803F00073002BF0D018E0114B39
:1031100000221A60FDF7AAFA386108E0FDF7A6FA66
:1031200002463B69D31A022B01D9032309E0084B5D
:103130001B6803F00073002BF0D101E0012300E0D5
:10314000002318461837BD4680BD00BF0070004000
:10315000003802406000474280B584B000AF78601C
:1031600039607B68002B01D10123CAE0674B1B68E3
:1031700003F00F023B689A420CD2644B3A68D2B219
:103180001A70624B1B6803F00F023B689A4201D031
:103190000123B6E07B681B6803F00203002B20D0FC
:1031A0007B681B6803F00403002B05D0584A584B7A
:1031B0009B6843F4E05393607B681B6803F008034B
:1031C000002B05D0524A524B9B6843F460439360F6
:1031D0004F494F4B9B6823F0F0027B689B68134379
:1031E0008B607B681B6803F00103002B44D07B6875
:1031F0005B68012B07D1464B1B6803F40033002B9F
:1032000019D101237DE07B685B68022B03D07B68CA
:103210005B68032B07D13E4B1B6803F00073002B48
:1032200009D101236DE03A4B1B6803F00203002B28
:1032300001D1012365E03649354B9B6823F0030239
:103240007B685B6813438B60FDF710FAF8600AE057
:10325000FDF70CFA0246FB68D31A41F2883293421A
:1032600001D903234DE02A4B9B6803F00C027B68D5
:103270005B689B009A42EBD1244B1B6803F00F0262
:103280003B689A420CD9214B3A68D2B21A701F4B54
:103290001B6803F00F023B689A4201D0012330E023
:1032A0007B681B6803F00403002B08D01849184BF7
:1032B0009B6823F4E0527B68DB6813438B607B6878
:1032C0001B6803F00803002B09D01149104B9B68C1
:1032D00023F460427B681B69DB0013438B6000F0C2
:1032E0001DF801460A4B9B681B0903F00F03094AAE
:1032F000D35C21FA03F3084A13600F20FDF772F93B
:10330000002318461037BD4680BD00BF003C024078
:1033100000380240B8740008100000202DE9F04F7A
:1033200087B000AF0022FA6000227A610022BA6002
:1033300000223A61514A926802F00C02042A07D036
:10334000082A08D0002A40F090804D4B3B618FE066
:103350004C4B3B618CE0494A526802F03F02FA60F4
:10336000464A526802F48002002A23D0434B5B682D
:103370009B094FF0000440F2FF114FF0000203EAF6
:10338000010304EA02043F4A02FB04F1002202FBAB
:1033900003F20A443B49A3FB010153181946FB6899
:1033A0004FF000041A462346FCF772FF03460C4612
:1033B0007B614CE0314A5268920911464FF000029D
:1033C00040F2FF154FF0000605EA010506EA020685
:1033D000294632464FEA421B4BEAD16B4FEA411A6B
:1033E00051465A46AA46B34655465E464D1B62EBC9
:1033F000060629463246940144EA91648B015B1A21
:1034000064EB02044FEAC40949EA53794FEAC3085E
:1034100043464C4655465E46ED1846EB04062B46A1
:103420003446A2027A607A6842EA93527A609B023A
:103430003B6097E8180018462146FB684FF00004EF
:103440001A462346FCF724FF03460C467B610B4BD0
:103450005B681B0C03F0030301335B00BB607A69FC
:10346000BB68B2FBF3F33B6102E0054B3B6100BF7D
:103470003B6918461C37BD46BDE8F08F0038024056
:103480000024F40040787D0180B400AF034B1B683A
:103490001846BD465DF8047B704700BF1000002051
:1034A00080B500AFFFF7F0FF0146054B9B689B0A14
:1034B00003F00703034AD35C21FA03F3184680BDE7
:1034C00000380240C874000880B586B000AF78604C
:1034D00000237B6100233B617B681B6803F00103D1
:1034E000002B05D17B681B6803F00203002B61D021
:1034F000A34B00221A60FDF7B9F8786108E0FDF7E8
:10350000B5F802467B69D31A022B01D9032377E170
:103510009C4B1B6803F00063002BF0D17B681B6899
:1035200003F00103002B09D096497B685B689A0180
:103530007B689B681B071343C1F884307B681B685A
:1035400003F00203002B1FD08E4BD3F884301B0FE7
:1035500003F007033B618B497B685B689A017B68DA
:10356000DB681B061A433B691B071343C1F8843011
:103570008449844BD3F88C3023F01F027B68DB69CD
:10358000013B1343C1F88C307D4B01221A60FDF7DB
:103590006DF8786108E0FDF769F802467B69D31A97
:1035A000022B01D903232BE1764B1B6803F0006348
:1035B000002BF0D07B681B6803F00403002B05D1BF
:1035C0007B681B6803F00803002B79D06E4B002248
:1035D0001A60FDF74BF8786108E0FDF747F80246FE
:1035E0007B69D31A022B01D9032309E1654B1B68C0
:1035F00003F00053B3F1005FEFD07B681B6803F06A
:103600000403002B20D05F4BD3F888301B0F03F04E
:1036100007033B615B497B681B699A017B685B69B7
:103620001B061A433B691B071343C1F888305549F1
:10363000544BD3F88C3023F4F8527B681B6A013B5F
:103640001B021343C1F88C307B681B6803F008032E
:10365000002B1ED04B4BD3F888301B0E03F00F030A
:103660003B6148497B681B699A013B691B061A4309
:103670007B689B691B071343C1F888304149414B64
:10368000D3F88C3023F440327B685B6A1343C1F873
:103690008C303D4B01221A60FCF7E8FF786108E0AE
:1036A000FCF7E4FF02467B69D31A022B01D90323FE
:1036B000A6E0344B1B6803F00053B3F1005FEFD179
:1036C0007B681B6803F02003002B00F08D80002333
:1036D000FB602C4A2B4B1B6C43F080531364294B2B
:1036E0001B6C03F08053FB60FB68284A274B1B6868
:1036F00043F480731360FCF7B9FF786108E0FCF7CE
:10370000B5FF02467B69D31A022B01D9032377E068
:103710001E4B1B6803F48073002BF0D0194B1B6FFA
:1037200003F440733B613B69002B39D07B689B6A93
:1037300003F440723B699A4232D0124B1B6F23F460
:1037400040733B61124B01221A60114B00221A6038
:103750000C4A3B6913670B4B1B6F03F00103002BF3
:103760001ED0FCF783FF786114E0FCF77FFF024670
:103770007B69D31A41F2883293420BD903233FE08D
:103780006800474200380240700047420070004025
:10379000400E47421C4B1B6F03F00203002BE4D08A
:1037A0007B689B6A03F44073B3F5407F0DD11649E3
:1037B000154B9B6823F4F8127B689B6A23F07043D7
:1037C00023F4407313438B6005E00F4A0E4B9B6854
:1037D00023F4F81393600C490B4B1A6F7B689B6AB8
:1037E000C3F30B0313430B677B681B6803F01003E1
:1037F000002B04D0054A7B6893F82C30136000231B
:1038000018461837BD4680BD00380240E0114742D7
:1038100080B582B000AF786039607B68002B01D141
:10382000012325E07B6893F82C30DBB2002B06D116
:103830007B68002283F82D20786800F01DF87B68F3
:10384000022283F82C207B681A687B6804331946AF
:10385000104600F0BBFB7B6818687B685B681A4603
:10386000396800F026FC7B68012283F82C200023B5
:1038700018460837BD4680BD80B590B000AF78606F
:10388000904B1B68002B40F018818E4B01221A6070
:103890000023BB628C4A8C4B9B6B43F00103936308
:1038A000894B9B6B03F00103BB62BB6A00237B6205
:1038B000854A854B1B6B43F480031363824B1B6B60
:1038C00003F480037B627B6A00233B627E4A7E4B6B
:1038D0001B6B43F0020313637B4B1B6B03F0020370
:1038E0003B623B6A0023FB61774A774B1B6B43F0DB
:1038F00004031363744B1B6B03F00403FB61FB694C
:103900000023BB61704A704B1B6B43F008031363C9
:103910006D4B1B6B03F00803BB61BB6900237B612C
:10392000694A694B1B6B43F010031363664B1B6BB7
:1039300003F010037B617B6900233B61624A624BA9
:103940001B6B43F0200313635F4B1B6B03F02003DF
:103950003B613B690023FB605B4A5B4B1B6B43F0A5
:1039600040031363584B1B6B03F04003FB60FB6881
:103970004FF63F03FB6202233B6300237B63032379
:10398000BB630C23FB6307F12C0319464F48FDF77B
:10399000F5FC0123FB6202233B6300237B630323CB
:1039A000BB630C23FB6307F12C0319464848FDF762
:1039B000E5FC48F23313FB6202233B6300237B6385
:1039C0000323BB630C23FB6307F12C031946414817
:1039D000FDF7D4FC4FF68373FB6202233B630023A5
:1039E0007B630323BB630C23FB6307F12C031946A2
:1039F0003948FDF7C3FC4CF20373FB6202233B63BF
:103A000000237B630323BB630C23FB6307F12C03BD
:103A100019463248FDF7B2FC6023FB6202233B6388
:103A200000237B630323BB630C23FB6307F12C039D
:103A300019462B48FDF7A2FC2A4B00225A60294B5D
:103A400080229A60274B4FF40072DA60254B4FF4C6
:103A500080621A61234B4FF480525A61214B4FF41C
:103A600080429A611F4B0022DA611E4B4FF40032F4
:103A70001A621C4B00225A621A4B03229A62194B9B
:103A80000022DA62174B00221A63164B164A1A609C
:103A90007B68144A1A63134A7B6893631148FCF7E6
:103AA000CDFF1048FCF71CFF00220F213820FCF747
:103AB000E0FE3820FCF7F9FE00E000BF4037BD46CD
:103AC00080BD00BF94000020003802400014024076
:103AD000000802400018024000100240000C0240A2
:103AE00000040240980000201064024080B584B0B9
:103AF00000AFF860B9607A60FB6893F82C30DBB2F5
:103B0000022B01D1022318E0FB68022283F82C204B
:103B1000FB681B687A68B968184600F049FBBB6807
:103B20001B68022B04D1FB68052283F82C2003E0DC
:103B3000FB68012283F82C20002318461037BD466D
:103B400080BD80B582B000AF786039607B6893F843
:103B50002C30DBB2022B01D102230EE07B68022263
:103B600083F82C207B681B683968184600F05CFBE2
:103B70007B68012283F82C20002318460837BD46B5
:103B800080BD80B582B000AF78607B68002B01D12A
:103B9000012355E07B6800229A627B6893F85130DC
:103BA000DBB2002B06D17B68002283F850207868B6
:103BB00002F088FC7B68022283F851207B681B6836
:103BC0007A681268126822F040021A607B681B68EB
:103BD0007A6851687A68926811437A68D2681143AA
:103BE0007A68126911437A68526911437A68926956
:103BF00002F4007211437A68D26911437A68126A3A
:103C000011437A68926A0A431A607B681B687A6873
:103C10009269120C02F004017A68526A0A435A60EF
:103C20007B681B687A681268D26922F40062DA61E4
:103C30007B6800225A657B68012283F851200023AB
:103C400018460837BD4680BD80B58AB002AFF8601F
:103C5000B9603B601346FB800023BB610023FB7708
:103C6000FB6893F85030012B01D1022323E1FB685C
:103C7000012283F85020FCF7F9FCB861FB6893F847
:103C80005130DBB2012B02D00223FB770AE1BB6883
:103C9000002B02D0FB88002B02D10123FB7701E12E
:103CA000FB68032283F85120FB6800225A65FB68F9
:103CB000BA681A63FB68FA889A86FB68FA88DA861B
:103CC000FB6800229A63FB6800229A87FB68002247
:103CD000DA87FB6800225A64FB6800221A64FB68DA
:103CE0009B68B3F5004F07D1FB681B68FA68126840
:103CF000126842F480421A60FB681B681B6803F07C
:103D00004003402B07D0FB681B68FA6812681268F2
:103D100042F040021A60FB68DB68B3F5006F47D1E0
:103D2000FB685B68002B04D0FB68DB8E9BB2012B29
:103D300038D1FB681B68BA681288DA60BB68023346
:103D4000BB60FB68DB8E9BB2013B9AB2FB68DA86F4
:103D500028E0FB681B689B6803F00203022B0FD16D
:103D6000FB681B68BA681288DA60BB680233BB6004
:103D7000FB68DB8E9BB2013B9AB2FB68DA8611E0EE
:103D80003B68002B0BD03B68B3F1FF3F0AD0FCF738
:103D90006DFC0246BB69D21A3B689A4202D30323E8
:103DA000FB777FE0FB68DB8E9BB2002BD1D148E034
:103DB000FB685B68002B04D0FB68DB8E9BB2012B99
:103DC0003AD1FB681B680C33BA6812781A70BB686A
:103DD0000133BB60FB68DB8E9BB2013B9AB2FB6890
:103DE000DA8629E0FB681B689B6803F00203022B5C
:103DF00010D1FB681B680C33BA6812781A70BB6864
:103E00000133BB60FB68DB8E9BB2013B9AB2FB685F
:103E1000DA8611E03B68002B0BD03B68B3F1FF3F23
:103E20000AD0FCF723FC0246BB69D21A3B689A42CF
:103E300002D30323FB7735E0FB68DB8E9BB2002BBC
:103E4000D0D1BB6900933B6801220221F86800F0E1
:103E500036F80346002B02D00323FB7722E0BA6931
:103E60003968F86800F094F80346002B05D0012368
:103E7000FB77FB6820225A6514E0FB689B68002BE7
:103E80000AD100237B61FB681B68DB687B61FB68F0
:103E90001B689B687B617B69FB685B6D002B01D0B5
:103EA0000123FB77FB68012283F85120FB68002285
:103EB00083F85020FB7F18462037BD4680BD80B573
:103EC00084B000AFF860B9607A603B604DE03B6859
:103ED000B3F1FF3F49D03B68002B07D0FCF7C6FB8E
:103EE0000246BB69D21A3B689A423ED3FB681B6804
:103EF000FA681268526822F0E0025A60FB685B6858
:103F0000B3F5827F11D1FB689B68B3F5004F04D0F5
:103F1000FB689B68B3F5806F07D1FB681B68FA6884
:103F20001268126822F040021A60FB689B6AB3F5BF
:103F3000005F10D1FB681A68FB681B6819684DF6B2
:103F4000FF730B401360FB681B68FA681268126805
:103F500042F400521A60FB68012283F85120FB688A
:103F6000002283F8502003230EE0FB681B689A6848
:103F7000BB681A40BB689A4201D1012200E00022CE
:103F80007B689A42A3D1002318461037BD4680BDF6
:103F900080B586B002AFF860B9607A607B68009344
:103FA000BB6800228021F868FFF789FF0346002BD9
:103FB00007D0FB685B6D43F02002FB685A65032362
:103FC00000E0002318461037BD4680BD80B485B0A0
:103FD00000AF786039600023FB600023BB603B6862
:103FE0001B68012B29D07B681B68FB60FB6823F4EE
:103FF000FF4323F07F03FB603B685A683B689B6884
:104000001A433B68DB681A433B681B691A433B68E9
:104010005B691A433B689B691A433B68DB691A4337
:104020003B681B6A1A433B685B6A1343FA68134395
:10403000FB607B68FA681A6034E07B681B68FB6091
:10404000FB6823F4F843FB603B68DA693B681B6A52
:104050001A433B685B6A1343FA681343FB607B684F
:104060005B68BB60BB6823F4FF4323F07F03BB6046
:104070003B685A683B689B681A433B68DB681A4395
:104080003B681B691A433B685B691A433B689B6941
:104090001343BA681343BB607B68FA681A607B6895
:1040A000BA685A60002318461437BD465DF8047B91
:1040B000704780B487B000AFF860B9607A600023C1
:1040C0007B6100233B617B68012B2ED0FB689B68E2
:1040D0007B617B6903F070437B61BB681B685A1E80
:1040E000BB685B68013B1B011A43BB689B68013BD3
:1040F0001B021A43BB68DB68013B1B031A43BB6806
:104100001B69013B1B041A43BB685B69013B1B0530
:104110001A43BB689B69013B1B0613437A6913432F
:104120007B61FB687A699A603BE0FB689B687B6116
:104130007B6923F4700323F470437B61BB68DB6805
:10414000013B1A03BB685B69013B1B0513437A699A
:1041500013437B61FB68DB683B613B6903F07043A1
:104160003B61BB681B685A1EBB685B68013B1B0157
:104170001A43BB689B68013B1B021A43BB681B695F
:10418000013B1B041A43BB689B69013B1B0613439D
:104190003A6913433B61FB687A699A60FB683A6944
:1041A000DA60002318461C37BD465DF8047B704773
:1041B00080B586B000AFF860B9607A6000233B61DB
:1041C00000237B61BB681A68BB685B681A43BB68E5
:1041D0009B68013B5B011A43BB68DB685B021343CE
:1041E0003B613A69FB681A61FCF740FA786110E0BC
:1041F0007B68B3F1FF3F0CD07B68002B07D0FCF746
:1042000035FA02467B69D21A7B689A4201D90323A8
:1042100006E0FB689B6903F02003002BE8D1002334
:1042200018461837BD4680BD80B483B000AF7860B3
:1042300039607B685A693B685B001A437B685A6146
:10424000002318460C37BD465DF8047B704780B4E8
:1042500085B000AF0346FB800023FB60B7F9063052
:10426000842B05D0B7F90620FB6813440333FB60A9
:10427000FB6818461437BD465DF8047B704780B56F
:1042800000AF00F087FD0023184680BDF0B587B071
:1042900002AF786039607B685C687B681D687B680A
:1042A0001B699EB27B68B3F908301846FFF7CFFF51
:1042B000024607F10C03019300923B6832462946FF
:1042C000204600F03DFC0346012B01D0002300E016
:1042D000FB6818461437BD46F0BD80B500AF01F04D
:1042E00029F80346012B01D000F00EFA00BF80BD73
:1042F00080B483B000AF78607B6803F108027B680C
:104300005A607B684FF0FF329A607B6803F10802C5
:104310007B68DA607B6803F108027B681A617B685E
:1043200000221A6000BF0C37BD465DF8047B704761
:1043300080B483B000AF78607B6800221A6100BF50
:104340000C37BD465DF8047B704780B485B000AF84
:10435000786039607B685B68FB603B68FA685A602C
:10436000FB689A683B689A60FB689B683A685A6089
:10437000FB683A689A603B687A681A617B681B68D8
:104380005A1C7B681A6000BF1437BD465DF8047B79
:10439000704780B485B000AF78607B681B69FB60B4
:1043A0007B685B687A6892689A607B689B687A68C9
:1043B00052685A60FB685A687B689A4203D17B68EE
:1043C0009A68FB685A607B6800221A61FB681B6868
:1043D0005A1EFB681A60FB681B6818461437BD46F6
:1043E0005DF8047B7047000080B485B000AFF860D2
:1043F000B9607A60FB68043BFB60FB684FF0807239
:104400001A60FB68043BFB60BB6823F00102FB6899
:104410001A60FB68043BFB600C4AFB681A60FB688F
:10442000143BFB607A68FB681A60FB68043BFB6026
:10443000FB686FF002021A60FB68203BFB60FB68C0
:1044400018461437BD465DF8047B70475144000898
:1044500080B483B000AF0C4B1B68B3F1FF3F09D0B1
:104460004FF0500383F31188BFF36F8FBFF34F8F6B
:104470007B60FEE74FF0500383F31188BFF36F8F2B
:10448000BFF34F8F3B60FEE70800002000000000F4
:10449000074B19680868B0E8F04F80F30988BFF34C
:1044A0006F8F4FF0000080F311887047AFF30080EA
:1044B000183D002000BF00BF06480068006880F378
:1044C000088862B661B6BFF34F8FBFF36F8F00DF0E
:1044D00000BF00BF08ED00E080B586B000AF3B4BE9
:1044E0001B683B4A934209D14FF0500383F3118874
:1044F000BFF36F8FBFF34F8F3B61FEE7334B1B68FA
:10450000344A934209D14FF0500383F31188BFF32B
:104510006F8FBFF34F8FFB60FEE72F4B7B617B6993
:104520001B78DBB2BB607B69FF221A707B691B784A
:10453000DBB2FB71FB79DBB203F05003DAB2274B3D
:104540001A70274B07221A6009E0254B1B68013BB4
:10455000234A1360FB79DBB25B00DBB2FB71FB79B2
:10456000DBB203F08003802BEFD01D4B1B681B02D6
:104570001B4A13601A4B1B6803F4E063184A13606C
:10458000BB68DAB27B691A70164A164B1B6843F493
:1045900070031360134A134B1B6843F0704313609E
:1045A00000F0D2F8104B00221A6000F0E9F80F4A30
:1045B0000E4B1B6843F040431360FFF77DFFFFF78E
:1045C00047FF002318461837BD4680BD00ED00E0C8
:1045D00071C20F4170C20F4100E400E0F8000020FA
:1045E000FC00002020ED00E00800002034EF00E097
:1045F00080B483B000AF4FF0500383F31188BFF352
:104600006F8FBFF34F8F7B600E4B1B6801330D4ADA
:1046100013600C4B1B68012B0ED10B4B1B68DBB2DC
:10462000002B09D04FF0500383F31188BFF36F8F35
:10463000BFF34F8F3B60FEE700BF0C37BD465DF810
:10464000047B70470800002004ED00E080B483B0D4
:1046500000AF114B1B68002B09D14FF0500383F3BF
:104660001188BFF36F8FBFF34F8F7B60FEE70A4B5C
:104670001B68013B084A1360074B1B68002B04D1E1
:1046800000233B603B6883F3118800BF0C37BD46B5
:104690005DF8047B704700BF0800002000000000A8
:1046A000EFF30980BFF36F8F154B1A681EF0100FE0
:1046B00008BF20ED108A20E9F04F10604DF8043D4E
:1046C0004FF0500080F31188BFF34F8FBFF36F8F0F
:1046D00000F00CFD4FF0000080F3118808BC196851
:1046E0000868B0E8F04F1EF0100F08BFB0EC108A59
:1046F00080F30988BFF36F8F704700BFAFF300806E
:10470000183D002000BF00BF80B582B000AF4FF061
:10471000500383F31188BFF36F8FBFF34F8F7B601C
:1047200000F028FC0346002B03D0064B4FF08052CC
:104730001A6000233B603B6883F3118800BF083791
:10474000BD4680BD04ED00E080B400AF084A094BCF
:104750001B680949A1FB03139B09013B1360074B2D
:1047600007221A6000BFBD465DF8047B704700BF9A
:1047700014E000E010000020D34D621010E000E0D3
:10478000DFF80C00016841F470010160704700BF60
:1047900088ED00E080B58AB000AF78600023FB614F
:1047A00000F03EFB574B1B68002B01D100F00CF9C9
:1047B000554B1A687B681340002B40F08C807B6857
:1047C000002B1CD008227B6813447B607B6803F0BD
:1047D0000703002B13D07B6823F0070308337B60AB
:1047E0007B6803F00703002B09D04FF0500383F3DD
:1047F0001188BFF36F8FBFF34F8F7B61FEE77B683C
:10480000002B68D0414B1B687A689A4263D8404BB2
:104810003B623F4B1B687B6204E07B6A3B627B6AC6
:104820001B687B627B6A5A687B689A4203D27B6A08
:104830001B68002BF1D1334B1B687A6A9A424AD02D
:104840003B6A1B6808221344FB617B6A1A683B6A57
:104850001A607B6A5A687B68D21A08235B009A4206
:104860001ED97A6A7B681344BB61BB6903F00703F6
:10487000002B09D04FF0500383F31188BFF36F8FE3
:10488000BFF34F8F3B61FEE77B6A5A687B68D21AA1
:10489000BB695A607B6A7A685A60B86900F0F6F8BA
:1048A0001A4B1A687B6A5B68D31A184A1360174B55
:1048B0001A68184B1B689A4203D2144B1B68154A9E
:1048C00013607B6A5A68104B1B681A437B6A5A60F4
:1048D0007B6A00221A6000F0B1FAFB6903F007035B
:1048E000002B09D04FF0500383F31188BFF36F8F73
:1048F000BFF34F8FFB60FEE7FB6918462837BD46C4
:1049000080BD00BF083D0020143D00200C3D00206C
:10491000003D0020103D002080B586B000AF7860DB
:104920007B687B617B68002B46D008235B427A69F9
:1049300013447B617B693B613B695A68204B1B6870
:104940001340002B09D14FF0500383F31188BFF3BC
:104950006F8FBFF34F8FFB60FEE73B691B68002B37
:1049600009D04FF0500383F31188BFF36F8FBFF36B
:104970004F8FBB60FEE73B695A68114B1B681340C1
:10498000002B19D03B691B68002B15D13B695A6875
:104990000B4B1B68DB431A403B695A6000F040FA3E
:1049A0003B695A68074B1B681344064A1360386911
:1049B00000F06CF800F042FA00BF1837BD4680BD29
:1049C000143D00200C3D002080B485B000AF4FF4B2
:1049D0007053BB60274BFB60FB6803F00703002BA1
:1049E0000CD0FB680733FB60FB6823F00703FB6018
:1049F000BA68FB68D31A1F4A1344BB60FB687B602C
:104A00001D4A7B6813601C4B00225A607A68BB68A1
:104A10001344FB600822FB689B1AFB60FB6823F0D1
:104A20000703FB60FB68154A1360144B1B680022E8
:104A30005A60124B1B6800221A607B683B603B681F
:104A4000FA68D21A3B685A600C4B1A683B681A60C5
:104A50003B685B680A4A13603B685B68094A1360FD
:104A6000094B4FF000421A6000BF1437BD465DF895
:104A7000047B704700010020003D0020083D00201D
:104A8000103D00200C3D0020143D002080B485B076
:104A900000AF7860284BFB6002E0FB681B68FB609E
:104AA000FB681A687B689A42F7D3FB68BB60FB68B7
:104AB0005B68BA681A447B689A4208D1FB685A68F6
:104AC0007B685B681A44FB685A60FB687B607B68A4
:104AD000BB607B685B68BA681A44FB681B689A42D3
:104AE00018D1FB681A68154B1B689A420DD07B6879
:104AF0005A68FB681B685B681A447B685A60FB68ED
:104B00001B681A687B681A6008E00C4B1A687B689F
:104B10001A6003E0FB681A687B681A60FA687B68B1
:104B20009A4202D0FB687A681A6000BF1437BD460B
:104B30005DF8047B704700BF003D0020083D002069
:104B400080B58CB004AFF860B9603B601346FB8061
:104B5000FB889B001846FFF71DFE78617B69002BE0
:104B60000ED05420FFF716FEF861FB69002B03D02E
:104B7000FB697A691A6305E07869FFF7CDFE01E009
:104B80000023FB61FB69002B13D0FA8800230393F9
:104B9000FB690293FB6A0193BB6A00933B68B968A7
:104BA000F86800F00EF8F86900F08AF80123BB619C
:104BB00002E04FF0FF33BB61BB6918462037BD46AA
:104BC00080BD80B588B000AFF860B9607A603B60A6
:104BD0003B6B1A6B7B6803F18043013B9B001344E2
:104BE000BB61BB6923F00703BB61BB6903F007032B
:104BF000002B09D04FF0500383F31188BFF36F8F60
:104C0000BFF34F8F7B61FEE70023FB6112E0BA68C0
:104C1000FB69134419783A6BFB69134434330A4631
:104C20001A70BA68FB6913441B78002B06D0FB6925
:104C30000133FB61FB690F2BE9D900E000BF3B6B3F
:104C4000002283F84320BB6A062B01D90623BB62EE
:104C50003B6BBA6ADA623B6BBA6A5A643B6B0022FE
:104C60009A643B6B04331846FFF762FB3B6B1833C7
:104C70001846FFF75DFB3B6B3A6B1A61BB6AC3F1E9
:104C800007023B6B9A613B6B3A6B5A623B6B0022AB
:104C9000DA643B6B002283F850203A68F968B869FF
:104CA000FFF7A2FB02463B6B1A60FB6A002B02D0A7
:104CB000FB6A3A6B1A6000BF2037BD4680BD00001A
:104CC00080B582B000AF7860FFF792FC2A4B1B687A
:104CD0000133294A1360294B1B68002B09D1274A4D
:104CE0007B681360244B1B68012B10D100F070FA15
:104CF0000DE0234B1B68002B09D1204B1B68DA6A9F
:104D00007B68DB6A9A4202D81C4A7B6813601D4BA1
:104D10001B6801331B4A13607B68DB6A01229A40DF
:104D2000194B1B681343184A13607B68DA6A1346F1
:104D30009B0013449B00154A1A447B6804331946B0
:104D40001046FFF702FBFFF781FC0D4B1B68002BA1
:104D50000ED00A4B1B68DA6A7B68DB6A9A4207D27C
:104D60000B4B4FF080521A60BFF34F8FBFF36F8F22
:104D700000BF0837BD4680BD183E0020183D00200A
:104D8000243E0020343E0020203E00201C3D002018
:104D900004ED00E080B586B002AF1B4B0193002309
:104DA00000930023802219491948FFF7C9FEF860D3
:104DB000FB68012B15D14FF0500383F31188BFF32B
:104DC0006F8FBFF34F8FBB60124B4FF0FF321A60F3
:104DD000114B01221A60114B00221A60FFF77CFB75
:104DE0000DE0FB68B3F1FF3F09D14FF0500383F3AF
:104DF0001188BFF36F8FBFF34F8F7B60FEE700BF5B
:104E00001037BD4680BD00BF3C3E002074740008D2
:104E1000A1510008383E0020243E00201C3E002006
:104E200080B400AF044B1B680133034A136000BF1A
:104E3000BD465DF8047B7047403E002080B584B0DD
:104E400000AF0023FB600023BB60414B1B68002BBD
:104E500009D14FF0500383F31188BFF36F8FBFF375
:104E60004F8F3B60FEE7FFF7C3FB394B1B68013BED
:104E7000374A1360364B1B68002B61D1354B1B68DA
:104E8000002B5DD02EE0344BDB68DB68FB60FB68F9
:104E900018331846FFF77DFAFB6804331846FFF70E
:104EA00078FAFB68DB6A01229A402C4B1B6813439B
:104EB0002A4A1360FB68DA6A13469B0013449B007E
:104EC000274A1A44FB68043319461046FFF73DFA97
:104ED000FB68DA6A234B1B68DB6A9A4202D3224BD7
:104EE00001221A601C4B1B68002BCCD1FB68002BE5
:104EF00001D000F0F9F91D4B1B687B607B68002B2B
:104F000010D000F037F80346002B02D0164B0122D8
:104F10001A607B68013B7B607B68002BF1D1134BEF
:104F200000221A60104B1B68002B09D00123BB60C4
:104F30000F4B4FF080521A60BFF34F8FBFF36F8F4C
:104F4000FFF784FBBB6818461037BD4680BD00BF25
:104F5000403E0020183E0020D83D0020203E00208A
:104F60001C3D0020183D00202C3E0020283E002043
:104F700004ED00E080B586B000AF00237B61504BAC
:104F80001B68002B40F08C804E4B1B6801333B614B
:104F90004C4A3B6913603B69002B1FD14A4B1B688D
:104FA0001B68002B09D04FF0500383F31188BFF327
:104FB0006F8FBFF34F8F3B60FEE7434B1B68FB6077
:104FC000424B1B68404A1360404AFB681360404BE9
:104FD0001B6801333E4A136000F086F93D4B1B68A5
:104FE0003A699A424DD3384B1B681B68002B01D19C
:104FF000012300E00023002B04D0364B4FF0FF329A
:105000001A603EE0304B1B68DB68DB68BB60BB6846
:105010005B687B603A697B689A4203D22D4A7B6861
:1050200013602EE0BB6804331846FFF7B2F9BB6883
:105030009B6A002B04D0BB6818331846FFF7A9F908
:10504000BB68DB6A01229A40234B1B681343224A48
:105050001360BB68DA6A13469B0013449B001F4A27
:105060001A44BB68043319461046FFF76EF9BB6853
:10507000DA6A1B4B1B68DB6A9A42B4D301237B615B
:10508000B1E7174B1B68DA6A144913469B001344B7
:105090009B000B441B68012B07D901237B6104E0B3
:1050A000104B1B6801330F4A13600F4B1B68002B1A
:1050B00001D001237B617B6918461837BD4680BD4E
:1050C000403E00201C3E0020D03D0020D43D00206A
:1050D000303E0020383E0020203E00201C3D0020B5
:1050E000183D0020283E00202C3E002080B487B0D0
:1050F00000AF264B1B68002B03D0254B01221A6002
:105100003EE0234B00221A60224B1B68FB60FB68C9
:10511000B3FA83F3FB72FB7AC3F11F037B611E4971
:105120007A6913469B0013449B000B441B68002BB9
:1051300009D14FF0500383F31188BFF36F8FBFF392
:105140004F8F7B60FEE77A6913469B0013449B00F8
:10515000114A13443B613B695B685A683B695A607A
:105160003B695A683B6908339A4204D13B695B68E2
:105170005A683B695A603B695B68DB68074A1360A1
:1051800000BF1C37BD465DF8047B7047403E0020E1
:105190002C3E0020203E00201C3D0020183D002019
:1051A00080B582B000AF786000F052F8064B1B6803
:1051B000012BF9D9054B4FF080521A60BFF34F8F86
:1051C000BFF36F8FF0E700BF1C3D002004ED00E04F
:1051D00080B582B000AF00237B600CE07A68134694
:1051E0009B0013449B00124A13441846FFF780F8B3
:1051F0007B6801337B607B68062BEFD90D48FFF796
:1052000077F80D48FFF774F80C48FFF771F80C4871
:10521000FFF76EF80B48FFF76BF80B4B054A1A6067
:105220000A4B054A1A6000BF0837BD4680BD00BF63
:105230001C3D0020A83D0020BC3D0020D83D0020A2
:10524000EC3D0020043E0020D03D0020D43D002055
:1052500080B582B000AF28E0FFF7E2FD174B1B6876
:10526000002B0CBF01230023DBB27B60FFF7E6FDC0
:105270007B68002B19D1FFF7BBF9104BDB68DB68AB
:105280003B603B6804331846FFF783F80C4B1B6800
:10529000013B0B4A13600B4B1B68013B094A13602F
:1052A000FFF7D4F9386800F00FF8064B1B68002BA5
:1052B000D2D100BF0837BD4680BD00BFEC3D002005
:1052C000183E0020003E002080B582B000AF78601C
:1052D0007B681B6B1846FFF71FFB7868FFF71CFB0A
:1052E00000BF0837BD4680BD80B483B000AF0F4B10
:1052F0001B681B68002B01D1012300E00023002B59
:1053000004D00B4B4FF0FF321A6008E0074B1B68CC
:10531000DB68DB687B607B685B68054A136000BF05
:105320000C37BD465DF8047B704700BFD03D0020C0
:10533000383E002080B483B000AF0B4B1B68002BBD
:1053400002D101237B6008E0084B1B68002B02D1CF
:1053500002237B6001E000237B607B6818460C37EA
:10536000BD465DF8047B7047243E0020403E00208F
:1053700080B500AFCA2000F043F9C32000F06AF9FD
:10538000082000F067F9502000F064F9CF2000F009
:1053900037F9002000F05EF9C12000F05BF9302001
:1053A00000F058F9ED2000F02BF9642000F052F9DC
:1053B000032000F04FF9122000F04CF9812000F09A
:1053C00049F9E82000F01CF9852000F043F900209D
:1053D00000F040F9782000F03DF9CB2000F010F902
:1053E000392000F037F92C2000F034F9002000F0CB
:1053F00031F9342000F02EF9022000F02BF9F720CB
:1054000000F0FEF8202000F025F9EA2000F0F8F87E
:10541000002000F01FF9002000F01CF9B12000F07E
:10542000EFF8002000F016F91B2000F013F9B62069
:1054300000F0E6F80A2000F00DF9A22000F00AF9C9
:10544000C02000F0DDF8102000F004F9C12000F0C9
:10545000D7F8102000F0FEF8C52000F0D1F8452064
:1054600000F0F8F8152000F0F5F8C72000F0C8F8B3
:10547000902000F0EFF8362000F0C2F8C82000F0CD
:10548000E9F8F22000F0BCF8002000F0E3F8B020CA
:1054900000F0B6F8C22000F0DDF8B62000F0B0F859
:1054A0000A2000F0D7F8A72000F0D4F8272000F059
:1054B000D1F8042000F0CEF82A2000F0A1F8002056
:1054C00000F0C8F8002000F0C5F8002000F0C2F895
:1054D000EF2000F0BFF82B2000F092F8002000F041
:1054E000B9F8002000F0B6F8012000F0B3F83F2032
:1054F00000F0B0F8F62000F083F8012000F0AAF8E0
:10550000002000F0A7F8062000F0A4F82C2000F0FE
:1055100077F86420FBF7B6F8262000F071F8012038
:1055200000F098F8E02000F06BF80F2000F092F8FF
:10553000292000F08FF8242000F08CF80C2000F0D7
:1055400089F80E2000F086F8092000F083F84E203C
:1055500000F080F8782000F07DF83C2000F07AF828
:10556000092000F077F8132000F074F8052000F00F
:1055700071F8172000F06EF8112000F06BF8002091
:1055800000F068F8E12000F03BF8002000F062F83D
:10559000162000F05FF81B2000F05CF8042000F0FB
:1055A00059F8112000F056F8072000F053F8312088
:1055B00000F050F8332000F04DF8422000F04AF897
:1055C000052000F047F80C2000F044F80A2000F015
:1055D00041F8282000F03EF82F2000F03BF80F2083
:1055E00000F038F8112000F00BF86420FBF74AF8BF
:1055F000292000F005F82C2000F002F800BF80BD43
:1056000080B584B000AF0346FB71FB793B73002388
:105610007B7300224FF400510B48FCF771F8002215
:1056200004210A48FCF76CF807F10C0164230122FD
:105630000748FEF709FB012204210448FCF760F843
:1056400000BF1037BD4680BD000C0240000802407C
:10565000C43E002080B584B000AF0346FB71FB79E7
:105660003B7300237B7301224FF400510B48FCF77E
:1056700047F8002204210A48FCF742F807F10C0120
:10568000642301220748FEF7DFFA012204210448BF
:10569000FCF736F800BF1037BD4680BD000C024055
:1056A00000080240C43E002080B584B002AF78609C
:1056B000114B4FF440325A600F4B0022DA600E4813
:1056C000FBF7B8FA0346002B12D10C4BDA6D0B4BEB
:1056D000196E0A4B5B6E00930B4679680648FBF720
:1056E000F2FA0346002B03D10A210348FBF716FB0D
:1056F00000BF0837BD4680BDC43F00201C3F0020CE
:1057000080B586B002AFF860B9607A60154B4FF48F
:1057100040325A60134B0022DA601248FBF78AFAD3
:105720000346002B1AD1104BD96D0F4B1B6EBA6874
:1057300002FB03F2FB681A4413465B001344CA18C9
:1057400001230093012379680648FBF7BCFA03465E
:10575000002B03D10A210348FBF7E0FA00BF103702
:10576000BD4680BDC43F00201C3F002080B588B0EE
:1057700000AF0346FB800B46BB801346FB704E4BCD
:105780009B681A68FB78203B4B498968C98801FBF4
:1057900003F1494B9B689B880733002B00DA0733E2
:1057A000DB1003FB01F31344444A1360424B9B6834
:1057B000DB887B82404B9B689B883B823B8A07331C
:1057C000002B00DA0733DB10DBB2DB00DAB23B8AF6
:1057D000DBB2D31AFB730023BB6164E0374B1A685A
:1057E0003B8A0733002B00DA0733DB101946BB690D
:1057F00003FB01F31344BB603B8A0733002B00DA41
:105800000733DB10012B02D0022B04D00CE0BB6865
:105810001B78FB6116E0BB681B781B02BA6801327B
:1058200012781343FB610DE0BB681B781A04BB6858
:1058300001331B781B021343BA68023212781343F8
:10584000FB6100BF00237B6123E03A8A7B69D21AA7
:10585000FB7B1344013B012202FA03F31A46FB6966
:105860001340002B09D0FA887B69D018B988124BF5
:105870001B681A46FFF744FF08E0FA887B69D018D6
:10588000B9880D4B5B681A46FFF73AFF7B69013315
:105890007B613A8A7B699A42D7D8BB880133BB8047
:1058A000BB690133BB617A8ABB699A4296D800BF53
:1058B0002037BD4680BD00BF5C3E0020683E002012
:1058C00080B588B000AFBA601A460346FB810B462C
:1058D000BB811346FB710123FB830023BB830023A1
:1058E000BB6100233B61BB687B6102E0BB690133A4
:1058F000BB617B695A1C7A611B78002BF6D1364B51
:105900001A88364B9B689B88B2FBF3F39BB23B61D2
:10591000FB79012B02D0022B0ED01BE03A69BB6948
:10592000D31A2E4A9268928802FB03F35B089AB25C
:10593000FB891344FB8310E03A69BB69D31A9AB21E
:10594000264B9B689B8812FB03F39AB2FB89D31A00
:10595000FB8302E0FB89FB8300BFFB8B002B03D0A2
:10596000B7F91E30002B15DA0123FB8312E0BB6868
:105970001A78B989FB8B1846FFF7F8FE174B9B681E
:105980009A88FB8B1344FB83BB680133BB60BB8BE2
:105990000133BB83BB681B78002B14BF012300239A
:1059A000DAB20D4B1B881846BB8B0C498968898875
:1059B00001FB03F3C31A9BB20849896889888B42AB
:1059C000ACBF01230023DBB21340DBB2002BCED1EE
:1059D00000BF2037BD4680BD0C0000205C3E00208B
:1059E000B0B586B000AFFAF7DBFD00F071F800F05B
:1059F0007FFA00F07FF900F0FDF900F031FA00F0D5
:105A0000F1F800F037F9104800F028FBFFF7B0FC80
:105A100000220E490E48FCF72FFF00F07BFF00200C
:105A2000FFF742FE0B4B3C1D1D460FCD0FC42B68EC
:105A300023603B1D00211846FEF728FC0246064B5A
:105A40001A60FEF71CFCFEE704400020000005D0B1
:105A50001C3F0020887400086C3E002080B58AB08E
:105A600000AF786007F10C0300221A605A609A6058
:105A7000DA601A614FF400411248FBF729FE034631
:105A8000012BF7D107F12003184600F0D7FF97F854
:105A90002030002BEED07B8C1A46BB8C07F10C001B
:105AA000094901F0BBF807F10C0201231421002081
:105AB000FFF706FF7B8C1846BB8C044A1946FFF79C
:105AC0001FFED7E7000002409C7400088080FF00A2
:105AD00080B5A0B000AF07F1500330220021184676
