:020000040800F2
:1000000000000320BD7C00085579000863790008D2
:10001000697900086F790008757900080000000010
:10002000000000000000000000000000614F000818
:100030007B790008000000007151000889790008F0
:100040000D7D00080D7D00080D7D00080D7D000868
:100050000D7D00080D7D00080D7D00080D7D000858
:100060000D7D00080D7D00080D7D00080D7D000848
:100070000D7D00080D7D00080D7D00080D7D000838
:100080000D7D00080D7D00080D7D00080D7D000828
:100090000D7D00080D7D00080D7D00080D7D000818
:1000A0000D7D00080D7D00080D7D00080D7D000808
:1000B0000D7D00080D7D00080D7D00080D7D0008F8
:1000C0000D7D00080D7D00080D7D00080D7D0008E8
:1000D0000D7D00080D7D00080D7D00080D7D0008D8
:1000E0000D7D00080D7D00080D7D00080D7D0008C8
:1000F0000D7D00080D7D00080D7D00080D7D0008B8
:100100000D7D00080D7D00080D7D00080D7D0008A7
:100110000D7D00080D7D00080D7D00080D7D000897
:100120000D7D00080D7D00080D7D00080D7D000887
:100130000D7D00080D7D00080D7D00080D7D000877
:100140000D7D00080D7D00080D7D00080D7D000867
:100150000D7D00080D7D00080D7D00080D7D000857
:100160000D7D00080D7D00080D7D00080D7D000847
:100170000D7D00080D7D00080D7D000800000000C9
:100180000D7D00080D7D00080D7D00080D7D000827
:100190000D7D00080D7D00080D7D00080D7D000817
:0C01A000997900080D7D0008AD79000879
:1001B00010B5054C237833B9044B13B10448AFF3A1
:1001C00000800123237010BD6400002000000000A7
:1001D00074D0000808B5034B1BB103490348AFF3C3
:1001E000008008BD000000006800002074D00008F6
:1001F00053B94AB9002908BF00281CBF4FF0FF318E
:100200004FF0FF3000F07AB9ADF1080C6DE904CE83
:1002100000F006F8DDF804E0DDE9022304B07047E1
:100220002DE9F0478C460D460446089E002B51D11F
:100230008A4217466DD9B2FA82FEBEF1000F0BD08A
:10024000CEF1200C01FA0EF520FA0CFC02FA0EF7A2
:100250004CEA050C00FA0EF44FEA174A250CBCFBD9
:10026000FAF81FFA87F90AFB18CC45EA0C4508FB97
:1002700009F3AB420AD9ED1908F1FF3280F023816E
:10028000AB4240F22081A8F102083D44ED1AA4B22D
:10029000B5FBFAF00AFB105544EA054400FB09F9E6
:1002A000A14509D9E41900F1FF3380F00A81A14585
:1002B00040F2078102383C44A4EB090440EA0840BC
:1002C0000021002E61D024FA0EF400233460736004
:1002D000BDE8F0878B4207D9002E54D0002186E874
:1002E00021000846BDE8F087B3FA83F1002940F009
:1002F0008E80AB4202D3824200F2FA80841A65EB10
:1003000003050120AC46002E3FD086E81010BDE862
:10031000F08712B90127B7FBF2F7B7FA87FEBEF1F3
:10032000000F34D1EB1B3A0C1FFA87FC0121B3FB01
:10033000F2F8250C02FB183345EA03450CFB08F3E1
:10034000AB4207D9ED1908F1FF3002D2AB4200F2FF
:10035000D1808046ED1AA3B2B5FBF2F002FB105536
:1003600043EA05440CFB00FCA44507D9E41900F15D
:10037000FF3302D2A44500F2B8801846A4EB0C0467
:1003800040EA08409DE731463046BDE8F087CEF1AF
:10039000200405FA0EF307FA0EF720FA04F83A0CD7
:1003A00025FA04F448EA0308B4FBF2F14FEA1845D1
:1003B00002FB11441FFA87FC45EA044501FB0CF3DC
:1003C000AB4200FA0EF409D9ED1901F1FF3080F0CB
:1003D0008A80AB4240F2878002393D44EB1A1FFA13
:1003E00088F5B3FBF2F002FB103345EA034500FB4E
:1003F0000CF3AB4207D9ED1900F1FF386FD2AB42D5
:100400006DD902383D44EB1A40EA01418FE7C1F152
:10041000200722FA07F88B4005FA01F448EA0303A3
:1004200020FA07FE4FEA134CFD404EEA040EB5FBDE
:10043000FCF94FEA1E440CFB19551FFA83F844EAF5
:10044000054509FB08F4AC4202FA01F200FA01FA90
:1004500008D9ED1809F1FF3043D2AC4241D9A9F1D6
:1004600002091D442D1B1FFA8EFEB5FBFCF00CFB90
:1004700010554EEA054400FB08F8A04507D9E418DA
:1004800000F1FF3529D2A04527D902381C4440EAA3
:100490000940A4EB0804A0FB02894C45C6464D4622
:1004A00015D312D056B1BAEB0E0364EB050404FA6F
:1004B00007F7CB401F43CC40376074600021BDE894
:1004C000F0871846F8E69046E0E6C245EAD2B8EB77
:1004D000020E69EB03050138E4E72846D7E74046FA
:1004E00091E78146BEE7014678E702383C4445E79C
:1004F000084608E7A8F102083D442BE7704700BF13
:1005000080B500AF0E4A0E4B1B6843F400731360B6
:100510000B4A0B4B1B6843F480631360084A084B7B
:100520001B6843F480731360032000F047F90F2029
:1005300000F008F807F0E2F80023184680BD00BF7D
:10054000003C024080B582B000AF7860124B1A6860
:10055000124B1B7819464FF47A73B3FBF1F3B2FBDD
:10056000F3F3184600F05FF90346002B01D0012396
:100570000EE07B680F2B0AD8002279684FF0FF301D
:1005800000F027F9064A7B681360002300E001238E
:1005900018460837BD4680BD60000020540000208A
:1005A0005000002080B400AF064B1B781A46064B63
:1005B0001B681344044A136000BFBD465DF8047B0A
:1005C000704700BF540000203440002080B400AFCA
:1005D000034B1B681846BD465DF8047B704700BF9F
:1005E0003440002080B584B000AF7860FFF7EEFFA4
:1005F000B8607B68FB60FB68B3F1FF3F05D0094B37
:100600001B781A46FB681344FB6000BFFFF7DEFF50
:100610000246BB68D21AFB689A42F7D300BF103774
:10062000BD4680BD5400002080B485B000AF786026
:100630007B6803F00703FB600C4BDB68BB60BA68A8
:100640004FF6FF031340BB60FB681A02BB681343FD
:1006500043F0BF6343F40033BB60044ABB68D3601C
:1006600000BF1437BD465DF8047B704700ED00E025
:1006700080B400AF044BDB681B0A03F00703184685
:10068000BD465DF8047B704700ED00E080B483B0A8
:1006900000AF0346FB71094997F907305B09FA7906
:1006A00002F01F02012000FA02F241F8232000BFED
:1006B0000C37BD465DF8047B704700BF00E100E0E9
:1006C00080B483B000AF03463960FB7197F90730FF
:1006D000002B0BDA0D49FB7903F00F03043B3A685A
:1006E000D2B21201D2B20B441A7609E0084997F946
:1006F00007303A68D2B21201D2B20B4483F8002319
:1007000000BF0C37BD465DF8047B704700ED00E08C
:1007100000E100E080B489B000AFF860B9607A60B1
:10072000FB6803F00703FB61FB69C3F10703042BBC
:1007300028BF0423BB61FB690433062B02D9FB6984
:10074000033B00E000237B610122BB6902FA03F353
:100750005A1EBB681A407B699A4001217B6901FAE5
:1007600003F3591E7B680B40134318462437BD46DC
:100770005DF8047B7047000080B582B000AF786000
:100780007B68013BB3F1807F01D301230FE00A4A6C
:100790007B68013B53600F214FF0FF30FFF790FF64
:1007A000054B00229A60044B07221A60002318466A
:1007B0000837BD4680BD00BF10E000E080B582B0C4
:1007C00000AF78607868FFF72FFF00BF0837BD469D
:1007D00080BD80B586B000AF0346B9607A60FB7318
:1007E00000237B61FFF744FF78617A68B968786914
:1007F000FFF790FF024697F90F3011461846FFF7B2
:100800005FFF00BF1837BD4680BD80B582B000AF26
:100810000346FB7197F907301846FFF737FF00BF13
:100820000837BD4680BD80B582B000AF786078687B
:10083000FFF7A2FF034618460837BD4680BD80B5C6
:1008400082B000AF78607B68002B01D101233BE0D0
:100850007B6893F83930DBB2002B06D17B6800222D
:1008600083F83820786803F063FA7B68022283F803
:1008700039207B681B687A681268126822F440315C
:100880007A6852680A431A607B681B687A68126843
:10089000526B22F007017A6892680A435A637B68B8
:1008A0001A687B681B681B6C23F47F5323F03F039B
:1008B0007968C9680B4313647B680022DA637B683C
:1008C000012283F83920002318460837BD4680BD31
:1008D00080B584B000AF78607B681B685B68FB60A4
:1008E0007B681B681B68BB60FB6803F00103002B7F
:1008F00026D0BB6803F48073002B21D07B681B6873
:100900007A681268126822F480721A607B68DB6B66
:1009100043F001027B68DA637B681B6801229A60FE
:100920007B68042283F839207B68002283F8382012
:100930007B685B69002B03D07B685B6978689847AC
:10094000FB6803F02003002B26D0BB6803F40053A0
:10095000002B21D07B681B687A681268126822F429
:1009600000521A607B681B6820229A607B68DB6BF0
:1009700043F002027B68DA637B68042283F8392043
:100980007B68002283F838207B685B69002B03D0EA
:100990007B685B6978689847FB6803F00803002B65
:1009A00026D0BB6803F40063002B21D07B681B6852
:1009B0007A681268126822F400621A607B681B6809
:1009C00008229A607B68DB6B43F004027B68DA6381
:1009D0007B68042283F839207B68002283F8382062
:1009E0007B685B69002B03D07B685B6978689847FC
:1009F000FB6803F00403002B13D0BB6803F480638F
:100A0000002B0ED07B681B687A681268126822F48B
:100A100080621A607B681B6804229A60786800F024
:100A200053F8FB6803F00203002B24D0BB6803F4E7
:100A30000073002B1FD07B681B687A6812681268ED
:100A400022F400721A607B681B6802229A607B683D
:100A5000DA6B7B68DA637B68012283F839207B6874
:100A6000002283F838207B681B69002B03D07B6849
:100A70001B6978689847FB6803F01003002B1FD0B0
:100A8000BB6803F48053002B1AD07B681B687A681C
:100A90001268126822F480521A607B681B68102268
:100AA0009A607B68DA6B7B68DA637B68012283F883
:100AB00039207B68002283F83820786800F00EF82F
:100AC00000BF1037BD4680BD80B483B000AF7860F2
:100AD00000BF0C37BD465DF8047B704780B483B01F
:100AE00000AF786000BF0C37BD465DF8047B7047EF
:100AF00080B489B000AF7860396000237B61002347
:100B00003B610023BB610023FB6177E10122FB69AC
:100B100002FA03F37B613B681A687B6913403B610F
:100B20003A697B699A4240F066813B685B68022BB8
:100B300003D03B685B68122B23D1FB69DA087B6822
:100B4000083253F82230BB61FB6903F007039B00B6
:100B50000F2202FA03F3DB43BA691340BB613B681F
:100B60001A69FB6903F007039B0002FA03F3BA69F1
:100B70001343BB61FB69DA087B680832B96943F843
:100B800022107B681B68BB61FB695B00032202FAD1
:100B900003F3DB43BA691340BB613B685B6803F056
:100BA0000302FB695B0002FA03F3BA691343BB61FA
:100BB0007B68BA691A603B685B68012B0BD03B68A5
:100BC0005B68022B07D03B685B68112B03D03B6846
:100BD0005B68122B30D17B689B68BB61FB695B0053
:100BE000032202FA03F3DB43BA691340BB613B689B
:100BF000DA68FB695B0002FA03F3BA691343BB616D
:100C00007B68BA699A607B685B68BB610122FB699B
:100C100002FA03F3DB43BA691340BB613B685B68CC
:100C20001B0903F00102FB6902FA03F3BA691343DB
:100C3000BB617B68BA695A607B68DB68BB61FB6932
:100C40005B00032202FA03F3DB43BA691340BB6182
:100C50003B689A68FB695B0002FA03F3BA691343C5
:100C6000BB617B68BA69DA603B685B6803F08053FC
:100C7000002B00F0C0800023FB60654A644B5B6C76
:100C800043F480435364624B5B6C03F48043FB602A
:100C9000FB68604AFB699B08023352F82330BB6152
:100CA000FB6903F003039B000F2202FA03F3DB430B
:100CB000BA691340BB617B68574A934237D07B685F
:100CC000564A934231D07B68554A93422BD07B6879
:100CD000544A934225D07B68534A93421FD07B6885
:100CE000524A934219D07B68514A934213D07B6891
:100CF000504A93420DD07B684F4A934207D07B689D
:100D00004E4A934201D1092312E00A2310E008233E
:100D10000EE007230CE006230AE0052308E0042385
:100D200006E0032304E0022302E0012300E00023A5
:100D3000FA6902F0030292009340BA691343BB615F
:100D40003449FB699B080233BA6941F823203C4BC4
:100D50001B68BB613B69DB43BA691340BB613B68FD
:100D60005B6803F48033002B03D0BA693B691343FB
:100D7000BB61334ABB691360314B5B68BB613B6944
:100D8000DB43BA691340BB613B685B6803F4003323
:100D9000002B03D0BA693B691343BB61284ABB6986
:100DA0005360274B9B68BB613B69DB43BA691340C7
:100DB000BB613B685B6803F48013002B03D0BA6906
:100DC0003B691343BB611E4ABB6993601C4BDB68E4
:100DD000BB613B69DB43BA691340BB613B685B683D
:100DE00003F40013002B03D0BA693B691343BB61C2
:100DF000134ABB69D360FB690133FB61FB690F2BAD
:100E00007FF684AE00BF2437BD465DF8047B704793
:100E10000038024000380140000002400004024057
:100E200000080240000C0240001002400014024082
:100E300000180240001C0240002002400024024032
:100E4000003C014080B483B000AF78600B467B80EB
:100E500013467B707B78002B03D07A887B689A617D
:100E600003E07B881A047B689A6100BF0C37BD469B
:100E70005DF8047B7047000080B584B000AF7860F7
:100E80000023FB600023BB607B68002B01D10123A2
:100E9000C8E07B6893F83D30DBB2002B06D17B685D
:100EA000002283F83C20786806F054FC7B682422FA
:100EB00083F83D207B681B687A681268126822F00C
:100EC00001021A6002F07AF9B860BB68574AA2FBC7
:100ED00003239B0CFB607B681B68FA685A607B6885
:100EE0001A687B685B6852498B4202D8FB68013301
:100EF00009E0FB684FF4967101FB03F34D49A1FB38
:100F000003139B09013313627B6819687B685B6874
:100F1000474A934212D87B685B685B00BA68B2FBB1
:100F2000F3F3C3F30B03032B06D97B685B685B0009
:100F3000BA68B2FBF3F345E0042343E07B689B68A7
:100F4000002B0FD17B685A6813465B001344BA68C4
:100F5000B2FBF3F3C3F30B03002B0CBF01230023FD
:100F6000DBB210E07B685A6813469B0013449A007A
:100F70001344BA68B2FBF3F3C3F30B03002B0CBFAB
:100F800001230023DBB2002B01D001231AE07B6890
:100F90009B68002B0AD17B685A6813465B00134498
:100FA000BA68B2FBF3F343F400430BE07B685A6882
:100FB00013469B0013449A001344BA68B2FBF3F340
:100FC00043F44043CB617B681B687A68D1697A68D7
:100FD000126A0A431A607B681B687A6811697A682A
:100FE000D2680A439A607B681B687A6851697A689C
:100FF00092690A43DA607B681B687A681268126833
:1010000042F001021A607B6800221A647B68202289
:1010100083F83D207B6800221A637B68002283F8F6
:101020003E20002318461037BD4680BD83DE1B439B
:10103000A0860100D34D621080B588B002AFF86081
:101040007A601A460B467B8113463B8100237B6105
:10105000FFF7BCFA7861FB6893F83D30DBB2202BD8
:1010600040F0EE807B690093192301227749F868EC
:1010700000F06CFC0346002B01D00223E1E0FB688A
:1010800093F83C30012B01D10223DAE0FB68012206
:1010900083F83C20FB681B681B6803F00103012BED
:1010A00007D0FB681B68FA681268126842F00102F8
:1010B0001A60FB681B68FA681268126822F4006202
:1010C0001A60FB68212283F83D20FB68102283F818
:1010D0003E20FB6800221A64FB687A685A62FB684B
:1010E0003A895A85FB685A4ADA62FB685B8D9AB284
:1010F000FB681A8579897B693A6AF86800F0DCFA3E
:101100000346002B0FD0FB681B6C042B05D1FB683A
:10111000002283F83C20012393E0FB68002283F83F
:101120003C2003238DE000233B61FB681B685B6967
:101130003B61FB681B689B693B613B6966E07A69C0
:10114000396AF86800F0C1FC0346002B0FD0FB6839
:101150001B6C042B09D1FB681B68FA6812681268C3
:1011600042F400721A6001236BE0032369E0FB681C
:101170001A68FB685B6A581CF96848621B7813613F
:10118000FB685B8D9BB2013B9AB2FB685A85FB689A
:101190001B8D013B9AB2FB681A85FB681B685B6973
:1011A00003F00403042B19D1FB681B8D002B15D011
:1011B000FB681A68FB685B6A581CF96848621B7810
:1011C0001361FB685B8D9BB2013B9AB2FB685A8549
:1011D000FB681B8D013B9AB2FB681A857A69396AF4
:1011E000F86800F0AFFC0346002B0FD0FB681B6CC7
:1011F000042B09D1FB681B68FA681268126842F474
:1012000000721A6001231CE003231AE0FB681B8DA7
:10121000002B94D1FB681B68FA681268126842F4CC
:1012200000721A60FB68202283F83D20FB680022D0
:1012300083F83E20FB68002283F83C20002300E076
:10124000022318461837BD4680BD00BF02001000BB
:101250000000FFFF80B58CB002AFF8607A601A46DC
:101260000B467B8113463B8100237B62FFF7AEF97F
:101270007862FB6893F83D30DBB2202B40F015829A
:101280007B6A0093192301228549F86800F05EFB10
:101290000346002B01D0022308E2FB6893F83C30A0
:1012A000012B01D1022301E2FB68012283F83C20DB
:1012B000FB681B681B6803F00103012B07D0FB6868
:1012C0001B68FA681268126842F001021A60FB6833
:1012D0001B68FA681268126822F400621A60FB68E0
:1012E000222283F83D20FB68102283F83E20FB6811
:1012F00000221A64FB687A685A62FB683A895A8548
:10130000FB68684ADA62FB685B8D9AB2FB681A85F3
:1013100079897B6A3A6BF86800F050FA0346002B33
:101320000FD0FB681B6C042B05D1FB68002283F8EF
:101330003C200123BAE1FB68002283F83C20032310
:10134000B4E1FB681B8D002B13D100233B62FB68CB
:101350001B685B693B62FB681B689B693B623B6A7D
:10136000FB681B68FA681268126842F400721A601F
:1013700088E1FB681B8D012B1BD1FB681B68FA6899
:101380001268126822F480621A600023FB61FB6815
:101390001B685B69FB61FB681B689B69FB61FB6900
:1013A000FB681B68FA681268126842F400721A60DF
:1013B00068E1FB681B8D022B1BD1FB681B68FA6878
:1013C0001268126822F480621A60FB681B68FA686F
:1013D0001268126842F400621A600023BB61FB6865
:1013E0001B685B69BB61FB681B689B69BB61BB6970
:1013F00048E1FB681B68FA681268126842F4806270
:101400001A6000237B61FB681B685B697B61FB687A
:101410001B689B697B617B6934E1FB681B8D032B37
:1014200000F2EB80FB681B8D012B27D17A6A396BA8
:10143000F86800F0C4FB0346002B07D0FB681B6C68
:10144000202B01D1032331E101232FE1FB685B6AEB
:10145000591CFA685162FA6812681269D2B21A709D
:10146000FB681B8D013B9AB2FB681A85FB685B8D9C
:101470009BB2013B9AB2FB685A8503E1FB681B8D66
:10148000022B4AD17B6A00933B6B00220649F86825
:1014900000F05CFA0346002B08D0032306E100BFEE
:1014A000020010000000FFFF04000100FB681B6841
:1014B000FA681268126842F400721A60FB685B6A8C
:1014C000591CFA685162FA6812681269D2B21A702D
:1014D000FB681B8D013B9AB2FB681A85FB685B8D2C
:1014E0009BB2013B9AB2FB685A85FB685B6A591C48
:1014F000FA685162FA6812681269D2B21A70FB680F
:101500001B8D013B9AB2FB681A85FB685B8D9BB211
:10151000013B9AB2FB685A85B4E07B6A00933B6B4F
:1015200000226449F86800F011FA0346002B01D04C
:101530000323BBE0FB681B68FA681268126822F498
:1015400080621A60FB685B6A591CFA685162FA682B
:1015500012681269D2B21A70FB681B8D013B9AB2F5
:10156000FB681A85FB685B8D9BB2013B9AB2FB68F6
:101570005A857B6A00933B6B00224E49F86800F065
:10158000E5F90346002B01D003238FE0FB681B68BD
:10159000FA681268126842F400721A60FB685B6AAB
:1015A000591CFA685162FA6812681269D2B21A704C
:1015B000FB681B8D013B9AB2FB681A85FB685B8D4B
:1015C0009BB2013B9AB2FB685A85FB685B6A591C67
:1015D000FA685162FA6812681269D2B21A70FB682E
:1015E0001B8D013B9AB2FB681A85FB685B8D9BB231
:1015F000013B9AB2FB685A8544E07A6A396BF86815
:1016000000F0DDFA0346002B07D0FB681B6C202B93
:1016100001D103234AE0012348E0FB685B6A591CBF
:10162000FA685162FA6812681269D2B21A70FB68DD
:101630001B8D013B9AB2FB681A85FB685B8D9BB2E0
:10164000013B9AB2FB685A85FB681B685B6903F033
:101650000403042B16D1FB685B6A591CFA685162BB
:10166000FA6812681269D2B21A70FB681B8D013BCE
:101670009AB2FB681A85FB685B8D9BB2013B9AB2FC
:10168000FB685A85FB681B8D002B7FF4C6AEFB6898
:10169000202283F83D20FB68002283F83E20FB686F
:1016A000002283F83C20002300E00223184628375C
:1016B000BD4680BD0400010080B588B002AFF8606F
:1016C0007A603B600B467B81FB68DB6A7B617B69F0
:1016D000042B06D07B69012B03D07B6913F5803F77
:1016E00008D1FB681B68FA681268126842F48072BD
:1016F0001A600BE0FB681B6B122B07D1FB681B68A1
:10170000FA681268126842F480721A603B680093AB
:101710007B6800224FF00111F86800F017F90346CA
:10172000002B01D0032340E0FB681B69B3F5804F19
:1017300007D1FB681B687A89D2B202F0FE021A61F7
:1017400021E0FB681B687A89D211D2B202F006024E
:10175000D2B262F00F02D2B21A613B687A681549C0
:10176000F86800F044F90346002B07D0FB681B6CB7
:10177000042B01D1012318E0032316E0FB681B684A
:101780007A89D2B21A613B687A680B49F86800F02E
:101790002EF90346002B07D0FB681B6C042B01D1EC
:1017A000012302E0032300E0002318461837BD465A
:1017B00080BD00BF080001000200010080B588B0B4
:1017C00002AFF8607A603B600B467B81FB68DB6AA6
:1017D0007B61FB681B68FA681268126842F48062D9
:1017E0001A607B69042B06D07B69012B03D07B69CF
:1017F00013F5803F08D1FB681B68FA68126812680D
:1018000042F480721A600BE0FB681B6B112B07D14E
:10181000FB681B68FA681268126842F480721A60EA
:101820003B6800937B6800224FF00111F86800F0DC
:101830008DF80346002B01D003237FE0FB681B6972
:10184000B3F5804F08D1FB681B687A89D2B242F0A9
:101850000102D2B21A615FE0FB681B687A89D2117B
:10186000D2B202F00602D2B262F00F02D2B21A6114
:101870003B687A683349F86800F0B9F80346002BF2
:1018800007D0FB681B6C042B01D1012356E0032316
:1018900054E0FB681B687A89D2B21A613B687A68A7
:1018A0002949F86800F0A3F80346002B07D0FB682D
:1018B0001B6C042B01D1012340E003233EE00023F5
:1018C0003B61FB681B685B693B61FB681B689B694C
:1018D0003B613B69FB681B68FA681268126842F456
:1018E00080721A603B6800937B6800224FF0011100
:1018F000F86800F02BF80346002B01D003231DE00D
:10190000FB681B687A89D211D2B202F00602D2B209
:1019100062F00E02D2B21A613B687A680A49F8682E
:1019200000F065F80346002B07D0FB681B6C042B06
:1019300001D1012302E0032300E0002318461837F9
:10194000BD4680BD080001000200010080B584B0E2
:1019500000AFF860B9603B601346FB711FE03B6865
:10196000B3F1FF3F1BD03B68002B07D0FEF72EFEE4
:101970000246BB69D21A3B689A4210D9FB68002222
:101980001A63FB68202283F83D20FB68002283F85D
:101990003E20FB68002283F83C20032323E0BB6841
:1019A0001B0CDBB2012B0DD1FB681B685B69DA43B2
:1019B000BB6813409BB2002B0CBF01230023DBB29A
:1019C0001A460CE0FB681B689B69DA43BB6813404E
:1019D0009BB2002B0CBF01230023DBB21A46FB791C
:1019E0009A42BCD0002318461037BD4680BD80B552
:1019F00084B000AFF860B9607A603B6040E0FB689B
:101A00001B685B6903F48063B3F5806F1CD1FB68CE
:101A10001B68FA681268126842F400721A60FB6868
:101A20001B686FF480625A61FB6804221A64FB68C9
:101A300000221A63FB68202283F83D20FB68002205
:101A400083F83C2001233CE07B68B3F1FF3F17D0D3
:101A50007B68002B07D0FEF7B9FD02463B68D21A1F
:101A60007B689A420CD9FB6800221A63FB6820222B
:101A700083F83D20FB68002283F83C20032320E00C
:101A8000BB681B0CDBB2012B0CD1FB681B685B69CC
:101A9000DA43BB6813409BB2002B14BF0123002321
:101AA000DBB20BE0FB681B689B69DA43BB68134041
:101AB0009BB2002B14BF01230023DBB2002B9ED16D
:101AC000002318461037BD4680BD80B584B000AFF6
:101AD000F860B9607A6029E0F86800F0BAF8034667
:101AE000002B01D0012329E0BB68B3F1FF3F1DD0DB
:101AF000BB68002B07D0FEF769FD02467B68D21A4F
:101B0000BB689A4212D9FB681B6C43F02002FB6849
:101B10001A64FB6800221A63FB68202283F83D20C8
:101B2000FB68002283F83C20032307E0FB681B6866
:101B30005B6903F08003802BCED100231846103759
:101B4000BD4680BD80B584B000AFF860B9607A60F2
:101B500029E0F86800F07DF80346002B01D001234E
:101B600029E0BB68B3F1FF3F1DD0BB68002B07D055
:101B7000FEF72CFD02467B68D21ABB689A4212D946
:101B8000FB681B6C43F02002FB681A64FB680022B0
:101B90001A63FB68202283F83D20FB68002283F84B
:101BA0003C20032307E0FB681B685B6903F0040328
:101BB000042BCED1002318461037BD4680BD80B51A
:101BC00084B000AFF860B9607A6036E0FB681B68EB
:101BD0005B6903F01003102B14D1FB681B686FF0D6
:101BE00010025A61FB6800221A64FB6800221A6323
:101BF000FB68202283F83D20FB68002283F83C200C
:101C0000012322E0BB68002B07D0FEF7DFFC024671
:101C10007B68D21ABB689A420FD9FB681B6C43F0F1
:101C20002002FB681A64FB68202283F83D20FB68D1
:101C3000002283F83C20032307E0FB681B685B69F4
:101C400003F04003402BC1D1002318461037BD4696
:101C500080BD80B483B000AF78607B681B685B692F
:101C600003F48063B3F5806F14D17B681B686FF455
:101C700080625A617B6804221A647B6800221A63BE
:101C80007B68202283F83D207B68002283F83C207B
:101C9000012300E0002318460C37BD465DF8047BA5
:101CA000704780B483B000AF786039607B6893F888
:101CB0003D30DBB2202B29D17B68242283F83D20E4
:101CC0007B681B687A681268126822F001021A6049
:101CD0007B681B687A681268526A22F010025A62A6
:101CE0007B681B687A681268516A3A680A435A62CC
:101CF0007B681B687A681268126842F001021A60F9
:101D00007B68202283F83D20002300E00223184650
:101D10000C37BD465DF8047B704780B485B000AFDA
:101D2000786039600023FB817B6893F83D30DBB23B
:101D3000202B2AD17B68242283F83D207B681B68F6
:101D40007A681268126822F001021A607B681B68C8
:101D50005B6AFB81FB8923F00F03FB813B689AB22E
:101D6000FB891343FB817B681B68FA895A627B6895
:101D70001B687A681268126842F001021A607B6878
:101D8000202283F83D20002300E002231846143768
:101D9000BD465DF8047B704780B584B000AF7860C5
:101DA0000023FB600023BB607B68002B01D1012373
:101DB000BFE07B6893F8A130DBB2002B06D17B68D3
:101DC000002283F8A020786801F0CCFF7B68022213
:101DD00083F8A1207B681B687A681268926922F0F8
:101DE00070429A617B681B687A68126891697A68A8
:101DF00050687A68926810437A68D26810437A68AB
:101E0000126902430A439A617B681A687B681B68FF
:101E100099684A4B0B4093607B685B691B04FB60CD
:101E20007B681B687A68126891687A689069FA68BA
:101E300002430A439A607B681A687B681B68D9680A
:101E40003E4B0B40D3607B68DB691B04FB607B6807
:101E50001B687A681268D1687A68106AFA68024367
:101E60000A43DA607B681A687B681B681969334B20
:101E70000B4013617B685B6A1B04FB607B681B681B
:101E80007A68126811697A68906AFA6802430A43AC
:101E90001A617B681A687B681B685969274B0B407D
:101EA00053617B68DB6A1B04FB607B681B687A6894
:101EB000126851697A68106BFA6802430A435A61E2
:101EC0007B6893F835301B02FB607B6893F83630F3
:101ED0001B04BB607B681B687A681268D26A02F0D8
:101EE0007F42DA627B681B687A681268D16AB868D8
:101EF000FA680243786890F8340002430A43DA62D1
:101F00007B681B687A681268526B42F006025A635B
:101F10007B681B687A681268926942F001029A61D4
:101F20007B680022C3F8A4207B68012283F8A120EB
:101F3000002318461037BD4680BD00BF00F800F0F2
:101F400080B582B000AF7860786801F0DBFF7B6815
:101F50000022C3F8A4207B68002283F8A1207B68BC
:101F6000002283F8A020002318460837BD4680BD14
:101F700080B584B000AF78607B681B689B6BFB60AA
:101F80007B681B685B6BBB60FB6803F00403002B82
:101F900023D0BB6803F00403002B1ED07B681B68B2
:101FA0007A681268526B22F004025A637B681B68DD
:101FB0000422DA637B68D3F8A43043F001027B6823
:101FC000C3F8A4207B68042283F8A1207B68002248
:101FD00083F8A020786800F06FF8FB6803F0020334
:101FE000002B23D0BB6803F00203002B1ED07B68BC
:101FF0001B687A681268526B22F002025A637B688F
:102000001B680222DA637B68D3F8A43043F0020233
:102010007B68C3F8A4207B68042283F8A1207B6836
:10202000002283F8A020786800F046F8FB6803F0EF
:102030000103002B1BD0BB6803F00103002B16D05B
:102040007B681B687A681268526B22F001025A633F
:102050007B681B680122DA637B68012283F8A12078
:102060007B68002283F8A020786801F063FFFB689A
:1020700003F00803002B1BD0BB6803F00803002B00
:1020800016D07B681B687A681268526B22F00802CF
:102090005A637B681B680822DA637B68012283F835
:1020A000A1207B68002283F8A020786800F00EF859
:1020B00000BF1037BD4680BD80B483B000AF7860EC
:1020C00000BF0C37BD465DF8047B704780B483B019
:1020D00000AF786000BF0C37BD465DF8047B7047E9
:1020E000B0B584B000AFF860B9607A60FB6893F86F
:1020F000A030012B01D102232CE0FB68012283F8E0
:10210000A020FB68022283F8A120FA687B683421B2
:1021100001FB03F3134403F13802BB6814461D4668
:102120000FCD0FC40FCD0FC40FCD0FC42B6823608C
:102130007A68B968F86800F063FAFB681B680122E6
:102140005A62FB68012283F8A120FB68002283F811
:10215000A020002318461037BD46B0BD80B485B01E
:1021600000AFF860B9607A60FB6893F8A030012B8B
:1021700001D1022331E0FB68012283F8A020FB6833
:10218000022283F8A120FB681B681A467B68DB01EA
:10219000134484331A46FB681B6819467B68DB01CD
:1021A0000B448433DB6803F07F43D360FB681B6818
:1021B0001A467B68DB01134484331A46BB68D3603C
:1021C000FB681B6801225A62FB68012283F8A12088
:1021D000FB68002283F8A020002318461437BD4670
:1021E0005DF8047B704780B489B000AFF860B960D7
:1021F0007A603B600023FB610023BB6100237B61AD
:10220000FB6893F8A030012B01D1022359E0FB6851
:10221000012283F8A020FB68022283F8A12000237A
:10222000BB6141E0FA683B68342101FB03F31344CE
:1022300048331B68062B14D1BA6913461B0113449B
:102240001A06BB681B68DBB21A43BB681B6803F441
:102250007F431A43BB681B6803F47F031343FB618E
:1022600010E0BB691A06BB681B68DBB21A43BB6887
:102270001B6803F47F431A43BB681B6803F47F03A6
:102280001343FB61BB6804337B617B69BB60FB6804
:102290001B681A463B68DB01134484331A46FB690A
:1022A0001364BB690133BB61BA697B689A42B9D3D5
:1022B000FB68012283F8A120FB68002283F8A0209C
:1022C000002318462437BD465DF8047B704780B470
:1022D00083B000AF786039607B6893F8A030012B41
:1022E00001D1022327E07B68012283F8A0207B68CC
:1022F000022283F8A1207B681B681A463B68DB0139
:10230000134484331A467B681B6819463B68DB011B
:102310000B4484331B6843F0020313607B681B6823
:1023200001225A627B68012283F8A1207B68002287
:1023300083F8A020002318460C37BD465DF8047BC7
:10234000704780B483B000AF786039607B6893F8E1
:10235000A030012B01D1022327E07B68012283F802
:10236000A0207B68022283F8A1207B681B681A46A4
:102370003B68DB01134484331A467B681B681946AB
:102380003B68DB010B4484331B6823F002031360BA
:102390007B681B6801225A627B68012283F8A120B6
:1023A0007B68002283F8A020002318460C37BD4626
:1023B0005DF8047B704780B483B000AF786039600B
:1023C0007B6893F8A030012B01D1022327E07B68C2
:1023D000012283F8A0207B68022283F8A1207B6879
:1023E0001B681A463B68DB01134484331A467B683A
:1023F0001B6819463B68DB010B4484331B6843F0C0
:10240000100313607B681B6801225A627B680122FB
:1024100083F8A1207B68002283F8A02000231846BF
:102420000C37BD465DF8047B704780B586B000AFC1
:10243000F860B9607A603B60FB6893F8A030012BCC
:1024400001D1022333E0FB68012283F8A020FB685E
:10245000022283F8A1203B68342202FB03F33833C5
:10246000FA6813447B617B69BA681A607B699A6A6F
:10247000BB681A447B695A607B697A689A607B6999
:10248000DA6A7B681A447B69DA603A687969F868C5
:1024900000F0B6F8FB681B6801225A62FB68012253
:1024A00083F8A120FB68002283F8A02000231846AF
:1024B0001837BD4680BD80B586B000AFF860B96002
:1024C0007A60FB6893F8A030012B01D1022324E04D
:1024D000FB68012283F8A020FB68022283F8A12078
:1024E0007B68342202FB03F33833FA6813447B61C0
:1024F0007B69BA685A617A687969F86800F080F88F
:10250000FB681B6801225A62FB68012283F8A12044
:10251000FB68002283F8A020002318461837BD4628
:1025200080BD80B586B000AFF860B9607A60FB68A6
:1025300093F8A030012B01D1022324E0FB68012293
:1025400083F8A020FB68022283F8A1207B68342254
:1025500002FB03F33833FA6813447B617B69BA6882
:102560005A627A687969F86800F04AF8FB681B6873
:1025700001225A62FB68012283F8A120FB68002235
:1025800083F8A020002318461837BD4680BD000000
:1025900080B483B000AF786039607B6893F8A03076
:1025A000012B01D1022323E07B68012283F8A020C4
:1025B0007B68022283F8A1207B681B687A68126816
:1025C000526B22F001025A630C4A3B6813647B6829
:1025D0001B687A681268526B42F001025A637B688A
:1025E000012283F8A1207B68002283F8A020002329
:1025F00018460C37BD465DF8047B70470068014003
:1026000080B489B000AFF860B9607A600023FB61E4
:102610000023BB6100237B61BB685A68FB681B68B1
:10262000DB681B0CC3F30B0313441B04FB61FB6847
:102630001B681A467B68DB01134484331A46FB6827
:102640001B6819467B68DB010B4484335B6803F429
:1026500070435360FB681B681A467B68DB011344B8
:1026600084331946BB681A68FB681B68DB681B0C5F
:10267000C3F30B0313445A1CFB6913434B60BB6841
:10268000DA68FB681B68DB68C3F30A0313441B04A6
:10269000FB61FB681B681A467B68DB0113448433CB
:1026A0001A46FB681B6819467B68DB010B448433C0
:1026B0009B6803F470439360FB681B681A467B6851
:1026C000DB01134484331946BB689A68FB681B68B6
:1026D000DB68C3F30A0313445A1CFB6913438B6082
:1026E000FB681B681A467B68DB01134484331A4677
:1026F000FB681B6819467B68DB010B4484331B694C
:1027000023F007031361FB681B681A467B68DB0133
:10271000134484331A46BB681B691361BB6893F882
:1027200031301B02FB61BB6893F832301B04BB6184
:10273000BB689B691B067B61FB681B681A467B684C
:10274000DB01134484339B69FB681B681A467B6872
:10275000DB01134484331A4600239361FB681B6832
:102760001A467B68DB01134484331946BB6893F82F
:1027700030301A46FB691A43BB691A437B6913431D
:102780008B61FB681B681A467B68DB01134484334A
:102790001A46FB681B6819467B68DB010B448433CF
:1027A0005B6923F0FF035361FB681B681A467B6873
:1027B000DB01134484331A46BB685B695361FB68D1
:1027C0001B681A467B68DB01134484331A46FB6896
:1027D0001B6819467B68DB010B448433DB6923F4F7
:1027E000E06323F00703D361FB681B681A467B682C
:1027F000DB01134484331946BB68DA69BB681B6A82
:102800001343CB61FB681B681A467B68DB011344EA
:1028100084339B6AFB681B681A467B68DB011344A0
:1028200084331A4600239362FB681B681A467B6850
:10283000DB01134484331A46BB685B6A9362BB684E
:102840001B69002B02D10423FB611BE0BB681B69E1
:10285000012B02D10323FB6114E0BB681B69042B2D
:102860000BD0BB681B69022B07D0BB681B69032B0D
:1028700003D0BB681B69072B02D10223FB6101E077
:102880000123FB61FB681B681A467B68DB0113446C
:1028900084331A46FB681B6819467B68DB010B44CE
:1028A0008433DB6A03F0E023D362FB681B681A46BB
:1028B0007B68DB01134484331846BB689B6AFA6962
:1028C00002FB03F31A04BB685968BB681B68CB1A88
:1028D000F96901FB03F303331343C362FB681B680D
:1028E0001A467B68DB01134484331A46FB681B6875
:1028F00019467B68DB010B4484331B6B23F4FF63B5
:1029000023F007031363FB681B681A467B68DB012F
:10291000134484331A46BB68DB6A1363FB681B6885
:102920001A467B68DB01134484331A46FB681B6834
:1029300019467B68DB010B4484331B6843F00103B9
:10294000136000BF2437BD465DF8047B704700006C
:1029500080B582B000AF00237B6000233B60204A3B
:102960001F4B1B6C43F0805313641D4B1B6C03F017
:1029700080533B603B681B4B01221A60FDF726FE2B
:10298000786009E0FDF722FE02467B68D31AB3F5B2
:102990007A7F01D903231FE0134B5B6803F4803374
:1029A000B3F5803FEED1114B01221A60FDF70EFE08
:1029B000786009E0FDF70AFE02467B68D31AB3F59A
:1029C0007A7F01D9032307E0074B5B6803F40033E8
:1029D000B3F5003FEED1002318460837BD4680BD51
:1029E0000038024040000E420070004044000E4299
:1029F00080B586B000AF78607B68002B01D10123E1
:102A00002DE27B681B6803F00103002B75D0A34BFC
:102A10009B6803F00C03042B0CD0A04B9B6803F0C5
:102A20000C03082B12D19D4B5B6803F48003B3F5B4
:102A3000800F0BD1994B1B6803F40033002B5BD044
:102A40007B685B68002B57D1012308E27B685B68D9
:102A5000B3F5803F06D1914A904B1B6843F4803315
:102A600013601DE07B685B68B3F5A02F0CD18B4A27
:102A70008A4B1B6843F480231360884A874B1B688A
:102A800043F4803313600BE0844A844B1B6823F4C7
:102A900080331360814A814B1B6823F480231360C9
:102AA0007B685B68002B13D0FDF790FD386108E070
:102AB000FDF78CFD02463B69D31A642B01D9032331
:102AC000CDE1764B1B6803F40033002BF0D014E00B
:102AD000FDF77CFD386108E0FDF778FD02463B69B3
:102AE000D31A642B01D90323B9E16C4B1B6803F49F
:102AF0000033002BF0D100E000BF7B681B6803F0BF
:102B00000203002B63D0654B9B6803F00C03002B82
:102B10000BD0624B9B6803F00C03082B1CD15F4B5E
:102B20005B6803F48003002B16D15C4B1B6803F039
:102B30000203002B05D07B68DB68012B01D0012349
:102B40008DE15649554B1B6823F0F8027B681B69E1
:102B5000DB0013430B603AE07B68DB68002B20D07E
:102B60004F4B01221A60FDF731FD386108E0FDF797
:102B70002DFD02463B69D31A022B01D903236EE1D6
:102B8000464B1B6803F00203002BF0D04349434B34
:102B90001B6823F0F8027B681B69DB0013430B60A2
:102BA00015E03F4B00221A60FDF710FD386108E088
:102BB000FDF70CFD02463B69D31A022B01D9032312
:102BC0004DE1364B1B6803F00203002BF0D17B680C
:102BD0001B6803F00803002B30D07B685B69002B77
:102BE00016D0304B01221A60FDF7F0FC386108E086
:102BF000FDF7ECFC02463B69D31A022B01D90323F3
:102C00002DE1264B5B6F03F00203002BF0D015E0A3
:102C1000244B00221A60FDF7D9FC386108E0FDF76B
:102C2000D5FC02463B69D31A022B01D9032316E1D6
:102C30001A4B5B6F03F00203002BF0D17B681B681B
:102C400003F00403002B00F0A0800023FB75134B5E
:102C50001B6C03F08053002B0FD10023FB600F4A45
:102C60000E4B1B6C43F0805313640C4B1B6C03F036
:102C70008053FB60FB680123FB750B4B1B6803F45F
:102C80008073002B21D1084A074B1B6843F48073E3
:102C90001360FDF79BFC386111E000BF0038024073
:102CA00000004742800E474200700040FDF78EFC56
:102CB00002463B69D31A022B01D90323CFE06A4BAA
:102CC0001B6803F48073002BF0D07B689B68012B9A
:102CD00006D1664A654B1B6F43F0010313671CE086
:102CE0007B689B68052B0CD1604A604B1B6F43F0DF
:102CF000040313675D4A5D4B1B6F43F001031367C9
:102D00000BE05A4A594B1B6F23F001031367574AD4
:102D1000564B1B6F23F0040313677B689B68002BE3
:102D200015D0FDF753FC38610AE0FDF74FFC024671
:102D30003B69D31A41F28832934201D903238EE0D2
:102D40004A4B1B6F03F00203002BEED014E0FDF79B
:102D50003DFC38610AE0FDF739FC02463B69D31AB5
:102D600041F28832934201D9032378E03F4B1B6F35
:102D700003F00203002BEED1FB7D012B05D13B4A72
:102D80003A4B1B6C23F0805313647B689B69002BC8
:102D900064D0364B9B6803F00C03082B5CD07B6837
:102DA0009B69022B41D1324B00221A60FDF70EFCC9
:102DB000386108E0FDF70AFC02463B69D31A022B92
:102DC00001D903234BE0294B1B6803F00073002B50
:102DD000F0D126497B68DA697B681B6A1A437B68F5
:102DE0005B6A9B011A437B689B6A5B08013B1B047F
:102DF0001A437B68DB6A1B0613434B601C4B0122A2
:102E00001A60FDF7E3FB386108E0FDF7DFFB0246DF
:102E10003B69D31A022B01D9032320E0134B1B6813
:102E200003F00073002BF0D018E0114B00221A6061
:102E3000FDF7CCFB386108E0FDF7C8FB02463B69B3
:102E4000D31A022B01D9032309E0084B1B6803F0B6
:102E50000073002BF0D101E0012300E000231846AD
:102E60001837BD4680BD00BF0070004000380240EA
:102E70006000474280B584B000AF786039607B68FD
:102E8000002B01D10123CAE0674B1B6803F00F023E
:102E90003B689A420CD2644B3A68D2B21A70624BC9
:102EA0001B6803F00F023B689A4201D00123B6E091
:102EB0007B681B6803F00203002B20D07B681B6833
:102EC00003F00403002B05D0584A584B9B6843F489
:102ED000E05393607B681B6803F00803002B05D068
:102EE000524A524B9B6843F4604393604F494F4BA7
:102EF0009B6823F0F0027B689B6813438B607B68C0
:102F00001B6803F00103002B44D07B685B68012B36
:102F100007D1464B1B6803F40033002B19D1012362
:102F20007DE07B685B68022B03D07B685B68032BCA
:102F300007D13E4B1B6803F00073002B09D101231E
:102F40006DE03A4B1B6803F00203002B01D1012313
:102F500065E03649354B9B6823F003027B685B686C
:102F600013438B60FDF732FBF8600AE0FDF72EFBA0
:102F70000246FB68D31A41F28832934201D90323F7
:102F80004DE02A4B9B6803F00C027B685B689B005A
:102F90009A42EBD1244B1B6803F00F023B689A4224
:102FA0000CD9214B3A68D2B21A701F4B1B6803F040
:102FB0000F023B689A4201D0012330E07B681B6816
:102FC00003F00403002B08D01849184B9B6823F426
:102FD000E0527B68DB6813438B607B681B6803F0FF
:102FE0000803002B09D01149104B9B6823F4604261
:102FF0007B681B69DB0013438B6000F01DF8014602
:103000000A4B9B681B0903F00F03094AD35C21FAA2
:1030100003F3084A13600F20FDF794FA00231846C3
:103020001037BD4680BD00BF003C02400038024062
:1030300000DA0008600000202DE9F04F87B000AFF3
:103040000022FA6000227A610022BA6000223A610E
:10305000514A926802F00C02042A07D0082A08D0CC
:10306000002A40F090804D4B3B618FE04C4B3B6120
:103070008CE0494A526802F03F02FA60464A5268C0
:1030800002F48002002A23D0434B5B689B094FF077
:10309000000440F2FF114FF0000203EA010304EACA
:1030A00002043F4A02FB04F1002202FB03F20A443D
:1030B0003B49A3FB010153181946FB684FF000047C
:1030C0001A462346FDF794F803460C467B614CE014
:1030D000314A5268920911464FF0000240F2FF1542
:1030E0004FF0000605EA010506EA020629463246C7
:1030F0004FEA421B4BEAD16B4FEA411A51465A46FE
:10310000AA46B34655465E464D1B62EB0606294667
:103110003246940144EA91648B015B1A64EB020429
:103120004FEAC40949EA53794FEAC30843464C467B
:1031300055465E46ED1846EB04062B463446A20281
:103140007A607A6842EA93527A609B023B6097E821
:10315000180018462146FB684FF000041A46234623
:10316000FDF746F803460C467B610B4B5B681B0C76
:1031700003F0030301335B00BB607A69BB68B2FBF9
:10318000F3F33B6102E0054B3B6100BF3B6918462E
:103190001C37BD46BDE8F08F003802400024F40023
:1031A00040787D0180B400AF034B1B681846BD46D4
:1031B0005DF8047B704700BF6000002080B500AF61
:1031C000FFF7F0FF0146054B9B689B0A03F00703DE
:1031D000034AD35C21FA03F3184680BD003802404D
:1031E00010DA000880B586B000AF786000237B61FC
:1031F00000233B617B681B6803F00103002B05D1B2
:103200007B681B6803F00203002B61D0A34B0022F4
:103210001A60FDF7DBF9786108E0FDF7D7F902469F
:103220007B69D31A022B01D9032377E19C4B1B68DE
:1032300003F00063002BF0D17B681B6803F00103EF
:10324000002B09D096497B685B689A017B689B6874
:103250001B071343C1F884307B681B6803F002032B
:10326000002B1FD08E4BD3F884301B0F03F00703C5
:103270003B618B497B685B689A017B68DB681B0656
:103280001A433B691B071343C1F884308449844BBC
:10329000D3F88C3023F01F027B68DB69013B1343BA
:1032A000C1F88C307D4B01221A60FDF78FF97861EF
:1032B00008E0FDF78BF902467B69D31A022B01D98E
:1032C00003232BE1764B1B6803F00063002BF0D047
:1032D0007B681B6803F00403002B05D17B681B6827
:1032E00003F00803002B79D06E4B00221A60FDF723
:1032F0006DF9786108E0FDF769F902467B69D31A38
:10330000022B01D9032309E1654B1B6803F000532D
:10331000B3F1005FEFD07B681B6803F00403002B60
:1033200020D05F4BD3F888301B0F03F007033B61BD
:103330005B497B681B699A017B685B691B061A43C2
:103340003B691B071343C1F888305549544BD3F8E8
:103350008C3023F4F8527B681B6A013B1B02134339
:10336000C1F88C307B681B6803F00803002B1ED06B
:103370004B4BD3F888301B0E03F00F033B614849D9
:103380007B681B699A013B691B061A437B689B6932
:103390001B071343C1F888304149414BD3F88C30A7
:1033A00023F440327B685B6A1343C1F88C303D4B99
:1033B00001221A60FDF70AF9786108E0FDF706F9C5
:1033C00002467B69D31A022B01D90323A6E0344BB2
:1033D0001B6803F00053B3F1005FEFD17B681B68FB
:1033E00003F02003002B00F08D800023FB602C4AAB
:1033F0002B4B1B6C43F080531364294B1B6C03F065
:103400008053FB60FB68284A274B1B6843F480739A
:103410001360FDF7DBF8786108E0FDF7D7F80246A6
:103420007B69D31A022B01D9032377E01E4B1B685B
:1034300003F48073002BF0D0194B1B6F03F440731F
:103440003B613B69002B39D07B689B6A03F4407277
:103450003B699A4232D0124B1B6F23F440733B619D
:10346000124B01221A60114B00221A600C4A3B6970
:1034700013670B4B1B6F03F00103002B1ED0FDF7EE
:10348000A5F8786114E0FDF7A1F802467B69D31A2C
:1034900041F2883293420BD903233FE06800474250
:1034A000003802407000474200700040400E474222
:1034B0001C4B1B6F03F00203002BE4D07B689B6A5C
:1034C00003F44073B3F5407F0DD11649154B9B684B
:1034D00023F4F8127B689B6A23F0704323F4407353
:1034E00013438B6005E00F4A0E4B9B6823F4F813DF
:1034F00093600C490B4B1A6F7B689B6AC3F30B03F9
:1035000013430B677B681B6803F01003002B04D088
:10351000054A7B6893F82C3013600023184618374F
:10352000BD4680BD00380240E011474280B582B000
:1035300000AF786039607B68002B01D1012325E062
:103540007B6893F82C30DBB2002B06D17B6800221D
:1035500083F82D20786804F0F3F97B68022283F861
:103560002C207B681A687B6804331946104600F0EB
:1035700081FA7B6818687B685B681A46396800F0D6
:10358000ECFA7B68012283F82C20002318460837C8
:10359000BD4680BD80B584B000AFF860B9607A6088
:1035A000FB6893F82C30DBB2022B01D1022318E028
:1035B000FB68022283F82C20FB681B687A68B968D4
:1035C000184600F049FBBB681B68022B04D1FB685E
:1035D000052283F82C2003E0FB68012283F82C20CD
:1035E000002318461037BD4680BD80B582B000AFBD
:1035F000786039607B6893F82C30DBB2022B01D104
:1036000002230EE07B68022283F82C207B681B6873
:103610003968184600F05CFB7B68012283F82C2097
:10362000002318460837BD4680BD80B582B000AF84
:1036300078607B68002B01D1012355E07B68002274
:103640009A627B6893F85130DBB2002B06D17B681D
:10365000002283F85020786800F004FF7B68022283
:1036600083F851207B681B687A681268126822F020
:1036700040021A607B681B687A6851687A689268B1
:1036800011437A68D26811437A68126911437A68E3
:10369000526911437A68926902F4007211437A68A0
:1036A000D26911437A68126A11437A68926A0A43AE
:1036B0001A607B681B687A689269120C02F0040138
:1036C0007A68526A0A435A607B681B687A68126893
:1036D000D26922F40062DA617B6800225A657B6855
:1036E000012283F85120002318460837BD4680BDCB
:1036F00080B58AB002AFF860B9603B601346FB80CA
:103700000023BB610023FB77FB6893F85030012B4B
:1037100001D1022323E1FB68012283F85020FCF74A
:1037200055FFB861FB6893F85130DBB2012B02D032
:103730000223FB770AE1BB68002B02D0FB88002B39
:1037400002D10123FB7701E1FB68032283F85120BA
:10375000FB6800225A65FB68BA681A63FB68FA883E
:103760009A86FB68FA88DA86FB6800229A63FB680F
:1037700000229A87FB680022DA87FB6800225A64DD
:10378000FB6800221A64FB689B68B3F5004F07D101
:10379000FB681B68FA681268126842F480421A607B
:1037A000FB681B681B6803F04003402B07D0FB68D5
:1037B0001B68FA681268126842F040021A60FB68DF
:1037C000DB68B3F5006F47D1FB685B68002B04D062
:1037D000FB68DB8E9BB2012B38D1FB681B68BA6893
:1037E0001288DA60BB680233BB60FB68DB8E9BB279
:1037F000013B9AB2FB68DA8628E0FB681B689B688D
:1038000003F00203022B0FD1FB681B68BA68128811
:10381000DA60BB680233BB60FB68DB8E9BB2013BA6
:103820009AB2FB68DA8611E03B68002B0BD03B684C
:10383000B3F1FF3F0AD0FCF7C9FE0246BB69D21ABA
:103840003B689A4202D30323FB777FE0FB68DB8E61
:103850009BB2002BD1D148E0FB685B68002B04D001
:10386000FB68DB8E9BB2012B3AD1FB681B680C33E3
:10387000BA6812781A70BB680133BB60FB68DB8ED4
:103880009BB2013B9AB2FB68DA8629E0FB681B68B1
:103890009B6803F00203022B10D1FB681B680C33FA
:1038A000BA6812781A70BB680133BB60FB68DB8EA4
:1038B0009BB2013B9AB2FB68DA8611E03B68002BB1
:1038C0000BD03B68B3F1FF3F0AD0FCF77FFE024606
:1038D000BB69D21A3B689A4202D30323FB7735E0D7
:1038E000FB68DB8E9BB2002BD0D1BB6900933B6899
:1038F00001220221F86800F036F80346002B02D0BE
:103900000323FB7722E0BA693968F86800F094F87D
:103910000346002B05D00123FB77FB6820225A6564
:1039200014E0FB689B68002B0AD100237B61FB68D5
:103930001B68DB687B61FB681B689B687B617B693C
:10394000FB685B6D002B01D00123FB77FB68012234
:1039500083F85120FB68002283F85020FB7F184633
:103960002037BD4680BD80B584B000AFF860B96037
:103970007A603B604DE03B68B3F1FF3F49D03B6864
:10398000002B07D0FCF722FE0246BB69D21A3B6827
:103990009A423ED3FB681B68FA681268526822F0AC
:1039A000E0025A60FB685B68B3F5827F11D1FB6867
:1039B0009B68B3F5004F04D0FB689B68B3F5806F3C
:1039C00007D1FB681B68FA681268126822F040028F
:1039D0001A60FB689B6AB3F5005F10D1FB681A6838
:1039E000FB681B6819684DF6FF730B401360FB689A
:1039F0001B68FA681268126842F400521A60FB6889
:103A0000012283F85120FB68002283F85020032311
:103A10000EE0FB681B689A68BB681A40BB689A4254
:103A200001D1012200E000227B689A42A3D1002349
:103A300018461037BD4680BD80B586B002AFF8602D
:103A4000B9607A607B680093BB6800228021F868C7
:103A5000FFF789FF0346002B07D0FB685B6D43F03F
:103A60002002FB685A65032300E000231846103744
:103A7000BD4680BD80B485B000AF7860396000235A
:103A8000FB600023BB603B681B68012B29D07B686F
:103A90001B68FB60FB6823F4FF4323F07F03FB609C
:103AA0003B685A683B689B681A433B68DB681A436B
:103AB0003B681B691A433B685B691A433B689B6917
:103AC0001A433B68DB691A433B681B6A1A433B682D
:103AD0005B6A1343FA681343FB607B68FA681A60F9
:103AE00034E07B681B68FB60FB6823F4F843FB60F1
:103AF0003B68DA693B681B6A1A433B685B6A13439D
:103B0000FA681343FB607B685B68BB60BB6823F4A7
:103B1000FF4323F07F03BB603B685A683B689B68A8
:103B20001A433B68DB681A433B681B691A433B68CE
:103B30005B691A433B689B691343BA681343BB60D4
:103B40007B68FA681A607B68BA685A600023184676
:103B50001437BD465DF8047B704780B487B000AF72
:103B6000F860B9607A6000237B6100233B617B6869
:103B7000012B2ED0FB689B687B617B6903F070434F
:103B80007B61BB681B685A1EBB685B68013B1B01FD
:103B90001A43BB689B68013B1B021A43BB68DB6886
:103BA000013B1B031A43BB681B69013B1B041A43FF
:103BB000BB685B69013B1B051A43BB689B69013B02
:103BC0001B0613437A6913437B61FB687A699A6029
:103BD0003BE0FB689B687B617B6923F4700323F403
:103BE00070437B61BB68DB68013B1A03BB685B69A0
:103BF000013B1B0513437A6913437B61FB68DB6858
:103C00003B613B6903F070433B61BB681B685A1E14
:103C1000BB685B68013B1B011A43BB689B68013BA7
:103C20001B021A43BB681B69013B1B041A43BB6898
:103C30009B69013B1B0613433A6913433B61FB68D5
:103C40007A699A60FB683A69DA60002318461C3783
:103C5000BD465DF8047B704780B586B000AFF86064
:103C6000B9607A6000233B6100237B61BB681A68FE
:103C7000BB685B681A43BB689B68013B5B011A43E6
:103C8000BB68DB685B0213433B613A69FB681A61FE
:103C9000FCF79CFC786110E07B68B3F1FF3F0CD02F
:103CA0007B68002B07D0FCF791FC02467B69D21A97
:103CB0007B689A4201D9032306E0FB689B6903F005
:103CC0002003002BE8D1002318461837BD4680BDDD
:103CD00080B483B000AF786039607B685A693B6814
:103CE0005B001A437B685A61002318460C37BD46B7
:103CF0005DF8047B7047000080B500AF4FF40C31D5
:103D0000034804F0EBFB034804F052FF00BF80BD02
:103D1000384000205CD1000880B483B000AF7860E8
:103D2000002318460C37BD465DF8047B7047000041
:103D300080B485B000AF78600023FB60084A084B70
:103D40001B6B43F400031363054B1B6B03F400036D
:103D5000FB60FB6800BF1437BD465DF8047B70470D
:103D60000038024080B58EB000AF786000233B621F
:103D70005D4A5D4B5B6C43F0806353645A4B5B6CF4
:103D800003F080633B623B6A0023FB61564A564B5B
:103D90001B6B43F001031363534B1B6B03F00103D5
:103DA000FB61FB690023BB614F4A4F4B1B6B43F028
:103DB000020313634C4B1B6B03F00203BB61BB6933
:103DC00000237B61484A484B1B6B43F00403136399
:103DD000454B1B6B03F004037B617B6900233B6154
:103DE000414A414B1B6B43F0080313633E4B1B6B73
:103DF00003F008033B613B690023FB603A4A3A4BFE
:103E00001B6B43F020031363374B1B6B03F0200342
:103E1000FB60FB680023BB60334A334B1B6B43F0F2
:103E200040031363304B1B6B03F04003BB60BB6864
:103E300041F658037B620223BB620023FB6202232C
:103E40003B630E237B6307F1240319462748FCF7E5
:103E50004FFE4FF470637B6207F124031946244838
:103E6000FCF746FE4FF498637B6207F12403194682
:103E70002048FCF73DFE48237B6207F124031946E6
:103E80001D48FCF735FE4FF480637B6207F1240385
:103E900019461A48FCF72CFE4FF40C637B6207F1BD
:103EA000240319461648FCF723FE03237B620923EB
:103EB0007B6307F1240319460D48FCF719FE4FF404
:103EC000A0537B6207F1240319460D48FCF710FE4E
:103ED00000220E215820FCF77CFC5820FCF795FCB2
:103EE00000BF3837BD4680BD0038024000000240A8
:103EF0000004024000080240000C0240001402408E
:103F00000018024080B483B000AF7860084A084BC4
:103F10005B6A43F080635362054A054B5B6A23F09A
:103F20008063536200BF0C37BD465DF8047B704769
:103F30000038024090B585B000AF78600023FB6088
:103F40006BE03B49FA681346DB009B1A9B000B446D
:103F500004331B68002B5DDB3549FA681346DB0030
:103F60009B1A9B000B4419683148FA681346DB0022
:103F70009B1A9B0003440C3318682D4CFA681346B7
:103F8000DB009B1A9B00234410331B6803FB00F0EB
:103F9000274CFA681346DB009B1A9B00234404332A
:103FA0001B6803FB00F0224CFA681346DB009B1AE7
:103FB0009B00234414331B6803FB00F30B44BB60DA
:103FC0007B681B681A46FB68DB01134484331A467E
:103FD000BB6893627B681B687A681268526A42F019
:103FE00001025A62F8681249FA681346DB009B1A0C
:103FF0009B000B4404331B68194604F0D7FF0C499F
:10400000FA681346DB009B1A9B000B4404334FF005
:10401000FF321A60FB680133FB60FB68002B90D015
:1040200000217868FEF7B4FA00BF1437BD4690BD92
:104030009002002080B582B000AF00F05BFA002350
:104040007B6007E07B680321184604F0C3FF7B68B0
:1040500001337B607B68002BF4D0002300224249AF
:10406000424804F061FF002005F016FD0346002BD6
:104070000CD0F0224FF4A071002005F00AFEF022CF
:104080004FF4A071002005F032FE0BE04FF4A07257
:10409000F021002005F0FDFD4FF4A072F02100207A
:1040A00005F025FE324B334A1A6000237B6053E053
:1040B000314A7B6852F823102D487A681346DB009A
:1040C0009B1A9B0003441833196029497A681346E8
:1040D000DB009B1A9B000B4404334FF0FF321A6045
:1040E000786823497A681346DB009B1A9B000B44CF
:1040F0001B68194605F0E5FD7B68184605F0C0FC15
:104100000346D9101A487A681346DB009B1A9B00B5
:104110000344143319607B68184A2121184605F0BE
:1041200088FD7B68164A2321184605F082FD7B68CE
:10413000144A1921184605F07CFD7868FFF7ECFD5C
:104140000346002B05D17B680F4A2821184605F04D
:1041500070FD7B6801337B607B68002BA8D000BFBB
:104160000837BD4680BD00BFB8D0000804D10008A4
:1041700090020020000020D05800002019470008BD
:10418000CD470008C1480008C149000890B58BB070
:1041900000AFF860B9607A6000237B62BB68013BC6
:1041A0000D2B00F2028101A252F823F0E541000834
:1041B000AB430008ED410008554200086342000887
:1041C0007542000805430008EF42000887420008D6
:1041D00053430008AB430008634300087F430008D3
:1041E0003D420008F86800F0EDF8E1E07349FA6834
:1041F0001346DB009B1A9B000B4419687B685868C8
:104200006E4CFA681346DB009B1A9B0023440C3368
:104210001B6803FB00F0694CFA681346DB009B1A2D
:104220009B00234414331B6803FB00F30B443B62E5
:10423000FA68396A6248FEF774F9B9E07B68196870
:104240005E48FA681346DB009B1A9B000344043364
:104250001960ADE07968FB6801225948FDF7C3FF9A
:10426000A6E0574B1B68564A1268926942F0010259
:104270009A619DE0524B1B68514A1268926922F084
:1042800001029A6194E07B681B68012B13D14C4BAF
:104290001B681A46FB68DB01134484331A46484BFB
:1042A0001B681946FB68DB010B4484331B6843F031
:1042B0000103136012E0424B1B681A46FB68DB01E6
:1042C000134484331A463E4B1B681946FB68DB01D6
:1042D0000B4484331B6823F001031360384B1B68C5
:1042E000374A1268526A42F001025A6260E07B6803
:1042F0001B6819467B685B681A46FB683048FEF706
:1043000094F855E007F1140207F118031946F8680C
:1043100004F084FE7B6819682848FA681346DB00BD
:104320009B1A9B0003440C3319607B68596823482F
:10433000FA681346DB009B1A9B0003441033196094
:10434000BB6919467B691A46FB681D48FEF76DF884
:104350002EE07B681B68FA6819461948FEF7ABF82F
:1043600026E07B681B68002B04D0F9681448FDF731
:10437000AEFF1DE0F9681248FDF7E3FF18E07B6827
:104380001B681B0CDAB27B681B6803F47F431A437B
:104390007B681B681B0403F47F031343FB61FA680B
:1043A000F9690748FDF7DAFE02E04FF0FF337B6260
:1043B0007B6A18462C37BD4690BD00BF9002002096
:1043C0003870022080B590B000AF78607B68002B19
:1043D0003FD10023FB60F0233B6100237B614FF45E
:1043E000A073BB617868FFF797FC0346FB611B492C
:1043F0007A681346DB009B1A9B000B441B683B63E7
:10440000FF233B6200237B62002387F83C300023BC
:1044100087F83D30002387F83E304FF4C063BB621D
:104420000723FB62F0237B634FF4A073BB6307F1A8
:104430000C037A6819460A48FDF752FE7B68184655
:1044400005F01EFB0346082B03DC79680448FDF7E2
:10445000B2FF00BF4037BD4680BD00BF90020020C4
:104460003870022080B58AB000AF786007F114037D
:1044700000221A605A609A60DA601A617B681B68D1
:10448000194A93422CD100233B61184A174B5B6CAD
:1044900043F480135364154B5B6C03F480133B614E
:1044A0003B690023FB60114A104B1B6B43F0200358
:1044B00013630E4B1B6B03F02003FB60FB684FF490
:1044C00060737B610223BB610023FB6103233B62BA
:1044D00005237B6207F1140319460548FCF708FB26
:1044E00000BF2837BD4680BD005001400038024063
:1044F0000014024080B500AF3448FDF721FD02F002
:1045000089FC324B09225A61304B01229A612F4BB0
:104510001D22DA612D4B03221A622C4B40F243120A
:104520009A622A4B40F20D125A62284B40F247120F
:104530001A63264B40F21712DA62244B002283F8EA
:104540003420224B002283F83520204B002283F8B0
:1045500036201F4B08221A601D4BC0221A611C4BCB
:1045600004229A611A4B4FF400325A621848FEF73F
:1045700039FE164B00225A60144B00229A60134BEE
:104580000022DA60114B00221A61104B114A1A60A6
:104590000E48FDF701FC00210C48FDF7F9FF0E4B1A
:1045A0004FF440325A600C4B00229A600A4B0022B2
:1045B000DA60094B094A1A600748FCF740F90346DC
:1045C000002B00D0FEE700BF80BD00BF3870022086
:1045D000AC02002000680140E070022000B0024000
:1045E00080B586B000AFF860B9607A603B60F8686B
:1045F000FFF792FB7861154B4FF400721A60134A73
:10460000BB68D360114A7B68D363104A7B6A13612D
:104610000E4ABB6A13640D4A7B69D3610B4A3B683F
:104620001B04396A89B20B435364084A074B1B6861
:1046300043F00103136000BF044B1B6803F0010348
:10464000002BF9D100BF1837BD4680BD00B0024035
:1046500080B586B000AFF860B9607A603B60F868FA
:10466000FFF75AFB7861134B134A1A60114A7B6AB1
:104670009363104ABB68D3630E4A3B6A13640D4AC6
:104680007B6953630B4A7B681B04396889B20B430F
:104690005364084A074B1B6843F00103136000BFD3
:1046A000044B1B6803F00103002BF9D100BF18373E
:1046B000BD4680BD00B002400002030080B485B05A
:1046C00000AF786013497A681346DB009B1A9B00A1
:1046D0000B440C3319680F487A681346DB009B1AA9
:1046E0009B00034410331B6803FB01F109487A68FF
:1046F0001346DB009B1A9B00034414331B6803FB27
:1047000001F3FB60FB6818461437BD465DF8047B77
:10471000704700BF90020020F0B58DB004AFF86084
:10472000B9607A60FB681846FFF7C8FFF861264950
:10473000FA681346DB009B1A9B000B441B68194662
:10474000BB68FA6902FB03F30B44BB611E49FA68BC
:104750001346DB009B1A9B000B441B6819467B68C1
:10476000FA6902FB03F30B447B61F868BC697D695D
:104770001549FA681346DB009B1A9B000B440C3367
:104780001B681E461049FA681346DB009B1A9B0003
:104790000B4410331B681A46002302930023019335
:1047A000009233462A462146FFF71AFF0649FA6867
:1047B0001346DB009B1A9B000B4408337A681A608F
:1047C00000BF2437BD46F0BD90020020F0B58DB08B
:1047D00004AF78613961FA60BB6038497A69134681
:1047E000DB009B1A9B000B44196834487A69134616
:1047F000DB009B1A9B0003440C331B68FA6802FB26
:1048000003F23B69D0182D4C7A691346DB009B1AE2
:104810009B00234414331B6803FB00F30B44FB6130
:1048200026497A691346DB009B1A9B000B441968E2
:1048300022487A691346DB009B1A9B0003440C3321
:104840001B68BA6B02FB03F2BB68D0181B4C7A6979
:104850001346DB009B1A9B00234414331B6803FBA5
:1048600000F30B44BB617C69FD69BE69FB6B7B6037
:10487000396C12487A691346DB009B1A9B0003448B
:104880000C331A68FB6BD31A3B600C487A691346E9
:10489000DB009B1A9B0003440C331A68FB6BD31A92
:1048A00002933A68019200917B683246294620467D
:1048B000FFF796FE00BF2437BD46F0BD90020020F2
:1048C000F0B58BB002AFF860B9607A603B6004F07D
:1048D00045F80346012B10D100221921F86805F094
:1048E000A8F9BB6B3A687968B86804F08FFD324A62
:1048F0001921F86805F09DF959E03A68BB68D31AA8
:104900000133FB61BA6B7B68D31A0133BB61FB686F
:104910001846FFF7D3FE78612849FA681346DB0092
:104920009B1A9B000B441B681C462449FA681346DB
:10493000DB009B1A9B000B440C331B687A6802FB5C
:1049400003F2BB68D1181D48FA681346DB009B1AB6
:104950009B00034414331B6803FB01F318461749FB
:10496000FA681346DB009B1A9B000B4408331B6854
:104970001A467B6903FB02F3034423443B61F86856
:104980003C69FD69BE690D49FA681346DB009B1A54
:104990009B000B440C331A68FB69D31A1A46FB6B55
:1049A0000193009233462A462146FFF751FE00BF8D
:1049B0002437BD46F0BD00BFC1480008900200206A
:1049C000B0B58CB004AFF860B9607A603B60FB684A
:1049D0001846FFF773FEF8612C49FA681346DB00AE
:1049E0009B1A9B000B441B681C462849FA68134617
:1049F000DB009B1A9B000B440C331B687A6802FB9C
:104A000003F2BB68D1182148FA681346DB009B1AF1
:104A10009B00034414331B6803FB01F318461B4936
:104A2000FA681346DB009B1A9B000B4408331B6893
:104A30001A46FB6903FB02F303442344BB61BB6BCF
:104A4000002B00DA03339B101A463B6BD31A7B61B1
:104A50000E49FA681346DB009B1A9B000B440C338B
:104A60001A683B6BD31A3B61F868BC693D6B7B6B82
:104A70007A6939690291019200932B46224639687E
:104A8000FFF7AEFD00BF2037BD46B0BD900200204D
:104A900080B400AF00BFBD465DF8047B70470000E6
:104AA00080B582B000AF00237B603B1D184600F04C
:104AB00095F80246074B1A6000233B603B460121F4
:104AC000184600F01DF90246034B1A6000BF083774
:104AD000BD4680BDDC020020E002002080B500AFB2
:104AE000034B1B68184600F0D5F800BF80BD00BF1F
:104AF000DC02002080B500AF044B1B684FF0FF3193
:104B0000184600F077F800BF80BD00BFDC0200202F
:104B100080B500AF00F05BF80346184680BD80B456
:104B200085B000AF0346FB800023FB60B7F9063079
:104B3000842B05D0B7F90620FB6813440333FB60D0
:104B4000FB6818461437BD465DF8047B704780B497
:104B500083B000AFEFF305837B607B68002B14BF4D
:104B600001230023DBB218460C37BD465DF8047BF9
:104B7000704780B500AF01F0C7FB0023184680BD29
:104B8000F0B587B002AF786039607B685C687B689D
:104B90001D687B681B699EB27B68B3F908301846B4
:104BA000FFF7BDFF024607F10C03019300923B683B
:104BB00032462946204601F07EFA0346012B01D0F9
:104BC000002300E0FB6818461437BD46F0BD80B5F1
:104BD00000AF01F07DFF0346184680BD80B582B06E
:104BE00000AF7860012000F02BFE0346184608371E
:104BF000BD4680BD80B584B000AF786039600023C9
:104C0000BB607B68002B01D180233CE00023FB606C
:104C10003B68B3F1FF3F03D14FF0FF33FB6009E086
:104C20003B68002B06D03B68FB60FB68002B01D182
:104C30000123FB60FFF78BFF0346002B17D007F122
:104C400008031A460021786801F0A8F80346012BF2
:104C500001D0FF2317E0BB68002B13D00C4B4FF0A3
:104C600080521A60BFF34F8FBFF36F8F0AE00023AB
:104C7000FA680021786800F07FFF0346012B01D01D
:104C8000FF2300E0002318461037BD4680BD00BF5B
:104C900004ED00E080B584B000AF78600023FB60D5
:104CA0000023BB60FFF753FF0346002B16D007F12C
:104CB00008031946786800F0D5FE0346012B01D0A1
:104CC000FF2317E0BB68002B13D00C4B4FF0805232
:104CD0001A60BFF34F8FBFF36F8F0AE000230022EB
:104CE0000021786800F0C4FD0346012B01D0FF23AA
:104CF000FB60FB6818461037BD4680BD04ED00E040
:104D000080B584B000AF786039603B68012B10D16A
:104D100003220021012000F021FDF860FB68002B38
:104D200005D0002300220021F86800F0A1FDFB68F7
:104D300000E0002318461037BD4680BD80B500AFA7
:104D400001F0D6FE0346012B01D000F045FA00BF6A
:104D500080BD80B483B000AF78607B6803F1080247
:104D60007B685A607B684FF0FF329A607B6803F182
:104D700008027B68DA607B6803F108027B681A61CD
:104D80007B6800221A6000BF0C37BD465DF8047BCB
:104D9000704780B483B000AF78607B6800221A61EE
:104DA00000BF0C37BD465DF8047B704780B485B00A
:104DB00000AF786039607B685B68FB603B68FA68CD
:104DC0005A60FB689A683B689A60FB689B683A681F
:104DD0005A60FB683A689A603B687A681A617B6837
:104DE0001B685A1C7B681A6000BF1437BD465DF80B
:104DF000047B704780B485B000AF786039603B6851
:104E00001B68BB60BB68B3F1FF3F03D17B681B69C4
:104E1000FB600CE07B680833FB6002E0FB685B68CA
:104E2000FB60FB685B681A68BB689A42F6D9FB684E
:104E30005A683B685A603B685B683A689A603B68AE
:104E4000FA689A60FB683A685A603B687A681A6147
:104E50007B681B685A1C7B681A6000BF1437BD460C
:104E60005DF8047B704780B485B000AF78607B68E4
:104E70001B69FB607B685B687A6892689A607B68F4
:104E80009B687A6852685A60FB685A687B689A42E5
:104E900003D17B689A68FB685A607B6800221A61BC
:104EA000FB681B685A1EFB681A60FB681B68184683
:104EB0001437BD465DF8047B7047000080B485B0B0
:104EC00000AFF860B9607A60FB68043BFB60FB6888
:104ED0004FF080721A60FB68043BFB60BB6823F0F4
:104EE0000102FB681A60FB68043BFB600C4AFB682C
:104EF0001A60FB68143BFB607A68FB681A60FB6809
:104F0000043BFB60FB686FF002021A60FB68203B09
:104F1000FB60FB6818461437BD465DF8047B70479C
:104F2000254F000880B483B000AF0C4B1B68B3F171
:104F3000FF3F09D04FF0500383F31188BFF36F8F09
:104F4000BFF34F8F7B60FEE74FF0500383F3118870
:104F5000BFF36F8FBFF34F8F3B60FEE75C00002015
:104F6000074B19680868B0E8F04F80F30988BFF371
:104F70006F8F4FF0000080F311887047AFF300800F
:104F8000043F002000BF00BF06480068006880F3AF
:104F9000088862B661B6BFF34F8FBFF36F8F00DF33
:104FA00000BF00BF08ED00E080B586B000AF3B4B0E
:104FB0001B683B4A934209D14FF0500383F3118899
:104FC000BFF36F8FBFF34F8F3B61FEE7334B1B681F
:104FD000344A934209D14FF0500383F31188BFF351
:104FE0006F8FBFF34F8FFB60FEE72F4B7B617B69B9
:104FF0001B78DBB2BB607B69FF221A707B691B7870
:10500000DBB2FB71FB79DBB203F05003DAB2274B62
:105010001A70274B07221A6009E0254B1B68013BD9
:10502000234A1360FB79DBB25B00DBB2FB71FB79D7
:10503000DBB203F08003802BEFD01D4B1B681B02FB
:105040001B4A13601A4B1B6803F4E063184A136091
:10505000BB68DAB27B691A70164A164B1B6843F4B8
:1050600070031360134A134B1B6843F070431360C3
:1050700000F0D2F8104B00221A6000F0E9F80F4A55
:105080000E4B1B6843F040431360FFF77DFFFFF7B3
:1050900049FF002318461837BD4680BD00ED00E0EB
:1050A00071C20F4170C20F4100E400E0E402002031
:1050B000E802002020ED00E05C00002034EF00E07A
:1050C00080B483B000AF4FF0500383F31188BFF377
:1050D0006F8FBFF34F8F7B600E4B1B6801330D4A00
:1050E00013600C4B1B68012B0ED10B4B1B68DBB202
:1050F000002B09D04FF0500383F31188BFF36F8F5B
:10510000BFF34F8F3B60FEE700BF0C37BD465DF835
:10511000047B70475C00002004ED00E080B483B0A5
:1051200000AF114B1B68002B09D14FF0500383F3E4
:105130001188BFF36F8FBFF34F8F7B60FEE70A4B81
:105140001B68013B084A1360074B1B68002B04D106
:1051500000233B603B6883F3118800BF0C37BD46DA
:105160005DF8047B704700BF5C0000200000000079
:10517000EFF30980BFF36F8F154B1A681EF0100F05
:1051800008BF20ED108A20E9F04F10604DF8043D73
:105190004FF0500080F31188BFF34F8FBFF36F8F34
:1051A00001F05EFA4FF0000080F3118808BC196826
:1051B0000868B0E8F04F1EF0100F08BFB0EC108A7E
:1051C00080F30988BFF36F8F704700BFAFF3008093
:1051D000043F002000BF00BF80B582B000AF4FF099
:1051E000500383F31188BFF36F8FBFF34F8F7B6042
:1051F00001F07AF90346002B03D0064B4FF08052A2
:105200001A6000233B603B6883F3118800BF0837B6
:10521000BD4680BD04ED00E080B400AF084A094BF4
:105220001B680949A1FB03139B09013B1360074B52
:1052300007221A6000BFBD465DF8047B704700BFBF
:1052400014E000E060000020D34D621010E000E0A8
:10525000DFF80C00016841F470010160704700BF85
:1052600088ED00E080B485B000AFEFF30583FB600C
:10527000FB680F2B13D9164AFB6813441B78FB728B
:10528000144B1B78FA7A9A4209D24FF0500383F3F9
:105290001188BFF36F8FBFF34F8F7B60FEE70E4B1C
:1052A0001B6803F4E0620D4B1B689A4209D94FF06A
:1052B000500383F31188BFF36F8FBFF34F8F3B60B1
:1052C000FEE700BF1437BD465DF8047B704700BFA2
:1052D000F0E300E0E40200200CED00E0E802002032
:1052E00080B58AB000AF78600023FB6101F052F80E
:1052F000574B1B68002B01D100F00CF9554B1A6875
:105300007B681340002B40F08C807B68002B1CD006
:1053100008227B6813447B607B6803F00703002B43
:1053200013D07B6823F0070308337B607B6803F0AE
:105330000703002B09D04FF0500383F31188BFF30C
:105340006F8FBFF34F8F7B61FEE77B68002B68D0C8
:10535000414B1B687A689A4263D8404B3B623F4B93
:105360001B687B6204E07B6A3B627B6A1B687B6232
:105370007B6A5A687B689A4203D27B6A1B68002B5F
:10538000F1D1334B1B687A6A9A424AD03B6A1B6858
:1053900008221344FB617B6A1A683B6A1A607B6AC5
:1053A0005A687B68D21A08235B009A421ED97A6A2F
:1053B0007B681344BB61BB6903F00703002B09D072
:1053C0004FF0500383F31188BFF36F8FBFF34F8FFC
:1053D0003B61FEE77B6A5A687B68D21ABB695A60F8
:1053E0007B6A7A685A60B86900F0F6F81A4B1A6856
:1053F0007B6A5B68D31A184A1360174B1A68184BFC
:105400001B689A4203D2144B1B68154A13607B6ACF
:105410005A68104B1B681A437B6A5A607B6A0022E9
:105420001A6000F0C5FFFB6903F00703002B09D0E9
:105430004FF0500383F31188BFF36F8FBFF34F8F8B
:10544000FB60FEE7FB6918462837BD4680BD00BFFC
:10545000F43E0020003F0020F83E0020EC3E0020FB
:10546000FC3E002080B586B000AF78607B687B6131
:105470007B68002B46D008235B427A6913447B612A
:105480007B693B613B695A68204B1B681340002BCA
:1054900009D14FF0500383F31188BFF36F8FBFF32F
:1054A0004F8FFB60FEE73B691B68002B09D04FF074
:1054B000500383F31188BFF36F8FBFF34F8FBB602F
:1054C000FEE73B695A68114B1B681340002B19D04B
:1054D0003B691B68002B15D13B695A680B4B1B6855
:1054E000DB431A403B695A6000F054FF3B695A683D
:1054F000074B1B681344064A1360386900F06CF8C8
:1055000000F056FF00BF1837BD4680BD003F0020A9
:10551000F83E002080B485B000AF4FF47053BB60FC
:10552000274BFB60FB6803F00703002B0CD0FB68E4
:105530000733FB60FB6823F00703FB60BA68FB6876
:10554000D31A1F4A1344BB60FB687B601D4A7B680B
:1055500013601C4B00225A607A68BB681344FB60DE
:105560000822FB689B1AFB60FB6823F00703FB60C3
:10557000FB68154A1360144B1B6800225A60124BDB
:105580001B6800221A607B683B603B68FA68D21A8D
:105590003B685A600C4B1A683B681A603B685B6852
:1055A0000A4A13603B685B68094A1360094B4FF075
:1055B00000421A6000BF1437BD465DF8047B704797
:1055C000EC020020EC3E0020F43E0020FC3E0020D7
:1055D000F83E0020003F002080B485B000AF786026
:1055E000284BFB6002E0FB681B68FB60FB681A68E5
:1055F0007B689A42F7D3FB68BB60FB685B68BA685C
:105600001A447B689A4208D1FB685A687B685B68D9
:105610001A44FB685A60FB687B607B68BB607B68F0
:105620005B68BA681A44FB681B689A4218D1FB6829
:105630001A68154B1B689A420DD07B685A68FB6844
:105640001B685B681A447B685A60FB681B681A68B1
:105650007B681A6008E00C4B1A687B681A6003E0EC
:10566000FB681A687B681A60FA687B689A4202D005
:10567000FB687A681A6000BF1437BD465DF8047B8A
:10568000704700BFEC3E0020F43E002080B584B09F
:1056900000AF786039607B68FB60FB68002B09D144
:1056A0004FF0500383F31188BFF36F8FBFF34F8F19
:1056B000BB60FEE7FFF704FDFB681A68FB68DB6B65
:1056C000F968096C01FB03F31A44FB685A60FB6834
:1056D00000229A63FB681A68FB689A60FB681A6884
:1056E000FB68DB6B013BF968096C01FB03F31A44AF
:1056F000FB68DA60FB68FF2283F84420FB68FF2226
:1057000083F845203B68002B14D1FB681B69002BF4
:105710001AD0FB681033184601F020F80346002B1E
:1057200012D00D4B4FF080521A60BFF34F8FBFF372
:105730006F8F09E0FB6810331846FFF70AFBFB6820
:1057400024331846FFF705FBFFF7E8FC0123184652
:105750001037BD4680BD00BF04ED00E080B58AB0C3
:1057600002AFF860B9601346FB71FB68002B09D1EA
:105770004FF0500383F31188BFF36F8FBFF34F8F48
:105780003B61FEE7BB68002B02D10023FB6104E014
:10579000FB68BA6802FB03F3FB61FB6948331846F8
:1057A000FFF79EFDB861BB69002B0BD0BB69483386
:1057B0007B61FA79BB69009313467A69B968F86826
:1057C00000F005F8BB6918462037BD4680BD80B59E
:1057D00084B000AFF860B9607A60FB70BB68002BE2
:1057E00003D1BB69BA691A6002E0BB697A681A60C2
:1057F000BB69FA68DA63BB69BA681A640121B869DF
:10580000FFF744FF00BF1037BD4680BD80B582B0B2
:1058100000AF78607B68002B0ED07B6800225A6056
:105820007B6800221A607B680022DA600023002275
:105830000021786800F01CF800BF0837BD4680BD25
:1058400080B586B000AF0346FB7101237B61002366
:105850003B61FB791A4639697869FFF77FFFF86089
:10586000F868FFF7D3FFFB6818461837BD4680BDC0
:1058700080B58EB000AFF860B9607A603B600023FD
:105880007B63FB683B633B6B002B09D14FF05003FC
:1058900083F31188BFF36F8FBFF34F8FBB62FEE7B7
:1058A000BB68002B03D13B6B1B6C002B01D1012388
:1058B00000E00023002B09D14FF0500383F311883F
:1058C000BFF36F8FBFF34F8F7B62FEE73B68022B06
:1058D00003D13B6BDB6B012B01D1012300E00023E3
:1058E000002B09D14FF0500383F31188BFF36F8F62
:1058F000BFF34F8F3B62FEE701F0FAF80346002B3F
:1059000002D17B68002B01D1012300E00023002B92
:1059100009D14FF0500383F31188BFF36F8FBFF3AA
:105920004F8FFB61FEE7FFF7CBFB3B6B9A6B3B6B4B
:10593000DB6B9A4202D33B68022B29D13A68B968E3
:10594000386B00F0A8FAF8623B6B5B6A002B10D052
:105950003B6B2433184600F001FF0346002B13D0A5
:105960003F4B4FF080521A60BFF34F8FBFF36F8FE2
:105970000AE0FB6A002B07D0394B4FF080521A60C7
:10598000BFF34F8FBFF36F8FFFF7C8FB012363E0B7
:105990007B68002B03D1FFF7C1FB00235CE07B6B2E
:1059A000002B06D107F11403184600F039FF01233C
:1059B0007B63FFF7B3FB00F0EDFCFFF781FB3B6B74
:1059C00093F844305BB2B3F1FF3F03D13B6B00224D
:1059D00083F844203B6B93F845305BB2B3F1FF3F53
:1059E00003D13B6B002283F84520FFF797FB3A1D5C
:1059F00007F114031146184600F036FF0346002B4A
:105A000024D1386B00F03FFB0346002B18D03B6BD2
:105A100010337A681146184600F07CFE386B00F0AF
:105A2000CAFA00F0C5FC0346002B7FF47CAF0C4B98
:105A30004FF080521A60BFF34F8FBFF36F8F72E742
:105A4000386B00F0B8FA00F0B3FC6CE7386B00F08C
:105A5000B2FA00F0ADFC002318463837BD4680BDD1
:105A600004ED00E080B58EB000AF786039607B68EF
:105A70003B633B6B002B09D14FF0500383F311883C
:105A8000BFF36F8FBFF34F8F3B62FEE73B6B1B6C27
:105A9000002B09D04FF0500383F31188BFF36F8FB1
:105AA000BFF34F8FFB61FEE73B6B1B68002B03D1FD
:105AB0003B6B5B68002B01D1012300E00023002B2E
:105AC00009D14FF0500383F31188BFF36F8FBFF3F9
:105AD0004F8FBB61FEE7FFF7C5FBEFF311824FF07D
