:020000040800F2
:1000000000000320612200080122000803220008EA
:10001000052200080722000809220008000000004D
:100020000000000000000000000000000B2200089B
:100030000D220008000000000F2200081122000815
:10004000B1220008B1220008B1220008B122000844
:10005000B1220008B1220008B1220008B122000834
:10006000B1220008B1220008B1220008B122000824
:10007000B1220008B1220008B1220008B122000814
:10008000B1220008B1220008B1220008B122000804
:10009000B1220008B1220008B1220008B1220008F4
:1000A000B1220008B1220008B1220008B1220008E4
:1000B000B1220008B1220008B1220008B1220008D4
:1000C000B1220008B1220008B1220008B1220008C4
:1000D000B1220008B1220008B1220008B1220008B4
:1000E000B1220008B1220008B1220008B1220008A4
:1000F000B1220008B1220008B1220008B122000894
:10010000B1220008B1220008B1220008B122000883
:10011000B1220008B1220008B1220008B122000873
:10012000B1220008B1220008B1220008B122000863
:10013000B1220008B1220008B1220008B122000853
:10014000B1220008B1220008B1220008B122000843
:10015000B1220008B1220008B1220008B122000833
:10016000B1220008B1220008B1220008B122000823
:10017000B1220008B1220008B122000800000000EE
:10018000B1220008B1220008B1220008B122000803
:10019000B1220008B1220008B1220008B1220008F3
:0C01A000B1220008B1220008B1220008C2
:1001AC0010B5054C237833B9044B13B10448AFF3A5
:1001BC0000800123237010BD1000002000000000FF
:1001CC000C23000808B5034B1BB103490348AFF3DC
:1001DC00008008BD00000000140000200C23000863
:1001EC0053B94AB9002908BF00281CBF4FF0FF3192
:1001FC004FF0FF3000F07AB9ADF1080C6DE904CE88
:10020C0000F006F8DDF804E0DDE9022304B07047E5
:10021C002DE9F0478C460D460446089E002B51D123
:10022C008A4217466DD9B2FA82FEBEF1000F0BD08E
:10023C00CEF1200C01FA0EF520FA0CFC02FA0EF7A6
:10024C004CEA050C00FA0EF44FEA174A250CBCFBDD
:10025C00FAF81FFA87F90AFB18CC45EA0C4508FB9B
:10026C0009F3AB420AD9ED1908F1FF3280F0238172
:10027C00AB4240F22081A8F102083D44ED1AA4B231
:10028C00B5FBFAF00AFB105544EA054400FB09F9EA
:10029C00A14509D9E41900F1FF3380F00A81A14589
:1002AC0040F2078102383C44A4EB090440EA0840C0
:1002BC000021002E61D024FA0EF400233460736008
:1002CC00BDE8F0878B4207D9002E54D0002186E878
:1002DC0021000846BDE8F087B3FA83F1002940F00D
:1002EC008E80AB4202D3824200F2FA80841A65EB14
:1002FC0003050120AC46002E3FD086E81010BDE867
:10030C00F08712B90127B7FBF2F7B7FA87FEBEF1F7
:10031C00000F34D1EB1B3A0C1FFA87FC0121B3FB05
:10032C00F2F8250C02FB183345EA03450CFB08F3E5
:10033C00AB4207D9ED1908F1FF3002D2AB4200F203
:10034C00D1808046ED1AA3B2B5FBF2F002FB10553A
:10035C0043EA05440CFB00FCA44507D9E41900F161
:10036C00FF3302D2A44500F2B8801846A4EB0C046B
:10037C0040EA08409DE731463046BDE8F087CEF1B3
:10038C00200405FA0EF307FA0EF720FA04F83A0CDB
:10039C0025FA04F448EA0308B4FBF2F14FEA1845D5
:1003AC0002FB11441FFA87FC45EA044501FB0CF3E0
:1003BC00AB4200FA0EF409D9ED1901F1FF3080F0CF
:1003CC008A80AB4240F2878002393D44EB1A1FFA17
:1003DC0088F5B3FBF2F002FB103345EA034500FB52
:1003EC000CF3AB4207D9ED1900F1FF386FD2AB42D9
:1003FC006DD902383D44EB1A40EA01418FE7C1F157
:10040C00200722FA07F88B4005FA01F448EA0303A7
:10041C0020FA07FE4FEA134CFD404EEA040EB5FBE2
:10042C00FCF94FEA1E440CFB19551FFA83F844EAF9
:10043C00054509FB08F4AC4202FA01F200FA01FA94
:10044C0008D9ED1809F1FF3043D2AC4241D9A9F1DA
:10045C0002091D442D1B1FFA8EFEB5FBFCF00CFB94
:10046C0010554EEA054400FB08F8A04507D9E418DE
:10047C0000F1FF3529D2A04527D902381C4440EAA7
:10048C000940A4EB0804A0FB02894C45C6464D4626
:10049C0015D312D056B1BAEB0E0364EB050404FA73
:1004AC0007F7CB401F43CC40376074600021BDE898
:1004BC00F0871846F8E69046E0E6C245EAD2B8EB7B
:1004CC00020E69EB03050138E4E72846D7E74046FE
:1004DC0091E78146BEE7014678E702383C4445E7A0
:1004EC00084608E7A8F102083D442BE7704700BF17
:1004FC0038B50E4A0E4B054618784FF47A73B3FB99
:10050C00F0F31068B0FBF3F000F09CF8044658B917
:10051C000F2D09D8024629464FF0FF3000F05EF847
:10052C00044B20461D6038BD012038BD0C00002056
:10053C00000000200400002008B50B4B1A6842F4A0
:10054C0000721A601A6842F480621A601A6842F4E7
:10055C0080721A60032000F02FF80020FFF7C8FF0C
:10056C0001F0CCFC002008BD003C0240034A044BC7
:10057C0011681B780B441360704700BF30000020DB
:10058C0000000020014B1868704700BF30000020AD
:10059C0038B50446FFF7F6FF631C1CBF054B1B78F0
:1005AC00054618BFE418FFF7EDFF401B8442FAD84C
:1005BC0038BD00BF00000020074AD36823F4E06375
:1005CC001B041B0C43F0BF63000243F4003300F424
:1005DC00E0600343D360704700ED00E0174B30B58B
:1005EC00DC68C4F30224C4F10703251D042B28BFC7
:1005FC000423062D4FF0010505FA03F303F1FF3335
:10060C008CBF033C00241940A14005FA04F4013CC2
:10061C002240002842EA01024FEA0212AFBF00F169
:10062C00604000F00F00064BD2B2A5BF00F5614050
:10063C00D2B21A5480F8002330BD00BF00ED00E0A8
:10064C0014ED00E00138B0F1807F0AD2064B074A66
:10065C005860F02182F823100020072298601A605D
:10066C0070470120704700BF10E000E000ED00E093
:10067C002DE9F04F85B00B68DFF8C4816E4ADFF8C6
:10068C00C491019300234FF0010E019C0EFA03FE5E
:10069C000EEA0406B64540F0B6804C6824F010070C
:1006AC00022F16D14FEAD30A00EB8A0A03F0070B8C
:1006BC00DAF820504FEA8B0B4FF00F0C0CFA0BFCB6
:1006CC0025EA0C0C0D6905FA0BF545EA0C05CAF880
:1006DC0020504FEA430A0325D0F800B005FA0AF57A
:1006EC00ED4304F0030C0BEA050B0CFA0AFC013F7A
:1006FC004CEA0B0C012FC0F800C011D8876807EA30
:10070C00050BCF6807FA0AFC4CEA0B0787604768B1
:10071C0027EA0E0EC4F300179F4047EA0E07476006
:10072C00C7683D408F6807FA0AF73D43C560E5008E
:10073C0069D54FF0000BCDF80CB0D8F844703F4D94
:10074C0047F48047C8F84470D8F8447007F48047E1
:10075C000397039F23F0030707F1804707F59C37A6
:10076C0003F0030CD7F808A04FEA8C0C4FF00F0ED7
:10077C000EFA0CFEA8422AEA0E0E4BD005F5806547
:10078C00A84249D005F58065A84247D005F580659B
:10079C00A84245D005F58065A84243D0484543D0D2
:1007AC0005F50065A84241D005F58065A8423FD00B
:1007BC0005F58065A8423DD005F58065A84214BFBB
:1007CC000A25092505FA0CF545EA0E05BD601568E4
:1007DC00F74314F4803F0CBF3D403543156055681A
:1007EC0014F4003F0CBF3D4035435560956814F43C
:1007FC00801F0CBF3D4035439560D568A40254BFA3
:10080C003D403543D5600133102B7FF43CAF05B030
:10081C00BDE8F08F5D46D5E70125D3E70225D1E78A
:10082C000325CFE70425CDE70525CBE70625C9E74A
:10083C000725C7E70825C5E7003C0140000002403A
:10084C0000380240001402400AB18161704709046B
:10085C00FBE72DE9F043D20104684F68E568D1F855
:10086C0000E0D1F818908432A3180EF101065868F4
:10087C0000F470405860E068C5F30B45C0F30B40C2
:10088C003D44304440EA05405860E068CD68C0F310
:10089C000A000544986800F470409860E66888681F
:1008AC00C6F30A060130304440EA054098601869E6
:1008BC000E6920F0070018614FF0000C1E619D6955
:1008CC0091F8320091F83180C3F818C091F830508B
:1008DC0045EA096545EA082545EA00459D615869E0
:1008EC0020F0FF00586148695861D86920F4E06035
:1008FC0020F00700D861086ACD690543DD61986A6C
:10090C00486AC3F828C098621EB3012E23D0B01ECB
:10091C00022822D9072E0CBF02200120DD6A05F027
:10092C00E025DD628D6AC96AA7EB0E074543784363
:10093C00033040EA0540D862186B20F4FF6020F0C9
:10094C00070018631963A35843F00103A350BDE8D3
:10095C00F0830420E2E70320E0E70220DEE700005A
:10096C0038B50446002863D090F8A13003F0FF029C
:10097C001BB980F8A02001F0DDFA022384F8A13025
:10098C002368A0689A6922F070429A61626899693A
:10099C000243E0680243206902430A439A619A6861
:1009AC00244960690A409A609A6842EA0042A06948
:1009BC0002439A60DA68E0690A40DA60DA6842EA6F
:1009CC000042206A0243DA601A69606A0A401A61BE
:1009DC001A6942EA0042A06A02431A615A6911403C
:1009EC0059615A69E16A42EA0142216B0A435A6130
:1009FC00D96A94F8360094F8355001F07F41D962E9
:100A0C00D96A94F834200A4342EA052242EA0042A9
:100A1C00DA625A6B42F006025A639A6942F001029A
:100A2C009A6100200123C4F8A40084F8A13038BDD9
:100A3C00012038BD00F800F0F8B590F8A030012B7B
:100A4C0006468E4694464FF002001DD034240D46C7
:100A5C0086F8A10004FB02640FCD0127383486F818
:100A6C00A0700FC40FCD0FC40FCD0FC42B68236023
:100A7C00304662467146FFF7ECFE336800205F6239
:100A8C0086F8A17086F8A000F8BD90F8A030012B74
:100A9C0070B54FF00203044615D080F8A130342312
:100AAC005343C618012580F8A050F16503F13801B5
:100ABC000144FFF7CEFE236800205D6284F8A1504C
:100ACC0084F8A00070BD184670BD000037B5002337
:100ADC000193184B184C1A6C42F080521A641B6C20
:100AEC0003F080530193019B144B01221A60FFF712
:100AFC0049FD05466368DA030BD5114B0E4C0122F8
:100B0C001A60FFF73FFD054663689B030AD500207A
:100B1C0006E0FFF737FD401BB0F57A7FEAD90320DA
:100B2C0003B030BDFFF72EFD401BB0F57A7FEBD93B
:100B3C00F5E700BF003802400070004040000E4254
:100B4C0044000E422DE9F341044618B9012002B0CD
:100B5C00BDE8F0810368DD0710D42368980758D4EA
:100B6C0023681A0700F19A8023685B0700F1B880AC
:100B7C00A269002A40F019810020E8E7A64B9A6888
:100B8C0002F00C02042A07D09A6802F00C02082A20
:100B9C000AD15B68590207D59F4B1B689A03DCD5B9
:100BAC006368002BD9D1D1E763689B4DB3F5803FC7
:100BBC0011D12B6843F480332B60FFF7E3FC964D87
:100BCC0006462B689B03C8D4FFF7DCFC801B64280B
:100BDC00F7D90320BBE7B3F5A02F04D12B6843F45E
:100BEC0080232B60E5E72A6822F480322A602A6889
:100BFC0022F480222A60002BDFD1FFF7C3FC0646CB
:100C0C002B689F03A9D5FFF7BDFC801B6428F7D97F
:100C1C00DFE7814B9A6812F00C0F07D09A6802F04C
:100C2C000C02082A11D15B685E020ED47A4B1A684A
:100C3C00950702D5E268012A88D11A68216922F049
:100C4C00F80242EAC1021A608AE7E268734BB2B159
:100C5C0001221A60FFF796FC6F4D06462B68980729
:100C6C0007D52B68226923F0F80343EAC2032B60F3
:100C7C0076E7FFF787FC801B0228EFD9A9E71A60FB
:100C8C00FFF780FC644D06462B6899077FF568AF2B
:100C9C00FFF778FC801B0228F6D99AE76269604B53
:100CAC007AB101221A60FFF76DFC5B4D06466B6F43
:100CBC009F073FF559AFFFF765FC801B0228F6D95B
:100CCC0087E71A60FFF75EFC534D06466B6F98077B
:100CDC007FF54AAFFFF756FC801B0228F6D978E760
:100CEC004D4B1A6C12F0805228D101921A6C42F0C2
:100CFC0080521A641B6C03F080530193019B0126F4
:100D0C00484D2B68D9051BD5A368434D012B27D122
:100D1C002B6F43F001032B67FFF734FC3E4D074666
:100D2C0041F288382B6F9B0739D5002E3FF420AF4A
:100D3C00394A136C23F08053136419E70026DFE75C
:100D4C002B6843F480732B60FFF71CFC07462B6861
:100D5C00DA05D9D4FFF716FCC01B0228F7D938E7FF
:100D6C00052B04D12B6F43F004032B67D0E72A6FBC
:100D7C0022F001022A672A6F22F004022A67002B54
:100D8C00CAD1FFF7FFFB41F2883807462B6F980753
:100D9C00CBD5FFF7F7FBC01B4045F7D919E7FFF799
:100DAC00F1FBC01B4045BDD913E71B4DAB6803F0ED
:100DBC000C03082B3FF4CAAE1B4E0023022A3360EF
:100DCC0034D1FFF7DFFB07462B6899011ED4226A4A
:100DDC00E3691343626A43EA8213E26A43EA0263F9
:100DEC00A26A0D4C5208013A43EA02436B6001239C
:100DFC003360FFF7C7FB054623689A013FF5BCAE8D
:100E0C00FFF7C0FB401B0228F6D9E2E6FFF7BAFB5E
:100E1C00C01B0228D8D9DCE600380240000047424B
:100E2C00800E47420070004060004742FFF7AAFB6B
:100E3C0004462B689B017FF59FAEFFF7A3FB001BBD
:100E4C000228F6D9C5E600BF134908B58B6803F034
:100E5C000C03042B03D0082B03D0104808BD1048FA
:100E6C0008BD4A684B68496813F4800314BF0C48EA
:100E7C000A48C1F3881118BF002302F03F02A1FBFE
:100E8C000001FFF7ADF9044B5B68C3F30143013379
:100E9C005B00B0FBF3F008BD003802400024F40006
:100EAC0040787D012DE9F0410D46044610B9012032
:100EBC00BDE8F081444B1A6802F00F028A4228D335
:100ECC0021688F072DD4C80740D43F4B1A6802F015
:100EDC000F02954266D3226851076CD4130707D5CD
:100EEC003A4A2169936823F4604343EAC10393604F
:100EFC00FFF7AAFF354B364A9B68C3F30313D35C49
:100F0C00D840344B18600020FFF7F2FA0020BDE8FF
:100F1C00F081CAB21A701B6803F00F039942C6D154
:100F2C00CEE72A4B11F0040F1EBF9A6842F4E05230
:100F3C009A600E0742BF9A6842F460429A609A68BF
:100F4C00A06822F0F00202439A60BCE762681F4B73
:100F5C00012A1DD11B6813F4003FA8D01B4EB368A7
:100F6C0023F003031343B360FFF70CFB41F2883803
:100F7C000746B368626803F00C03B3EB820FA4D08E
:100F8C00FFF700FBC01B4045F3D90320BDE8F081FF
:100F9C00911E01291B6802D813F0007FDDE713F0C6
:100FAC00020FDAE7EAB21A701B6803F00F039D42D6
:100FBC007FF47DAF8FE70549E0688B6823F4E0533D
:100FCC0003438B608AE700BF003C024000380240BC
:100FDC00242300080C0000200368F7B59A07044688
:100FEC0040F08880236813F00C0F44D0804D814E64
:100FFC0000232B60FFF7C6FA074633689B0000F10D
:10100C00BD8021684F0715D56369D6F88820206903
:10101C001B0602F0E04243EA80131343C6F8883003
:10102C00D6F88C30226A23F4F853013A43EA0223AF
:10103C00C6F88C300E0714D56E4AA369D2F8881006
:10104C0020691B0701F0706143EA80130B43C2F85F
:10105C008830D2F88C30616A23F440330B43C2F8E9
:10106C008C3001232B60FFF78DFA624D06462B68FE
:10107C00980040F18A8023689A0631D500230193A9
:10108C005C4B5D4D1A6C42F080521A641B6C03F081
:10109C0080530193019B2B6843F480732B60FFF703
:1010AC0071FA06462B68D90576D5524D2B6F13F481
:1010BC00407377D1A36A03F44072B2F5407F4D4A76
:1010CC0040F09180916823F0704021F4F81120F4E5
:1010DC00407001439160116FC3F30B030B43136713
:1010EC00206810F010001FBF444B94F82C201A609D
:1010FC00002041E0424D3F4E00232B60FFF742FAA7
:10110C00074633681B0131D42268D70706D5A3687C
:10111C0061681B0743EA8113C6F88430900715D524
:10112C00344AE368D2F8841060681B0601F0E04191
:10113C0043EA80130B43C2F88430D2F88C10E36975
:10114C0021F01F01013B0B43C2F88C3001232B60B3
:10115C00FFF718FA274D06462B6819013FF542AFE9
:10116C00FFF710FA801B0228F6D904E0FFF70AFA01
:10117C00C01B0228C5D9032003B0F0BDFFF702FA4B
:10118C00C01B02287FF639AFF5E7FFF7FBF9801B90
:10119C0002287FF66CAFEEE7FFF7F4F9801B02280C
:1011AC0080D9E8E7A26A02F44072934282D02B6F96
:1011BC00144A0121116023F44073002111602B6744
:1011CC002B6FDA077FF576AFFFF7DCF941F2883742
:1011DC0006462B6F9B073FF56DAFFFF7D3F9801BCE
:1011EC00B842F6D9C7E7916821F4F81172E700BF4D
:1011FC00700047420038024000700040E011474246
:10120C0068004742400E474238B50D460446C8B107
:10121C0090F82C3003F0FF021BB980F82D2000F061
:10122C007DFF022384F82C30211D206800F072F918
:10123C0062682068294600F0ACF9012384F82C3050
:10124C00002038BD012038BD38B5044690F82C007C
:10125C00C0B202280D460DD0022384F82C30206831
:10126C0000F0DFF92B68022B0CBF0523012384F857
:10127C002C30002038BD10B5044690F82C00C0B2BC
:10128C00022809D0022384F82C30206800F0EEF9F3
:10129C00012384F82C30002010BD2DE9F041069E6E
:1012AC000446884617461D462268936838EA0303AD
:1012BC000CBF012300239F4202D10020BDE8F08126
:1012CC006B1CF2D055BB23685A6822F0E0025A60BE
:1012DC006268B2F5827F0AD1A268B2F5004F02D0E3
:1012EC00B2F5806F03D11A6822F040021A60A26A2C
:1012FC00B2F5005F09D11A6822F400521204120CE4
:10130C001A601A6842F400521A60012384F85130B2
:10131C00002384F850300320BDE8F081FFF732F948
:10132C00801B8542C0D8CEE713B50B4600928021B6
:10133C0000220446FFF7B1FF20B1636D43F0200398
:10134C006365032002B010BD10B50446002836D0EA
:10135C000023836290F8513003F0FF021BB980F830
:10136C00502000F0A5FE2168A068A269022384F831
:10137C0051300B6823F040030B6063680343E06853
:10138C0003432069034360690343E0690343206A14
:10139C000343A06A034302F4007003430B60120C76
:1013AC00636A02F004021A434A60CB6923F40063B7
:1013BC00CB6100200123606584F8513010BD012001
:1013CC0010BD2DE9FF411E4690F85030012B04460C
:1013DC000D46904600F09C80012380F85030FFF7BA
:1013EC00D1F8074694F85100C0B2012840F08E8025
:1013FC00002D4ED0B8F1000F4BD0032384F85130A0
:10140C0000236365A363A4F83680A387E387636432
:10141C002364A3682563B3F5004F2368A4F83480D4
:10142C0002BF1A6842F480421A601A6852065EBF04
:10143C001A6842F040021A60E268B2F5006F626806
:10144C0038D11AB1E28E92B2012A06D135F8022BAC
:10145C00DA60E38E013B9BB2E386E38E9BB293B9D9
:10146C0000973346012202212046FFF716FF78B978
:10147C003A4631462046FFF757FF002838D0202344
:10148C006365012005E023689A689007DED44EB9A5
:10149C000320012384F85130002384F8503004B029
:1014AC00BDE8F081711CD8D0FFF76CF8C01B8642E8
:1014BC00D3D8EDE71AB1E28E92B2012A06D115F813
:1014CC00012B1A73E38E013B9BB2E386E38E9BB236
:1014DC00002BC5D023689A689207F0D4002ED7D081
:1014EC00731CF3D0FFF74EF8C01B8642EED8CFE743
:1014FC00A36833B903932368DA6803929B68039358
:10150C00039B606D003018BF0120C2E70220C0E7CA
:10151C000220C4E70B684A68D1F810C0012B2DE9F2
:10152C00F0430368D1F80890D1F80C804D698C69B0
:10153C00D1F81CE00F6A4E6A14D023F4FF4323F059
:10154C007F031A4342EA090242EA080242EA0C0308
:10155C002B43234343EA0E033B43334303600020F6
:10156C00BDE8F083416821F4FF4121F07F0123F4B1
:10157C00F8430A4343EA0E0342EA09023B4342EAB8
:10158C0008021E4342EA0C032B43234306604360CC
:10159C00E5E7012AF0B5D1F80CC08F680D694E69EA
:1015AC0091E8084089691BD082680EF1FF3E02F079
:1015BC007042013B42EA0E121A437B1E42EA03239D
:1015CC000CF1FF3C43EA0C33013D43EA0543013E79
:1015DC0043EA0653013943EA016383600020F0BDFE
:1015EC008468C2680EF1FF3E02F07042013B42EA91
:1015FC000E121A4324F470047B1E42EA03220CF1EF
:10160C00FF3C24F470446B1E44EA0C34013E42EA65
:10161C000343013944EA065643EA01638660C3601A
:10162C00DCE773B500230193154691E80C001343D6
:10163C00CA6843EA42238A68013A43EA4213019397
:10164C00019B03610446FEF79DFF0646A06910F05E
:10165C00200003D06B1CF9D015B9032002B070BD6B
:10166C00FEF790FF801B8542F0D2F6E7436943EA10
:10167C00410141610020704737B500240E4D8DF8B3
:10168C00040022464FF400510C488DF80540FFF73A
:10169C00DBF8224628460421FFF7D6F8642301A97B
:1016AC0001220748FFF78DFE012204212846FFF78F
:1016BC00CBF803B030BD00BF00080240000C024064
:1016CC003400002037B50F4C8DF8040000250122A2
:1016DC004FF400510C488DF80550FFF7B5F82A4629
:1016EC0020460421FFF7B0F8642301A90122074822
:1016FC00FFF767FE012204212046FFF7A5F803B08F
:10170C0030BD00BF00080240000C02403400002035
:10171C0008B5CA20FFF7B0FFC320FFF7D3FF08209E
:10172C00FFF7D0FF5020FFF7CDFFCF20FFF7A4FF2E
:10173C000020FFF7C7FFC120FFF7C4FF3020FFF7E1
:10174C00C1FFED20FFF798FF6420FFF7BBFF0320DC
:10175C00FFF7B8FF1220FFF7B5FF8120FFF7B2FFAC
:10176C00E820FFF789FF8520FFF7ACFF0020FFF78B
:10177C00A9FF7820FFF7A6FFCB20FFF77DFF3920CC
:10178C00FFF7A0FF2C20FFF79DFF0020FFF79AFF2B
:10179C003420FFF797FF0220FFF794FFF720FFF7A5
:1017AC006BFF2020FFF78EFFEA20FFF765FF00207C
:1017BC00FFF788FF0020FFF785FFB120FFF75CFFE4
:1017CC000020FFF77FFF1B20FFF77CFFB620FFF701
:1017DC0053FF0A20FFF776FFA220FFF773FFC0200C
:1017EC00FFF74AFF1020FFF76DFFC120FFF744FF02
:1017FC001020FFF767FFC520FFF73EFF4520FFF7DE
:10180C0061FF1520FFF75EFFC720FFF735FF902023
:10181C00FFF758FF3620FFF72FFFC820FFF752FFC6
:10182C00F220FFF729FF0020FFF74CFFB020FFF755
:10183C0023FFC220FFF746FFB620FFF71DFF0A204B
:10184C00FFF740FFA720FFF73DFF2720FFF73AFFE8
:10185C000420FFF737FF2A20FFF70EFF0020FFF7C9
:10186C0031FF0020FFF72EFF0020FFF72BFFEF20AA
:10187C00FFF728FF2B20FFF7FFFE0020FFF722FFCA
:10188C000020FFF71FFF0120FFF71CFF3F20FFF791
:10189C0019FFF620FFF7F0FE0120FFF713FF0020E1
:1018AC00FFF710FF0620FFF70DFF2C20FFF7E4FEDB
:1018BC006420FEF76DFE2620FFF7DEFE0120FFF709
:1018CC0001FFE020FFF7D8FE0F20FFF7FBFE2920D9
:1018DC00FFF7F8FE2420FFF7F5FE0C20FFF7F2FED1
:1018EC000E20FFF7EFFE0920FFF7ECFE4E20FFF76E
:1018FC00E9FE7820FFF7E6FE3C20FFF7E3FE092027
:10190C00FFF7E0FE1320FFF7DDFE0520FFF7DAFE00
:10191C001720FFF7D7FE1120FFF7D4FE0020FFF7AA
:10192C00D1FEE120FFF7A8FE0020FFF7CBFE16202A
:10193C00FFF7C8FE1B20FFF7C5FE0420FFF7C2FE11
:10194C001120FFF7BFFE0720FFF7BCFE3120FFF789
:10195C00B9FE3320FFF7B6FE4220FFF7B3FE052099
:10196C00FFF7B0FE0C20FFF7ADFE0A20FFF7AAFE32
:10197C002820FFF7A7FE2F20FFF7A4FE0F20FFF76C
:10198C00A1FE1120FFF778FE6420FEF701FE29204E
:10199C00FFF772FE2C20BDE80840FFF76DBE00007B
:1019AC00074A30B5136E516E594300238B4200D158
:1019BC0030BD03EB4305D46D01332851F6E700BF6E
:1019CC008C0000200A490B6E486E5843002370B5FA
:1019DC001A466FF07F44834200D170BD03EB43067F
:1019EC00CD6D72510132A24208BF00220133F2E7E1
:1019FC008C0000209042F0B582BF0446104622466F
:101A0C00994288BF0C46DFF830E084BF1946234664
:101A1C00994200D9F0BD0646964201D90131F7E74B
:101A2C00DEF86040DEF85C70059D04FB016404EB9D
:101A3C0044040136E551EFE78C00002010B5044C4E
:101A4C00236E03FB010101EB4101E36DCA5010BD94
:101A5C008C0000202DE9F74FA3EB0108A2EB000945
:101A6C00B8F1000FB8BFC8F10008B9F1000FB8BF4A
:101A7C00C9F10009C84504460D4617461E4605DD4A
:101A8C0003B212B237460C4616461D46BC4205D967
:101A9C0023B22AB23C4635461F461646A6EB050A2B
:101AAC005346002BB8BF5B42B54234BF01264FF002
:101ABC00FF36A7EB040B019302239BFBF3FABC420A
:101ACC0002D903B0BDE8F08FC845C7BF21462846F0
:101ADC00294620460C9AFFF7B1FF019BBAEB030A8B
:101AEC0044BFAD19DA440134E9E7000070B5302485
:101AFC00A0B02246002108A800F0FAFB1422002115
:101B0C0003A800F0F5FB0021224614A800F0F0FB1E
:101B1C000024224B01941A6C42F080521A641B6C04
:101B2C0003F080530193019B1D4B02941A6842F4FD
:101B3C0040421A601B680F9403F440430293029BCB
:101B4C0001230B9310230C93B42302250826119325
:101B5C0008A80423139308950E9510961295FEF77A
:101B6C00F1FFFEF7B3FF0F2303934FF4A05306933B
:101B7C0005214FF4805303A8079304950594FFF7B0
:101B8C0091F93C23189305231A9314A84FF480332E
:101B9C0014961D93FFF720FA20B070BD0038024058
:101BAC000070004080B596B0FEF7C6FCFFF79EFFB4
:101BBC001422002109A800F09BFB0024984B0294EE
:101BCC001A6B9848984D42F020021A631A6B02F077
:101BDC0020020292029A03941A6B42F004021A63D6
:101BEC001A6B02F004020392039A04941A6B42F0EB
:101BFC0001021A631A6B02F001020492049A059412
:101C0C001A6B42F002021A631A6B02F0020205927E
:101C1C00059A06941A6B42F040021A631A6B02F092
:101C2C0040020692069A07941A6B42F010021A634D
:101C3C001A6B02F010020792079A08941A6B42F082
:101C4C0008021A631B6B03F008030893012204219A
:101C5C00089BFEF7F9FD22464FF400517348FEF73E
:101C6C00F3FD022601274FF0040809A96D480B94D7
:101C7C004FF40059CDF824800A970C96FEF7F8FC27
:101C8C0009A96A480B94CDF824900A970C96FEF794
:101C9C00EFFC6748674A84604FF4827380E80C005D
:101CAC004FF4007383611823C3610A23C460046179
:101CBC004461046244628462C362FFF745FB5E4B7D
:101CCC00AC6085E8880010232B6140236B614FF4D6
:101CDC00C073AB614FF4006309A92B62284607233C
:101CEC000A930C93EC616C62C5F80C80C5F82890D3
:101CFC000996CDF82C800D960E960F96FFF784FA68
:101D0C00284600F0A7F8FFF703FD2146342209A866
:101D1C0000F0EEFA494D4A4BAC6085E818000823F8
:101D2C006B611D23EB6103232B6240F20D136B627D
:101D3C0040F24313AB6240F21713EB62284640F2B9
:101D4C004713EC602C61AC612B6385F8344085F84B
:101D5C00354085F83640FEF703FEFF210E914FF417
:101D6C008061F022109105214FF4A0730A92119119
:101D7C00139209A9224628460C93149309940B94A8
:101D8C000F9412948DF854408DF855408DF85640B0
:101D9C000D97FEF751FE22462A492B4C2846FEF79A
:101DAC0074FE4FF47F00FFF7FBFD4FF4FA60FEF773
:101DBC00EFFB2648FFF7F4FD4FF47A70FEF7E8FBD3
:101DCC00FFF700FE4FF47A70FEF7E2FB4FF0FF13C3
:101DDC0000210093C82308461A46FFF70BFE236820
:101DEC006FF07F421A604FF47A70FEF7D1FB00203F
:101DFC00FFF7D6FD4FF47F4300930021C8231A460A
:101E0C000846FFF727FE124B0093C8220023184602
:101E1C001146FFF71FFE4FF47A70FEF7B9FBD5E7BA
:101E2C00003802400008024034010020000C02403F
:101E3C003400002000500140400100A08C00002024
:101E4C0000680140000005D008000020FFF00F00E2
:101E5C00F0F0F0002DE9F743274C4FF00008012675
:101E6C00082721464FF6FF720546CDF8048084E81A
:101E7C00C000A660C4F80C80FFF7E6F90A20FEF754
:101E8C0087FB022321464FF6FF72284684E8880020
:101E9C00A660C4F80C80FFF7D7F90A20FEF778FB90
:101EAC004FF00409032321464FF6FF72284684E8BD
:101EBC008800C4F80890C4F80C80FFF7C5F90A2014
:101ECC00FEF766FB40F231230193019BE3604FF672
:101EDC00FF7221462846C4F800906760A660FFF7A1
:101EEC00B3F90A20FEF754FB40F26A512846FFF77B
:101EFC00C2F903B0BDE8F0836801002082B00C4B3E
:101F0C00002100915A6C42F480425A645A6C02F4DB
:101F1C0080420092009A01911A6C42F080521A642D
:101F2C001B6C03F080530193019B02B0704700BF00
:101F3C0000380240F0B504468DB01422002107A8E9
:101F4C0000F0D6F92268534B9A4240F0A18003F579
:101F5C005043002500955A6C4F4842F080625A64F9
:101F6C005A6C02F080620092009A01951A6B42F052
:101F7C0020021A631A6B02F020020192019A029558
:101F8C001A6B42F001021A631A6B02F00102029200
:101F9C00029A03951A6B42F002021A631A6B02F052
:101FAC0002020392039A04951A6B42F040021A63E0
:101FBC001A6B02F040020492049A05951A6B42F0D7
:101FCC0004021A631A6B02F004020592059A069534
:101FDC001A6B42F008021A631B6B03F0080306939A
:101FEC0002240E26069B08944FF4806307A90793DE
:101FFC000A940B96FEF73CFB41F6580307A92748B9
:10200C0007930927089409950A940B96FEF730FB61
:10201C00032307A922480793089409950A940B9760
:10202C00FEF726FB4FF4706307A91D48079308942D
:10203C0009950A940B96FEF71BFB4FF40C6307A94A
:10204C0018480793089409950A940B96FEF710FB11
:10205C004FF4986307A914480793089409950A94B8
:10206C000B96FEF705FB482307A910480793089425
:10207C0009950A940B96FEF7FBFA4FF4A05307A9A7
:10208C0008480793089409950A940B97FEF7F0FA01
:10209C000DB0F0BD00680140001402400000024089
:1020AC00000402400018024000080240000C0240EC
:1020BC0010B5044688B01422002103A800F018F9CA
:1020CC002268144B9A4223D103F5684300210191F5
:1020DC005A6C114842F480125A645A6C02F4801201
:1020EC000192019A02911A6B42F020021A631B6B47
:1020FC0003F020030293029B4FF4607303930223BB
:10210C0004930323069303A905230793FEF7B0FA60
:10211C0008B010BD00500140001402402DE9F04100
:10212C002C4B1C6886B0002C51D14FF00108C3F821
:10213C000080294B00949A6B284842EA08029A6363
:10214C009B6B039403EA08030093022703260C25D8
:10215C00009B02974FF63F0301A901930496059546
:10216C00FEF786FA01A91E48CDF804800297039465
:10217C0004960595FEF77CFA48F2331301A9194829
:10218C0001930297039404960595FEF771FA4FF6A6
:10219C00837301A91448019302970394049605953F
:1021AC00FEF766FA4CF2037301A9104801930297EB
:1021BC00039404960595FEF75BFA602301A90C487D
:1021CC0001930297039404960595FEF751FA06B015
:1021DC00BDE8F0812C0000200038024000140240C1
:1021EC00000802400018024000100240000C02409F
:1021FC00000402407047FEE7FEE7FEE7FEE770478B
:10220C0070477047FEF7B2B90F49D1F8883043F4E4
:10221C007003C1F888300D4B1A68002042F001029F
:10222C001A6098601A6822F0847222F480321A6064
:10223C00074A5A601A6822F480221A60D8604FF05C
:10224C0000638B60704700BF00ED00E00038024077
:10225C0010300024DFF834D0002103E00C4B5B5825
:10226C00435004310B480C4B42189A42F6D30B4A9C
:10227C0002E0002342F8043B094B9A42F9D3FFF7E2
:10228C00C3FF00F011F8FFF78DFC7047000003202E
:10229C004423000800000020100000201000002043
:1022AC0078010020FEE7000070B50D4E0D4CA41B0C
:1022BC00A4100025A54209D10B4E0C4C00F020F8BF
:1022CC00A41BA4100025A54205D170BD56F82530DD
:1022DC0098470135EEE756F8253098470135F2E777
:1022EC003C2300083C2300083C2300084023000842
:1022FC0002440346934200D1704703F8011BF9E7EF
:10230C00F8B500BFF8BC08BC9E467047F8B500BFD6
:08231C00F8BC08BC9E467047A6
:102324000000000000000000010203040607080981
:08233400E8DEFF7F010000005C
:04233C00D1010008C3
:04234000AD010008E3
:102344000100000010000000040000D00024F4008C
:04000005080022616C
:00000001FF
