:020000040800F2
:10000000000003204D5C0008DD580008EB58000894
:10001000F1580008F7580008FD58000800000000DB
:10002000000000000000000000000000035900086C
:1000300011590008000000001F5900082D59000840
:100040009D5C00089D5C00089D5C00089D5C0008AC
:100050009D5C00089D5C00089D5C00089D5C00089C
:100060009D5C00089D5C00089D5C00089D5C00088C
:100070009D5C00089D5C00089D5C00089D5C00087C
:100080009D5C00089D5C00089D5C00089D5C00086C
:100090009D5C00089D5C00089D5C00089D5C00085C
:1000A0009D5C00089D5C00089D5C00089D5C00084C
:1000B0009D5C00089D5C00089D5C00089D5C00083C
:1000C0009D5C00089D5C00089D5C00089D5C00082C
:1000D0009D5C00089D5C00089D5C00089D5C00081C
:1000E0009D5C00089D5C00089D5C00089D5C00080C
:1000F0009D5C00089D5C00089D5C00089D5C0008FC
:100100009D5C00089D5C00089D5C00089D5C0008EB
:100110009D5C00089D5C00089D5C00089D5C0008DB
:100120009D5C00089D5C00089D5C00089D5C0008CB
:100130009D5C00089D5C00089D5C00089D5C0008BB
:100140009D5C00089D5C00089D5C00089D5C0008AB
:100150009D5C00089D5C00089D5C00089D5C00089B
:100160009D5C00089D5C00089D5C00089D5C00088B
:100170009D5C00089D5C00089D5C0008000000007C
:100180009D5C00089D5C00089D5C00089D5C00086B
:100190009D5C00089D5C00089D5C00089D5C00085B
:0C01A0009D5C00089D5C00083D590008B3
:1001AC0010B5054C237833B9044B13B10448AFF3A5
:1001BC0000800123237010BD6C00002000000000A3
:1001CC00E012010808B5034B1BB103490348AFF318
:1001DC00008008BD0000000070000020E012010843
:1001EC0053B94AB9002908BF00281CBF4FF0FF3192
:1001FC004FF0FF3000F07AB9ADF1080C6DE904CE88
:10020C0000F006F8DDF804E0DDE9022304B07047E5
:10021C002DE9F0478C460D460446089E002B51D123
:10022C008A4217466DD9B2FA82FEBEF1000F0BD08E
:10023C00CEF1200C01FA0EF520FA0CFC02FA0EF7A6
:10024C004CEA050C00FA0EF44FEA174A250CBCFBDD
:10025C00FAF81FFA87F90AFB18CC45EA0C4508FB9B
:10026C0009F3AB420AD9ED1908F1FF3280F0238172
:10027C00AB4240F22081A8F102083D44ED1AA4B231
:10028C00B5FBFAF00AFB105544EA054400FB09F9EA
:10029C00A14509D9E41900F1FF3380F00A81A14589
:1002AC0040F2078102383C44A4EB090440EA0840C0
:1002BC000021002E61D024FA0EF400233460736008
:1002CC00BDE8F0878B4207D9002E54D0002186E878
:1002DC0021000846BDE8F087B3FA83F1002940F00D
:1002EC008E80AB4202D3824200F2FA80841A65EB14
:1002FC0003050120AC46002E3FD086E81010BDE867
:10030C00F08712B90127B7FBF2F7B7FA87FEBEF1F7
:10031C00000F34D1EB1B3A0C1FFA87FC0121B3FB05
:10032C00F2F8250C02FB183345EA03450CFB08F3E5
:10033C00AB4207D9ED1908F1FF3002D2AB4200F203
:10034C00D1808046ED1AA3B2B5FBF2F002FB10553A
:10035C0043EA05440CFB00FCA44507D9E41900F161
:10036C00FF3302D2A44500F2B8801846A4EB0C046B
:10037C0040EA08409DE731463046BDE8F087CEF1B3
:10038C00200405FA0EF307FA0EF720FA04F83A0CDB
:10039C0025FA04F448EA0308B4FBF2F14FEA1845D5
:1003AC0002FB11441FFA87FC45EA044501FB0CF3E0
:1003BC00AB4200FA0EF409D9ED1901F1FF3080F0CF
:1003CC008A80AB4240F2878002393D44EB1A1FFA17
:1003DC0088F5B3FBF2F002FB103345EA034500FB52
:1003EC000CF3AB4207D9ED1900F1FF386FD2AB42D9
:1003FC006DD902383D44EB1A40EA01418FE7C1F157
:10040C00200722FA07F88B4005FA01F448EA0303A7
:10041C0020FA07FE4FEA134CFD404EEA040EB5FBE2
:10042C00FCF94FEA1E440CFB19551FFA83F844EAF9
:10043C00054509FB08F4AC4202FA01F200FA01FA94
:10044C0008D9ED1809F1FF3043D2AC4241D9A9F1DA
:10045C0002091D442D1B1FFA8EFEB5FBFCF00CFB94
:10046C0010554EEA054400FB08F8A04507D9E418DE
:10047C0000F1FF3529D2A04527D902381C4440EAA7
:10048C000940A4EB0804A0FB02894C45C6464D4626
:10049C0015D312D056B1BAEB0E0364EB050404FA73
:1004AC0007F7CB401F43CC40376074600021BDE898
:1004BC00F0871846F8E69046E0E6C245EAD2B8EB7B
:1004CC00020E69EB03050138E4E72846D7E74046FE
:1004DC0091E78146BEE7014678E702383C4445E7A0
:1004EC00084608E7A8F102083D442BE7704700BF17
:1004FC0080B500AF0E4A0E4B1B6843F400731360BB
:10050C000B4A0B4B1B6843F480631360084A084B7F
:10051C001B6843F480731360032000F02DF9002056
:10052C0000F008F805F020F90023184680BD00BF44
:10053C00003C024080B582B000AF7860124B1A6864
:10054C00124B1B7819464FF47A73B3FBF1F3B2FBE1
:10055C00F3F3184600F037F90346002B01D00123C2
:10056C000EE07B680F2B0AD8002279684FF0FF3021
:10057C0000F00DF9064A7B681360002300E00123AC
:10058C0018460837BD4680BD68000020600000207A
:10059C005C00002080B400AF064B1B781A46064B5B
:1005AC001B681344044A136000BFBD465DF8047B0E
:1005BC00704700BF6000002084BA012080B400AFF7
:1005CC00034B1B681846BD465DF8047B704700BFA3
:1005DC0084BA012080B584B000AF7860FFF7EEFFDD
:1005EC00B8607B68FB60FB68B3F1FF3F05D0094B3B
:1005FC001B781A46FB681344FB6000BFFFF7DEFF55
:10060C000246BB68D21AFB689A42F7D300BF103778
:10061C00BD4680BD6000002080B485B000AF78601E
:10062C007B6803F00703FB600C4BDB68BB60BA68AC
:10063C004FF6FF031340BB60FB681A02BB68134301
:10064C0043F0BF6343F40033BB60044ABB68D36020
:10065C0000BF1437BD465DF8047B704700ED00E029
:10066C0080B400AF044BDB681B0A03F00703184689
:10067C00BD465DF8047B704700ED00E080B483B0AC
:10068C0000AF03463960FB7197F90730002B0BDA8A
:10069C000D49FB7903F00F03043B3A68D2B2120107
:1006AC00D2B20B441A7609E0084997F907303A6838
:1006BC00D2B21201D2B20B4483F8002300BF0C3724
:1006CC00BD465DF8047B704700ED00E000E100E002
:1006DC0080B489B000AFF860B9607A60FB6803F051
:1006EC000703FB61FB69C3F10703042B28BF042339
:1006FC00BB61FB690433062B02D9FB69033B00E0A9
:10070C0000237B610122BB6902FA03F35A1EBB680A
:10071C001A407B699A4001217B6901FA03F3591E47
:10072C007B680B40134318462437BD465DF8047BA9
:10073C007047000080B582B000AF78607B68013BE9
:10074C00B3F1807F01D301230FE00A4A7B68013BA0
:10075C0053600F214FF0FF30FFF790FF054B002245
:10076C009A60044B07221A60002318460837BD46CE
:10077C0080BD00BF10E000E080B582B000AF7860B3
:10078C007868FFF749FF00BF0837BD4680BD80B5CC
:10079C0086B000AF0346B9607A60FB7300237B61BF
:1007AC00FFF75EFF78617A68B9687869FFF790FFA8
:1007BC00024697F90F3011461846FFF75FFF00BF4E
:1007CC001837BD4680BD80B582B000AF78607868C0
:1007DC00FFF7B0FF034618460837BD4680BD80B50D
:1007EC0082B000AF78607B68002B01D1012311E04F
:1007FC007B685B79DBB2002B05D17B6800221A7118
:10080C00786804F0D9FF7B6802225A717B68012258
:10081C005A71002318460837BD4680BD80B582B09A
:10082C0000AF78607B68002B01D101233BE07B6833
:10083C0093F83930DBB2002B06D17B68002283F8A9
:10084C003820786800F033F87B68022283F839206E
:10085C007B681B687A681268126822F440317A68E7
:10086C0052680A431A607B681B687A681268526B7C
:10087C0022F007017A6892680A435A637B681A6807
:10088C007B681B681B6C23F47F5323F03F03796850
:10089C00C9680B4313647B680022DA637B6801220E
:1008AC0083F83920002318460837BD4680BD80B434
:1008BC0083B000AF786000BF0C37BD465DF8047B99
:1008CC00704780B584B000AF78607B681B685B684C
:1008DC00FB607B681B681B68BB60FB6803F0010353
:1008EC00002B26D0BB6803F48073002B21D07B68CF
:1008FC001B687A681268126822F480721A607B682E
:10090C00DB6B43F001027B68DA637B681B680122B6
:10091C009A607B68042283F839207B68002283F874
:10092C0038207B685B69002B03D07B685B69786837
:10093C009847FB6803F02003002B26D0BB6803F418
:10094C000053002B21D07B681B687A6812681268F0
:10095C0022F400521A607B681B6820229A607B6824
:10096C00DB6B43F002027B68DA637B68042283F85A
:10097C0039207B68002283F838207B685B69002B68
:10098C0003D07B685B6978689847FB6803F00803C1
:10099C00002B26D0BB6803F40063002B21D07B68AE
:1009AC001B687A681268126822F400621A607B680D
:1009BC001B6808229A607B68DB6B43F004027B683F
:1009CC00DA637B68042283F839207B68002283F881
:1009DC0038207B685B69002B03D07B685B69786887
:1009EC009847FB6803F00403002B13D0BB6803F497
:1009FC008063002B0ED07B681B687A6812681268C3
:100A0C0022F480621A607B681B6804229A60786802
:100A1C0000F053F8FB6803F00203002B24D0BB68F2
:100A2C0003F40073002B1FD07B681B687A68126874
:100A3C00126822F400721A607B681B6802229A60AA
:100A4C007B68DA6B7B68DA637B68012283F8392078
:100A5C007B68002283F838207B681B69002B03D04D
:100A6C007B681B6978689847FB6803F01003002BC0
:100A7C001FD0BB6803F48053002B1AD07B681B6813
:100A8C007A681268126822F480521A607B681B68BC
:100A9C0010229A607B68DA6B7B68DA637B680122D0
:100AAC0083F839207B68002283F83820786800F0BE
:100ABC000EF800BF1037BD4680BD80B483B000AFC8
:100ACC00786000BF0C37BD465DF8047B704780B47E
:100ADC0083B000AF786000BF0C37BD465DF8047B77
:100AEC007047000080B485B000AF786039603B6817
:100AFC001B0118337A681344BB600023FB607B68CE
:100B0C005B68B3F5403F7B6893F83830012B01D11B
:100B1C00022370E07B68012283F838207B68022274
:100B2C0083F83920BB685B680A2B03D0BB685B6811
:100B3C00092B0CD1BB685A68BB689B681B041A4311
:100B4C00BB68DB6803F07F431343FB600AE0BB68C0
:100B5C005A68BB689B681B041A43BB68DB681B069E
:100B6C001343FB603B68002B1ED17B681A687B68C3
:100B7C001B68596A234B0B40F9680B4353627B6823
:100B8C001B68BA6812689A61BB685B680A2B03D051
:100B9C00BB685B68092B25D17B681B68BA68D26877
:100BAC0022F07F429A621DE07B681A687B681B68A2
:100BBC00D969144B0B40F9680B43D3617B681B68F4
:100BCC00BA6812681A61BB685B680A2B03D0BB68F1
:100BDC005B68092B06D17B681B68BA68D26822F067
:100BEC007F421A627B68012283F839207B680022DD
:100BFC0083F83820002318461437BD465DF8047B73
:100C0C00704700BFF0FFFC0080B489B000AF786083
:100C1C00396000237B6100233B610023BB6100230F
:100C2C00FB6177E10122FB6902FA03F37B613B680C
:100C3C001A687B6913403B613A697B699A4240F0C0
:100C4C0066813B685B68022B03D03B685B68122BA8
:100C5C0023D1FB69DA087B68083253F82230BB6178
:100C6C00FB6903F007039B000F2202FA03F3DB433B
:100C7C00BA691340BB613B681A69FB6903F007034F
:100C8C009B0002FA03F3BA691343BB61FB69DA08F0
:100C9C007B680832B96943F822107B681B68BB611A
:100CAC00FB695B00032202FA03F3DB43BA691340CE
:100CBC00BB613B685B6803F00302FB695B0002FAF3
:100CCC0003F3BA691343BB617B68BA691A603B686A
:100CDC005B68012B0BD03B685B68022B07D03B6831
:100CEC005B68112B03D03B685B68122B30D17B689F
:100CFC009B68BB61FB695B00032202FA03F3DB43D5
:100D0C00BA691340BB613B68DA68FB695B0002FAA5
:100D1C0003F3BA691343BB617B68BA699A607B6859
:100D2C005B68BB610122FB6902FA03F3DB43BA691E
:100D3C001340BB613B685B681B0903F00102FB6954
:100D4C0002FA03F3BA691343BB617B68BA695A6050
:100D5C007B68DB68BB61FB695B00032202FA03F36F
:100D6C00DB43BA691340BB613B689A68FB695B0063
:100D7C0002FA03F3BA691343BB617B68BA69DA60A0
:100D8C003B685B6803F08053002B00F0C0800023AD
:100D9C00FB60654A644B5B6C43F480435364624B69
:100DAC005B6C03F48043FB60FB68604AFB699B0847
:100DBC00023352F82330BB61FB6903F003039B0041
:100DCC000F2202FA03F3DB43BA691340BB617B6861
:100DDC00574A934237D07B68564A934231D07B684E
:100DEC00554A93422BD07B68544A934225D07B685A
:100DFC00534A93421FD07B68524A934219D07B6866
:100E0C00514A934213D07B68504A93420DD07B6871
:100E1C004F4A934207D07B684E4A934201D1092333
:100E2C0012E00A2310E008230EE007230CE006234F
:100E3C000AE0052308E0042306E0032304E0022370
:100E4C0002E0012300E00023FA6902F003029200A1
:100E5C009340BA691343BB613449FB699B08023365
:100E6C00BA6941F823203C4B1B68BB613B69DB43EF
:100E7C00BA691340BB613B685B6803F48033002B99
:100E8C0003D0BA693B691343BB61334ABB69136036
:100E9C00314B5B68BB613B69DB43BA691340BB6197
:100EAC003B685B6803F40033002B03D0BA693B69E1
:100EBC001343BB61284ABB695360274B9B68BB61DA
:100ECC003B69DB43BA691340BB613B685B6803F465
:100EDC008013002B03D0BA693B691343BB611E4AD4
:100EEC00BB6993601C4BDB68BB613B69DB43BA6934
:100EFC001340BB613B685B6803F40013002B03D009
:100F0C00BA693B691343BB61134ABB69D360FB6984
:100F1C000133FB61FB690F2B7FF684AE00BF2437D6
:100F2C00BD465DF8047B7047003802400038014034
:100F3C00000002400004024000080240000C024085
:100F4C00001002400014024000180240001C024035
:100F5C000020024000240240003C014080B483B0D9
:100F6C0000AF78600B467B8013467B707B78002B40
:100F7C0003D07A887B689A6103E07B881A047B68CB
:100F8C009A6100BF0C37BD465DF8047B70470000CA
:100F9C0080B584B000AF78600023FB600023BB6099
:100FAC007B68002B01D10123C8E07B6893F83D30AE
:100FBC00DBB2002B06D17B68002283F83C207868DA
:100FCC0004F01CFC7B68242283F83D207B681B68A2
:100FDC007A681268126822F001021A6002F062F854
:100FEC00B860BB68574AA2FB03239B0CFB607B6871
:100FFC001B68FA685A607B681A687B685B685249A0
:10100C008B4202D8FB68013309E0FB684FF4967100
:10101C0001FB03F34D49A1FB03139B09013313623D
:10102C007B6819687B685B68474A934212D87B6877
:10103C005B685B00BA68B2FBF3F3C3F30B03032BDF
:10104C0006D97B685B685B00BA68B2FBF3F345E0DA
:10105C00042343E07B689B68002B0FD17B685A68A4
:10106C0013465B001344BA68B2FBF3F3C3F30B03F0
:10107C00002B0CBF01230023DBB210E07B685A6805
:10108C0013469B0013449A001344BA68B2FBF3F363
:10109C00C3F30B03002B0CBF01230023DBB2002B8B
:1010AC0001D001231AE07B689B68002B0AD17B6876
:1010BC005A6813465B001344BA68B2FBF3F343F46B
:1010CC0000430BE07B685A6813469B0013449A005C
:1010DC001344BA68B2FBF3F343F44043CB617B682F
:1010EC001B687A68D1697A68126A0A431A607B684D
:1010FC001B687A6811697A68D2680A439A607B68BF
:10110C001B687A6851697A6892690A43DA607B686D
:10111C001B687A681268126842F001021A607B68D8
:10112C0000221A647B68202283F83D207B68002211
:10113C001A637B68002283F83E2000231846103780
:10114C00BD4680BD83DE1B43A0860100D34D6210DB
:10115C0080B588B002AFF8607A601A460B467B8186
:10116C0013463B8100237B61FFF728FA7861FB680B
:10117C0093F83D30DBB2202B40F0EE807B6900937E
:10118C00192301227749F86800F06CFC0346002B08
:10119C0001D00223E1E0FB6893F83C30012B01D134
:1011AC000223DAE0FB68012283F83C20FB681B6811
:1011BC001B6803F00103012B07D0FB681B68FA685E
:1011CC001268126842F001021A60FB681B68FA6828
:1011DC001268126822F400621A60FB68212283F8FC
:1011EC003D20FB68102283F83E20FB6800221A6425
:1011FC00FB687A685A62FB683A895A85FB685A4AD6
:10120C00DA62FB685B8D9AB2FB681A8579897B6917
:10121C003A6AF86800F0DCFA0346002B0FD0FB6842
:10122C001B6C042B05D1FB68002283F83C200123A6
:10123C0093E0FB68002283F83C2003238DE000231D
:10124C003B61FB681B685B693B61FB681B689B69C6
:10125C003B613B6966E07A69396AF86800F0C1FC69
:10126C000346002B0FD0FB681B6C042B09D1FB68C9
:10127C001B68FA681268126842F400721A60012343
:10128C006BE0032369E0FB681A68FB685B6A581C17
:10129C00F96848621B781361FB685B8D9BB2013B5C
:1012AC009AB2FB685A85FB681B8D013B9AB2FB68AE
:1012BC001A85FB681B685B6903F00403042B19D1C6
:1012CC00FB681B8D002B15D0FB681A68FB685B6AEA
:1012DC00581CF96848621B781361FB685B8D9BB2E4
:1012EC00013B9AB2FB685A85FB681B8D013B9AB295
:1012FC00FB681A857A69396AF86800F0AFFC034616
:10130C00002B0FD0FB681B6C042B09D1FB681B68EE
:10131C00FA681268126842F400721A6001231CE029
:10132C0003231AE0FB681B8D002B94D1FB681B6810
:10133C00FA681268126842F400721A60FB68202284
:10134C0083F83D20FB68002283F83E20FB680022D6
:10135C0083F83C20002300E0022318461837BD46D2
:10136C0080BD00BF020010000000FFFF80B58CB0F4
:10137C0002AFF8607A601A460B467B8113463B81BC
:10138C0000237B62FFF71AF97862FB6893F83D3013
:10139C00DBB2202B40F015827B6A009319230122CB
:1013AC008549F86800F05EFB0346002B01D0022350
:1013BC0008E2FB6893F83C30012B01D1022301E2D7
:1013CC00FB68012283F83C20FB681B681B6803F058
:1013DC000103012B07D0FB681B68FA6812681268BE
:1013EC0042F001021A60FB681B68FA681268126806
:1013FC0022F400621A60FB68222283F83D20FB680D
:10140C00102283F83E20FB6800221A64FB687A687D
:10141C005A62FB683A895A85FB68684ADA62FB684B
:10142C005B8D9AB2FB681A8579897B6A3A6BF8688E
:10143C0000F050FA0346002B0FD0FB681B6C042BFA
:10144C0005D1FB68002283F83C200123BAE1FB683C
:10145C00002283F83C200323B4E1FB681B8D002B96
:10146C0013D100233B62FB681B685B693B62FB6822
:10147C001B689B693B623B6AFB681B68FA681268D5
:10148C00126842F400721A6088E1FB681B8D012B14
:10149C001BD1FB681B68FA681268126822F4806220
:1014AC001A600023FB61FB681B685B69FB61FB68CE
:1014BC001B689B69FB61FB69FB681B68FA68126817
:1014CC00126842F400721A6068E1FB681B8D022BF3
:1014DC001BD1FB681B68FA681268126822F48062E0
:1014EC001A60FB681B68FA681268126842F40062A2
:1014FC001A600023BB61FB681B685B69BB61FB68FE
:10150C001B689B69BB61BB6948E1FB681B68FA6897
:10151C001268126842F480621A6000237B61FB68D7
:10152C001B685B697B61FB681B689B697B617B69E2
:10153C0034E1FB681B8D032B00F2EB80FB681B8DE9
:10154C00012B27D17A6A396BF86800F0C4FB03468B
:10155C00002B07D0FB681B6C202B01D1032331E13E
:10156C0001232FE1FB685B6A591CFA685162FA6827
:10157C0012681269D2B21A70FB681B8D013B9AB2C9
:10158C00FB681A85FB685B8D9BB2013B9AB2FB68CA
:10159C005A8503E1FB681B8D022B4AD17B6A0093B1
:1015AC003B6B00220649F86800F05CFA0346002BFE
:1015BC0008D0032306E100BF020010000000FFFF6B
:1015CC0004000100FB681B68FA681268126842F498
:1015DC0000721A60FB685B6A591CFA685162FA68FF
:1015EC0012681269D2B21A70FB681B8D013B9AB259
:1015FC00FB681A85FB685B8D9BB2013B9AB2FB685A
:10160C005A85FB685B6A591CFA685162FA68126861
:10161C001269D2B21A70FB681B8D013B9AB2FB683F
:10162C001A85FB685B8D9BB2013B9AB2FB685A85AD
:10163C00B4E07B6A00933B6B00226449F86800F0CD
:10164C0011FA0346002B01D00323BBE0FB681B6897
:10165C00FA681268126822F480621A60FB685B6A8E
:10166C00591CFA685162FA6812681269D2B21A707F
:10167C00FB681B8D013B9AB2FB681A85FB685B8D7E
:10168C009BB2013B9AB2FB685A857B6A00933B6B19
:10169C0000224E49F86800F0E5F90346002B01D012
:1016AC0003238FE0FB681B68FA681268126842F427
:1016BC0000721A60FB685B6A591CFA685162FA681E
:1016CC0012681269D2B21A70FB681B8D013B9AB278
:1016DC00FB681A85FB685B8D9BB2013B9AB2FB6879
:1016EC005A85FB685B6A591CFA685162FA68126881
:1016FC001269D2B21A70FB681B8D013B9AB2FB685F
:10170C001A85FB685B8D9BB2013B9AB2FB685A85CC
:10171C0044E07A6A396BF86800F0DDFA0346002B76
:10172C0007D0FB681B6C202B01D103234AE001235B
:10173C0048E0FB685B6A591CFA685162FA681268E7
:10174C001269D2B21A70FB681B8D013B9AB2FB680E
:10175C001A85FB685B8D9BB2013B9AB2FB685A857C
:10176C00FB681B685B6903F00403042B16D1FB6850
:10177C005B6A591CFA685162FA6812681269D2B233
:10178C001A70FB681B8D013B9AB2FB681A85FB68CB
:10179C005B8D9BB2013B9AB2FB685A85FB681B8D33
:1017AC00002B7FF4C6AEFB68202283F83D20FB683B
:1017BC00002283F83E20FB68002283F83C200023A3
:1017CC0000E0022318462837BD4680BD0400010006
:1017DC0080B588B002AFF8607A603B600B467B81C5
:1017EC00FB68DB6A7B617B69042B06D07B69012B70
:1017FC0003D07B6913F5803F08D1FB681B68FA683E
:10180C001268126842F480721A600BE0FB681B6B62
:10181C00122B07D1FB681B68FA681268126842F435
:10182C0080721A603B6800937B6800224FF00111B4
:10183C00F86800F017F90346002B01D0032340E0B1
:10184C00FB681B69B3F5804F07D1FB681B687A896D
:10185C00D2B202F0FE021A6121E0FB681B687A89A1
:10186C00D211D2B202F00602D2B262F00F02D2B2A0
:10187C001A613B687A681549F86800F044F9034628
:10188C00002B07D0FB681B6C042B01D1012318E043
:10189C00032316E0FB681B687A89D2B21A613B6895
:1018AC007A680B49F86800F02EF90346002B07D034
:1018BC00FB681B6C042B01D1012302E0032300E025
:1018CC00002318461837BD4680BD00BF0800010034
:1018DC000200010080B588B002AFF8607A603B600E
:1018EC000B467B81FB68DB6A7B61FB681B68FA68D3
:1018FC001268126842F480621A607B69042B06D06D
:10190C007B69012B03D07B6913F5803F08D1FB6801
:10191C001B68FA681268126842F480721A600BE055
:10192C00FB681B6B112B07D1FB681B68FA681268EC
:10193C00126842F480721A603B6800937B68002244
:10194C004FF00111F86800F08DF80346002B01D020
:10195C0003237FE0FB681B69B3F5804F08D1FB685C
:10196C001B687A89D2B242F00102D2B21A615FE0EE
:10197C00FB681B687A89D211D2B202F00602D2B28D
:10198C0062F00F02D2B21A613B687A683349F86888
:10199C0000F0B9F80346002B07D0FB681B6C042B36
:1019AC0001D1012356E0032354E0FB681B687A89BC
:1019BC00D2B21A613B687A682949F86800F0A3F83A
:1019CC000346002B07D0FB681B6C042B01D10123B1
:1019DC0040E003233EE000233B61FB681B685B692E
:1019EC003B61FB681B689B693B613B69FB681B683F
:1019FC00FA681268126842F480721A603B680093AD
:101A0C007B6800224FF00111F86800F02BF80346B8
:101A1C00002B01D003231DE0FB681B687A89D211CF
:101A2C00D2B202F00602D2B262F00E02D2B21A6147
:101A3C003B687A680A49F86800F065F80346002BA1
:101A4C0007D0FB681B6C042B01D1012302E003239C
:101A5C0000E0002318461837BD4680BD0800010081
:101A6C000200010080B584B000AFF860B9603B6043
:101A7C001346FB711FE03B68B3F1FF3F1BD03B6883
:101A8C00002B07D0FEF79AFD0246BB69D21A3B68C1
:101A9C009A4210D9FB6800221A63FB68202283F853
:101AAC003D20FB68002283F83E20FB68002283F86F
:101ABC003C20032323E0BB681B0CDBB2012B0DD1B4
:101ACC00FB681B685B69DA43BB6813409BB2002B55
:101ADC000CBF01230023DBB21A460CE0FB681B6829
:101AEC009B69DA43BB6813409BB2002B0CBF0123EC
:101AFC000023DBB21A46FB799A42BCD0002318466D
:101B0C001037BD4680BD80B584B000AFF860B960B9
:101B1C007A603B6040E0FB681B685B6903F48063A0
:101B2C00B3F5806F1CD1FB681B68FA6812681268E9
:101B3C0042F400721A60FB681B686FF480625A6191
:101B4C00FB6804221A64FB6800221A63FB682022DB
:101B5C0083F83D20FB68002283F83C2001233CE005
:101B6C007B68B3F1FF3F17D07B68002B07D0FEF7E3
:101B7C0025FD02463B68D21A7B689A420CD9FB6859
:101B8C0000221A63FB68202283F83D20FB680022A8
:101B9C0083F83C20032320E0BB681B0CDBB2012B39
:101BAC000CD1FB681B685B69DA43BB6813409BB2C2
:101BBC00002B14BF01230023DBB20BE0FB681B6876
:101BCC009B69DA43BB6813409BB2002B14BF012303
:101BDC000023DBB2002B9ED1002318461037BD46E4
:101BEC0080BD80B584B000AFF860B9607A6029E040
:101BFC00F86800F0BAF80346002B01D0012329E065
:101C0C00BB68B3F1FF3F1DD0BB68002B07D0FEF7BC
:101C1C00D5FC02467B68D21ABB689A4212D9FB6883
:101C2C001B6C43F02002FB681A64FB6800221A63E9
:101C3C00FB68202283F83D20FB68002283F83C20BF
:101C4C00032307E0FB681B685B6903F08003802BB0
:101C5C00CED1002318461037BD4680BD80B584B068
:101C6C0000AFF860B9607A6029E0F86800F07DF8A0
:101C7C000346002B01D0012329E0BB68B3F1FF3FE1
:101C8C001DD0BB68002B07D0FEF798FC02467B6882
:101C9C00D21ABB689A4212D9FB681B6C43F0200223
:101CAC00FB681A64FB6800221A63FB68202283F825
:101CBC003D20FB68002283F83C20032307E0FB68EF
:101CCC001B685B6903F00403042BCED10023184678
:101CDC001037BD4680BD80B584B000AFF860B960E8
:101CEC007A6036E0FB681B685B6903F01003102B0D
:101CFC0014D1FB681B686FF010025A61FB6800225C
:101D0C001A64FB6800221A63FB68202283F83D20CA
:101D1C00FB68002283F83C20012322E0BB68002BE7
:101D2C0007D0FEF74BFC02467B68D21ABB689A427E
:101D3C000FD9FB681B6C43F02002FB681A64FB682C
:101D4C00202283F83D20FB68002283F83C200323EB
:101D5C0007E0FB681B685B6903F04003402BC1D1B3
:101D6C00002318461037BD4680BD80B483B000AF49
:101D7C0078607B681B685B6903F48063B3F5806FE4
:101D8C0014D17B681B686FF480625A617B680422F3
:101D9C001A647B6800221A637B68202283F83D203A
:101DAC007B68002283F83C20012300E000231846C6
:101DBC000C37BD465DF8047B704780B483B000AF30
:101DCC00786039607B6893F83D30DBB2202B29D1E9
:101DDC007B68242283F83D207B681B687A68126834
:101DEC00126822F001021A607B681B687A6812681C
:101DFC00526A22F010025A627B681B687A68126879
:101E0C00516A3A680A435A627B681B687A6812689E
:101E1C00126842F001021A607B68202283F83D2090
:101E2C00002300E0022318460C37BD465DF8047B06
:101E3C00704780B485B000AF786039600023FB81B7
:101E4C007B6893F83D30DBB2202B2AD17B682422AF
:101E5C0083F83D207B681B687A681268126822F050
:101E6C0001021A607B681B685B6AFB81FB8923F0AB
:101E7C000F03FB813B689AB2FB891343FB817B68A0
:101E8C001B68FA895A627B681B687A681268126848
:101E9C0042F001021A607B68202283F83D20002367
:101EAC0000E0022318461437BD465DF8047B7047EA
:101EBC0080B584B000AF78600023FB600023BB606A
:101ECC007B68002B01D10123BFE07B6893F8A13024
:101EDC00DBB2002B06D17B68002283F8A020786847
:101EEC0000F0D2F87B68022283F8A1207B681B6883
:101EFC007A681268926922F070429A617B681B685A
:101F0C007A68126891697A6850687A6892681043A6
:101F1C007A68D26810437A68126902430A439A615C
:101F2C007B681A687B681B6899684A4B0B40936006
:101F3C007B685B691B04FB607B681B687A681268B2
:101F4C0091687A689069FA6802430A439A607B68E0
:101F5C001A687B681B68D9683E4B0B40D3607B6862
:101F6C00DB691B04FB607B681B687A681268D168AC
:101F7C007A68106AFA6802430A43DA607B681A6866
:101F8C007B681B681969334B0B4013617B685B6A78
:101F9C001B04FB607B681B687A68126811697A689D
:101FAC00906AFA6802430A431A617B681A687B6874
:101FBC001B685969274B0B4053617B68DB6A1B0418
:101FCC00FB607B681B687A68126851697A68106BD1
:101FDC00FA6802430A435A617B6893F835301B0256
:101FEC00FB607B6893F836301B04BB607B681B6816
:101FFC007A681268D26A02F07F42DA627B681B68E8
:10200C007A681268D16AB868FA680243786890F8FE
:10201C00340002430A43DA627B681B687A681268F0
:10202C00526B42F006025A637B681B687A6812682E
:10203C00926942F001029A617B680022C3F8A420E5
:10204C007B68012283F8A120002318461037BD4677
:10205C0080BD00BF00F800F080B582B000AF7860A2
:10206C00786800F01BF87B680022C3F8A4207B681A
:10207C00002283F8A1207B68002283F8A020002393
:10208C0018460837BD4680BD80B483B000AF786079
:10209C0000BF0C37BD465DF8047B704780B483B03D
:1020AC0000AF786000BF0C37BD465DF8047B70470D
:1020BC00B0B584B000AFF860B9607A60FB6893F893
:1020CC00A030012B01D102232CE0FB68012283F804
:1020DC00A020FB68022283F8A120FA687B683421D7
:1020EC0001FB03F3134403F13802BB6814461D468D
:1020FC000FCD0FC40FCD0FC40FCD0FC42B682360B1
:10210C007A68B968F86800F0F0F9FB681B6801227E
:10211C005A62FB68012283F8A120FB68002283F835
:10212C00A020002318461037BD46B0BD80B485B042
:10213C0000AFF860B9607A60FB6893F8A030012BAF
:10214C0001D1022331E0FB68012283F8A020FB6857
:10215C00022283F8A120FB681B681A467B68DB010E
:10216C00134484331A46FB681B6819467B68DB01F1
:10217C000B448433DB6803F07F43D360FB681B683C
:10218C001A467B68DB01134484331A46BB68D36060
:10219C00FB681B6801225A62FB68012283F8A120AC
:1021AC00FB68002283F8A020002318461437BD4694
:1021BC005DF8047B704780B489B000AFF860B960FB
:1021CC007A603B600023FB610023BB6100237B61D1
:1021DC00FB6893F8A030012B01D1022359E0FB6876
:1021EC00012283F8A020FB68022283F8A12000239F
:1021FC00BB6141E0FA683B68342101FB03F31344F3
:10220C0048331B68062B14D1BA6913461B011344BF
:10221C001A06BB681B68DBB21A43BB681B6803F465
:10222C007F431A43BB681B6803F47F031343FB61B2
:10223C0010E0BB691A06BB681B68DBB21A43BB68AB
:10224C001B6803F47F431A43BB681B6803F47F03CA
:10225C001343FB61BB6804337B617B69BB60FB6828
:10226C001B681A463B68DB01134484331A46FB692E
:10227C001364BB690133BB61BA697B689A42B9D3F9
:10228C00FB68012283F8A120FB68002283F8A020C0
:10229C00002318462437BD465DF8047B704780B494
:1022AC0083B000AF786039607B6893F8A030012B65
:1022BC0001D1022327E07B68012283F8A0207B68F0
:1022CC00022283F8A1207B681B681A463B68DB015D
:1022DC00134484331A467B681B6819463B68DB0140
:1022EC000B4484331B6843F0020313607B681B6848
:1022FC0001225A627B68012283F8A1207B680022AC
:10230C0083F8A020002318460C37BD465DF8047BEB
:10231C00704780B483B000AF786039607B6893F805
:10232C00A030012B01D1022327E07B68012283F826
:10233C00A0207B68022283F8A1207B681B681A46C8
:10234C003B68DB01134484331A467B681B681946CF
:10235C003B68DB010B4484331B6823F002031360DE
:10236C007B681B6801225A627B68012283F8A120DA
:10237C007B68002283F8A020002318460C37BD464A
:10238C005DF8047B704780B586B000AFF860B9602B
:10239C007A603B60FB6893F8A030012B01D10223DB
:1023AC0033E0FB68012283F8A020FB68022283F84B
:1023BC00A1203B68342202FB03F33833FA68134440
:1023CC007B617B69BA681A607B699A6ABB681A443C
:1023DC007B695A607B697A689A607B69DA6A7B6888
:1023EC001A447B69DA603A687969F86800F07DF81C
:1023FC00FB681B6801225A62FB68012283F8A1204A
:10240C00FB68002283F8A020002318461837BD462D
:10241C0080BD80B586B000AFF860B9607A60FB68AB
:10242C0093F8A030012B01D1022324E0FB68012298
:10243C0083F8A020FB68022283F8A1207B68342259
:10244C0002FB03F33833FA6813447B617B69BA6887
:10245C005A617A687969F86800F047F8FB681B687C
:10246C0001225A62FB68012283F8A120FB6800223A
:10247C0083F8A020002318461837BD4680BD80B5D0
:10248C0086B000AFF860B9607A60FB6893F8A03052
:10249C00012B01D1022324E0FB68012283F8A02048
:1024AC00FB68022283F8A1207B68342202FB03F331
:1024BC003833FA6813447B617B69BA685A627A686C
:1024CC007969F86800F011F8FB681B6801225A6200
:1024DC00FB68012283F8A120FB68002283F8A0206E
:1024EC00002318461837BD4680BD80B489B000AFB4
:1024FC00F860B9607A600023FB610023BB610023A4
:10250C007B61BB685A68FB681B68DB681B0CC3F3F8
:10251C000B0313441B04FB61FB681B681A467B68A6
:10252C00DB01134484331A46FB681B6819467B682D
:10253C00DB010B4484335B6803F470435360FB682A
:10254C001B681A467B68DB01134484331946BB684D
:10255C001A68FB681B68DB681B0CC3F30B03134482
:10256C005A1CFB6913434B60BB68DA68FB681B6839
:10257C00DB68C3F30A0313441B04FB61FB681B6891
:10258C001A467B68DB01134484331A46FB681B68CC
:10259C0019467B68DB010B4484339B6803F470435E
:1025AC009360FB681B681A467B68DB011344843319
:1025BC001946BB689A68FB681B68DB68C3F30A039F
:1025CC0013445A1CFB6913438B60FB681B681A4647
:1025DC007B68DB01134484331A46FB681B6819467D
:1025EC007B68DB010B4484331B6923F00703136105
:1025FC00FB681B681A467B68DB01134484331A465C
:10260C00BB681B691361BB6893F831301B02FB611B
:10261C00BB6893F832301B04BB61BB689B691B061B
:10262C007B61FB681B681A467B68DB0113448433AF
:10263C009B69FB681B681A467B68DB011344843377
:10264C001A4600239361FB681B681A467B68DB0102
:10265C00134484331946BB6893F830301A46FB692F
:10266C001A43BB691A437B6913438B61FB681B6874
:10267C001A467B68DB01134484331A46FB681B68DB
:10268C0019467B68DB010B4484335B6923F0FF0341
:10269C005361FB681B681A467B68DB011344843367
:1026AC001A46BB685B695361FB681B681A467B68FA
:1026BC00DB01134484331A46FB681B6819467B689C
:1026CC00DB010B448433DB6923F4E06323F0070361
:1026DC00D361FB681B681A467B68DB0113448433A7
:1026EC001946BB68DA69BB681B6A1343CB61FB688C
:1026FC001B681A467B68DB01134484339B6AFB68B6
:10270C001B681A467B68DB01134484331A4600238A
:10271C009362FB681B681A467B68DB0113448433A5
:10272C001A46BB685B6A9362BB681B69002B02D1BB
:10273C000423FB611BE0BB681B69012B02D1032343
:10274C00FB6114E0BB681B69042B0BD0BB681B69D5
:10275C00022B07D0BB681B69032B03D0BB681B691A
:10276C00072B02D10223FB6101E00123FB61FB6813
:10277C001B681A467B68DB01134484331A46FB68DA
:10278C001B6819467B68DB010B448433DB6A03F05E
:10279C00E023D362FB681B681A467B68DB01134499
:1027AC0084331846BB689B6AFA6902FB03F31A046C
:1027BC00BB685968BB681B68CB1AF96901FB03F34A
:1027CC0003331343C362FB681B681A467B68DB0147
:1027DC00134484331A46FB681B6819467B68DB017B
:1027EC000B4484331B6B23F4FF6323F00703136345
:1027FC00FB681B681A467B68DB01134484331A465A
:10280C00BB68DB6A1363FB681B681A467B68DB01D9
:10281C00134484331A46FB681B6819467B68DB013A
:10282C000B4484331B6843F00103136000BF24374F
:10283C00BD465DF8047B704780B582B000AF0023C5
:10284C007B6000233B60204A1F4B1B6C43F0805382
:10285C0013641D4B1B6C03F080533B603B681B4B9C
:10286C0001221A60FDF7AAFE786009E0FDF7A6FECA
:10287C0002467B68D31AB3F57A7F01D903231FE094
:10288C00134B5B6803F48033B3F5803FEED1114BEF
:10289C0001221A60FDF792FE786009E0FDF78EFECA
:1028AC0002467B68D31AB3F57A7F01D9032307E07C
:1028BC00074B5B6803F40033B3F5003FEED1002304
:1028CC0018460837BD4680BD0038024040000E4215
:1028DC000070004044000E4280B586B000AF7860B6
:1028EC007B68002B01D101232DE27B681B6803F070
:1028FC000103002B75D0A34B9B6803F00C03042B36
:10290C000CD0A04B9B6803F00C03082B12D19D4BF1
:10291C005B6803F48003B3F5800F0BD1994B1B68F4
:10292C0003F40033002B5BD07B685B68002B57D122
:10293C00012308E27B685B68B3F5803F06D1914ABE
:10294C00904B1B6843F4803313601DE07B685B681D
:10295C00B3F5A02F0CD18B4A8A4B1B6843F4802310
:10296C001360884A874B1B6843F4803313600BE079
:10297C00844A844B1B6823F480331360814A814B57
:10298C001B6823F4802313607B685B68002B13D0D7
:10299C00FDF714FE386108E0FDF710FE02463B69B6
:1029AC00D31A642B01D90323CDE1764B1B6803F4B6
:1029BC000033002BF0D014E0FDF700FE386108E086
:1029CC00FDF7FCFD02463B69D31A642B01D90323A6
:1029DC00B9E16C4B1B6803F40033002BF0D100E021
:1029EC0000BF7B681B6803F00203002B63D0654BB0
:1029FC009B6803F00C03002B0BD0624B9B6803F01D
:102A0C000C03082B1CD15F4B5B6803F48003002B79
:102A1C0016D15C4B1B6803F00203002B05D07B68BE
:102A2C00DB68012B01D001238DE15649554B1B6806
:102A3C0023F0F8027B681B69DB0013430B603AE060
:102A4C007B68DB68002B20D04F4B01221A60FDF70E
:102A5C00B5FD386108E0FDF7B1FD02463B69D31ABC
:102A6C00022B01D903236EE1464B1B6803F00203D2
:102A7C00002BF0D04349434B1B6823F0F8027B68D2
:102A8C001B69DB0013430B6015E03F4B00221A60FF
:102A9C00FDF794FD386108E0FDF790FD02463B69B7
:102AAC00D31A022B01D903234DE1364B1B6803F0DB
:102ABC000203002BF0D17B681B6803F00803002B8A
:102ACC0030D07B685B69002B16D0304B01221A602A
:102ADC00FDF774FD386108E0FDF770FD02463B69B7
:102AEC00D31A022B01D903232DE1264B5B6F03F084
:102AFC000203002BF0D015E0244B00221A60FDF7E6
:102B0C005DFD386108E0FDF759FD02463B69D31ABB
:102B1C00022B01D9032316E11A4B5B6F03F002035E
:102B2C00002BF0D17B681B6803F00403002B00F032
:102B3C00A0800023FB75134B1B6C03F08053002B00
:102B4C000FD10023FB600F4A0E4B1B6C43F08053DC
:102B5C0013640C4B1B6C03F08053FB60FB6801236C
:102B6C00FB750B4B1B6803F48073002B21D1084AB7
:102B7C00074B1B6843F480731360FDF71FFD38612E
:102B8C0011E000BF0038024000004742800E47426F
:102B9C0000700040FDF712FD02463B69D31A022B70
:102BAC0001D90323CFE06A4B1B6803F48073002B1D
:102BBC00F0D07B689B68012B06D1664A654B1B6F76
:102BCC0043F0010313671CE07B689B68052B0CD159
:102BDC00604A604B1B6F43F0040313675D4A5D4B07
:102BEC001B6F43F0010313670BE05A4A594B1B6FE1
:102BFC0023F001031367574A564B1B6F23F0040352
:102C0C0013677B689B68002B15D0FDF7D7FC3861E8
:102C1C000AE0FDF7D3FC02463B69D31A41F2883235
:102C2C00934201D903238EE04A4B1B6F03F002033E
:102C3C00002BEED014E0FDF7C1FC38610AE0FDF783
:102C4C00BDFC02463B69D31A41F28832934201D94A
:102C5C00032378E03F4B1B6F03F00203002BEED1F4
:102C6C00FB7D012B05D13B4A3A4B1B6C23F0805367
:102C7C0013647B689B69002B64D0364B9B6803F014
:102C8C000C03082B5CD07B689B69022B41D1324B27
:102C9C0000221A60FDF792FC386108E0FDF78EFC0B
:102CAC0002463B69D31A022B01D903234BE0294B73
:102CBC001B6803F00073002BF0D126497B68DA699E
:102CCC007B681B6A1A437B685B6A9B011A437B68AF
:102CDC009B6A5B08013B1B041A437B68DB6A1B067F
:102CEC0013434B601C4B01221A60FDF767FC3861E3
:102CFC0008E0FDF763FC02463B69D31A022B01D9AD
:102D0C00032320E0134B1B6803F00073002BF0D05F
:102D1C0018E0114B00221A60FDF750FC386108E0F6
:102D2C00FDF74CFC02463B69D31A022B01D9032355
:102D3C0009E0084B1B6803F00073002BF0D101E095
:102D4C00012300E0002318461837BD4680BD00BFA4
:102D5C0000700040003802406000474280B584B0EB
:102D6C0000AF786039607B68002B01D10123CAE089
:102D7C00674B1B6803F00F023B689A420CD2644B02
:102D8C003A68D2B21A70624B1B6803F00F023B68B0
:102D9C009A4201D00123B6E07B681B6803F0020362
:102DAC00002B20D07B681B6803F00403002B05D09C
:102DBC00584A584B9B6843F4E05393607B681B68FC
:102DCC0003F00803002B05D0524A524B9B6843F486
:102DDC00604393604F494F4B9B6823F0F0027B6834
:102DEC009B6813438B607B681B6803F00103002B0B
:102DFC0044D07B685B68012B07D1464B1B6803F4FE
:102E0C000033002B19D101237DE07B685B68022B1A
:102E1C0003D07B685B68032B07D13E4B1B6803F028
:102E2C000073002B09D101236DE03A4B1B6803F0B2
:102E3C000203002B01D1012365E03649354B9B6819
:102E4C0023F003027B685B6813438B60FDF7B6FBD2
:102E5C00F8600AE0FDF7B2FB0246FB68D31A41F2B8
:102E6C008832934201D903234DE02A4B9B6803F02F
:102E7C000C027B685B689B009A42EBD1244B1B686D
:102E8C0003F00F023B689A420CD9214B3A68D2B23C
:102E9C001A701F4B1B6803F00F023B689A4201D05B
:102EAC00012330E07B681B6803F00403002B08D07F
:102EBC001849184B9B6823F4E0527B68DB6813437A
:102ECC008B607B681B6803F00803002B09D0114949
:102EDC00104B9B6823F460427B681B69DB00134337
:102EEC008B6000F01DF801460A4B9B681B0903F030
:102EFC000F03094AD35C21FA03F3084A136000203C
:102F0C00FDF718FB002318461037BD4680BD00BFE7
:102F1C00003C024000380240BC5B01086800002005
:102F2C002DE9F04F87B000AF0022FA6000227A61E1
:102F3C000022BA6000223A61514A926802F00C02F7
:102F4C00042A07D0082A08D0002A40F090804D4B64
:102F5C003B618FE04C4B3B618CE0494A526802F07C
:102F6C003F02FA60464A526802F48002002A23D0DB
:102F7C00434B5B689B094FF0000440F2FF114FF08C
:102F8C00000203EA010304EA02043F4A02FB04F1D3
:102F9C00002202FB03F20A443B49A3FB0101531834
:102FAC001946FB684FF000041A462346FDF718F942
:102FBC0003460C467B614CE0314A5268920911463B
:102FCC004FF0000240F2FF154FF0000605EA010534
:102FDC0006EA0206294632464FEA421B4BEAD16BFF
:102FEC004FEA411A51465A46AA46B34655465E46E2
:102FFC004D1B62EB060629463246940144EA916465
:10300C008B015B1A64EB02044FEAC40949EA537959
:10301C004FEAC30843464C4655465E46ED1846EB10
:10302C0004062B463446A2027A607A6842EA93522E
:10303C007A609B023B6097E8180018462146FB68B3
:10304C004FF000041A462346FDF7CAF803460C4617
:10305C007B610B4B5B681B0C03F0030301335B00C0
:10306C00BB607A69BB68B2FBF3F33B6102E0054BD2
:10307C003B6100BF3B6918461C37BD46BDE8F08F6D
:10308C00003802400024F40040787D0180B400AF89
:10309C00034B1B681846BD465DF8047B704700BFA8
:1030AC006800002080B500AFFFF7F0FF0146054B2C
:1030BC009B689B0A03F00703034AD35C21FA03F3D2
:1030CC00184680BD00380240CC5B010880B586B044
:1030DC0000AF786000237B6100233B617B681B6839
:1030EC0003F00103002B05D17B681B6803F002037E
:1030FC00002B61D0A34B00221A60FDF75FFA7861B8
:10310C0008E0FDF75BFA02467B69D31A022B01D962
:10311C00032377E19C4B1B6803F00063002BF0D179
:10312C007B681B6803F00103002B09D096497B6870
:10313C005B689A017B689B681B071343C1F884305A
:10314C007B681B6803F00203002B1FD08E4BD3F857
:10315C0084301B0F03F007033B618B497B685B6872
:10316C009A017B68DB681B061A433B691B071343F8
:10317C00C1F884308449844BD3F88C3023F01F027F
:10318C007B68DB69013B1343C1F88C307D4B01221A
:10319C001A60FDF713FA786108E0FDF70FFA0246A2
:1031AC007B69D31A022B01D903232BE1764B1B68C5
:1031BC0003F00063002BF0D07B681B6803F0040362
:1031CC00002B05D17B681B6803F00803002B79D01A
:1031DC006E4B00221A60FDF7F1F9786108E0FDF7FB
:1031EC00EDF902467B69D31A022B01D9032309E1BD
:1031FC00654B1B6803F00053B3F1005FEFD07B68A5
:10320C001B6803F00403002B20D05F4BD3F88830ED
:10321C001B0F03F007033B615B497B681B699A0139
:10322C007B685B691B061A433B691B071343C1F898
:10323C0088305549544BD3F88C3023F4F8527B68C2
:10324C001B6A013B1B021343C1F88C307B681B6863
:10325C0003F00803002B1ED04B4BD3F888301B0E09
:10326C0003F00F033B6148497B681B699A013B697A
:10327C001B061A437B689B691B071343C1F88830F4
:10328C004149414BD3F88C3023F440327B685B6A64
:10329C001343C1F88C303D4B01221A60FDF78EF9B7
:1032AC00786108E0FDF78AF902467B69D31A022B94
:1032BC0001D90323A6E0344B1B6803F00053B3F190
:1032CC00005FEFD17B681B6803F02003002B00F03C
:1032DC008D800023FB602C4A2B4B1B6C43F08053DE
:1032EC001364294B1B6C03F08053FB60FB68284A6A
:1032FC00274B1B6843F480731360FDF75FF978610B
:10330C0008E0FDF75BF902467B69D31A022B01D961
:10331C00032377E01E4B1B6803F48073002BF0D063
:10332C00194B1B6F03F440733B613B69002B39D085
:10333C007B689B6A03F440723B699A4232D0124B11
:10334C001B6F23F440733B61124B01221A60114B2B
:10335C0000221A600C4A3B6913670B4B1B6F03F07E
:10336C000103002B1ED0FDF729F9786114E0FDF75D
:10337C0025F902467B69D31A41F2883293420BD964
:10338C0003233FE068004742003802407000474288
:10339C0000700040400E47421C4B1B6F03F00203B1
:1033AC00002BE4D07B689B6A03F44073B3F5407F39
:1033BC000DD11649154B9B6823F4F8127B689B6A58
:1033CC0023F0704323F4407313438B6005E00F4AE2
:1033DC000E4B9B6823F4F81393600C490B4B1A6F3C
:1033EC007B689B6AC3F30B0313430B677B681B68F7
:1033FC0003F01003002B04D0054A7B6893F82C30A3
:10340C001360002318461837BD4680BD00380240B3
:10341C00E011474280B582B000AF786039607B68BC
:10342C00002B01D1012325E07B6893F82C30DBB213
:10343C00002B06D17B68002283F82D20786800F0E1
:10344C001DF87B68022283F82C207B681A687B6845
:10345C0004331946104600F028FA7B6818687B681C
:10346C005B681A46396800F093FA7B68012283F88E
:10347C002C20002318460837BD4680BD80B483B08D
:10348C0000AF786000BF0C37BD465DF8047B704719
:10349C0080B584B000AFF860B9607A60FB6893F8CF
:1034AC002C30DBB2022B01D1022318E0FB68022284
:1034BC0083F82C20FB681B687A68B968184600F002
:1034CC00E6FABB681B68022B04D1FB68052283F863
:1034DC002C2003E0FB68012283F82C2000231846E3
:1034EC001037BD4680BD80B582B000AF78603960C2
:1034FC007B6893F82C30DBB2022B01D102230EE057
:10350C007B68022283F82C207B681B68396818467C
:10351C0000F0F9FA7B68012283F82C20002318466E
:10352C000837BD4680BD80B58AB002AFF860B9607F
:10353C003B601346FB800023BB610023FB77FB68D9
:10354C0093F85030012B01D1022323E1FB680122B7
:10355C0083F85020FDF732F8B861FB6893F85130CE
:10356C00DBB2012B02D00223FB770AE1BB68002BF4
:10357C0002D0FB88002B02D10123FB7701E1FB6811
:10358C00032283F85120FB6800225A65FB68BA6855
:10359C001A63FB68FA889A86FB68FA88DA86FB68F5
:1035AC0000229A63FB6800229A87FB680022DA8764
:1035BC00FB6800225A64FB6800221A64FB689B6853
:1035CC00B3F5004F07D1FB681B68FA6812681268E4
:1035DC0042F480421A60FB681B681B6803F04003CE
:1035EC00402B07D0FB681B68FA681268126842F01F
:1035FC0040021A60FB68DB68B3F5006F47D1FB68CB
:10360C005B68002B04D0FB68DB8E9BB2012B38D19E
:10361C00FB681B68BA681288DA60BB680233BB604F
:10362C00FB68DB8E9BB2013B9AB2FB68DA8628E022
:10363C00FB681B689B6803F00203022B0FD1FB682D
:10364C001B68BA681288DA60BB680233BB60FB681F
:10365C00DB8E9BB2013B9AB2FB68DA8611E03B68C9
:10366C00002B0BD03B68B3F1FF3F0AD0FCF7A6FF51
:10367C000246BB69D21A3B689A4202D30323FB77FA
:10368C007FE0FB68DB8E9BB2002BD1D148E0FB685E
:10369C005B68002B04D0FB68DB8E9BB2012B3AD10C
:1036AC00FB681B680C33BA6812781A70BB6801335C
:1036BC00BB60FB68DB8E9BB2013B9AB2FB68DA867F
:1036CC0029E0FB681B689B6803F00203022B10D1F6
:1036DC00FB681B680C33BA6812781A70BB6801332C
:1036EC00BB60FB68DB8E9BB2013B9AB2FB68DA864F
:1036FC0011E03B68002B0BD03B68B3F1FF3F0AD0C5
:10370C00FCF75CFF0246BB69D21A3B689A4202D3B3
:10371C000323FB7735E0FB68DB8E9BB2002BD0D10B
:10372C00BB6900933B6801220221F86800F036F86F
:10373C000346002B02D00323FB7722E0BA693968D9
:10374C00F86800F094F80346002B05D00123FB77B2
:10375C00FB6820225A6514E0FB689B68002B0AD199
:10376C0000237B61FB681B68DB687B61FB681B6863
:10377C009B687B617B69FB685B6D002B01D001232F
:10378C00FB77FB68012283F85120FB68002283F849
:10379C005020FB7F18462037BD4680BD80B584B0D5
:1037AC0000AFF860B9607A603B604DE03B68B3F104
:1037BC00FF3F49D03B68002B07D0FCF7FFFE0246C9
:1037CC00BB69D21A3B689A423ED3FB681B68FA6805
:1037DC001268526822F0E0025A60FB685B68B3F52D
:1037EC00827F11D1FB689B68B3F5004F04D0FB6856
:1037FC009B68B3F5806F07D1FB681B68FA68126889
:10380C00126822F040021A60FB689B6AB3F5005FF5
:10381C0010D1FB681A68FB681B6819684DF6FF73BA
:10382C000B401360FB681B68FA681268126842F45C
:10383C0000521A60FB68012283F85120FB680022B9
:10384C0083F8502003230EE0FB681B689A68BB6862
:10385C001A40BB689A4201D1012200E000227B6829
:10386C009A42A3D1002318461037BD4680BD80B5BF
:10387C0086B002AFF860B9607A607B680093BB6871
:10388C0000228021F868FFF789FF0346002B07D040
:10389C00FB685B6D43F02002FB685A65032300E074
:1038AC00002318461037BD4680BD80B485B000AFEC
:1038BC00786039600023FB600023BB603B681B68A9
:1038CC00012B29D07B681B68FB60FB6823F4FF434A
:1038DC0023F07F03FB603B685A683B689B681A4384
:1038EC003B68DB681A433B681B691A433B685B699E
:1038FC001A433B689B691A433B68DB691A433B6874
:10390C001B6A1A433B685B6A1343FA681343FB60F8
:10391C007B68FA681A6034E07B681B68FB60FB68A4
:10392C0023F4F843FB603B68DA693B681B6A1A4373
:10393C003B685B6A1343FA681343FB607B685B6804
:10394C00BB60BB6823F4FF4323F07F03BB603B6881
:10395C005A683B689B681A433B68DB681A433B68B0
:10396C001B691A433B685B691A433B689B691343A9
:10397C00BA681343BB607B68FA681A607B68BA68E4
:10398C005A60002318461437BD465DF8047B704717
:10399C0080B487B000AFF860B9607A6000237B61B7
:1039AC0000233B617B68012B2ED0FB689B687B61FD
:1039BC007B6903F070437B61BB681B685A1EBB6854
:1039CC005B68013B1B011A43BB689B68013B1B02F4
:1039DC001A43BB68DB68013B1B031A43BB681B69BA
:1039EC00013B1B041A43BB685B69013B1B051A4373
:1039FC00BB689B69013B1B0613437A6913437B61CC
:103A0C00FB687A699A603BE0FB689B687B617B6929
:103A1C0023F4700323F470437B61BB68DB68013BC8
:103A2C001A03BB685B69013B1B0513437A6913439B
:103A3C007B61FB68DB683B613B6903F070433B6176
:103A4C00BB681B685A1EBB685B68013B1B011A43B1
:103A5C00BB689B68013B1B021A43BB681B69013B9B
:103A6C001B041A43BB689B69013B1B0613433A6951
:103A7C0013433B61FB687A699A60FB683A69DA60C8
:103A8C00002318461C37BD465DF8047B704780B593
:103A9C0086B000AFF860B9607A6000233B61002308
:103AAC007B61BB681A68BB685B681A43BB689B6820
:103ABC00013B5B011A43BB68DB685B0213433B6150
:103ACC003A69FB681A61FCF779FD786110E07B6854
:103ADC00B3F1FF3F0CD07B68002B07D0FCF76EFDD9
:103AEC0002467B69D21A7B689A4201D9032306E00D
:103AFC00FB689B6903F02003002BE8D100231846D8
:103B0C001837BD4680BD80B483B000AF7860396093
:103B1C007B685A693B685B001A437B685A610023D7
:103B2C0018460C37BD465DF8047B704780B400AF77
:103B3C00034B1B681846BD465DF8047B704700BFFD
:103B4C0088BA012080B485B000AF7860084B1A6841
:103B5C007B681344FB6000BF054B1B68FA68D31AE3
:103B6C00002BF9DC00BF1437BD465DF8047B7047B1
:103B7C0088BA012080B400AF00BFBD465DF8047B5D
:103B8C007047000080B500AF4FF4DC31024803F001
:103B9C00F7FC00BF80BD00BF5402002098B500AFF9
:103BAC00114803F051FE03F0FFFE4FF0FF3003F01D
:103BBC004DFE0E4803F070FE05F090FB0346963B5D
:103BCC00DA0F13445B101C4605F09EFB0346143BB6
:103BDC00DA0F13445B101A462146054804F0C2F96B
:103BEC00642004F00DFAFBE7800000FF4C1801087C
:103BFC00F812010880B58EB000AF01F061FA3B48B5
:103C0C00FEF72AFA394B3A4A1A60384B00225A60AE
:103C1C00364B00229A60354B0022DA60334B00227F
:103C2C001A61324B08225A61304B00229A612F4B99
:103C3C001D22DA612D4B03221A622C4B40F20D121D
:103C4C005A622A4B40F243129A62284B40F21712E6
:103C5C00DA62264B40F247121A63244B002283F897
:103C6C003420224B002283F83520204B002283F88D
:103C7C0036201E48FEF71CF90346002B01D001F03C
:103C8C006BFD00237B60F023BB600023FB604FF4D3
:103C9C00A0733B6101237B61FF23BB610023FB61AC
:103CAC004FF480633B6205237B624FF05043BB6251
:103CBC00F023FB624FF4A0733B63002387F834308E
:103CCC00002387F83530002387F836303B1D00225F
:103CDC0019460648FEF7ECF90346002B01D001F01B
:103CEC003BFD00BF3837BD4680BD00BF8CBA0120FC
:103CFC000068014080B588B000AF204B204A1A60A4
:103D0C001E4B01225A601D4B00229A601B4B042251
:103D1C00DA601A4B10221A61184B40225A61174B69
:103D2C004FF4C0729A61154B0022DA61134B4FF4B9
:103D3C0000621A62114B00225A62104B4FF400526F
:103D4C009A6202237B600723BB600423FB6007237A
:103D5C003B6103237B610223BB610223FB613B1D9F
:103D6C0019460648FFF756FB0346002B01D001F01D
:103D7C00F3FC00BF2037BD4680BD00BF74BB0120E3
:103D8C00400100A080B582B000AF00237B602B4BBC
:103D9C0001221A60294B08225A60284B01229A6092
:103DAC00264B0022DA604FF6FF7224492448FFF7B5
:103DBC006FFB0120FCF70EFC204B02221A601F4BFC
:103DCC0008225A601D4B01229A601C4B0022DA60BB
:103DDC004FF6FF7219491A48FFF75AFB174B03228B
:103DEC001A60164B08225A60144B04229A60134B2B
:103DFC000022DA604FF6FF7210491148FFF748FBBA
:103E0C004FF40C737B600D4B04221A600B4B082291
:103E1C005A600A4B01229A607B68084AD3604FF6BD
:103E2C00FF7206490648FFF733FB40F26A5104481B
:103E3C00FFF759FB00BF0837BD4680BD54BA0120BF
:103E4C0074BB012080B500AF204B214A1A601F4B78
:103E5C004FF400325A601D4B01229A601B4B00221A
:103E6C00DA601A4B00229A61184B0122DA61174B67
:103E7C0001221A62154B00225A62144B00229A62DC
:103E8C00124B0122DA62114B01221A630F4B0022F2
:103E9C005A630E48FCF7C2FC0346002B01D001F01C
:103EAC005BFC00210948FCF71DFE0346002B01D0EA
:103EBC0001F052FC01210548FCF714FE0346002BCF
:103ECC0001D001F049FC00BF80BD00BF34BB012014
:103EDC0000B0024080B586B002AFF860B9607A607D
:103EEC00FB70FA780023009313467A68B968F86877
:103EFC0000F0E3FA00BF1037BD4680BD80B586B038
:103F0C0002AFF860B9607A60FB70FA780023009316
:103F1C0013467A68B968F86800F0BCFA00BF10372D
:103F2C00BD4680BD80B586B002AFF860B9607A60DE
:103F3C00FB70FA780023009313467A68B968F86826
:103F4C0000F0BBFA00BF1037BD4680BD80B586B00F
:103F5C0002AFF860B9607A60FB70FA7800230093C6
:103F6C0013467A68B968F86800F094FA00BF103705
:103F7C00BD4680BD80B586B002AFF860B9607A608E
:103F8C00FB70FA780223009313467A68B968F868D4
:103F9C0000F093FA00BF1037BD4680BD80B586B0E7
:103FAC0002AFF860B9607A60FB70FA780223009374
:103FBC0013467A68B968F86800F06CFA00BF1037DD
:103FCC00BD4680BD80B586B002AFF860B9607A603E
:103FDC00FB70FA780323009313467A68B968F86883
:103FEC0000F06BFA00BF1037BD4680BD80B586B0BF
:103FFC0002AFF860B9607A60FB70FA780323009323
:10400C0013467A68B968F86800F044FA00BF1037B4
:10401C00BD4680BD80B586B002AFF860B9607A60ED
:10402C00FB70FA780423009313467A68B968F86831
:10403C0000F043FA00BF1037BD4680BD80B586B096
:10404C0002AFF860B9607A60FB70FA7804230093D1
:10405C0013467A68B968F86800F01CFA00BF10378C
:10406C00BD4680BD80B400AF084B1B78DBB2002B83
:10407C0006D000BF054B1B78DBB2002BFAD100E059
:10408C0000BFBD465DF8047B704700BF80BA0120BD
:10409C0080B483B000AF78607B68002B01D0002324
:1040AC00AFE05B4A7B6852F823305A4A93420CBF0C
:1040BC0001230023DAB256497B6851F82330564964
:1040CC008B420CBF01230023DBB21343DBB2194636
:1040DC004F4A7B6852F82330504A93420CBF01235D
:1040EC000023DBB20B43002B01D0002389E0484AAC
:1040FC007B6852F823304A4A93420CBF01230023B9
:10410C00DAB243497B6851F8233046498B420CBFE5
:10411C0001230023DBB21343DBB2002B01D00123BC
:10412C006FE03B4A7B6852F823303F4A93420CBF06
:10413C0001230023DAB236497B6851F823303B491E
:10414C008B420CBF01230023DBB21343DBB2002BE9
:10415C0001D0022355E02E4A7B6852F82330344AB2
:10416C00934201D103234CE0294A7B6852F8233057
:10417C00304A934201D1042343E0254A7B6852F82C
:10418C0023302D4A93420CBF01230023DAB220497D
:10419C007B6851F8233029498B420CBF0123002343
:1041AC00DBB21343DBB21946194A7B6852F8233051
:1041BC00234A93420CBF01230023DBB20B43144967
:1041CC007A6851F822201F498A420CBF0122002232
:1041DC00D2B21343002B01D0052312E00C4A7B68AA
:1041EC0052F82330184A934201D1062309E0084AB9
:1041FC007B6852F82330154A934201D1072300E023
:10420C00FEE718460C37BD465DF8047B704700BFCF
:10421C0064000020CC1301085C140108141401087C
:10422C0044140108FC130108E41301082C140108C0
:10423C009C130108B4130108241301083C13010852
:10424C00541301086C1301080C13010884130108A2
:10425C0080B483B000AF7860044B00221A7000BFAA
:10426C000C37BD465DF8047B704700BF80BA012057
:10427C0080B500AF0A4B0B4A1A610948FCF7CEFA1D
:10428C000346002B01D001F067FA01210448FCF72A
:10429C0029FC0346002B01D001F05EFA00BF80BD63
:1042AC0034BB01205D42000880B586B000AFF860D9
:1042BC00B9607A603B60FFF7D5FE164B01221A708D
:1042CC00F868FFF7E5FE7861134B4FF400721A6043
:1042DC00114ABB68D360104A7B68D3630E4A7B6A71
:1042EC0013610D4ABB6A13640B4A7B69D3610A4A9A
:1042FC003B681B04396A89B20B435364064A064B6C
:10430C001B6843F001031360FFF7ACFE00BF1837C6
:10431C00BD4680BD80BA012000B0024080B586B099
:10432C0000AFF860B9607A603B60FFF79BFE1C4BF6
:10433C0001221A70F868FFF7ABFE7861194B1A4A24
:10434C001A60184ABB68D360164A7B68D363154A57
:10435C007B685361134A7B6A1361124ABB6A13640C
:10436C00104ABB6A93610F4B0022DA610D4A7B69DC
:10437C0053620C4A7B6953630A4A3B681B04396AD3
:10438C0089B20B435364074A064B1B6843F0010385
:10439C001360FFF767FE00BF1837BD4680BD00BF36
:1043AC0080BA012000B002400002020080B586B045
:1043BC0000AFF860B9607A603B60FFF753FE154BB5
:1043CC0001221A70F868FFF763FE7861124B134AEA
:1043DC001A60114A7B6A93630F4ABB68D3630E4A17
:1043EC003B6A13640C4A7B6953630B4A7B681B045E
:1043FC00396889B20B435364074A074B1B6843F473
:10440C00007343F001031360FFF72CFE00BF183755
:10441C00BD4680BD80BA012000B0024000020300FE
:10442C0080B584B000AFF860B9607A603B60FFF78C
:10443C0019FE164B01221A70154B4FF481321A607B
:10444C00134AFB68D360124ABB68D363104B00223B
:10445C001A610F4B00221A640D4A7B68D3610C4A17
:10446C003B6853630A4ABB691B0443F00103536462
:10447C00074A074B1B6843F4007343F001031360B6
:10448C00FFF7F0FD00BF1037BD4680BD80BA01209C
:10449C0000B0024080B586B002AFF860B9607A60B7
:1044AC00FB707B6800930023BA69B968F868FFF762
:1044BC00B7FF00BF1037BD4680BD80B586B002AFD8
:1044CC00F860B9607A60FB707B680093BB6900226E
:1044DC00B968F868FFF7A4FF00BF1037BD4680BD70
:1044EC0080B483B000AF786012497A681346DB0061
:1044FC009B1A9B000B440C3319680E487A681346C0
:10450C00DB009B1A9B00034410331B6803FB01F177
:10451C0008487A681346DB009B1A9B00034414334B
:10452C001B6803FB01F318460C37BD465DF8047B92
:10453C00704700BF64BA0120F0B58DB004AFF860CD
:10454C00B9607A60FB681846FFF7CAFFF861264924
:10455C00FA681346DB009B1A9B000B441B68194638
:10456C00BB68FA6902FB03F30B44BB611E49FA6892
:10457C001346DB009B1A9B000B441B6819467B6897
:10458C00FA6902FB03F30B447B61F868BC697D6933
:10459C001549FA681346DB009B1A9B000B440C333D
:1045AC001B681E461049FA681346DB009B1A9B00D9
:1045BC000B4410331B681A4600230293002301930B
:1045CC00009233462A462146FFF76EFE0649FA68EA
:1045DC001346DB009B1A9B000B4408337A681A6065
:1045EC0000BF2437BD46F0BD64BA0120F0B58FB0D2
:1045FC0004AF78613961FA60BB607B691846FFF7DC
:10460C006FFF786242497A691346DB009B1A9B0064
:10461C000B441B681C463E497A691346DB009B1A07
:10462C009B000B440C331B68FA6802FB03F23B69DA
:10463C00D11837487A691346DB009B1A9B00034458
:10464C0014331B6803FB01F3184631497A6913468E
:10465C00DB009B1A9B000B4404331B681A467B6AD5
:10466C0003FB02F3034423443B6229497A69134652
:10467C00DB009B1A9B000B441B681C4624497A697F
:10468C001346DB009B1A9B000B440C331B683A6CE3
:10469C0002FB03F2BB68D1181D487A691346DB0094
:1046AC009B1A9B00034414331B6803FB01F318464D
:1046BC0017497A691346DB009B1A9B000B440433A1
:1046CC001B681A467B6A03FB02F303442344FB6119
:1046DC007C693D6AFE697B6C7B60B96C0C487A69BD
:1046EC001346DB009B1A9B0003440C331A687B6C4B
:1046FC00D31A1A4600230293019200917B6832462A
:10470C0029462046FFF7D0FD00BF2C37BD46F0BD33
:10471C0064BA0120F0B58BB002AFF860B9607A6072
:10472C003B6002F0BFFF0346012B10D10022192180
:10473C00F86805F047F8BB6B3A687968B86804F01C
:10474C00EBF8324A1921F86805F03CF859E03A6860
:10475C00BB68D31A0133FB61BA6B7B68D31A013384
:10476C00BB61FB681846FFF7BBFE78612849FA6805
:10477C001346DB009B1A9B000B441B681C46244908
:10478C00FA681346DB009B1A9B000B440C331B6826
:10479C007A6802FB03F2BB68D1181D48FA6813460D
:1047AC00DB009B1A9B00034414331B6803FB01F3CF
:1047BC0018461749FA681346DB009B1A9B000B44FA
:1047CC0008331B681A467B6903FB02F3034423443A
:1047DC003B61F8683C69FD69BE690D49FA6813468E
:1047EC00DB009B1A9B000B440C331A68FB69D31A31
:1047FC001A46FB6B0193009233462A462146FFF77B
:10480C00D5FD00BF2437BD46F0BD00BF21470008D1
:10481C0064BA012080B584B000AFF860B9607A60EA
:10482C003B60FFF71FFC154B01221A70144B4FF421
:10483C0081321A60124AFB68D360114ABB68D36399
:10484C000F4A7B6813610E4A3B6813640C4B0522BC
:10485C00DA610B4ABB6953630949FB691A043B6A69
:10486C0013434B64064A064B1B6843F00103136069
:10487C00FFF7F8FB00BF1037BD4680BD80BA0120A2
:10488C0000B0024080B584B000AFF860B9607A60C7
:10489C003B60FFF7E7FB1B4B01221A701A4B1B4ABC
:1048AC001A60194ABB68D360174AFB685361164AF1
:1048BC00FB68D363144ABB691361134AFB699361A8
:1048CC00114AFB691364104B0022DA610E4A3B6AF1
:1048DC0053620D4A3B6A53630B4A7B681B041946AF
:1048EC003B689BB20B435364074A074B1B6843F46A
:1048FC00007343F001031360FFF7B4FB00BF1037E4
:10490C00BD4680BD80BA012000B00240000202000A
:10491C0090B58FB004AFF860B9607A603B60FB680B
:10492C001846FFF7B5FB7862FB681846FFF7D8FD11
:10493C0038622C49FA681346DB009B1A9B000B4427
:10494C001B681C462749FA681346DB009B1A9B0020
:10495C000B440C331B687A6802FB03F2BB68D1185A
:10496C002048FA681346DB009B1A9B00034414335F
:10497C001B6803FB01F318461A49FA681346DB005F
:10498C009B1A9B000B4408331B681A463B6A03FBBB
:10499C0002F303442344FB613B6C002B00DA03332A
:1049AC009B101A46BB6BD31ABB610E49FA681346AF
:1049BC00DB009B1A9B000B440C331A68BB6BD31A9D
:1049CC007B61F8697B6A02937B690193BB690093F5
:1049DC00FB6BBA6B3968FFF755FF00BF2C37BD4630
:1049EC0090BD00BF64BA012080B58AB004AFF860F6
:1049FC00B9607A603B607B6A002B00DA03339B1052
:104A0C001A467B68D31A7B613B6A002B00DA0333AE
:104A1C009B101A467B68D31A3B61002302933B69B7
:104A2C0001937B6900933B687A68B968F868FFF773
:104A3C0029FF00BF1837BD4680BD0000B0B58CB053
:104A4C0004AFF860B9607A603B60FB681846FFF70A
:104A5C0047FDF8612C49FA681346DB009B1A9B0052
:104A6C000B441B681C462849FA681346DB009B1A4A
:104A7C009B000B440C331B687A6802FB03F2BB6887
:104A8C00D1182148FA681346DB009B1A9B0003449B
:104A9C0014331B6803FB01F318461B49FA681346D1
:104AAC00DB009B1A9B000B4408331B681A46FB69FE
:104ABC0003FB02F303442344BB61BB6BDA0F1344C7
:104ACC005B101A463B6BD31A7B610F49FA6813468D
:104ADC00DB009B1A9B000B440C331A683B6BD31AFC
:104AEC003B61F868BC693D6B7B6B7A6939690291F3
:104AFC00019200932B4622463968FFF7D5FB00BF85
:104B0C002037BD46B0BD00BF64BA0120B0B58CB033
:104B1C0004AFF860B9607A603B60FB681846FFF739
:104B2C00DFFCF8612C49FA681346DB009B1A9B00EA
:104B3C000B441B681C462849FA681346DB009B1A79
:104B4C009B000B440C331B687A6802FB03F2BB68B6
:104B5C00D1182148FA681346DB009B1A9B000344CA
:104B6C0014331B6803FB01F318461B49FA68134600
:104B7C00DB009B1A9B000B4408331B681A46FB692D
:104B8C0003FB02F303442344BB61BB6B002B00DA31
:104B9C0003339B101A463B6BD31A7B610E49FA68A0
:104BAC001346DB009B1A9B000B440C331A683B6BBF
:104BBC00D31A3B61F868BC693D6B7B6B7A693969C8
:104BCC000291019200932B4622463968FFF7A6FB0F
:104BDC0000BF2037BD46B0BD64BA012090B58FB080
:104BEC0004AFF860B9607A603B60FB681846FFF769
:104BFC0077FC78622C49FA681346DB009B1A9B0001
:104C0C000B441B681C462849FA681346DB009B1AA8
:104C1C009B000B440C331B687A6802FB03F2BB68E5
:104C2C00D1182148FA681346DB009B1A9B000344F9
:104C3C0014331B6803FB01F318461B49FA6813462F
:104C4C00DB009B1A9B000B4408331B681A467B6ADB
:104C5C0003FB02F3034423443B623A6CBB6BD31A51
:104C6C00FB611149FA681346DB009B1A9B000B444D
:104C7C000C331A68BB6BD31ABB61FB681846FFF781
:104C8C0007FA7861396AF869BC69BB6BFA6B0292F6
:104C9C0001937B690093234602463868FFF7BAFDFF
:104CAC0000BF2C37BD4690BD64BA012080B582B0E0
:104CBC0000AF002300225149514803F02BF800208B
:104CCC0004F0FCFA0346002B0CD0F0224FF4A07138
:104CDC00002004F0ABFDF0224FF4A071002004F092
:104CEC00D7FD0BE04FF4A072F021002004F09EFDE4
:104CFC004FF4A072F021002004F0CAFD414B0022B9
:104D0C001A6000237B6059E03F4A7B6852F82310FD
:104D1C003C487A681346DB009B1A9B00034418330B
:104D2C00196038497A681346DB009B1A9B000B44C8
:104D3C0004334FF0FF321A607B68184604F07EFA99
:104D4C000346D9102F487A681346DB009B1A9B0048
:104D5C000344143319607B682C4A2121184604F053
:104D6C0031FD7B682A4A2321184604F02BFD7B6811
:104D7C00284A1921184604F025FD7B68264A25216E
:104D8C00184604F01FFD7B68244A2421184604F0C1
:104D9C0019FD7B68224A2821184604F013FD786817
:104DAC0018497A681346DB009B1A9B000B441B685E
:104DBC00194604F055FD7B6801337B607B68002B42
:104DCC00A2D01849184801F063FA1849184801F0A4
:104DDC00D1FC1849184801F00DFB1849184801F08E
:104DEC00EFFC1849184801F025FB1849184803F046
:104DFC0071FB00BF0837BD4680BD00BFFC13010826
:104E0C001818010864BA0120640000204545000808
:104E1C00F945000821470008E94B0008494A0008F9
:104E2C00194B0008F93F0008D13F0008A93F0008C2
:104E3C00813F00084940000821400008593F000804
:104E4C00313F0008093F0008E13E00081D490008F9
:104E5C00F549000890B58BB000AFF860B9607A6086
:104E6C0000237B62BB68033B0B2B00F2FA8001A290
:104E7C0052F823F0B14E0008194F0008274F0008D4
:104E8C00394F0008C94F0008B34F00084B4F0008BA
:104E9C00175000086F5000082750000843500008B6
:104EAC00014F00087349FA681346DB009B1A9B00FC
:104EBC000B4419687B6858686E4CFA681346DB0023
:104ECC009B1A9B0023440C331B6803FB00F0694CBA
:104EDC00FA681346DB009B1A9B00234414331B68AF
:104EEC0003FB00F30B443B62FA68396A6248FDF736
:104EFC00C6FAB9E07B6819685E48FA681346DB00AD
:104F0C009B1A9B00034404331960ADE07968FB687D
:104F1C0001225948FDF74FF9A6E0574B1B68564A3A
:104F2C001268926942F001029A619DE0524B1B6833
:104F3C00514A1268926922F001029A6194E07B68EE
:104F4C001B68012B13D14C4B1B681A46FB68DB0109
:104F5C00134484331A46484B1B681946FB68DB0123
:104F6C000B4484331B6843F00103136012E0424B83
:104F7C001B681A46FB68DB01134484331A463E4B0C
:104F8C001B681946FB68DB010B4484331B6823F058
:104F9C0001031360384B1B68374A1268526A42F09F
:104FAC0001025A6260E07B681B6819467B685B688B
:104FBC001A46FB683048FDF7E6F955E007F1140294
:104FCC0007F118031946F86802F0F6FF7B681968B8
:104FDC002848FA681346DB009B1A9B0003440C33E9
:104FEC0019607B6859682348FA681346DB009B1AE2
:104FFC009B00034410331960BB6919467B691A4640
:10500C00FB681D48FDF7BFF92EE07B681B68FA684A
:10501C0019461948FDF7FDF926E07B681B68002B43
:10502C0004D0F9681448FDF73AF91DE0F968124804
:10503C00FDF76FF918E07B681B681B0CDAB27B6814
:10504C001B6803F47F431A437B681B681B0403F43F
:10505C007F031343FB61FA68F9690748FDF766F8AB
:10506C0002E04FF0FF337B627B6A18462C37BD465B
:10507C0090BD00BF64BA01208CBA012080B400AF8F
:10508C00044B1B680133034A136000BFBD465DF837
:10509C00047B704788BA012080B500AFFEF72AFE6A
:1050AC00FEF770FEFEF7A6FDFEF7CCFEFFF7E0F86C
:1050BC0000BF80BD80B500AF02F0EEFC00BF80BD2C
:1050CC0080B500AFCA2000F043F9C32000F06AF9A4
:1050DC00082000F067F9502000F064F9CF2000F0B0
:1050EC0037F9002000F05EF9C12000F05BF93020A8
:1050FC0000F058F9ED2000F02BF9642000F052F983
:10510C00032000F04FF9122000F04CF9812000F040
:10511C0049F9E82000F01CF9852000F043F9002043
:10512C0000F040F9782000F03DF9CB2000F010F9A8
:10513C00392000F037F92C2000F034F9002000F071
:10514C0031F9342000F02EF9022000F02BF9F72071
:10515C0000F0FEF8202000F025F9EA2000F0F8F825
:10516C00002000F01FF9002000F01CF9B12000F025
:10517C00EFF8002000F016F91B2000F013F9B62010
:10518C0000F0E6F80A2000F00DF9A22000F00AF970
:10519C00C02000F0DDF8102000F004F9C12000F070
:1051AC00D7F8102000F0FEF8C52000F0D1F845200B
:1051BC0000F0F8F8152000F0F5F8C72000F0C8F85A
:1051CC00902000F0EFF8362000F0C2F8C82000F074
:1051DC00E9F8F22000F0BCF8002000F0E3F8B02071
:1051EC0000F0B6F8C22000F0DDF8B62000F0B0F800
:1051FC000A2000F0D7F8A72000F0D4F8272000F000
:10520C00D1F8042000F0CEF82A2000F0A1F80020FC
:10521C0000F0C8F8002000F0C5F8002000F0C2F83B
:10522C00EF2000F0BFF82B2000F092F8002000F0E7
:10523C00B9F8002000F0B6F8012000F0B3F83F20D8
:10524C0000F0B0F8F62000F083F8012000F0AAF886
:10525C00002000F0A7F8062000F0A4F82C2000F0A5
:10526C0077F86420FBF7B6F9262000F071F80120DE
:10527C0000F098F8E02000F06BF80F2000F092F8A6
:10528C00292000F08FF8242000F08CF80C2000F07E
:10529C0089F80E2000F086F8092000F083F84E20E3
:1052AC0000F080F8782000F07DF83C2000F07AF8CF
:1052BC00092000F077F8132000F074F8052000F0B6
:1052CC0071F8172000F06EF8112000F06BF8002038
:1052DC0000F068F8E12000F03BF8002000F062F8E4
:1052EC00162000F05FF81B2000F05CF8042000F0A2
:1052FC0059F8112000F056F8072000F053F831202F
:10530C0000F050F8332000F04DF8422000F04AF83D
:10531C00052000F047F80C2000F044F80A2000F0BB
:10532C0041F8282000F03EF82F2000F03BF80F2029
:10533C0000F038F8112000F00BF86420FBF74AF964
:10534C00292000F005F82C2000F002F800BF80BDE9
:10535C0080B584B000AF0346FB71FB793B7300232F
:10536C007B7300224FF400510B48FBF7F7FD002232
:10537C0004210A48FBF7F2FD07F10C01642301221A
:10538C000748FEF7D0F8012204210448FBF7E6FD9C
:10539C0000BF1037BD4680BD000C02400008024023
:1053AC00FCBB012080B584B000AF0346FB71FB79D8
:1053BC003B7300237B7301224FF400510B48FBF726
:1053CC00CDFD002204210A48FBF7C8FD07F10C01B2
:1053DC00642301220748FEF7A6F8012204210448A1
:1053EC00FBF7BCFD00BF1037BD4680BD000C024072
:1053FC0000080240FCBB012080B58AB000AF4FF022
:10540C00E0437B624FF080433B62FBF771F800F0A6
:10541C0017F800F0F3F800F0B1F800F09BF800F08A
:10542C007BFB3B1D00221A605A609A60DA601A619D
:10543C00FFF732FEFFF73EFEFEF7B0FBFEE7000083
:10544C0080B5A0B000AF07F1500330220021184600
:10545C000BF037FF07F13C0300221A605A609A6088
:10546C00DA601A6107F10C033022002118460BF0A8
:10547C0028FF0023BB60354A344B1B6C43F0805330
:10548C001364324B1B6C03F08053BB60BB6800236E
:10549C007B602F4A2E4B1B6843F4404313602C4B0C
:1054AC001B6803F440437B607B6802233B6501234C
:1054BC00FB6510233B660223BB660023FB660823B7
:1054CC003B67B4237B670223BB670423FB6707F1AD
:1054DC0050031846FDF700FA0346002B01D000F0EC
:1054EC003BF9FDF7A9F90346002B01D000F034F984
:1054FC000F23FB6302233B6400237B644FF4A05314
:10550C00BB644FF48053FB6407F13C030521184640
:10551C00FDF724FC0346002B01D000F01DF90823F5
:10552C00FB603C23FB6102237B624FF480333B63C3
:10553C0007F10C031846FDF7C9FD0346002B01D0FB
:10554C0000F00AF900BF8037BD4680BD003802402C
:10555C000070004080B500AF064B074A1A60054842
:10556C00FBF73DF90346002B01D000F0F5F800BF26
:10557C0080BD00BF54BC01200030024080B500AF9C
:10558C001B4B1C4A1A601A4B1B4A5A60184B0022C0
:10559C009A60174B8222DA60154B4FF480421A61E5
:1055AC00134B00225A61124B00229A61104B0022BD
:1055BC00DA610F4B00221A620D48FBF7E9FC034637
:1055CC00002B01D000F0C8F800210948FCF7F5FBCE
:1055DC000346002B01D000F0BFF800210448FCF773
:1055EC0028FC0346002B01D000F0B6F800BF80BDAC
:1055FC00A8BB0120005C0040A086010080B58CB0E7
:10560C0000AF07F11C0300221A605A609A60DA603E
:10561C001A610023BB614C4A4B4B1B6B43F02003BC
:10562C001363494B1B6B03F02003BB61BB69002365
:10563C007B61454A444B1B6B43F004031363424BA1
:10564C001B6B03F004037B617B6900233B613E4AC7
:10565C003D4B1B6B43F0010313633B4B1B6B03F084
:10566C0001033B613B690023FB60374A364B1B6BE4
:10567C0043F002031363344B1B6B03F00203FB6018
:10568C00FB680023BB60304A2F4B1B6B43F040037D
:10569C0013632D4B1B6B03F04003BB60BB680023F3
:1056AC007B60294A284B1B6B43F010031363264B7A
:1056BC001B6B03F010037B607B6800233B60224A6A
:1056CC00214B1B6B43F0080313631F4B1B6B03F045
:1056DC0008033B603B68012204211C48FBF73EFC9D
:1056EC0000224FF440511A48FBF738FC0423FB61AD
:1056FC0001233B6200237B620223BB6207F11C0384
:10570C0019461248FBF780FA4FF44053FB61012312
:10571C003B6200237B620223BB6207F11C03194628
:10572C000B48FBF771FA4FF40043FB6100233B621B
:10573C0000237B6207F11C0319460648FBF764FA49
:10574C0000BF3037BD4680BD003802400008024023
:10575C00000C02400000024080B400AF00BFBD4608
:10576C005DF8047B7047000080B483B000AF002369
:10577C007B60104A0F4B5B6C43F4804353640D4BBE
:10578C005B6C03F480437B607B6800233B60094ABD
:10579C00084B1B6C43F080531364064B1B6C03F0DB
:1057AC0080533B603B6800BF0C37BD465DF8047B03
:1057BC00704700BF0038024080B485B000AF7860FD
:1057CC007B681B680B4A93420DD10023FB600A4A8D
:1057DC00094B1B6B43F480531363074B1B6B03F494
:1057EC008053FB60FB6800BF1437BD465DF8047B3B
:1057FC00704700BF003002400038024080B58AB0CC
:10580C0000AF786007F1140300221A605A609A60A6
:10581C00DA601A617B681B68294A93424BD10023DA
:10582C003B61284A274B1B6B43F004031363254B46
:10583C001B6B03F004033B613B690023FB60214AB3
:10584C00204B1B6B43F0010313631E4B1B6B03F0CC
:10585C000103FB60FB684FF400737B611223BB6197
:10586C000123FB6103233B6204237B6207F11403D6
:10587C0019461548FBF7C8F94FF480737B61122366
:10588C00BB610123FB6103233B6204237B6207F1B1
:10589C00140319460D48FBF7B7F90023BB60094AFE
:1058AC00084B1B6C43F400031364064B1B6C03F492
:1058BC000003BB60BB6800BF2837BD4680BD00BF7E
:1058CC00005C00400038024000080240000002402A
:1058DC0080B400AF00BFBD465DF8047B704780B458
:1058EC0000AFFEE780B400AFFEE780B400AFFEE788
:1058FC0080B400AFFEE780B400AF00BFBD465DF8DA
:10590C00047B704780B400AF00BFBD465DF8047BDC
:10591C00704780B400AF00BFBD465DF8047B704794
:10592C0080B500AFFAF736FEFFF7A8FB00BF80BDCD
:10593C0080B500AF0248FAF7C4FF00BF80BD00BFBE
:10594C0034BB012080B400AF164A164BD3F8883014
:10595C0043F47003C2F88830134A134B1B6843F0AE
:10596C0001031360104B00229A600F4A0E4B1B6808
:10597C0023F0847323F4803313600B4B0B4A5A606F
:10598C00094A094B1B6823F480231360064B002241
:10599C00DA60044B4FF000629A6000BFBD465DF8C0
:1059AC00047B704700ED00E000380240103000240A
:1059BC0080B584B002AF0023BB8003233B7102236C
:1059CC007B713A1D64230093022382210B48FBF761
:1059DC00BFFB1420FAF7FEFD00237B713A1D6423F4
:1059EC000093022382210548FBF7B2FB1420FAF73F
:1059FC00F1FD00BF0837BD4680BD00BFA8BB01202C
:105A0C0080B586B002AF03460A46FB711346BB71E4
:105A1C000023FB730023BB8104233B7307F10C02AF
:105A2C0064230093012382211748FBF791FB07F1B4
:105A3C000C0264230093012382211348FBF796FC8C
:105A4C003B7BFB73BB79002B09D097F90730DB4309
:105A5C005AB297F90F3013405BB2FB7303E0FA7B39
:105A6C00FB791343FB7304233B73FB7B7B7307F1C1
:105A7C000C0264230093022382210348FBF768FB8A
:105A8C0000BF1037BD4680BDA8BB012080B586B0D5
:105A9C0002AF03460A46FB711346BB710023FB732E
:105AAC000023BB8117237B7307F10C026423009343
:105ABC00012382211748FBF74BFB07F10C026423EF
:105ACC000093012382211348FBF750FC3B7BFB73B3
